:020000040800F2
:10000000106F00246D03000861B9000821920008F8
:1000100059B900080909000811D7000800000000BC
:1000200000000000000000000000000069C7000898
:10003000F10A00080000000069B9000871C7000853
:100040008703000887030008870300088703000868
:100050008703000887030008870300088703000858
:1000600087030008870300088703000811090008B8
:100070002109000831090008410900085109000858
:100080006109000871090008870300088703000858
:100090008703000887030008870300088703000818
:1000A0008703000887030008870300088703000808
:1000B00087030008870300088703000839920008B7
:1000C00029920008599200084992000861C6000868
:1000D00071C600088703000887030008870300082B
:1000E000F90A0008870300080000000087030008E1
:1000F00087030008870300088703000887030008B8
:1001000087030008870300088703000887030008A7
:10011000870300088703000801C900088703000857
:100120008109000891090008A10900088703000857
:100130008703000887030008870300088703000877
:1001400000000000000000000000000000000000AF
:100150008703000887030008B109000801D70008D9
:100160008703000887030008870300088703000847
:1001700087030008870300088703000800000000C9
:100180008703000887030008870300088703000827
:100190008703000887030008870300088703000817
:1001A0008703000887030008870300080000000099
:1001B00087030008870300088703000887030008F7
:1001C000870300088703000800000000000000000B
:1001D000000000000000000087030008000000008D
:1001E000000000000000000000000000000000000F
:1001F00000000000000000008703000887030008DB
:100200008703000887030008000000008703000838
:100210008703000887030008870300088703000896
:1002200087030008000000008703000800000000AA
:100230008703000887030008000000008703000808
:100240008703000887030008870300088703000866
:100250008703000887030008870300088703000856
:100260008703000887030008870300088703000846
:1002700087030008870300088703000800000000C8
:100280008703000887030008870300088703000826
:10029000000000008703000887030008000000003A
:1002A0000000000087030008870300088703000898
:1002B000F1D60008870300088703000887030008B9
:1002C00087030008870300088703000800F002F88E
:1002D00000F03CF80AA090E8000C82448344AAF1A4
:1002E0000107DA4501D100F031F8AFF2090EBAE8A2
:1002F0000F0013F0010F18BFFB1A43F0010318475A
:100300002CD700004CD70000103A24BF78C878C121
:10031000FAD8520724BF30C830C144BF04680C600B
:10032000704700000023002400250026103A28BF53
:1003300078C1FBD8520728BF30C148BF0B60704757
:100340001FB50DF02CFB1FBD10B510BD00F0DBF884
:100350001146FFF7F5FF0DF0CBFA00F0F9F803B402
:10036000FFF7F2FF03BC00F0C3F800000948804724
:1003700009480047FEE7FEE7FEE7FEE7FEE7FEE787
:10038000FEE7FEE7FEE7FEE704480549054A064B9F
:100390007047000051C80008CD020008100F00246B
:1003A000106F0024102F0024102F002453EA020C99
:1003B00000F069802DE9F04B4FF00006002B1FBFC5
:1003C000B3FA83F503FA05F424FA05F65E4012BF8A
:1003D0001643B2FA82F502FA05F4C5F120051EBFF4
:1003E00022FA05FC44EA0C04203556EA044C4FEA94
:1003F000144418BF641C4FF000084FF000099042ED
:1004000071EB030C39D3002919BFB1FA81F701FA56
:1004100007F6B0FA80F700FA07F6C7F120071EBF0B
:1004200020FA07FC46EA0C062037B6FBF4FCA7EBE3
:100430000507103F07F01F0BCBF120062CFA06F63C
:100440000CFA0BFB44BFB3460026202FA4BF5E4628
:100450004FF0000B5BEA060C08BF4FF0010B19EBE5
:100460000B0948EB0608ABFB027C06FB02CC0BFB3E
:1004700003CCC01B71EB0C01C1E70B4602464146A1
:100480004846BDE8F08B13B5084318BF4FF0FF3066
:100490000146AFF30080BDE81C4070474FF00002FA
:1004A00000B5134694469646203922BFA0E80C506A
:1004B000A0E80C50B1F12001BFF4F7AF090728BF45
:1004C000A0E80C5048BF0CC05DF804EB890028BFC1
:1004D00040F8042B08BF704748BF20F8022B11F0EA
:1004E000804F18BF00F8012B704770477047704766
:1004F00001491820ABBEFEE7260002000048704705
:100500001800002470477546FFF7F8FFAE46050057
:100510006946534620F00700854618B020B5FFF71E
:1005200033FFBDE820404FF000064FF000074FF0CA
:1005300000084FF0000BAC46ACE8C009ACE8C009BD
:10054000ACE8C009ACE8C00921F007018D4670474E
:1005500010B50446AFF300802046BDE81040FFF719
:10056000FEBE00000000000010B50446006842F224
:10057000001140F48070C4F20201884218D142F2A6
:100580000830C4F20200006810F4403F18D005F0B3
:10059000BBF96168B1F5803F05D0B1F5403F2BD084
:1005A000B1F5003F29D1090CB0FBF1F025E000BF07
:1005B00046F20830C5F60200006810F4403FE6D16C
:1005C0004FF40020002104F0CBF86168A1F58022EF
:1005D0004FEAB2420A2A10D8DFE802F00606060601
:1005E00006063C3E404244006FF0010202EA5141DF
:1005F000B0FBF1F001E000BF80084BF62141C0F2F2
:10060000BE01884206D82068816821F4407181606B
:1006100010BD00BF47F64101C0F27D11884207D8E6
:1006200020680122816862F30921816010BD00BF4A
:1006300021684FF28102C0F2FA229042886805D800
:10064000022262F30920886010BD00BF40F44070B0
:10065000886010BD0009D0E74009CEE78009CCE7EB
:10066000C009CAE7000AC8E72DE9F04784B040F2A4
:1006700000449246C5F60204894604F5C055074673
:100680004FF4805100222846984602F081FC4FF436
:1006900080510022204602F07BFC40F6F0062A2022
:1006A000C2F20046ADF802000DF1020101224FF046
:1006B000FF33304606F04CFE4FF4805101222046B5
:1006C00002F066FC4FF480510122284602F060FCE3
:1006D0004FF480510022204602F05AFC01A9012269
:1006E0004FF0FF333046ADF8047006F031FE4FF4A2
:1006F00080510122204602F04BFC4FF48051012230
:10070000284602F045FC4FF480510022204602F0BA
:100710003FFC0DF1060101224FF0FF333046ADF8EA
:1007200006A006F015FE4FF480510122204602F08B
:100730002FFC4FF480510022284602F029FC4FF490
:1007400080510022204602F023FC2B20ADF8080047
:1007500002A901224FF0FF33304606F0F9FD4FF4B5
:1007600080510122204602F013FC4FF480510122F7
:10077000284602F00DFC4FF480510022204602F082
:1007800007FC0DF10A0101224FF0FF333046ADF8AE
:100790000A9006F0DDFD4FF480510122204602F060
:1007A000F7FB4FF480510122284602F0F1FB4FF491
:1007B00080510022204602F0EBFB03A901224FF0FA
:1007C000FF333046ADF80C8006F0C2FD4FF4805187
:1007D0000122204602F0DCFB4FF480510022284623
:1007E00002F0D6FB4FF480510022204602F0D0FBED
:1007F0002C20ADF80E000DF10E0101224FF0FF3359
:10080000304606F0A5FD4FF480510122204602F04B
:10081000BFFB04B0BDE8F08780B541F600004FF49F
:100820008041C5F6020002F0ABFBB0FA80F040094F
:1008300080BD00000000000040F2B8710246C2F224
:1008400000410846114605F06BBE000000000000A4
:1008500080B540F2B870C2F2004005F075FE043871
:1008600018BF012080BD000080B500F019F80128F4
:1008700014D140F2B870C2F2004005F069FF0028C0
:1008800018BF80BD40F2B8704FF48041C2F2004002
:1008900005F0A2FC002818BF012080BD022080BD09
:1008A00080B582B001208DF80700FFF7B5FF18B1C1
:1008B0009DF8070002B080BD00208DF807009DF86C
:1008C000070002B080BD000080B513460A4601460D
:1008D00040F2B870C2F2004006F04EF9002818BF8E
:1008E000012080BD0000000080B513460A46014685
:1008F00040F2B870C2F2004006F0B2F9002818BF0A
:10090000012080BD00000000FEE7000000000000A4
:1009100040F22820C2F2004001F0AABA0000000014
:1009200040F2B010C2F2004001F0A2BA0000000094
:1009300040F21830C2F2004001F09ABA0000000004
:1009400040F2A020C2F2004001F092BA0000000084
:1009500040F20840C2F2004001F08ABA00000000F4
:1009600040F29030C2F2004001F082BA0000000074
:1009700040F27050C2F2004001F07ABA000000006C
:1009800040F28040C2F2004001F072BA0000000064
:1009900040F2E850C2F2004001F06ABA00000000E4
:1009A00040F23810C2F2004001F062BA00000000CC
:1009B00040F2F840C2F2004001F05ABA00000000D4
:1009C00040F20F42D0F800C0C4F20202944511DC9C
:1009D0006F22C4F20202944522DC3F22C4F20202DA
:1009E000944539DC1022C4F2020294455AD02822E0
:1009F00054E000BF40F26F42C4F2020294451BDC97
:100A000040F23F42C4F2020294452DDC40F2104213
:100A1000C4F20202944545D040F228423EE000BFB5
:100A20009F22C4F20202944528DC7022C4F2020222
:100A3000944537D0882231E040F29F42C4F202024E
:100A4000944523DC40F27042C4F20202944529D05E
:100A500040F2884222E000BF4022C4F202029445E4
:100A600020D058221AE000BF40F24042C4F20202F5
:100A7000944517D040F2584210E000BFA022C4F2C3
:100A8000020294450ED0B82208E000BF40F2B842FE
:100A9000C4F20202944505D040F2A042C4F2020220
:100AA000944519D16FF00F024AF6AB2352FA8CF23B
:100AB000CAF6AA23A2FB03310AA35F2AC1F30211DB
:100AC0005B5C40F2FF312CEA0101C36588BF043151
:100AD00081650846704700BF2CF0FF01816508461C
:100AE000704700BF00061016000610160000000038
:100AF00070470000000000004FF4805002F040B941
:100B0000EFF3108072B600BFFEE7000000000000A7
:100B100080B540F2B803C2F200435A7A002A1CBFE3
:100B2000012080BD93F809C08646002003F80C0020
:100B30005A7A03EB8202C2F804E05A7A1A4410721D
:100B400093F809C00CF101025A720CF130020A70DC
:100B500042F63A72A1F80120C87080BD0000000082
:100B600070B50A68002A024600681DD020F4F840DB
:100B700001F1080CD1E9073618434B6A304301F103
:100B80000C0E1843106052F8040F47F6FF7320EA6A
:100B900003054E6801F1100001F1140301F118047E
:100BA00045EA060114E000BF0E1D47F6FF739843A7
:100BB00001F1140C78CE034301F1180E1C4301F12E
:100BC0001C00254301F1200301F1240445EA06013C
:100BD000DCF80060DEF800503143006829431B68F0
:100BE0000843246840EA030100202143116070BDDE
:100BF0002DE9F043002A024652F8083F2ED040F675
:100C0000FF724FF20006CFF60F72CFF6FF761A4052
:100C1000CB684F6906EB03330026CFF6F0761A4314
:100C200006EB07573A43826050F80C2F8E68D1E9E3
:100C300000375D1E6FF00F0303EB071C6FF0FF031F
:100C40000C6903EB062E002302F07042CFF6FF730F
:100C500003EB044345EA0204024624E001F10809DB
:100C600003F07048D1E9003499E861026FF00F0792
:100C7000013B07EB04146FF0FF0707EB00204FF276
:100C80000007CFF6FF7743EA080307EB053C002790
:100C90000025CFF6FF77CFF6F0751C4307EB064E25
:100CA000044305EB0953886944EA0C01471E41EAF5
:100CB0000E0040EA0301002041EA07611160BDE82F
:100CC000F083000000000000B0B582B090F85C2016
:100CD000012A03D10221084602B0B0BD42F2083217
:100CE00000230193C4F202020093A2F54274036848
:100CF000A34227D14FF6006C4FF60055CFF6FF7C8C
:100D0000CFF6FF7552F80C40535923435B0719D4B3
:100D1000D1F800E01368BEF1000F23F440441DD069
:100D20004B6823431360535952F80C502B43DB0795
:100D300022D1136840F61F758968AB4341EA0E0162
:100D4000194316E0016E41F02001016601210022E5
:100D500080F85C20084602B0B0BD00BF1460515955
:100D600052F80C301943C90708D1116840F61F73B7
:100D7000994311600021EAE70021E8E70021E6E756
:100D80002DE9F04381B00022009290F85C20012A06
:100D900004D10221084601B0BDE8F08303680122B6
:100DA00080F85C209A68520700F1288246F2083CDD
:100DB0004FF6FF7EC5F6020CC0F20F0EACF542787E
:100DC0000C68434512D094FAA4F514EA0E0FB5FA54
:100DD00085F54FF0010608BFA50EA40E05F01F050E
:100DE00006FA05F5DE693543DD6100E0A40E4D68C5
:100DF0001F2204F01F04C5F3012605F01F05AA40B9
:100E000003EB8606AC40376B27EA020222433263CB
:100E10009A689C68E40844EA9202D20740F029816B
:100E20000A6807268D684345C2F34064C2F3045242
:100E300003EB840406FA02F6676905FA02F227EA70
:100E4000060642EA0602626110D041F20002C5F6CF
:100E50000042126802F07042B2F1805F6ED14C69BC
:100E6000DA680E2505EA52069CE000BF4FF60452F0
:100E70000C69CFF6FF72042C4D695CF8026067D1F3
:100E80004FF65852CFF6FF725CF802201A6E0E68C9
:100E9000C2F3846216EA0E04C6F3846596FAA6F6D7
:100EA000B6FA86F6374608BF2F46BA420CD11A6EFC
:100EB00022F000421A660A6802EA0E04C2F3846550
:100EC00092FAA2F2B2FA82F65A6E37465A6E002CA5
:100ED00008BF2F46C2F38462BA420CD15A6E22F088
:100EE00000425A660A6802EA0E04C2F3846592FA66
:100EF000A2F2B2FA82F69A6E37469A6E002C08BFBA
:100F00002F46C2F38462BA420CD19A6E22F000429C
:100F10009A660A6802EA0E04C2F3846592FAA2F2A3
:100F2000B2FA82F6DA6E002CDA6E08BF2E46C2F3F1
:100F30008462B24200F099809BE000BFDA684C699D
:100F4000DD68D2064FEA55052AD405F00E0629E0E1
:100F50000622ACF52A7702EA96020E6805FA02F23A
:100F600006F0F8452A4357F8246042F0004247F85B
:100F700024200A69CC6957F8225025F080752C434B
:100F800047F822400A6991F8204057F82250012C76
:100F900025F0007508BF05F1007547F8225068E09C
:100FA00005F008060F6903F16005042F18D12A68BF
:100FB0000C6802F0F842B2EB846F4FEA846439D0D7
:100FC0005A6E02F0F842A2423DD09A6E02F0F84208
:100FD000A24241D0DA6E02F0F842A24245D048E087
:100FE00004FA06F20C6855F8276004F0F84406F09D
:100FF00000462243324345F827200A6991F82140F0
:1010000055F82260012C26F0004608BF06F1004684
:1010100045F822600A7E0C691D69013A04F01F043C
:10102000B2FA82F225F4F0455209D202A2402A43D4
:101030001A611EE02A6822F000422A605A6E02F00D
:10104000F842A242C1D15A6E22F000425A669A6E0C
:1010500002F0F842A242BDD19A6E22F000429A6696
:10106000DA6E02F0F842A24203D1DA6E22F00042B8
:10107000DA669A68D2071BD143450C68CD6819D04F
:1010800005F01806D3F8C02004EA0E072EFA06F67B
:10109000BA4326403243C3F8C0200022C4F2FF7294
:1010A00095421FD0B4F1FF3F5BDD0021ABE000BFF4
:1010B0000021A8E04FF6A85905F01807CFF6FF79F0
:1010C00004EA0E022EFA07F75CF8096026EA02022B
:1010D00007EA040632434CF809200022C4F2FF72EA
:1010E0009542DFD114EA0E0F12D094FAA4F2B2FAAC
:1010F00082F2013202F01E0702F01F06092F10D8FB
:10110000012206EB4607B24042EA075715E000BF4E
:10111000012202EB946202F01E0702F01F060A2F62
:10112000EED3012206EB4607B2400026CFF620663A
:1011300006EB07573A4342F00077C7F340620725B2
:10114000C7F304578E6803EB8202BD40546906FA68
:1011500007F724EA05052F4357610C68B4F1FF3FF8
:10116000A3DC42F2000142F20016C4F20201C4F212
:10117000020601F5807201F542779342624608BF8C
:101180003A468B4208BF3A4643F48077B742156827
:101190002CD18A68D1F808111143C9072ED100213A
:1011A00005F0E076CCF252718C4208BF15F40001D4
:1011B00030D00021CCF221318C4208BF15F0807173
:1011C0002CD00021CCF684318C424FF000011AD192
:1011D00015F4800208BF434515D1DCF8001021F05A
:1011E000E071314341F4800157E000BF4FF60051F8
:1011F000CFF6FF715CF80110C907D0D0016E41F045
:10120000200101660121002280F85C20084601B01F
:10121000BDE8F083434505D00021F4E7434535D0D0
:101220000021F0E7DCF8001042F6635221F0E07193
:10123000C0F23E52314341F40001CCF8001040F2BC
:101240000801C2F2004109688909A1FB0212910953
:10125000022202EB41010091009919B30099013972
:101260000091009901B30099013900910099E9B109
:101270000099013900910099D1B10099013900918B
:10128000009900294FF00001E8D1BCE7DCF800101C
:1012900021F0E071314341F08071CCF80010002161
:1012A000B1E700BF0021AEE70021ACE70021AAE7CB
:1012B0000021A8E700000000B0B582B00446002875
:1012C0004FF00000019009D0206E58B1206881686D
:1012D000890012D48168C90019D54EE0012528463D
:1012E00002B0B0BD204600F063F90020606684F8CB
:1012F0005C00206881688900ECD54FF6C072816877
:10130000C5F6FF72114081608168C90035D44FF67F
:10131000C0718268C5F6FF7101F18051114042F63B
:10132000635201F18051816040F20801C0F23E52E7
:10133000C2F2004109688909A1FB0212012101EBF7
:10134000921101910199C1B101990139019101995C
:1013500000291FBF01990139019101991FBF00297F
:101360000199013901911CBF0199002905D001990A
:101370000139019101990029E6D18168C90009D498
:10138000216E012541F010012166616E41F00101DD
:10139000616600E000258168226E02F01002C1F350
:1013A00080018918216E07D041F0100001252066C8
:1013B000284602B0B0BD00BF21F4817146F2100C86
:1013C000023121668168C5F6020CC90724D142F2B8
:1013D000001240F48071C4F20202914242F2000114
:1013E000C4F2020140F0A0808A68D1F808311A43A3
:1013F000D20711D101F5807201F5427390421A466D
:1014000018BF0CF53E72884208BF1A46616813681F
:1014100023F47C1319431160617EE36BACF1100E71
:10142000704543EA413121D0A268114394F820204D
:10143000012A41EA024306D1616A0022CFF6FE7218
:1014400002EB41410B43A16A29B101F47871E26AD0
:10145000194341EA0203704516D04CF20302C168F9
:10146000CFF6F07211401943C1601FE0D4E9023297
:10147000082B41EA02015DD00C2B5FD01C2B61D1FF
:1014800010231943D2E700BF44F207025CF8041CA2
:10149000CFF6F072114019434CF8041CDCF8001030
:1014A000626B21F040611143CCF8001081688268C2
:1014B000D20842EA9101C90765D1217E70454FEA01
:1014C000813103D0226B114304E000BF94F838202F
:1014D00041EA4201C26844F203039A431143C160E6
:1014E00094F84410012919D14FF61E017045CFF62A
:1014F00000412DD0026902EA010C0021D4E9122337
:10150000CFF6FF7101EB02414CEA0302236D114358
:10151000626D1943114341F0010102E0016921F0BC
:101520000101016123E000BF5CF8082CD2073FF401
:1015300061AF71E70023194378E700BF082319431F
:1015400074E700BF182B18BF002319436EE700BFD4
:10155000DCF800201140D4E912231143226D194315
:10156000636D1143194341F00101CCF8001001698A
:10157000226C21F07041704541EA0201016102D004
:101580002046FEF7F1FF20682169026B012922F055
:101590000F0102D1E269013A114301630121206E7A
:1015A00061F301002066284602B0B0BD00000000D3
:1015B000F0B5B1B0044602A840F240460830B02170
:1015C000C4F20206FEF76AFF206806F5DE51884283
:1015D00002D031B0F0BD00BF4FF4002002904FF4B4
:1015E00000302A9002A80027039703F001FB08B1FE
:1015F000FFF786FA44F2D840C5F60200016841F0D0
:1016000020010160016801F02001019101998168C8
:1016100041F00101816080684FF0807100F00100AD
:10162000019001984FF0807006F07AF840F238157A
:101630000920C2F20045C5E901074FF48060286126
:101640004FF4006068614FF40050A8614FF480705F
:101650002E60C5E907072846EF606F6201F024F8A5
:1016600008B1FFF74DFAA565AC6331B0F0BD0000DD
:101670002DE9F041044601F093FC0CB3054694F8C3
:101680003500022820D140F20F472668C4F2020735
:1016900040F26F48BE42C4F202081DDC6F20C4F263
:1016A000020086422ADC3F20C4F20200864241DC6E
:1016B0001020C4F20200864263D028205CE000BF04
:1016C0000120BDE8F08100BF80206065012000217D
:1016D00084F83410BDE8F08146451BDC40F23F4001
:1016E000C4F2020086422DDC40F21040C4F2020037
:1016F000864246D040F228403EE000BF9F20C4F220
:101700000200864228DC7020C4F20200864238D0F3
:10171000882031E040F29F40C4F20200864223DC80
:1017200040F27040C4F2020086422AD040F2884063
:1017300022E000BF4020C4F20200864221D058209F
:101740001AE000BF40F24040C4F20200864218D0C6
:1017500040F2584010E000BFA020C4F202008642D0
:101760000FD0B82008E000BF40F2B840C4F2020039
:10177000864206D040F2A040C4F20200864240F009
:1017800099813146306820F01E0041F8140B6FF04B
:1017900080000A68464500EA020008601ADC9F20C3
:1017A000C4F20200864233DC5720C4F202008642B3
:1017B0005ADC1020C4F20200864200F097802820F4
:1017C000C4F20200864200F091804020C4F2020080
:1017D0008AE000BF45F22F40C5F6020086422DDCAC
:1017E00040F2B740C4F2020086424BDC40F2704047
:1017F000C4F20200864279D040F28840C4F202006E
:10180000864273D040F2A040C4F202006CE000BFF8
:1018100040F22740C4F20200864243DCA020C4F21A
:101820000200864262D0B820C4F2020086425DD037
:1018300040F21040C4F2020056E000BF45F26B4097
:10184000C5F6020086423FDC45F23040C5F6020094
:1018500086424BD045F24440C5F60200864245D050
:1018600045F258403EE000BF5820C4F202008642D4
:101870003CD07020C4F20200864237D08820C4F2E7
:10188000020031E040F2B840C4F2020086422DD09E
:1018900045F20840C5F60200864227D045F21C40BA
:1018A00020E000BF40F22840C4F2020086421DD072
:1018B00040F24040C4F20200864217D040F2584045
:1018C000C4F2020010E000BF45F26C40C5F6020011
:1018D00086420BD045F29440C5F60200864205D000
:1018E00045F28040C5F60200864204D1206E0168B0
:1018F00021F480710160306820F00100306000BF89
:101900003068C00710D001F04BFB401B0628F7D30E
:1019100020206065032084F835000120002184F830
:101920003410BDE8F08100BF2068B84210DC6F21A0
:10193000C4F2020188421DDC3F21C4F20201884248
:1019400034DC1021C4F20201884255D028214FE036
:1019500040451BDC40F23F41C4F2020188422DDCCD
:1019600040F21041C4F20201884245D040F22841C1
:101970003EE000BF9F21C4F20201884228DC7021B2
:10198000C4F20201884237D0882131E040F29F4101
:10199000C4F20201884223DC40F27041C4F2020129
:1019A000884229D040F2884122E000BF4021C4F2A1
:1019B0000201884220D058211AE000BF40F2404185
:1019C000C4F20201884217D040F2584110E000BF33
:1019D000A021C4F2020188420ED0B82108E000BF65
:1019E00040F2B841C4F20201884205D040F2A04161
:1019F000C4F20201884261D1D4E9161202F01F023A
:101A00003F2303FA02F28A60404561DC9F21C4F261
:101A10000201884214DC5721C4F20201884227DC0B
:101A20001021C4F20201884200F0A8802821C4F2EB
:101A30000201884200F0A2804021C4F202019BE032
:101A400040F22741C4F20201884221DCA021C4F205
:101A50000201884200F09280B821C4F2020188425B
:101A600000F08C8040F21041C4F2020184E000BF1B
:101A70005821C4F20201884200F080807021C4F233
:101A8000020188427AD08821C4F2020174E000BFCA
:101A900040F22841C4F2020188426FD040F2404136
:101AA000C4F20201884269D040F25841C4F20201F6
:101AB00062E000BF6FF00E0031466AE6D4E916120C
:101AC00002F01F02012303FA02F24A6040459DDD45
:101AD00045F22F41C5F60201884217DC40F2B741BA
:101AE000C4F20201884227DC40F27041C4F20201D4
:101AF000884243D040F28841C4F2020188423DD07E
:101B000040F2A041C4F2020136E000BF45F26B4151
:101B1000C5F6020188421FDC45F23041C5F60201DC
:101B200088422BD045F24441C5F60201884225D0B7
:101B300045F258411EE000BF40F2B841C4F2020134
:101B400088421BD045F20841C5F60201884215D0F3
:101B500045F21C410EE000BF45F26C41C5F60201A2
:101B600088420BD045F29441C5F60201884205D067
:101B700045F28041C5F6020188420BD1616EA26E2A
:101B8000E06E4A6030B1016821F480710160D4E9EF
:101B90001C014160012084F835000020002184F8F8
:101BA0003410BDE8F081000080B5D8B190F8351050
:101BB000022919D140F20F420168C4F20202914297
:101BC00016DC6F23C4F20203994227DC3F23C4F2E0
:101BD000020399423EDC1023C4F2020399425FD013
:101BE000282359E0012080BD80214165012080BD6E
:101BF00040F26F43C4F2020399421BDC40F23F43C0
:101C0000C4F2020399422DDC40F21043C4F20203F5
:101C1000994245D040F228433EE000BF9F23C4F2E2
:101C20000203994228DC7023C4F20203994237D0A0
:101C3000882331E040F29F43C4F20203994223DC3F
:101C400040F27043C4F20203994229D040F2884323
:101C500022E000BF4023C4F20203994220D058235F
:101C60001AE000BF40F24043C4F20203994217D089
:101C700040F2584310E000BFA023C4F2020399428F
:101C80000ED0B82308E000BF40F2B843C4F202030C
:101C9000994205D040F2A043C4F20203994275D1A3
:101CA00091424FF0040280F8352011DC6F20C4F21D
:101CB0000200814222DC3F20C4F20200814239DC72
:101CC0001020C4F20200814259D0282054E000BF05
:101CD00040F26F40C4F2020081421BDC40F23F4000
:101CE000C4F2020081422DDC40F21040C4F2020036
:101CF000814244D040F228403EE000BF9F20C4F221
:101D00000200814228DC7020C4F20200814236D0F9
:101D1000882031E040F29F40C4F20200814223DC7F
:101D200040F27040C4F20200814228D040F2884064
:101D300022E000BF4020C4F2020081421FD05820A0
:101D40001AE000BF40F24040C4F20200814216D0C7
:101D500040F2584010E000BFA020C4F202008142CF
:101D60000DD0B82008E000BF40F2B840C4F2020035
:101D7000814204D040F2A040C4F2020081420868CF
:101D800020F001000860002080BD00BF0A6822F03A
:101D90000E020A6045F25742C5F6020291420A68F5
:101DA00022F001020A600FDC45F22F42C5F6020262
:101DB000914219DC45F20842C5F60202914229D04F
:101DC00045F21C4222E000BF45F27F42C5F6020206
:101DD000914213DC45F25842C5F60202914219D0F5
:101DE00045F26C4212E000BF45F23042C5F60202F5
:101DF00091420FD045F2444208E000BF45F29442C0
:101E0000C5F60202914205D045F28042C5F60202B3
:101E100091421AD1D0E9181CD0E916E30A6822F4DD
:101E200080720A6003F01F01012202FA01F1CEF86C
:101E30000410816ECCF80410C16E31B10A6822F42E
:101E400080720A60D0E91C124A60012180F83510C6
:101E5000026D002180F834100AB190470021084635
:101E600080BD00000000000090F8350070470000C1
:101E70002DE9F04782B00021019140F208010446AB
:101E8000C2F2004148F2B512C1F64E32A56D0968A2
:101E900040F26F490068C4F20209A1FB02184845EC
:101EA0002E68296816DC9F21C4F2020188422DDCCD
:101EB0005721C4F20201884252DC1021C4F202010F
:101EC00088427BD02821C4F20201884276D040218A
:101ED00070E000BF45F22F42C5F60202904229DCB5
:101EE00040F2B742C4F20202904245DC40F2704137
:101EF000C4F20201884261D040F28841C4F202017A
:101F000088425BD040F2A04154E000BF40F227413C
:101F1000C4F2020188423FDCA021C4F202018842DF
:101F20004CD0B821C4F20201884247D040F210419F
:101F300040E000BF45F26B42C5F60202904275DCFC
:101F400045F23042C5F60202904200F0818045F22F
:101F50004442C5F6020290427AD045F2584273E0FC
:101F60005821C4F20201884228D07021C4F2020133
:101F7000884223D088211DE040F2B842C4F2020218
:101F800090421BD045F20842C5F6020290425FD053
:101F900045F21C4258E000BF40F22841C4F2020161
:101FA00088420BD040F24041C4F20201884205D081
:101FB00040F25841C4F20201884261D1E16D082229
:101FC00001F01F0140F20F4A8A40C4F2020A324275
:101FD00000F0E98050454FF0040313DC6F27C4F292
:101FE0000207B8426CDC3F27C4F20207B84200F394
:101FF000A7801027C4F20207B84200F0C880282743
:10200000C0E000BF484567DC40F23F47C4F202072A
:10201000B84200F39D8040F21047C4F20207B84274
:1020200000F0B58040F22847ACE000BF45F26C42BA
:10203000C5F6020290420BD045F28042C5F602027C
:10204000904205D045F29442C5F60202904217D163
:102050000268E36D570703F01F0315D504279F405F
:1020600017EA010610D011046F6045D4910603D41D
:10207000016821F004010160216C002940F0F68222
:1020800002B0BDE8F08700BF97073DD502279F400B
:1020900017EA010638D011046F6000F1ED82910655
:1020A00009D4016821F00A010160012084F835009B
:1020B000002084F83400E16B002940F0D782DFE78C
:1020C0009F27C4F20207B8424CDC7027C4F2020713
:1020D000B8425CD0882755E040F29F47C4F202071F
:1020E000B84247DC40F27047C4F20207B8424ED013
:1020F00040F2884746E000BFD00300F1C382A16CE4
:10210000002940F0B382BBE71207B9D508229A40F4
:102110001140B5D0016821F00E010160012000FAE4
:1021200003F16960606584F835000020E16C84F893
:1021300034000029A4D02046884702B0BDE8F087CB
:102140004027C4F20207B84221D058271AE000BF46
:1021500040F24047C4F20207B84218D040F2584754
:1021600010E000BFA027C4F20207B8420FD0B82782
:1021700008E000BF40F2A047C4F20207B84206D010
:1021800040F2B847C4F20207B84218BF08230768F4
:102190001F4208D0036823F004030360AA60626D45
:1021A00042F00102626501228A4032426FD05045FE
:1021B00010DC6F23C4F2020398421DDC3F23C4F2FB
:1021C0000203984234DC1023C4F20203984256D032
:1021D00028234FE048451BDC40F23F43C4F2020392
:1021E00098422DDC40F21043C4F20203984246D0DC
:1021F00040F228433EE000BF9F23C4F2020398420E
:1022000028DC7023C4F20203984238D0882331E0DE
:1022100040F29F43C4F20203984223DC40F2704331
:10222000C4F2020398422AD040F2884322E000BF61
:102230004023C4F20203984221D058231AE000BF81
:1022400040F24043C4F20203984218D040F258438F
:1022500010E000BFA023C4F2020398420FD0B823BD
:1022600008E000BF40F2A043C4F20203984206D047
:1022700040F2B843C4F20203984240F00B82436933
:102280001B0604D5AA60626D42F002026265042258
:102290008A4032426FD0504510DC6F23C4F20203F3
:1022A00098421DDC3F23C4F20203984234DC102321
:1022B000C4F20203984256D028234FE048451BDC65
:1022C00040F23F43C4F2020398422DDC40F2104337
:1022D000C4F20203984246D040F228433EE000BFD9
:1022E0009F23C4F20203984228DC7023C4F2020345
:1022F000984238D0882331E040F29F43C4F2020371
:10230000984223DC40F27043C4F2020398422AD080
:1023100040F2884322E000BF4023C4F20203984207
:1023200021D058231AE000BF40F24043C4F2020318
:10233000984218D040F2584310E000BFA023C4F2E6
:10234000020398420FD0B82308E000BF40F2A04338
:10235000C4F20203984206D040F2B843C4F202032A
:10236000984240F09F8103689B0704D5AA60626D84
:1023700042F004026265102202FA01F1314200F0DB
:10238000818050454FF0080210DC6F23C4F2020335
:1023900098421DDC3F23C4F20203984234DC102330
:1023A000C4F20203984256D028234FE048451BDC74
:1023B00040F23F43C4F2020398422DDC40F2104346
:1023C000C4F20203984246D040F228433EE000BFE8
:1023D0009F23C4F20203984228DC7023C4F2020354
:1023E000984238D0882331E040F29F43C4F2020380
:1023F000984223DC40F27043C4F2020398422AD090
:1024000040F2884322E000BF4023C4F20203984216
:1024100021D058231AE000BF40F24043C4F2020327
:10242000984218D040F2584310E000BFA023C4F2F5
:10243000020398420FD0B82308E000BF40F2A04347
:10244000C4F20203984206D040F2B843C4F2020339
:10245000984218BF04220368134213D0A960016890
:102460004903016808D4C90508D4016821F00801AE
:102470000160216C21B905E008034FD4216C09B13A
:1024800020468847E06D00F01F01202000FA01F28D
:10249000324200F0AB8020681023504510DC6F27DB
:1024A000C4F20207B8421DDC3F27C4F20207B8425B
:1024B00038DC1027C4F20207B8425AD0282753E06C
:1024C00048451BDC40F23F47C4F20207B84231DC0A
:1024D00040F21047C4F20207B8424AD040F22847FF
:1024E00042E000BF9F27C4F20207B8422CDC7027ED
:1024F000C4F20207B8423CD0882735E040F29F473B
:10250000C4F20207B84227DC40F27047C4F2020767
:10251000B8422ED040F2884726E000BFA16C0029C7
:10252000AED1AFE74027C4F20207B84221D0582706
:102530001AE000BF40F24047C4F20207B84218D088
:1025400040F2584710E000BFA027C4F20207B8428B
:102550000FD0B82708E000BF40F2A047C4F202073E
:10256000B84206D040F2B847C4F20207B84218BFDA
:10257000022307681F4239D0AA6094F83520042A44
:1025800002681BD122F016020260426922F080022A
:102590004261226C0AB9A26C1AB1026822F00802E8
:1025A00002603F208840A860012084F83500216D3A
:1025B0000020002984F8340058D161E551030168F6
:1025C0000CD4C9050ED4016821F01001016001206E
:1025D00084F83500002084F8340003E0080301D4B7
:1025E000616C00E0E16B09B120468847606D00280E
:1025F0003FF446AD606DC00734D0042084F8350048
:1026000020684FEA9821026822F001020260019AD4
:10261000013201928A421AD80268D20717D0019A71
:10262000013201928A4212D80268D2070FD0019A71
:10263000013201928A420AD80268D20707D0019A71
:10264000013201928A4202D80268D207DFD10068C3
:10265000C0074FF0030008BF012084F835000020B8
:1026600084F83400E16C00293FF40AAD2046884725
:1026700002B0BDE8F08700BFD00307D4616C002929
:10268000F4D1FDE4216C0029F0D1F9E4E16B0029DB
:10269000ECD1F5E4026804228A4032427FF4FBADBB
:1026A00069E600BF026866E62DE9F04381B00446A2
:1026B00000F076FC002C00F0128140F26F480546D5
:1026C0002068C4F20208404516DC9F21C4F20201D2
:1026D00088422DDC5721C4F20201884254DC1021CB
:1026E000C4F20201884200F07E802821C4F2020177
:1026F000884278D0402171E045F22F41C5F60201B1
:10270000884229DC40F2B741C4F20201884247DC2A
:1027100040F27041C4F20201884264D040F2884124
:10272000C4F2020188425ED040F2A04156E000BFF0
:1027300040F22741C4F20201884241DCA021C4F2E8
:10274000020188424FD0B821C4F2020188424AD027
:1027500040F2104142E000BF45F26B41C5F6020174
:10276000884200F3C18045F23041C5F6020188423B
:1027700000F0CD8045F24441C5F60201884200F0E8
:10278000C68045F25841BDE05821C4F2020188429A
:1027900029D07021C4F20201884224D088211DE092
:1027A00040F2B841C4F2020188421CD045F208410F
:1027B000C5F60201884200F0AA8045F21C41A1E062
:1027C00040F22841C4F2020188420CD040F240415C
:1027D000C4F20201884206D040F25841C4F202011C
:1027E000884240F09782022184F83510002184F855
:1027F0003410016821F0010101600168C90708D0A7
:1028000000F0CEFB401B052864D820680168C9078A
:10281000F6D148F23F0204F108060168CFF61062D3
:102820001140D4F818C06CCE1143D4F82490194349
:10283000E3692943256A0E43B9F1040F46EA0C0601
:1028400043EA060343EA050303D1D4E90B653343A6
:102850002B43666843F48011A6F13F07A6F12905D2
:10286000042FA6F1470238BF0B46062DA6F14F0EE6
:1028700038BF0B46022A26F0030238BF0B46BEF1D2
:10288000040F38BF0B46742A08BF0B46B9F1040F7A
:102890000360416921F0070141EA090140F0F48039
:1028A000D4E90A53002B41EA050100F0ED80BCF5A4
:1028B000005F00F0CF80BCF1000F40F0D780022D08
:1028C00000F0D780012D00F0CB80002D00F0D180EA
:1028D000DAE000BF20206065032084F83500012085
:1028E00001B0BDE8F08300BF45F26C41C5F60201BE
:1028F00088420CD045F28041C5F60201884206D0DC
:1029000045F29441C5F60201884240F0038202215B
:1029100084F83510002184F834100168A268A2F10F
:102920008003E768B3FA83F3402A4FEA53134FEA70
:1029300083336FF3101108BF1023226941EAD701D6
:1029400067691943A36941EAD201E26941EAD70103
:1029500041EAD3014CF6CD4341EAD2014AF6F832BE
:10296000CAF2FD72276A0244CCF6CC43A2FB0323D1
:1029700041EA171101606FF0030000EA9300E0657F
:102980002046FEF71DF8E16D012201F01F0102FA59
:1029900001F141602068404540F3858045F22F41B8
:1029A000C5F60201884217DC40F2B741C4F20201C9
:1029B000884229DC40F27041C4F20201884200F0F2
:1029C000BC8040F28841C4F20201884200F0B58028
:1029D00040F2A041ACE000BF45F26B41C5F60201F8
:1029E000884223DC45F23041C5F60201884200F0FE
:1029F000A48045F24441C5F60201884200F09D8062
:102A000045F2584122E000BF40F2B841C4F2020151
:102A1000884200F0928045F20841C5F602018842E2
:102A200000F08B8045F21C4110E000BF45F26C4184
:102A3000C5F60201884200F0808045F29441C5F657
:102A40000201884200F0798045F28041C5F602011A
:102A500070E000BF032D17D8DFE805F00E0B0E0263
:102A6000A3F1C072B2FA82F2520904E0032D03D33B
:102A70000AD1C3F300623AB140206065012084F8B6
:102A8000350001B0BDE8F08341612046FDF798FFB5
:102A9000E16D3F2201F01F0102FA01F1816020681F
:102AA00040453FF77BAF9F21C4F20201884211DC11
:102AB0005721C4F20201884220DC1021C4F2020135
:102AC00088423AD02821C4F20201884235D0402100
:102AD0002EE000BF40F22741C4F20201884219DC17
:102AE000A021C4F20201884227D0B821C4F2020119
:102AF000884222D040F210411AE000BF5821C4F2AF
:102B00000201884219D07021C4F20201884214D017
:102B100088210DE040F22841C4F2020188420CD025
:102B200040F24041C4F20201884206D040F25841CE
:102B3000C4F20201884240F0E58045F2574C45F668
:102B4000FC0EC5F6020CC5F6020E604512DC45F21D
:102B50002F41C5F60201884220DC45F20841C5F646
:102B60000201884234D045F21C41C5F60201884278
:102B70002ED085E045F27F41C5F6020188421BDC7C
:102B800045F25841C5F60201884221D045F26C4118
:102B9000C5F6020188421BD072E000BF45F2304109
:102BA000C5F60201884213D045F24441C5F6020140
:102BB00088420DD064E000BF45F29441C5F60201A1
:102BC000884205D045F28041C5F60201884257D1BE
:102BD0006FF007014CF6CD4251FA80F1CCF6CC42B1
:102BE000A1FB0212AEF1FC05AEF17C061309A2684E
:102BF00003F01F01802A4FF0010205EB83052566D3
:102C000002FA01F26666A26602D10021616000E06C
:102C10006168CBB2013907292B60726016D85E1E3D
:102C2000082E19D260450EF1440219DC45F22F41FD
:102C3000C5F60201884245DC45F20841C5F60201AD
:102C4000884255D045F21C414EE000BF002060672D
:102C5000C4E91B0056E000BFD4E91B02616F4EE0DF
:102C600045F27F41C5F60201884235DC45F2584104
:102C7000C5F6020188423BD045F26C4134E000BF0A
:102C80006FF00F014AF6AB2251FA80F1CAF6AA2280
:102C9000A1FB021240F20F43C4F2020308251109FE
:102CA000984203F1AA060B4688BF05EB121340F6C3
:102CB0000005B042C4F2020505F1800628BF0B46AC
:102CC00095E700BF45F23041C5F6020188420FD0BA
:102CD00045F2444108E000BF45F28041C5F60201DB
:102CE000884205D045F29441C5F60201884213D1CD
:102CF00001210EEB8300B140E0662267616700238B
:102D00000360516000206065012184F8351001B036
:102D1000BDE8F0834020DEE540F60000C4F202008A
:102D200000F1FC0E00F5A072E2E7000000000000D8
:102D3000B0B5044600F034F940F200010546C2F295
:102D40000041621C097818BF0C4400BF00F028F94C
:102D5000401BA042FAD3B0BDB0F5805F18BF7047EA
:102D600080B50AF0D9FC40F290014FF47842C2F2EB
:102D7000004148888988BDE8804006F0CDBF00004A
:102D80008821C5F600010A68024208BF7047086042
:102D9000FFF7E2BF000000002DE9F04F85B00D689D
:102DA0000290002D00F0E68002988E4600F1264247
:102DB0000A2102F1FF7342F20042C5F6020200242A
:102DC00090424FEAB32208BF0921082A4FF00107B9
:102DD00038BF4FEAB32100264FF000080091CDF82C
:102DE0000CE00DE0DEF8005008F1010835FA07F0BC
:102DF00006F1020607F1010704F1040400F0BA80AD
:102E0000A7F1010A012000FA0AF315EA0309E9D043
:102E1000DEF804B00BF003056A1E012A22D80298DE
:102E20004FEA4801D0F808C00191032101FA06F2E7
:102E300003992CEA020CD1F80CE00EFA06F1DDF849
:102E40000CE041EA0C01816041686FEA020CCBF3AF
:102E5000001299430346019802FA0AF2114359609D
:102E60000CE000BF0320032D00FA06F0029B6FEA7E
:102E7000000C304602D13046032526E0D968DEF842
:102E8000082001EA0C018240022D41EA0201D960CA
:102E90001BD102466FF0030000EA5A010F201944CB
:102EA00004F01C0300FA03F51046D1F820E0039A61
:102EB0002EEA0505DDF80CE012699A40029B2A43D0
:102EC0000A62DEF804B00BF00305196805FA00F099
:102ED00001EA0C011BF4403F40EA010018603FF496
:102EE00081AF44F2F44140F20845C5F60201C5F64F
:102EF00000050F23086840F002000860086800F031
:102F0000020004902AF00300049904F00C014259D5
:102F10008B409A43009B03FA01F1114341514FF05A
:102F2000B0452868DEF8041040EA0902CB0258BF19
:102F300020EA09028B022A6040F20405C5F600056A
:102F4000286840EA090258BF20EA09028B032A6078
:102F5000D5F8800040EA090258BF20EA0902C903F7
:102F6000C5F88020E86F40EA090258BF20EA09024C
:102F7000EA6737E705B0BDE8F08F00000000000009
:102F80000069084018BF01207047000000000000E1
:102F9000002A08BF0904816170470000000000009A
:102FA00040F60870C2F20040006870470000000060
:102FB00090F84120202A03D190F84020012A01D125
:102FC00002207047242280F841200268136823F011
:102FD00001031360136823F48053136013681943CB
:102FE0001160116841F001011160202180F8411049
:102FF000002180F8401008467047000000000000E3
:1030000090F84120202A03D190F84020012A01D1D4
:1030100002207047242280F841200268136823F0C0
:1030200001031360136823F4706343EA0121116004
:10303000116841F001011160202180F84110002148
:1030400080F84010084670477047000000000000FC
:103050007047000000000000D0F800C0DCF8183015
:10306000DCF80020D90502F0800208D53AB1416CA5
:1030700041F0010141644FF48071CCF81C105905F6
:1030800008D53AB1416C41F0080141644FF48061C8
:10309000CCF81C10990508D53AB1416C41F00201F9
:1030A00041644FF40071CCF81C10416C11F00B0F0F
:1030B00008BF704706F04CB90268436B002B91695A
:1030C000126808BF704718477047000000000000F2
:1030D00010B310B5044690F8410028B9002084F8D8
:1030E0004000204600F078FA242084F8410094E85B
:1030F0000910E2680168012A21F00101016023F052
:1031000070610161816821F40041816006D14CF455
:10311000004181600AE000BF01207047022A4CF4A0
:103120000441816002D14FF400614160416804F1C3
:10313000100C41F0007141F400414160C16821F47C
:103140000041C1609CE80E10114341EA0321C160B7
:10315000216A41EA0C010160016841F0010101604E
:1031600000206064202184F84110206384F842002C
:1031700010BD0000000000007047000000000000CB
:103180002DE9F04F81B0044690F8410020280DD180
:10319000DDF82880B8F1000F0CD0DDF82CA0BAF1D2
:1031A000000F07D094F8400001280BD1022001B095
:1031B000BDE8F08F4FF400706064012001B0BDE8FD
:1031C000F08F00BF1D4617468946012084F8400055
:1031D000FFF7E6FE216806468A69120447D42220DA
:1031E00084F84100402084F84200E8B24FF0000B20
:1031F0006FF39F29C4F844B0C4F8248049EA004022
:10320000A4F82AA049F6000AC4F834B0CFF6004A60
:103210004A68DDF8308002EA0A021044324600F5BE
:10322000005048602046414606F02AFDA8B9012D0D
:1032300008D02068390A324681622046414606F0AD
:103240001FFD50B9F9B22068002243468162402137
:103250002046009606F05CFC10B384F840B00120D4
:1032600001B0BDE8F08F00BF88690004B7D5FFF753
:1032700097FE801B21681A28F6D388690004F3D5CD
:10328000606C40F020006064202084F84100002041
:1032900084F8420084F84000012001B0BDE8F08FBE
:1032A000608D40F2000BC0F2FF1BB0F5807F0BD3A6
:1032B00020680BF5105350F8041F01EA0A0141EA97
:1032C0000902FF210CE000BF618D2068CAB250F8EE
:1032D000043F03EA0A0349EA02421A430BF5923318
:1032E000FF270AF580651A430260218510E000BFC0
:1032F000618D20682185C9B250F8042F2A4049EA1F
:10330000014111434FF0007211430160608D98B389
:103310000421002220464346009606F0F9FB0028CF
:103320007FF44BAF2068616A406A0870218D606A43
:103330000130606201392185608D0904A0F101002E
:103340006085608DE2D10028E0D0802100222046F7
:103350004346009606F0DCFB00287FF42EAF608D1C
:10336000B0F5807FC4D3206827855A4650F8041FE3
:10337000294041EA0901C7E720464146324606F0A6
:103380003FFC00287FF419AF206820214EF600038F
:10339000C161CFF6006342681A40426084F8411070
:1033A000002084F8420084F8400001B0BDE8F08FAE
:1033B0002DE9F04F81B0044690F8410020280DD14E
:1033C000DDF82880B8F1000F0CD0DDF82CA0BAF1A0
:1033D000000F07D094F8400001280BD1022001B063
:1033E000BDE8F08F4FF400706064012001B0BDE8CB
:1033F000F08F00BF1D4617468946012084F8400023
:10340000FFF7CEFD216806468A69120449D42120BF
:1034100084F84100402084F84200E8B24FF0000BED
:103420006FF39F29C4F844B0C4F8248049EA0040EF
:10343000A4F82AA049F6004ACFF6004AC4F834B0EE
:103440004A68AAF580631A40DDF83080104432469D
:1034500040F0807040F4005048602046414606F03D
:103460000FFCA8B9012D08D02068390A32468162C4
:103470002046414606F004FC50B9F9B2206800220B
:103480004346816280212046009606F041FB08B346
:1034900084F840B0012001B0BDE8F08F88690004D5
:1034A000B5D5FFF77DFD801B21681A28F6D3886902
:1034B0000004F3D5606C40F020006064202084F8A4
:1034C0004100002084F8420084F84000012001B04F
:1034D000BDE8F08F608D0025C0F2FF15B0F5807F4C
:1034E0000AD320682B4650F8041F01EA0A0141EA7A
:1034F0000902FF210CE000BF618D2068CAB250F8BC
:10350000043F03EA0A0349EA02421A434FF00073F8
:10351000FF271A430260218511E000BF618D2068FA
:103520002185C9B250F8042F02EA0A0249EA014192
:1035300011434FF0007211430160608D80B320464B
:103540004146324606F09CFB00287FF44EAF606A8D
:10355000216810F8012B8A626062608D01386085F5
:10356000208D411E2185608D0904E6D10028E4D01C
:103570008021002220464346009606F0C9FA002822
:103580007FF433AF608DB0F5807FC7D32068278587
:103590002A4650F8041F01EA0A0141EA0901CAE774
:1035A00020464146324606F02BFB00287FF41DAF33
:1035B000206820214EF60003C161CFF60063426807
:1035C0001A40426084F84110002084F8420084F8D8
:1035D000400001B0BDE8F08F2DE9F047B6B00446D9
:1035E00002A8B8210025CDE93455CDE932553195F1
:1035F000FCF754FF45F600412068C4F20001884200
:1036000000F08C8045F60001C4F20001884200F011
:10361000D58045F20041C4F20001884240F0CB80E1
:103620000820029002A800260396229601F0E0FAF4
:1036300008B1FDF765FA44F2E04540F21008C5F61E
:10364000020531A9C4F20208286840F0020028608F
:10365000286800F00200019001984FF4407031900A
:103660001220CDE932060420359000203496C5F6AC
:10367000020000F58060FFF78FFBA8684FF48067B9
:1036800040F40010A860A86840F22825C2F2004566
:1036900000F4001001900198222068604020C5E9E4
:1036A00002062846C5F80080C5E90476C5E9066625
:1036B000C5E90866FEF7F8FF08B1FDF721FAA56332
:1036C00008F11800AC6340F2B015C2F20045286062
:1036D000212068600020C5E90200C5E90470C5E941
:1036E0000600C5E908002846FEF7DEFF08B1FDF731
:1036F00007FA1F2001210022E563AC6300F070F996
:103700001F2000F05DF920200121002200F068F95F
:10371000202000F055F936B0BDE8F087082002906F
:1037200002A80395229501F063FA08B1FDF7E8F9C4
:1037300044F2E0460024C5F60206C5F6020431ADA7
:103740004FF012083068294640F0010030603068C0
:103750004FF0000900F0010001900198306840F03E
:103760000400306030684FF0030A00F0040001905C
:1037700001984FF4807031902046CDF8C88004271E
:10378000CDF8CC90CDF8D0A03597FFF705FB31A947
:103790004FF40070359781E8010704F50060294671
:1037A000FFF7FAFAB06840F40000B060B06800F4C7
:1037B00000000190019836B0BDE8F0870820029023
:1037C00002A800260396229601F012FA08B1FDF72E
:1037D00097F944F2E04540F21008C5F6020531A918
:1037E000C4F20208286840F080002860286800F0D1
:1037F000800001900198302031901220CDE93206EE
:103800000420359000203496C5F6020000F5E05003
:10381000FFF7C2FAA8684FF4806740F48000A86000
:10382000A86840F21835C2F2004500F4800001900B
:10383000019808F130002860242068604020C5E924
:1038400002062846C5E90476C5E90666C5E90866A4
:10385000FEF72AFF08B1FDF753F9A56308F1480008
:10386000AC6340F2A025C2F20045286023206860C6
:103870000020C5E90200C5E90470C5E90600C5E9F4
:1038800008002846FEF710FF08B1FDF739F921209E
:1038900002210022E563AC6300F0A2F8212000F0D1
:1038A0008FF822200221002200F09AF8222000F056
:1038B00087F836B0BDE8F0877047000000000000D0
:1038C000704700000000000040F2000040F6087160
:1038D000C2F20040C2F2004100780A681044086059
:1038E000704700000000000080B5032000F0A8F839
:1038F00002F092F844F218414DF6E013C5F60201C9
:10390000C0F600030A68096801F00F01C2F3032240
:10391000595C9A5C01F01F0102F01F02D04040F296
:103920000C02C2F2004220FA01F1116040F20801DB
:10393000C2F200410860002000F00AF800281CBF15
:10394000012080BD00F02CF8002080BD00000000A8
:1039500070B540F20006C2F200463178E1B104468B
:1039600040F20800C2F200404FF47A72B2FBF1F16B
:103970000068B0FBF1F003F0DFFE0F2C4FF0010503
:1039800008D838B94FF0FF3000222146002500F05A
:1039900027F87460284670BD012070BD000000004B
:1039A00081B044F2F440C5F60200016841F0020122
:1039B0000160006800F002000090009801B07047BC
:1039C000002848BF704700F01F01012202FA01F1F0
:1039D0004EF200124009CEF2000242F82010704769
:1039E00070B54EF60C5C4FF0FF36CEF2000C00F1D5
:1039F0006045DCF80030C3F3022E8EF00703042B81
:103A000028BF0423BEF1030406FA03F321EA0301ED
:103A100000F00F0338BF0024043BB0F1FF3F6344C4
:103A200006FA04F003F10C0301FA04F1C8BF05F52E
:103A3000644322EA000008430001187070BD0000D2
:103A40004EF60C514FF6FF03CEF200010A681A4001
:103A500060F30A2242F0806040F0FD700860704719
:103A60002DE9F04F8DB04BF204490022C5F2002938
:103A70000392CDE90122049245F200030592C5F2BA
:103A80000023D0F800C0D9F80020BCEB030E02F0F0
:103A9000030718BF4FF0010E012F6BD101270197CB
:103AA00002F03007102F69D002F44077B7F5807F1D
:103AB00001D10127039702F4A02740F20108B7F5CE
:103AC000803FC0F2001861D19703474658BF4FF0BE
:103AD0000117049702F0A067B7F1807F5BD0D9F897
:103AE000042002F00307012F61D10227019702F0A1
:103AF0003007102F5FD002F44077B7F5807F01D1F7
:103B00000227039702F4A02740F2020AB7F5803F8C
:103B1000C0F2010A05D19503554648BF08F10105D9
:103B2000049502F0A065B5F1807F05D1920152465F
:103B300048BF08F10102059200250B95CDE9095512
:103B4000CDE9075559F8040C4FF40072D9F800601C
:103B5000C00704BF40F22222C0F20442F00705D0A1
:103B600086EA020080072FD401250795F0062ED49F
:103B70003AE000BF02F03007102F95D101270297DD
:103B800002F44077B7F5807F93D094E702F0A06706
:103B9000B7F1807FA3D19201424658BF4FF0011286
:103BA0000592D9F8042002F00307012F9DD002F0FE
:103BB0003007102F9FD10227029702F44077B7F504
:103BC000807F9DD09EE700BF0025F0060CD586EAD9
:103BD0000200800608D40123089306F44070B0F573
:103BE000407F09D106E000BF002306F44070B0F525
:103BF000407F01D101200990F0030DD586EA020033
:103C0000400309D4B00319D44FF0011BCDF828B0FC
:103C1000F00118D504E000BF4FF0000BF00112D501
:103C200086EA020040010ED4B00119D44FF001160B
:103C30000B96D9F80470F8070AD118E0CDF828805F
:103C4000C346F001ECD40026D9F80470F8070ED072
:103C500087EA020080070AD40225079507E000BF23
:103C6000CDF82C804646D9F80470F807F0D1F80654
:103C700005D587EA0200800601D40223089307F4E1
:103C80004070B0F5407F01D102200990F80308D5BB
:103C900087EA0200400304D4B8030FD4D346CDF81A
:103CA00028A0F80115D587EA0200400111D4B80117
:103CB0000CD45646CDF82CA00BE000BF08F1010B48
:103CC000CDF828B0F801EED403E000BF08F10106FA
:103CD0000B969A4645F20003C5F20023B046ACEBC2
:103CE00003021868C00701D1002304E01F6827F011
:103CF00001071F600123B2FA82F74AF20000C5F201
:103D000000200668F60704D00268023322F00102A0
:103D100002600EEB4E0201AC00937F0904EBC20679
:103D2000D6F808E009EB8E0050F8043C23F48073C9
:103D300040F8043C59F8040CC0072DD154F8322047
:103D400045F2000E002AC5F2002E5BD009EB82007E
:103D500050F8042C22F0010240F8042C72683AB1A9
:103D600009EB820050F8042C22F0100240F8042CD9
:103D7000F2683AB10120904359F8202022F48032B1
:103D800049F820203269EAB30120904359F82020F5
:103D900022F0807234E000BF45F2000E59F8040CA6
:103DA000C5F2002E20F00100F44549F8040C29D199
:103DB00009EB8500BAF1000F50F8042C42F0020222
:103DC00040F8042C07D009EB8A0050F8042C42F08C
:103DD000200240F8042CBBF1000F434608D001201C
:103DE00020EA0B0059F8202042F4802249F82020D4
:103DF00043B1012020EA080059F8202042F08062F7
:103E000049F8202007EB47004E6804EBC00554F842
:103E100030400868A0426A6812D19642174624D101
:103E2000C868EA68904219D108692A699042374601
:103E30001BD159F8040C40F0010049F8040C42E091
:103E40009642374611D08868AB68984203D0C8685C
:103E5000EB68984204D1174607E000BF374604E0FC
:103E600008692B69984217462DD109EB840050F858
:103E7000042C22F0010240F8042C3FB109EB87002A
:103E800050F8042C22F0100240F8042CA86809EB2A
:103E9000800050F8042C22F4807240F8042CEA6868
:103EA0003AB10120904359F8202022F4803249F899
:103EB00020202A693AB10120904359F8202022F0AD
:103EC000807249F8202088684FF44072F44509EB6D
:103ED000800050F8043C08BF4FF4807223F4407314
:103EE0001A4440F8042C4A6959F8040C531EC0F3D4
:103EF000074083420BD9002359F8040CCFF6FF7317
:103F000020F47F0003EB0242104349F8040C59F8F7
:103F1000040C0A68013AC00759F8223023F0030460
:103F20002AD10320F44508BF0120204349F822008C
:103F30004A6862B109EB82003022F44550F8043C33
:103F400008BF102223F020031A4340F8042CCA684B
:103F5000D00329D4009BCAB301204FF0A065904341
:103F6000F44509EB800459F8200020F0E06208BF16
:103F70004FF0807527E000BF44F0010049F82200AF
:103F8000486840B109EB8000012350F8042C63F32A
:103F9000051240F8042CC868C20329D4A8B34FF016
:103FA00080726FF0E06427E001204FF4A025904379
:103FB000F44509EB800459F8200020F4E02208BF02
:103FC0004FF48035009B42EA050020600969C80370
:103FD0002AD4C9B30120F44520EA01004FF0E06182
:103FE00059F8202022F0E06208BF4FF0407128E02D
:103FF0004FF480326FF4E024012323EA000059F8E3
:10400000203023401A4349F820200869C10323D4F3
:10401000009BC8B10121032221EA000059F82010B9
:1040200062F31A610EE000BF0120F44520EA0100AE
:104030004FF4E02159F8202008BF4FF4403122F41A
:10404000E022114449F82010D80712D1980718D45B
:1040500000200DB0BDE8F08F0121032221EA00000D
:1040600059F8201062F3124149F82010009BD8073C
:10407000ECD0DEF8000040F00100CEF80000980718
:10408000E6D54AF20001C5F20021086840F00100BF
:10409000086000200DB0BDE8F08F000000000000B7
:1040A000F0B581B00446FEF77BFF002C00F089805C
:1040B000054600206065216D11B101B0F0BD00BF63
:1040C000204600F081F8206841F28836A6654FF658
:1040D000F40ED4E903C263698168CFF6E00E0027CD
:1040E000CFF6FF7701EA0E0107EB024241EA0C012D
:1040F0006FF0FF0E676B11430EEB03223943E36948
:10410000114319438160C168226A21F4E0211143FF
:10411000C160216BA26B42EA01410161E16B416127
:104120000168626821F4F8510EEB0222114301602C
:10413000016A890609D500BFFEF732FF401BB04275
:1041400038D82068016A8906F6D4C168A268D4E923
:10415000097621F0FF01013FA3693943C160022BB9
:10416000016821F0400141EA02010160D0F8081124
:10417000E26A21F0A04141EA060141EA0201C0F8E9
:104180000811016841F00101016003D1816841F02B
:1041900002018160E068B0F1806F05D101202065E7
:1041A000002001B0F0BD00BF02202065002001B05A
:1041B000F0BD00BF4FF400702065606D40F001005D
:1041C0006065012001B0F0BD2DE9F047B6B00446AE
:1041D00002A82830902100253195CDE93455CDE94C
:1041E0003255FCF75BF945F200012068C5F2002169
:1041F000884203D036B0BDE8F08700BF4FF00070B2
:1042000002900520049085210395CDE90510CDE9A4
:10421000070080200B95CDE909052020159002A804
:1042200000F0E6FC08B1FCF76BFC44F2E04041F220
:104230000044C5F60200C5F6020431AD4FF0020994
:1042400050F80C1C4FF0030A41F4001140F80C1C0C
:1042500050F80C1C4FF00A0801F40011019101996B
:1042600050F80C1C41F4804140F80C1C50F80C1C18
:1042700001F4804101910199016841F04001016020
:10428000016801F0400101910199016841F02001AC
:104290000160016801F0200101910199016841F07C
:1042A000040101600068294600F0040001900198B3
:1042B000402031900120339004F58060CDF8C89003
:1042C000CDF8D0A0CDF8D480FEF766FD4FF4507045
:1042D0002946CDE9310920460026CDE9336ACDF8DB
:1042E000D480FEF759FD4FF480602946CDE93109AD
:1042F00020460927CDE9336A3597FEF74DFD0420A6
:104300002946CDE93109A4F540603597CDE9336AF6
:10431000FEF742FD36B0BDE8F08700000000000067
:1043200070B544F60C060446C5F6020631683068DE
:1043300001F00701062913D120F03F00204330602F
:10434000FEF72EFE054600BF56F8080C80040DD47B
:10435000FEF726FE401BB0F57A7FF5D9012070BD2F
:1043600000F03F00001B18BF012070BDA4F11D012B
:104370000020112914D8012202FA01F111F0031FC3
:104380000ED0FEF70DFE0446306800F01100112833
:1043900008D0FEF705FE001BB0F57A7FF4D90120A6
:1043A00070BD00BF002070BD80B501F0ADFA44F2D1
:1043B00020414DF6E012C5F60201C0F60002096880
:1043C000C1F30211515C01F01F01C84080BD000023
:1043D00080B544F2304EC5F6020E5EF8083C5EF839
:1043E000081CC1F3051C5EF8041CBCF1000FDEF8CC
:1043F000042017D0C2F3CC0201F00101514303F0B5
:104400000303022B00EE101AB8EE400A10D0012B65
:1044100012D01BB95EF8301C890611D49FED361AF4
:104420001CE000BF00218160C0E9001180BD00BF19
:104430009FED301A12E000BF9FED2D1A0EE000BF75
:104440005EF8301C49F20002C0F2D032C1F3C10163
:1044500022FA01F101EE101AB8EE411ADEF800104E
:104460009FED263A6FF35F2102EE101ADEF800107E
:10447000C1F34621B8EE422A00EE032A00EE10CA2C
:10448000B7EE003AB8EE400A81EE000A32EE031AA7
:1044900002EE101AB8EE422A20EE010A32EE031A9A
:1044A00080EE011ABCEEC11A80ED001ADEF8001091
:1044B000C1F3064101EE101AB8EE411A31EE031AAB
:1044C00080EE011ABCEEC11A80ED011ADEF8001070
:1044D000C1F3066101EE101AB8EE411A31EE031A6B
:1044E00080EE010ABCEEC00A10EE101A816080BD99
:1044F0000024744A20BCBE4B0024744C00000039D8
:1045000080B544F2384EC5F6020E5EF8103C5EF8F7
:10451000101CC1F3053C5EF80C1CBCF1000FDEF86A
:10452000042015D0C1F30011C2F3CC02514300EEB8
:10453000101A03F003010229B8EE400A0ED089B91F
:104540005EF8381C890611D49FED361A1CE000BFB6
:1045500000218160C0E9001180BD00BF9FED301ACD
:1045600012E000BF9FED2D1A0EE000BF5EF8381C70
:1045700049F20002C0F2D032C1F3C10122FA01F1C6
:1045800001EE101AB8EE411ADEF800109FED263A3F
:104590006FF35F2102EE101ADEF80010C1F346211E
:1045A000B8EE422A00EE032A00EE10CAB7EE003A37
:1045B000B8EE400A81EE000A32EE031A02EE101A3B
:1045C000B8EE422A20EE010A32EE031A80EE011AFA
:1045D000BCEEC11A80ED001ADEF80010C1F30641EE
:1045E00001EE101AB8EE411A31EE031A80EE011AEC
:1045F000BCEEC11A80ED011ADEF80010C1F30661AD
:1046000001EE101AB8EE411A31EE031A80EE010ADB
:10461000BCEEC00A10EE101A816080BD0024744AFE
:1046200020BCBE4B0024744C000000390000000088
:1046300080B544F2404EC5F6020E5EF8183C5EF8B6
:10464000181CC1F3055C5EF8141CBCF1000FDEF809
:10465000042015D0C1F30021C2F3CC02514300EE77
:10466000101A03F003010229B8EE400A0ED089B9EE
:104670005EF8401C890611D49FED361A1CE000BF7D
:1046800000218160C0E9001180BD00BF9FED301A9C
:1046900012E000BF9FED2D1A0EE000BF5EF8401C37
:1046A00049F20002C0F2D032C1F3C10122FA01F195
:1046B00001EE101AB8EE411ADEF800109FED263A0E
:1046C0006FF35F2102EE101ADEF80010C1F34621ED
:1046D000B8EE422A00EE032A00EE10CAB7EE003A06
:1046E000B8EE400A81EE000A32EE031A02EE101A0A
:1046F000B8EE422A20EE010A32EE031A80EE011AC9
:10470000BCEEC11A80ED001ADEF80010C1F30641BC
:1047100001EE101AB8EE411A31EE031A80EE011ABA
:10472000BCEEC11A80ED011ADEF80010C1F306617B
:1047300001EE101AB8EE411A31EE031A80EE010AAA
:10474000BCEEC00A10EE101A816080BD0024744ACD
:1047500020BCBE4B0024744C000000390000000057
:1047600010B584B0024641F6FF7300209B1A70EB2F
:1047700001032DDA47F6FF739B1A70EB010380F2F9
:10478000798082F400430B4300F0A08082F48033F0
:104790000B4300F0E38082F40022114340F01E81BD
:1047A00044F20040C5F60200816D01F44031B1F5DC
:1047B000003F00F01F81B1F5803F00F0FD8000292F
:1047C00040F0E1810068000100F17D81DBE100BF84
:1047D00040F2FF739B1A70EB010325DB82F48073B8
:1047E0000B4300F0878082F48062114340F0F68032
:1047F00044F20041C5F60201886DC0F34252042A1A
:1048000000F2C18148F20000C0F2BB00DFE812F004
:10481000060000010601E6000C0100BF08688001E7
:1048200040F1B181E0E000BF82F400630B4300F08F
:104830007B8082F48052114340F0D08044F20041EA
:10484000C5F60201086DC0F30232042A00F29B8112
:1048500048F20000C0F2BB00DFE812F00600F800EA
:10486000FE00C000040100BF0868800140F18B8198
:10487000BAE000BF82F400530B4300F07B8082F467
:104880008042114340F0AA8044F20044C5F602047D
:10489000A06DC0F30270052800F27581DFE810F00A
:1048A0000600420146014A015001520101F02CF874
:1048B000216A4DF6E012C0F60002C1F30211515C0C
:1048C00001F01F01C84004B010BD00BF44F2004019
:1048D000C5F60200016D01F04051B1F1005F00F03A
:1048E0007580B1F1805F00F07B80002940F04B8142
:1048F00060E000BF44F20041C5F60201086D00F01F
:104900000702042A00F23F8148F20000C0F2BB0017
:10491000DFE802F004BAC064C40000BF0868800188
:1049200040F1318160E000BF44F20041C5F6020170
:10493000886DC0F30262042A00F2258148F200006B
:10494000C0F2BB00DFE802F004BCC64AD00000BFE2
:104950000868800140F1178146E000BF44F2004042
:10496000C5F60200C16C0068C90319D4800140F18A
:104970000A8139E044F20040C5F60200016DC1F33E
:104980000241052900F2FF80DFE811F00600E60091
:10499000F000FA000001140000F0DEFF04B010BDCA
:1049A000000140F1F08001A8FFF7AAFD039804B0D0
:1049B00010BD00BF0068C6E00068800040F1E380E1
:1049C00001A8FFF735FE039804B010BD0068000190
:1049D00040F1D98001A8FFF793FD029804B010BD03
:1049E0000068800140F1CF8001A8FFF7F1FC029838
:1049F00004B010BDC16C036811F04051026840F072
:104A0000CF8013F0040300F0CB80C2F3C100D6E0E6
:104A10000868000140F1B78055E000BF08688000D9
:104A200040F1B18059E000BFC86C0B6810F04052F3
:104A3000086803D113F0040340F0BF80B2F1805F37
:104A400061D110F4807040F0B1805CE00868000132
:104A500040F1998037E000BF0868800040F1938002
:104A60003BE000BFC86C0B6810F04052086803D1EF
:104A700013F0040340F0A180B2F1805F43D110F441
:104A8000807040F093803EE00868000140F17B8038
:104A900019E000BF0868800075D51EE0C86C0B687F
:104AA00010F04052086803D113F0040340F08580F1
:104AB000B2F1805F27D110F4807077D123E000BF7E
:104AC000086800015FD501A8FFF71AFD019804B03E
:104AD00010BD00BF0868800055D501A8FFF7A8FDEC
:104AE000019804B010BD00BFC86C0B6810F04052B4
:104AF000086802D113F004035FD1B2F1805F02D1E4
:104B000010F4807052D1086810F400301CBF47F6D2
:104B10004000C0F27D10B2F1005F18BF002004B069
:104B200010BD00BF206800012DD518E0206880006E
:104B300029D51EE02068400725D520683DE000BF4C
:104B4000206824E0206847F640018003C0F27D1110
:104B500001EAE07004B010BD0068000113D501A89F
:104B6000FFF7CEFC029804B010BD00BF00688000C3
:104B700009D501A8FFF75CFD029804B010BD00BF85
:104B80000168490718D4002004B010BD006840F641
:104B90000011C005C0F23D0101EAE07004B010BD93
:104BA000B1F1805F14D112F4807211D040F6001080
:104BB000C0F23D0004B010BD0068C0F3C10049F26E
:104BC0000001C0F2D03121FA00F004B010BD00BFE6
:104BD000006810F400301CBF47F64000C0F27D10A2
:104BE000B1F1005F18BF002004B010BD000000004C
:104BF0002DE9F0470446C07844F22C480007C5F67A
:104C0000020833D5606E4FEA305103290CD8DFE833
:104C100001F003111D2600BFD8F8001041F4003147
:104C2000C8F800101BE000BF01266078C0070BD059
:104C300020E000BF04F10800022106F099FE0646BC
:104C400060B16078C00715D1354646E004F1280010
:104C5000022106F021FF06460028F2D1606ED8F846
:104C6000241021F440110843C8F82400002660787D
:104C7000C007E9D0A06D04280ED83546DFE800F063
:104C80000412181E1E0000BFD8F80000354640F47C
:104C90000030C8F8000011E00125012760784007C6
:104CA0001FD453E004F10800002106F061FE04E087
:104CB00004F12800002106F0EFFE05462F461DB145
:104CC000607840070DD441E0D8F82400A16D20F0B1
:104CD000070000250843C8F82400374660784007DD
:104CE00034D5D4F8A4004FEA705005280CD8DFE87A
:104CF00000F00311171D1D1DD8F8000040F400300E
:104D0000C8F8000012E000BF012501266078000706
:104D100020D455E004F10800002106F029FE04E04B
:104D200004F12800002106F0B7FE05462E461DB10D
:104D3000607800070ED443E0D8F82C00D4F8A41013
:104D400020F4600000250843C8F82C003E46607837
:104D5000000735D5D4F8A8004FEA306005280DD8F3
:104D6000DFE800F00412181E1E1E00BFD8F8000075
:104D700040F40030C8F8000012E000BF0125012710
:104D8000E078800720D44EE004F10800002106F00E
:104D9000EFFD04E004F12800002106F07DFE054649
:104DA0002F461DB1E07880070ED43CE0D8F82C00E7
:104DB000D4F8A81020F0E06000250843C8F82C00C3
:104DC0003746E07880072ED5E06C4FEA3010032894
:104DD0000ED8DFE800F00903130900BFD8F800007F
:104DE00040F40030C8F800002E467DB912E000BF44
:104DF000012501266078C00619D44CE004F10800B2
:104E0000022106F0B5FD05462E461DB16078C006AC
:104E10000DD440E0D8F82000E16C20F030000025EF
:104E20000843C8F820003E466078C00633D5E06DE0
:104E30004FEA303004280DD8DFE800F00412181EC5
:104E40001E0000BFD8F8000040F40030C8F8000091
:104E500012E000BF01250127607880061FD44EE0D4
:104E600004F10800002106F083FD04E004F12800AD
:104E7000002106F011FE05462F461DB16078800620
:104E80000DD43CE0D8F82400E16D20F4E04000258A
:104E90000843C8F824003746607880062FD5206E76
:104EA0004FEA3040052809D8DFE800F0040E14046A
:104EB000040400BF2E46ADB918E000BF012501264D
:104EC000607840061FD44FE004F10800012106F08D
:104ED0004FFD04E004F12800012106F0DDFD054648
:104EE0002E461DB1607840060DD43DE0D8F8240070
:104EF000216E20F4E02000250843C8F824003E4637
:104F00006078400630D5D4F8AC004FEA3070052800
:104F100008D8DFE800F0030D130303032F46ADB9F3
:104F200018E000BF012501276078000620D442E088
:104F300004F10800012106F01BFD04E004F1280043
:104F4000012106F0A9FD05462F461DB16078000637
:104F50000ED430E0D8F82C00D4F8AC1020F0E040AB
:104F600000250843C8F82C0037466078000622D593
:104F7000E06E58B1B0F1005F0CD0B0F1805F2FD17E
:104F8000D8F8000040F40030C8F800002E469DB963
:104F900008E000BF04F10800012106F0E9FC054625
:104FA0002E464DB9D8F82400E16E20F0405000257F
:104FB0000843C8F824003E46E078C00733D0A06C10
:104FC000032813D8DFE800F008021A08D8F8000018
:104FD00040F40030C8F80000A946BDB91AE000BF8F
:104FE00001250126E078C007E9D11CE001254FF03A
:104FF0000109A07840061AD51CE000BF04F10800A2
:10500000022106F0B5FC0546A9461DB1A078400670
:105010000DD50FE0D8F82000A16C20F0030000258A
:105020000843C8F82000B146A078400602D44F4695
:1050300018E000BFD8F8D40340F48070C8F8D40357
:10504000FDF7AEFF064600BFD8F8D403C00507D46D
:10505000FDF7A6FF801B6428F6D90325032701E08E
:105060002F468DB12078C00761D0A06F4FEAF000C5
:1050700005283BD8DFE800F004404604040400BFE4
:10508000002D2E4646D149E0D8F84410D4F8B0009F
:10509000414011F4407F11D0D8F84410D8F8442092
:1050A00042F48032C8F84420D8F8442021F44071FA
:1050B00022F48032C8F84420C8F84410B0F5807F4C
:1050C00040F0D082FDF76CFF064641F2883A032596
:1050D000032700BFD8F84400800700F1C182FDF724
:1050E0005FFF801B5045F5D9BCE700BF01250126B5
:1050F000207880071FD44CE004F10800012106F05D
:1051000037FC04E004F12800012106F0C5FC054647
:105110002E461DB1207880070DD43AE0D8F828003B
:10512000A16F20F0380000250843C8F828003E464B
:10513000207880072DD5606F052809D8DFE800F0BA
:10514000040E1404040400BF2F46ADB918E000BFDC
:1051500001250127207840071FD44DE004F1080005
:10516000012106F005FC04E004F12800012106F00D
:1051700093FC05462F461DB1207840070DD43BE037
:10518000D8F82800616F20F0070000250843C8F810
:1051900028003746207840072ED5D4F890000528FF
:1051A00008D8DFE800F0030D130303032E46ADB962
:1051B00018E000BF012601252078800620D451E0A8
:1051C00004F10800012106F0D3FB04E004F12800FB
:1051D000012106F061FC05462E461DB120788006AF
:1051E0000ED43FE0D8F82C00D4F8901020F007003F
:1051F00000250843C8F82C003E462078800631D5AB
:10520000D4F88C004FEA3070052809D8DFE800F0A8
:10521000040E1404040400BF2F46ADB918E000BF0B
:10522000012701252078400620D451E004F1080030
:10523000002106F09DFB04E004F12800022106F0A5
:105240002BFC05462F461DB1207840060ED43FE0CA
:10525000D8F82800D4F88C1020F0E040002508434E
:10526000C8F8280037462078400631D5D4F8980091
:105270004FEAB020052809D8DFE800F0040E140436
:10528000040400BF2E46ADB918E000BF0126012579
:105290002078000620D454E004F10800002106F034
:1052A00067FB04E004F12800022106F0F5FB054647
:1052B0002E461DB1207800060ED442E0D8F82C000E
:1052C000D4F8981020F4E05000250843C8F82C00CA
:1052D0003E462078000634D5D4F89C004FEA703062
:1052E00005280FD8DFE800F004141A04040400BFF6
:1052F0002F46E5B12068010727D4C1063ED400033C
:1053000055D475E00127012520680107F5D51CE07B
:1053100004F10800002106F02BFB04E004F1280052
:10532000022106F0B9FB0546002D2F46E2D1D8F840
:105330002C00D4F89C1020F4604000250843C8F8E5
:105340002C00374620680107D7D5D4F88010B1F576
:10535000805F0AD104F12800022106F09DFB00289D
:1053600018BF01272068D4F88010D8F8282022F42C
:1053700040521143C8F82810C106C0D5D4F8941083
:10538000B1F5807F0AD104F12800022106F084FBE8
:10539000002818BF01272068D4F89410D8F82C20D2
:1053A00022F440721143C8F82C10000320D5D4F821
:1053B000A000B0F5003F0FD0B0F5803F06D078BB1D
:1053C00004F10800002106F0D3FA04E004F12800FB
:1053D000022106F061FB05462E4655B9D8F82C008F
:1053E000D4F8A01020F4403000250843C8F82C0061
:1053F0003E46A07840072BD5D4F88400B0F5401F76
:105400000BD0B0F5001F11D0B0F5801F2AD1D8F80D
:10541000000040F40030C8F800002F46CDB90DE080
:1054200001260125A0784007E6D411E004F1280008
:10543000012106F031FB05462F4655B9D8F8280062
:10544000D4F8841020F4401000250843C8F8280040
:105450003746A078C0070AD13E462168880016D595
:1054600033E000BF01270125A078C007F4D0206DEC
:10547000B0F5803F10D018BBD8F8000040F40030E1
:10548000C8F800002E4685B1216888001DD46068E8
:105490008A0326D467E000BF04F10800022106F069
:1054A00067FA0546002D2E46EED1D8F82000216D72
:1054B00020F4803000250843C8F82000CCE700BF66
:1054C0000126012521688800E1D504F12800022188
:1054D00006F0E2FA002818BF0126D4E900108A037A
:1054E00041D5E26F6FF0010303EB3223022B0BD3A4
:1054F0004FEA322343B1012B40F0AC80D8F80030A2
:1055000043F40033C8F8003035B3CA022ED48A02FF
:1055100036D44A003ED4B1F1FF3F4BDD090253D4EB
:10552000C1075CD1810765D441076ED4010778D4E7
:10553000C10600F18280800607D504F1280002210F
:1055400006F0AAFA002818BF0125002D18BF012572
:105550002846BDE8F08700BFD8F8283023F4407310
:105560001A43C8F828203546CA02D0D5D8F82420D6
:10557000236F22F000421A43C8F824208A02C8D5BB
:10558000D8F82420A36E22F080721A43C8F8242091
:105590004A00C0D558F81C2C22F4004248F81C2CB4
:1055A000D4F8B42058F81C3C1A4348F81C2CB1F12C
:1055B000FF3FB3DCD8F82020636D22F040521A433D
:1055C000C8F820200902ABD5D8F82810D4F88820D4
:1055D00021F440011143C8F82810C107A2D004F1FA
:1055E0000800002106F0C4F9002818BF05466068CD
:1055F000810799D504F10800012106F0B9F90028C6
:1056000018BF05466068410790D504F108000221E3
:1056100006F0AEF9002818BF0546606801077FF55F
:1056200087AF04F12800002106F036FA002818BFE1
:1056300005466068C1067FF57EAF04F128000121B0
:1056400006F02AFA002818BF0546606880067FF534
:105650007CAF72E70125CA027FF559AF86E700BF2C
:10566000D4F8B0004FF6CF7358F81C2CC0F2FF03EB
:1056700000F4407122F47C5203EA10136FF31F30E0
:10568000B1F5407F08BF1A43002548F81C2CD8F814
:1056900044100843C8F84400FFF7C9BC00000000EC
:1056A0002DE9F04381B0002800F02A8142F2000881
:1056B0000446C5F200288946D8F8000000F00F0023
:1056C00088420ED2D8F8000020F00F0040EA09000E
:1056D000C8F80000D8F8000000F00F00484540F07E
:1056E0000F81206844F218474107C5F602070AD522
:1056F00021693A6802F07002914204D93A6822F0B6
:1057000070021143396001070AD561697A6802F0B5
:105710007002914204D97A6822F0700211437960D4
:10572000C1060AD5A1697A6802F4E062914204D9FF
:105730007A6822F4E0621143796081060AD5E16952
:10574000BA6802F07002914204D9BA6822F070027D
:105750001143B96010F002010AD0E2683B6803F01F
:105760000F039A4204D93B6823F00F031A433A60AF
:10577000C20746D0386820F47061D4E901020128DC
:1057800041EA0201396009D003280DD0022811D165
:1057900057F8181C890340F1B38010E057F8181C23
:1057A000C90540F1AD800AE057F8181C890140F1A5
:1057B000A78004E057F8181C490740F1A18057F86A
:1057C000081C21F00701084347F8080CFDF7E8FB27
:1057D000064641F2883500BF57F8080C616800F0B2
:1057E0003800B0EBC10F09D0FDF7DAFB801BA842EF
:1057F000F2D9032001B0BDE8F08300BF206800F0BB
:10580000020151B1E1683A6802F00F02914204D2FC
:105810003A6822F00F0211433960D8F8001001F005
:105820000F0149450DD9D8F8001021F00F0141EAC8
:105830000901C8F80010D8F8001001F00F0149451F
:105840005ED141070AD521693A6802F0700291429F
:1058500004D23A6822F070021143396001070AD578
:1058600061697A6802F07002914204D27A6822F08B
:10587000700211437960C1060AD5A1697A6802F401
:10588000E062914204D27A6822F4E06211437960C6
:1058900080060AD5E069B96801F07001884204D237
:1058A000B96821F070010843B86000F0B5F83968B4
:1058B0004DF6E0133A68C0F60003C1F3032102F08D
:1058C0000F02595C9A5C01F01F0120FA01F102F00D
:1058D0001F0040F20C0221FA00F0C2F200421060F8
:1058E00040F2040040F20802C2F20040C2F200425C
:1058F0000068116001B0BDE8F043FEF729B800BFB1
:10590000012001B0BDE8F08380B500F085F844F2D5
:1059100018414DF6E013C5F60201C0F600030A680F
:10592000096801F00F01C2F30322595C9A5C02F08E
:105930001F0220FA02F201F01F0040F20C0122FACD
:1059400000F0C2F20041086040F20801C2F20041DA
:105950000A6080BD0000000080B500F05DF844F2F0
:10596000184C4DF6E011C5F6020CC0F60001DCF84B
:105970000020DCF8003003F00F03C2F30322CB5CFD
:105980008A5C02F01F02D04003F01F0240F20C03B9
:1059900020FA02F2C2F200431A6040F20803C2F297
:1059A00000431860DCF80400C0F30210085C00F04B
:1059B0001F0022FA00F080BD80B500F02DF844F2FF
:1059C000184C4DF6E011C5F6020CC0F60001DCF8EB
:1059D0000020DCF8003003F00F03C2F30322CB5C9D
:1059E0008A5C02F01F02D04003F01F0240F20C0359
:1059F00020FA02F2C2F200431A6040F20803C2F237
:105A000000431860DCF80400C0F30220085C00F0DA
:105A10001F0022FA00F080BD44F20041C5F60201E9
:105A20000869C0F3C200032810D002282CD088BB1C
:105A30000868800649F20000C0F2D03058BF7047B5
:105A40000968C1F3C101C840704700BF8A6A886A0B
:105A5000C0F3051CC86ABCF1000F4B6B20D0C3F328
:105A6000CC0300F00100584302F00302022A00EECA
:105A7000100AB8EE400A15D0C2B90868800619D4D9
:105A80009FED281A23E000BF47F64000C0F27D10CA
:105A9000704700BF40F60010C0F23D00704700BFE5
:105AA000002070479FED1E1A11E000BF9FED1B1AEA
:105AB0000DE000BF086849F20002C0F2D032C0F326
:105AC000C10022FA00F001EE100AB8EE411A086B8C
:105AD0009FED153A6FF35F2002EE100A086BC0F3DA
