:020000040800F2
:1000000058DE0320E902000805B1000879860008DF
:1000100025A80008DD3A0008C1CD00080000000056
:1000200000000000000000000000000031C50008D2
:10003000853B00080000000045B7000881C50008A6
:100040000303000803030008030300080303000878
:100050000303000803030008030300080303000868
:100060000303000803030008893B0008030300089A
:10007000013B0008030300080D3B0008193B000882
:100080000303000803030008030300080303000838
:100090000303000803030008030300080303000828
:1000A0000303000803030008030300080303000818
:1000B0000303000845C60008030300080303000803
:1000C00003030008030300080303000803030008F8
:1000D00003030008030300080303000803030008E8
:1000E00003030008030300080303000803030008D8
:1000F00003030008030300080303000803030008C8
:100100000000000081B70008030300080303000893
:10011000000000000000000051C6000803030008B2
:1001200003030008253B000803030008313B0008D7
:100130000303000803030008030300080303000887
:100140000303000803030008030300080303000877
:100150003D3B0008793B0008030300080303000847
:10016000898600087D86000800000000000000006D
:10017000000000000000000000000000000000007F
:100180000303000803030008000000000000000053
:100190000303000803030008000000000000000043
:1001A000000000000000000000000000000000004F
:1001B0000303000800000000000000000303000823
:1001C0000303000800F002F800F07EF80AA090E8AF
:1001D000000C82448344AAF10107DA4501D100F002
:1001E00073F8AFF2090EBAE80F0013F0010F18BF51
:1001F000FB1A43F001031847E8EE070008EF070079
:100200000A444FF0000C10F8013B13F0070408BF3C
:1002100010F8014B1D1108BF10F8015B641E05D0DA
:1002200010F8016B641E01F8016BF9D113F0080F8F
:100230001EBF10F8014BAD1C0C1B09D16D1E58BF21
:1002400001F801CBFAD505E014F8016B01F8016B58
:100250006D1EF9D59142D6D37047000000230024CB
:1002600000250026103A28BF78C1FBD8520728BFC6
:1002700030C148BF0B607047662909F0BDA76529EA
:1002800009F0BAA7672909F0B7A7612909F0B6A74D
:10029000642900F0FD80782900F036810020704745
:1002A0001FB549F094FF01F01DF804000020002163
:1002B00049F094F8401C60600020002149F078F873
:1002C000E0601FBD10B510BD01F035F91146FFF714
:1002D000E7FF3FF079FD01F0D7FB03B4FFF7F2FF32
:1002E00003BC00F0F5FF00000948804709480047BB
:1002F000FEE7FEE7FEE7FEE7FEE7FEE7FEE7FEE7D6
:10030000FEE7FEE704480549054A064B7047000032
:1003100031C60008C5010008585E032058DE0320DE
:10032000589E0320589E032053EA020C00F0698077
:100330002DE9F04B4FF00006002B1FBFB3FA83F5F9
:1003400003FA05F424FA05F65E4012BF1643B2FA2A
:1003500082F502FA05F4C5F120051EBF22FA05FC5C
:1003600044EA0C04203556EA044C4FEA144418BF02
:10037000641C4FF000084FF00009904271EB030C31
:1003800039D3002919BFB1FA81F701FA07F6B0FA9B
:1003900080F700FA07F6C7F120071EBF20FA07FC16
:1003A00046EA0C062037B6FBF4FCA7EB0507103F26
:1003B00007F01F0BCBF120062CFA06F60CFA0BFB0C
:1003C00044BFB3460026202FA4BF5E464FF0000B6B
:1003D0005BEA060C08BF4FF0010B19EB0B0948EB69
:1003E0000608ABFB027C06FB02CC0BFB03CCC01B5C
:1003F00071EB0C01C1E70B46024641464846BDE899
:10040000F08B13B5084318BF4FF0FF300146AFF330
:100410000080BDE81C4070470FB41CB5074B06AA0E
:100420007B4469460090059800F0E1FE0020694693
:1004300000F0F0FE1CBC5DF814FB0000F10D0000A4
:1004400070B5044685690068C10601D5302600E014
:100450002026C00707D070BDD4E90121304690475F
:10046000206A401C20626D1EF6D570BD70B5044632
:1004700085690078C00707D170BDD4E9012120202B
:100480009047206A401C20626D1EF6D570BD0000AA
:100490002DE9F0410646002410687529314616A55D
:1004A00010D0AFF30080002802DA404213A507E025
:1004B00031688A0701D512A502E0490704D511A5C4
:1004C000012401E0AFF3008000210A2206F1240795
:1004D00009E0B0FBF2FCB0FBF2F302FB1C00303091
:1004E00078541846491C0028F3D123462A46304642
:1004F000BDE8F04100F090BA000000002D000000BF
:100500002B0000002000000070B504460D46214677
:100510001068AFF300802188090502D50F4A7A449C
:1005200002E00E4A7A440E32002104F1240305E071
:1005300000F00F060009965D5E54491C0028F7D1B3
:1005400020780023000704D5702D02D009B10223C2
:1005500011322046BDE8704000F05EBADA9D04001A
:100560002DE9F05F894604464FF0000ADFF874B1C8
:10057000FB44C0F820A02046E1688847002874D0DA
:10058000252806D0D4E901219047206A401C20622A
:10059000F1E700265F462046E168884720280546A7
:1005A00007DB312D05D2781910F8200C08B106436D
:1005B000F1E7B00701D526F00406C4F81CA0002717
:1005C000C4F818A02A2D09D0284648F044FE38B3B4
:1005D00004EB8708303DC8F8185019E059F8041B9F
:1005E000204604EB87029161E1688847012F0546A8
:1005F00018D1E069002820DA26F020061DE0D8F89E
:10060000180000EB800005EB40003038C8F81800F7
:100610002046E1688847054648F01DFE0028EED1D7
:10062000012F0AD02E2D08D12046E16888477F1C73
:100630000546022F46F02006C4DBA069002803DA35
:10064000404246F00106A061F00701D026F01006F6
:100650006C2D0BD0682D09D04C2D39D06A2D35D09A
:10066000742D35D07A2D33D016E038E0E1682F466E
:1006700020468847B842054609D16C2F26D04FF452
:100680008060E168064320468847054604E06C2FF9
:100690001AD04FF4807006430DB3A5F1410019281C
:1006A00002D8203546F400664A4629462046266090
:1006B0004E46FFF7E1FD80B101280BD0F61D26F074
:1006C000070000F1080956E74020E4E78020D8E75A
:1006D0000020D6E706F104094DE7284652E7206AD4
:1006E000BDE8F09FB09D0400401ECAB210F8011F83
:1006F0008A4202D00029F9D10020704740EA010364
:1007000010B59B070FD1042A0DD310C808C9121FBA
:100710009C42F8D020BA19BA884201D9012010BDF4
:100720004FF0FF3010BD1AB1D30703D0521C07E0C1
:10073000002010BD10F8013B11F8014B1B1B07D125
:1007400010F8013B11F8014B1B1B01D1921EF1D196
:10075000184610BD40EA0103024630B59B0710D190
:100760004FF0013400E008C208C91D1B9D4315EA83
:10077000C41FF8D013F0FF0102F8011B0DD01B0AB3
:10078000F8E711F8013B002B02F8013B05D011F806
:10079000013B002B02F8013BF3D130BD10B5431CE7
:1007A00002E010F8011B71B18107FAD14FF001325C
:1007B00002C88C1A8C4314EAC211F9D0C01A0A0676
:1007C00003D0C01E10BDC01A10BD0A0401D0801E87
:1007D00010BD0902FCD0401E10BD032A40F230803B
:1007E00010F0030C00F0158011F8013BBCF1020F72
:1007F000624498BF11F801CB00F8013B38BF11F8F3
:10080000013BA2F1040298BF00F801CB38BF00F809
:10081000013B11F0030300F02580083AC0F0088086
:1008200051F8043B083A51F804CBA0E80810F5E76A
:10083000121D5CBF51F8043B40F8043BAFF300804D
:10084000D20724BF11F8013B11F801CB48BF11F8C2
:10085000012B24BF00F8013B00F801CB48BF00F892
:10086000012B704710B5203AC0F00B80B1E818504A
:10087000A0E81850B1E81850A0E81850203ABFF48A
:10088000F5AF5FEA027C24BFB1E81850A0E8185029
:1008900044BF18C918C0BDE810405FEA827C24BF7D
:1008A00051F8043B40F8043B08BF7047D20728BF0B
:1008B00031F8023B48BF11F8012B28BF20F8023B5A
:1008C00048BF00F8012B704702F0FF0343EA032200
:1008D00042EA024200F00AB802F0FF0343EA0322B0
:1008E00042EA024200F024B84FF000020429C0F0AE
:1008F000128010F0030C00F01B80CCF1040CBCF152
:10090000020F18BF00F8012BA8BF20F8022BA1EBA3
:100910000C0100F00DB85FEAC17C24BF00F8012B88
:1009200000F8012B48BF00F8012B70474FF0000280
:1009300000B5134694469646203922BFA0E80C50D5
:10094000A0E80C50B1F12001BFF4F7AF090728BFB0
:10095000A0E80C5048BF0CC05DF804EB890028BF2C
:1009600040F8042B08BF704748BF20F8022B11F055
:10097000804F18BF00F8012B7047000000000000F6
:1009800030B44FF0013C50F8042B51F8043BCCFA42
:1009900052F4D51A20D1FCB950F8042B51F8043B7D
:1009A000CCFA52F4D51A17D1B4B950F8042B51F837
:1009B000043BCCFA52F4D51A0ED16CB950F8042B82
:1009C00051F8043BCCFA52F4D51A05D1002CDAD0F8
:1009D00030BC4FF00000704729BAB1FA81F111F034
:1009E0001801D1F120008440F2D1CA40CB4012F06E
:1009F000FF0213F0FF0330BCD01A704770477047F6
:100A0000704710B500F072FC006810BD10B50446C8
:100A100000F06CFC046010BD2DE9F0470D469946CE
:100A20009246044600F124080168880604D5E0696E
:100A300021F01001216000E00120A84201DD471BE8
:100A400000E00027A1697A1902EB0900081AA061E9
:100A50002078C00602D42046FFF7F2FC002608E00A
:100A6000D4E901211AF806009047206A401C761C40
:100A700020624E45F4DB2078C0060AD52046FFF7F9
:100A8000DFFC06E0D4E9012130209047206A401CB9
:100A90002062381EA7F10107F4DC07E0D4E9012148
:100AA00018F805009047206A401C2062281EA5F116
:100AB0000105F3DC2046FFF7D9FC2078000602D5BB
:100AC0000220BDE8F0870120FBE72DE9FF4F0C462F
:100AD0001E464FF0FF378BB0D2E90001DDF8608091
:100AE0000A908A46C1F30A5505B93D4600210846D9
:100AF0004FF00000BAF1000F00F4400005DA00EBFF
:100B000080004FF4400101EA50004FEA9059B9F1DA
:100B1000010F00DDB9460A9850EA4A000ED044F6AB
:100B20001050A5F2FF3545432F14B8F1000F1ED029
:100B30007542291E1EDDC9F100021CE0B8F1010F4B
:100B40004FF0000001D0302103E0F24305E02154D2
:100B5000401CB042FBDB30460022002121540B999F
:100B6000C1F80880C1E900200FB0BDE8F08FBD1BBF
:100B70006D1CDEE74A4600DA694206A800F068FC10
:100B800006AB93E8070003AB83E8070050460A99D9
:100B900046F01DFF8DE80700A0F500501F380090BB
:100BA0000398002D0ADD42F21F014A460844002343
:100BB00003A90390684647F0C9F909E0A0F5005081
:100BC0004A461F38002303A90390684647F0E8F916
:100BD0008DE807000004000C03D04FF0FF304108FF
:100BE00000E01046B8F1000F03D000220092154635
:100BF0001EE0751E05D400F07DFB303262556D1E7F
:100C0000F9D5B3460122084302D000227F1C04E03C
:100C10002078302801D100227F1E002A099784D035
:100C20001DE0112D07DA00F065FB303262556D1CB6
:100C300050EA0102F5D1084302D00098C8B10EE095
:100C40000021681E05E0235C625C63542254401E50
:100C5000491C8142F7DBAB46A81B401E09900020CF
:100C600004F80B000B98099AC0F80880C0E9002B23
:100C70007AE711264FF0000857E72DE9F04F884634
:100C80000446D21D22F0070191B0D1E90001CDE95F
:100C90000A0147F0D1FA02460B98C00F01D02D206F
:100CA00007E02068810701D52B2002E0202101EA1E
:100CB000C000032A099001D0072A05DB03464146FC
:100CC000204600F065FB0BE12078800601D5E06945
:100CD00000E00620B8F1650F814606D0B8F1660F36
:100CE00018D0B8F1670F70D131E00020B9F1110FC1
:100CF000009001DB112301E009F101030AAA01A917
:100D00000CA8FFF7E2FEDDE90C70002609F10105F1
:100D1000834647E001204B4600904FF000470AAA67
:100D200001A90CA8FFF7D1FEDDE90DB00C995D46D5
:100D3000002610B909F101000D18B9EB050003D424
:100D4000C0F1FF3609F10105A5EB09002BE0B9F16F
:100D5000010F01DA4FF001090020B9F1110F0090E5
:100D6000484601DD112300E003460AAA01A90CA8A8
:100D7000FFF7ABFEDDE90C704D4600268346207878
:100D800000070AD4AB4500DA5D4601A8012D04DD59
:100D9000411911F8011C302907D04F4502DA17F12B
:100DA000040F04DA012082460FE06D1EEEE7002FEB
:100DB00002DCED1B3E4403E0781CA84200DD7D1CF4
:100DC000B81B00F1010A4FF000472078000703D458
:100DD000AA4501DB4FF0FF3A0021B7F1004F0DF1BA
:100DE00043088DF8431024D002202B23002F01DA72
:100DF0007F422D230A21021EA0F1010000DC5FB119
:100E000097FBF1FC97FBF1F201FB1C7C17460CF100
:100E1000300C08F801CDEEE7A8F10100037021883D
:100E2000090501D5452100E06521A0F1010800F880
:100E3000011C09980FA9A1EB0807FF1D00B10120B3
:100E4000411901EBEA70A1693844081A401EA061FB
:100E50002078C00602D42046FFF7F2FA099828B19C
:100E6000D4E901219047206A401C20622078C00606
:100E700022D52046FFF7E4FA1EE0002E04DBB3453E
:100E800002DD01A8805D00E03020D4E90121904717
:100E9000206A401C2062761CAAF101005FEA000A69
:100EA0000AD100F01FFAC0680168405CD4E9012152
:100EB0009047206A401C2062281EA5F10105DCDC59
:100EC00007E0D4E9012118F8010B9047206A401C83
:100ED0002062381EA7F10107F3DC2046FFF7C6FAAF
:100EE000032011B041E600002DE9F04F04460D4605
:100EF000D21D22F0070089B0D0E900974846394654
:100F000047F09AF90246F80F01D02D2307E0206838
:100F1000810701D52B2302E0202101EAC0038DF8CF
:100F200020300BB1012000E00020032A824601D0CE
:100F3000072A04DB2946204600F02AFA3FE1207800
:100F4000800601D40D2500E0E569C7F30A560D2D92
:100F500049DA00214FEA175B08464FF00000002FE6
:100F600000F4400007DA00EB80004FF4400100EB92
:100F7000D07001EA60008115012901DD4FF0FF31D9
:100F800000224FEA850CBCF1180F06D31346ACF1D2
:100F900018004FF08052C24003E04FF4801323FA50
:100FA0000CF30CF10C0CBCF1200F04D3ACF1200CB1
:100FB00009FA0CF001E007FA0CF000294FF00048A4
:100FC00001DD18B90FE00ED140450CD319EB020931
:100FD0005F4121B9404502D19F4329EA0209BBEB99
:100FE000175F00D0761C2088000502D57B48784426
:100FF00002E07A487844193808AA302302F80A3007
:10100000037C0AF10101002E0AF1020A53546A46D8
:1010100002DC4FF0300101E04FF031014FF00108E8
:101020008DF8001002D0A6F2FF3603E059EA47011E
:1010300000D06B4E002D02DC2178090704D54FF05B
:1010400002082E218DF80110C44600210BE0C7F3E1
:1010500003433F01C35C491C6D1E02F8083005299B
:1010600008F1010801DA002DF1DC00210CE000EBB1
:101070001973491C1B786D1E082902F808304FEAC5
:10108000091908F1010801DA002DF0DC21688B064E
:1010900002D516E0A8F10108E04505DD02EB0803E2
:1010A00013F8013C302BF5D0B8F1000F09DD02EB4D
:1010B000080313F8013C2E2B03D1090701D4A8F132
:1010C0000108002D05DD3E2102F808106D1E08F113
:1010D0000108407C002E02F8080008F1010804DA3B
:1010E0002D20764202F8080002E02B2002F80800CA
:1010F0000A214FF47A70864208F101080BDB96FB57
:10110000F0F3303302F8083096FBF0F308F10108F1
:1011100000FB136601E0642E0CDB642096FBF0F309
:10112000303302F8083096FBF0F308F1010800FBB9
:10113000136601E00A2E06DB96FBF1F0303002F870
:10114000080008F1010896FBF1F001FB1060303057
:1011500002F80800A16908F1010808EB050202EB9A
:101160000A00081AA0612078C00602D42046FFF7C2
:1011700067F9216A08AE01EB0A00206204E0D4E9B5
:10118000012116F8010B9047BAF1010AF7D2207835
:10119000C00602D52046FFF753F96E4609E016F85F
:1011A000010B3E280FD0D4E901219047206A401C52
:1011B0002062B8F10108F2D22046FFF757F909B0D2
:1011C0000320BDE8F08F206A2844206203E0D4E9C0
:1011D0000121302090476D1EEBD3F8E741940400C5
:1011E00002FCFFFF01694A1C02610878704700B5E4
:1011F0008FB0CDE901310021059105497944CDE950
:10120000031011466846FFF7ABF90FB000BD0000B0
:10121000E5FFFFFF0A6802F8010B0A607047000053
:101220000FB40B0010B54FF000048AB00FA9009165
:101230000E99CC60234C7C44234A7A44CDE9064283
:1012400000D004236FF00042CDE901321F4A7A44F6
:101250006B4608920246002049F032F80AB010BCF2
:101260005DF814FBF0B507464FF0FF301E461546FB
:101270000C463B4685B06A460091CDE901013146F6
:101280000020049004A8FFF7CBFF049903466018E0
:1012900025B109B1024600E022462A6000290ED09D
:1012A000002B02DD0099814209D03B466A46314657
:1012B000001B0094CDE9010404A8FFF7B1FF05B0BD
:1012C000F0BD0000D7010000F10100002D01000079
:1012D00001491820ABBEFEE7260002000048704717
:1012E0008001002000487047A0010020004870479E
:1012F0008001002030B5B0F10A0271F100034FEA1D
:10130000900E4EEA817EB0EB0E0061EB91014FEA48
:10131000101E4EEA017E10EB0E0041EB11114FEA58
:10132000102E4EEA016E10EB0E0041EB11214FEA38
:10133000104E4EEA014E10EB0E0041EB11414018E9
:1013400041F100014FEAD00040EA41704FEAD1017B
:101350004FEA810444EA907410EB800544EB0104E9
:101360006D1944EB0404521BA3414FF0000348BF26
:101370000A3200D530BD401C41F1000130BD10B52E
:10138000044600F0FDF80068005D00F0010010BDAB
:101390002DE9F0411F46044603260168072A01F49F
:1013A000006004DB08B116A505E016A503E008B14E
:1013B00015A500E015A521F010002060A069C01E51
:1013C000A0610FB1401EA0612046FFF739F84FB170
:1013D000D4E9012138469047206A401C2062C01C95
:1013E000206206E0206AFAE7D4E9012115F8010B32
:1013F0009047761EF8D22046FFF738F8BDE8F08116
:101400004E414E006E616E00494E4600696E6600A8
:10141000426842B1016811F8013B23B1521EC0E994
:101420000012184670470121C160881E704742684B
:101430005AB1C368016843B983688B4205D0491E1D
:10144000521CC0E90012002070474FF0FF30704777
:101450002DE9F047814616468AB0354878440DC8D4
:101460008DE80D0032487844801C03AC0DC884E838
:101470000D0041F69B300844372190FBF1F290FBC0
:10148000F1F5A5F1800501FB12041B3C02D5644275
:10149000012000E00020DFF898A080460027FA44F1
:1014A000AAF1BE0A0EE0E0070AD03246684607EB12
:1014B000470101230AEB810146F072FD8DE8070028
:1014C00064107F1C002CEED1194F7F44AE3F19E011
:1014D000E80715D007EB04100DF1180A90E80E008C
:1014E0008AE80E00C068F04201D19819089032468F
:1014F000012306A903A846F053FD03AB83E80700C8
:101500006D10641C002DE3D14FF001033246694693
:10151000B8F1000F03A802D046F018FD01E046F034
:101520003FFDC9E90001C9F808200AB0BDE8F0870D
:10153000BC90040070477546FFF7D0FEAE4605002C
:101540006946534620F00700854618B020B5FEF7DF
:10155000D9FEBDE820404FF000064FF000074FF0E5
:1015600000084FF0000BAC46ACE8C009ACE8C0097D
:10157000ACE8C009ACE8C00921F007018D4670470E
:1015800010B5FFF7AFFE001D10BD00BF517E040077
:101590002DE9FF4F06468BB00878FF2806D0491C7E
:1015A0002D2805D000244FF0000908E000200CE0B1
:1015B0000124F8E709EB8903491C00EB430908788B
:1015C000FF28F7D114B1C9F1000081461078002539
:1015D0002C46AA4629462D2801D02B2804D1521C7E
:1015E0002D2813D0002082468B461078FF280FD07C
:1015F0004FF0000C0A21521CA5FB017804FB01816D
:1016000005FB0C11C5194BEB0104EEE70120EAE7DD
:10161000002108464FF00000BAF1000F02D000EBA5
:1016200080004008C0F38157012F01DD4FF0FF37E4
:101630000E9955EA040009EB01080BD04FF002099E
:1016400018F5FA7F16DA4FEACA70002F706008DDCD
:10165000012007E04FEACA70C6E900B00FB0BDE84C
:10166000F08F00203060FFF741FEC0F80090182195
:10167000084616E0B8F5FA7F18DD002F02DAF748C1
:10168000784401E0F6487844D0E90010C6E900103B
:1016900040EACA707060FFF729FEC0F8009014217C
:1016A00008460FB0BDE8F04F48F0A3BD0021084642
:1016B0004FF00000B8F10001099002DAC7F1000212
:1016C00000E03A4601DAC8F1000106A8FFF7C0FEC3
:1016D00006AB93E8070003AB83E8070044F23E0043
:1016E0005BEA04010090584604D144F21E012C46E6
:1016F0005D460091210C0904014306D100992404A0
:1017000044EA15442D041039009104F07F4101434F
:1017100006D10099240244EA15642D02083900918B
:1017200004F07041014306D10099240144EA157484
:101730002D01091F009104F04041014306D1009999
:10174000A40044EA9574AD00891E009104F00041A4
:10175000084304D100986D196441401E00904FF079
:1017600001033A466846B8F1000FCDE9014503A9E7
:1017700002DD46F02AFC01E046F0FDFBBAF1000F65
:1017800004460D4601D084F00044002108464FF085
:101790000000099940F2FF77484010F00C0F07D184
:1017A00024F00040284303D0C4F30A50B84212D1B9
:1017B000FFF79CFDC0F80090C4F30A50B8420AD16C
:1017C000A8487844D0E90010C6E9001004F00041B0
:1017D0000843706042E7C6E900543FE72DE9FF4F38
:1017E0001F464FF0000A4FF0FF38454691B0D7E949
:1017F0000146CDF83CA0FFF775FDC0680168405C6C
:101800001090B96912986D1C8847396A81468847DB
:101810000028F6D1B9F1FF3F0AD0002E24F4D0649D
:1018200011DDB9F12B0F08D0B9F12D0F0BD102E06A
:10183000404615B013E744F48064B96912986D1CF2
:101840008847761E8146600504A901D52D2000E059
:101850002B20002E01F1010B0DF130088DF8100046
:101860003FDDB9F1690F08D0B9F1490F05D0B9F1E1
:101870006E0F02D0B9F14E0F1CD13B4601A8009566
:1018800080E85002DDE912126FF0020048F01CFD02
:10189000C11CCED10EE0B96912986D1C88478146F3
:1018A0001398761E44F4007405600F98401C002EB7
:1018B0000F9016DDB9F1300FEDD0B9F1780F02D0ED
:1018C000B9F1580F0DD10F9801280AD13B46CDE947
:1018D0000054DDE91212001F029648F0F3FCC11C0F
:1018E000A7D1109989453ED144F0800406E01399B0
:1018F000681CAAF1010A44F400740860B9696D1CFF
:101900001298761E884730288146F0D02BE0109937
:10191000894505D1200603D4761E44F0800418E0E2
:10192000484647F098FC08B3761E0DF12302934514
:10193000A9F1300044F4007406D20BF8010B200624
:1019400007D5AAF1010003E0200602D40AF1010044
:101950008246A00502D51399681C0860B9691298DF
:101960006D1C88478146002ED1DC53E0002E51DDEE
:10197000B9F1650F02D0B9F1450F4BD1A00549D59A
:10198000B9696D1C1298761E24F440748847002EA5
:1019900081460CDD2B2804D0B9F12D0F07D144F47A
:1019A0008074B96912986D1C8847761E8146E005DF
:1019B00001D52D2100E02B2108F8011BCDF8008076
:1019C00021E0761E0DF13901884544F400740CD2F3
:1019D000A9F1300010F0FF0088F8000002D1009952
:1019E000884509D908F1010806E0E00501D51E483F
:1019F00001E042F20F708246B96912986D1C884767
:101A0000814613980560002E04DD484647F023FC0C
:101A10000028D6D1F96912988847FF2053468BF8E1
:101A2000000088F8000000200A900B9004AA0CA97E
:101A30000AA8FFF7ADFDA00502D46FF00100F8E69B
:101A400014F0240F12D0E0071CD13868DDE90A1227
:101A5000031D3B600068C0E9001213E084DA070050
:101A600076DA07003AD90700F1D8FFFF0AA96846DD
:101A700047F0DEFBE00705D13868009A011D3960A8
:101A8000006802602846D4E610B50446AFF3008033
:101A90002046BDE81040FEF720BCB2F120030AD575
:101AA000C2F1200301FA02F120FA03F341EA030133
:101AB00000FA02F0704700FA03F14FF0000070479F
:101AC0002DE9FF4F1F464FF03C0987B04FF0004211
:101AD000DDE9141001F10108DDF858A002EA4050D8
:101AE0000390002005908346054604460490B9699A
:101AF000461E08988847AAF1010A0290BAF1000F21
:101B00003BDD02982E2815D0102100F003FA0028A2
:101B10002EDB4FF0010B0599014317D0B9F1000FEF
:101B20000BDB4A46C117FFF7B8FF05430C43A9F189
:101B3000040905E0012004900BE008B145F001051F
:101B400001200590049820B9361D02E0049800B1E8
:101B5000361FB969089808F101088847BBF1000FE2
:101B6000AAF1010A0290C9D00999C1F80080C5E71D
:101B70000298702808D0502806D0F969089888473C
:101B8000BBF1000F14D04FE0002002900120BBF108
:101B9000000F049009D0B969089808F10108884736
:101BA000AAF10109B9F1000F07DCF9690898884723
:101BB0006FF001000BB0BDE8F08F2B2804D02D286A
:101BC0000CD14FF0FF300490B969089808F1010872
:101BD0008847A9F10109B9F1000FE6DD411CE4D005
:101BE0000A2100F097F90028DFDB029908F10108CB
:101BF00001EB810100EB41000290B9690898884728
:101C00000A2100F087F9099AA9F10109B9F1000F39
:101C1000C2F8008001DD0028E7DAF96908988847F2
:101C20000499029800FB016655EA040004D004F010
:101C30004041090002D006E0039898E0A40044EA7D
:101C40009574AD00B61E04F00041080002D16D1974
:101C50006441761E159810F0240F03D04FF00B0945
:101C60005C4803E04FF028096FF07D00824656453E
:101C700007DAAAEB06018944B9F1410F01DD4FF003
:101C8000410901200021A9F10102FFF706FF0246E8
:101C900028400B462140084301D0012100E00021EB
:101CA000501E029143F1FF3128402140084301D0EA
:101CB000012000E000200299834651EA0B014FD039
:101CC000002108464FF00000039900F4400039B1AC
:101CD00000EB80004FF4400100EBD07001EA60009F
:101CE0008015012802DD4FF0FF3000E013D0401CCA
:101CF00036D0029860B3BBF1000F0CD14A460120E8
:101D00000021FFF7CAFE28402140084301D00120EE
:101D100000E00020E0B101204A460021FFF7BDFEAF
:101D2000034640190A4661412D1A8C4111D3B9F17D
:101D3000400F09DD159810F0240F02D0AAF13406E7
:101D400003E0AAF1170600E0761C00254FF00044DE
:101D500006E05B1E42F1FF3220EA030521EA02049D
:101D6000CAF10100B04206DA1B490398084301900A
:101D7000002000900EE0039AC4F3D321E80A0A433E
:101D8000164940EA44500A433146CDE9000268460C
:101D900047F057FA159810F0240F0BD01598C0078C
:101DA00015D13868DDE90012031D3B600068C0E909
:101DB00000120CE002A8694647F03AFA1598C007ED
:101DC00005D13868029A011D3960006802604046FA
:101DD000F0E6000002FCFFFF0000F07F0000F03F93
:101DE0002DE9FF4F92461D4685B04FF00041DDE9D9
:101DF000124BDDE914727F1E01EA4B50414940F05D
:101E0000FF4940EA0108002122F0200049280491FE
:101E100002D04E2828D04CE03BA0012607C88DE810
:101E20000700A9690698641C88477F1E014606D4EE
:101E30001DF8060018B121F0200181420BD0E9699C
:101E400006988847032E34D0082E32D06FF0010058
:101E500009B0BDE8F08F761C032E01D0082EE0D12A
:101E6000601CCAF80000DCE7A9690698641C884772
:101E70007F1E2AD420F02000412826D1A969069887
:101E8000641C88477F1E20D420F020004E281CD1DF
:101E9000A9690698641C88477F1E48F4002849F405
:101EA0008009CAF8004001D4282806D0E9690698BC
:101EB00088475FEACB7012D022E0A9690698641CBB
:101EC00088477F1E01D4002803DAE969069888470D
:101ED000BCE72928F1D1641CCAF80040E9E71BF0EF
:101EE000240F07D028680499031D2B600068C0E9FF
:101EF000001805E02868021D2A600068C0F80090FC
:101F00002046A5E70000F07F494E46494E49545906
:101F1000000000003A2800D2303820F02002412A88
:101F200001D3A2F13700884201D34FF0FF30704750
:101F30002DE9F04F81B02DED028B88B0054634F0CD
:101F400047FE34F045FE0446284632F021F8284684
:101F50002E4632F00FF840F20457C2F200070FF29B
:101F60005063002100220546009710F041F801213E
:101F700034F054FC4CF6E429C2F201094621C9F8B8
:101F8000000038F025FDD9F8000045F69D31C0F677
:101F900004011D22002332F0FDFD0FF224632846C8
:101FA00000210022009710F023F8012134F036FCC4
:101FB0004621C9F8040038F00BFDD9F8040045F6B5
:101FC000F141C0F604011D22002332F0E3FDD9F8EF
:101FD0000400802132F066FE3046059631F0D8FFCD
:101FE000304631F0C7FFCDE906402046002131F0F0
:101FF00079FB05460490204631F00EFB00211222A9
:1020000035F022FC04B228462146002238F0B0FC0C
:1020100028462146002238F0B1FC284631F0AAFFBC
:1020200049F23573C0F606030021002205460097E9
:102030000FF0FCFD012134F0F1FB4621C9F8080046
:1020400038F0C6FCD9F808002EF05AFF39460022B5
:10205000044632F03BFE49F21B71C0F606012046F1
:1020600030F08EF9204609210022002332F022FFB1
:10207000D9F8080041F2A501C0F6010100220023B1
:1020800032F088FD40F21856C2F2000696ED340A8E
:1020900096ED351A49F2227840F2FC4B9FEDFB8A0F
:1020A000BDEEC00A40F20C57C0F60608C2F2000BA3
:1020B000BDEEC11A8DED010AC2F200070FF21053F6
:1020C000284641465A46B0EE480A8DED021A00975E
:1020D0000FF088FE0021044634F0A0FBC9F81C0074
:1020E0002046012134F09AFBC9F82800204602213D
:1020F00034F094FBC9F810002046042134F08EFB24
:1021000042F2152AC0F6040A51461D220023C9F8DE
:10211000340032F03FFD2046032134F07FFB96ED82
:10212000360A96ED371ABDEEC00AC9F838008DEDB3
:10213000010A9FEDD70ABDEEC11A0FF29843284657
:1021400041465A468DED021A00970FF04BFE0021D2
:10215000044634F063FBC9F820002046012134F026
:102160005DFBC9F82C002046022134F057FBC9F86A
:1021700014002046042134F051FB51461D22002357
:10218000C9F83C0032F006FD2046032134F046FB3E
:1021900096ED380A96ED391ABDEEC00AC9F840002E
:1021A0008DED010A9FEDBB0ABDEEC11A0FF2284367
:1021B000284641465A4600978DED021A0FF012FE4E
:1021C0000021044634F02AFBC9F8240020460121EE
:1021D00034F024FBC9F830002046022134F01EFB05
:1021E000C9F818002046042134F018FB51461D227E
:1021F0000023C9F8440032F0CDFC2046032134F01E
:102200000DFBC9F84800079840F20457F3A30021DA
:102210005A46C2F2000700970FF0F6FE40F2C045A2
:10222000069CC2F20005049A01466860204631F01F
:10223000BDFE6868802132F035FD2046002131F076
:1022400051FA0546204631F0E7F90021122235F017
:10225000FBFA04B228462146002238F089FB2846C2
:102260002146002238F08AFB284631F083FE49F2ED
:10227000357300210022C0F60603804600970FF058
:10228000D5FC012134F0CAFA4621C9F84C0038F0D7
:102290009FFBD9F84C002EF033FE3946002204464D
:1022A00032F014FD49F21B712046C0F6060130F0F1
:1022B00067F8204609210022002332F0FBFDD9F8FF
:1022C0004C0041F2B901C0F601010022002332F0B6
:1022D00061FC49F2227A5A206FF0290149F2147305
:1022E0009FEDC20AC0F6060ACDE90110C0F606034A
:1022F000404651465A465E4600970FF073FD012155
:10230000044634F08BFAC9F860002046022134F00C
:1023100085FAC9F854002046042134F07FFA42F2CD
:10232000552BC0F6040B59461D220023C9F86C003A
:1023300032F030FC2046032134F070FAD9F86C10EA
:10234000C9F87000012008617620082149F20D7358
:102350009FEDA70ACDE90110C0F60603404651469D
:10236000324600970FF03EFD0121044634F056FA44
:10237000C9F864002046022134F050FAC9F8580028
:102380002046042134F04AFA59461D220023C9F898
:10239000740032F0FFFB2046032134F03FFAD9F8F5
:1023A0007410C9F87800022008612D206FF02C010C
:1023B00049F22A73CDE90110C0F6060340465146A2
:1023C0003246B0EE480AB0460097BA460FF00AFD12
:1023D0000121044634F022FAC9F86800204602219F
:1023E00034F01CFAC9F85C002046042134F016FAD7
:1023F00059461D220023C9F87C0032F0CBFB204651
:10240000032134F00BFAD9F87C10C9F880000320BE
:102410000861079877A30021324600970FF0F4FD7A
:1024200040F2C044069FC2F20004014620603846D4
:102430002A4631F0BBFD2068802132F033FC059C38
:10244000204631F0A5FD204631F094FD0646384681
:10245000002131F047F90546384631F0DDF800211A
:10246000122235F0F1F904B228462146002238F054
:102470007FFA28462146002238F080FA284631F0BB
:1024800087FD284631F076FD00F006B80000000018
:10249000000020430000C84249F21471C0F6060152
:1024A00001F076FB0321044634F0B8F9C9F8840042
:1024B0002046042134F0B2F9C9F8880020460821EA
:1024C00034F0ACF9C9F88C002046092134F0A6F9A3
:1024D000C9F8900020460A2134F0A0F9C9F8940008
:1024E000284631F055FD284631F044FD49F20D7182
:1024F000C0F6060101F04CFB0321044634F08EF9CE
:10250000C9F898002046042134F088F9C9F89C00E5
:102510002046082134F082F9C9F8A000204609219C
:1025200034F07CF9C9F8A40020460A2134F076F989
:10253000C9F8A800284631F02BFD284631F01AFDD5
:1025400049F22A71C0F6060101F022FB032104467C
:1025500034F064F9C9F8AC002046042134F05EF987
:10256000C9F8B0002046082134F058F9C9F8B40081
:102570002046092134F052F9C9F8B80020460A2152
:1025800034F04CF9C9F8BC001EA330460021424685
:10259000CDF800A00FF038FD014638462A4608B0B5
:1025A000BDEC028B01B0BDE8F04F31F0FFBC00BFC5
:1025B000E5BC80E590AFE8B083E8AF95000000008F
:1025C000E58AA8E58A9BE68EA7E588B600000000AC
:1025D00058000000590000005A000000E69CABE7DC
:1025E000ABAFE68EA7E588B600000000000004C28D
:1025F00000007442E794B5E69CBAE8B083E8AF9572
:1026000000000000E7BC96E7A081E599A8E4BFA11F
:10261000E681AF002DE9F04385B040F60004C4F236
:102620000204164689460746204620210022984685
:1026300001F080FF20461021002201F07BFF41F2D3
:1026400034052A20C2F20005ADF806000DF106019E
:1026500028460122FF2304F003FD20461021012219
:1026600001F068FF20462021012201F063FF20468F
:102670001021002201F05EFF02A928460122FF235B
:10268000ADF8087004F0ECFC20461021012201F0A6
:1026900051FF20462021012201F04CFF204610214D
:1026A000002201F047FF0DF10A0128460122FF2315
:1026B000ADF80A6004F0D4FC20461021012201F09C
:1026C00039FF20462021002201F034FF204610214E
:1026D000002201F02FFF2B20ADF80C0003A92846A3
:1026E0000122FF2304F0BCFC20461021012201F04E
:1026F00021FF20462021012201F01CFF204610214D
:10270000002201F017FF0DF10E0128460122FF23E0
:10271000ADF80E9004F0A4FC20461021012201F037
:1027200009FF20462021012201F004FF204610214C
:10273000002201F0FFFE04A928460122FF23ADF884
:10274000108004F08DFC20461021012201F0F2FEE1
:1027500020462021002201F0EDFE2046102100221B
:1027600001F0E8FE2C20ADF812000DF11201284610
:102770000122FF2304F074FC20461021012201F005
:10278000D9FE05B0BDE8F08330EE800AB5EE400A10
:102790009FED0E2AF1EE10FA02DA30EE020A08E09E
:1027A000B4EE420AF1EE10FAC4BF9FED092A30EEF2
:1027B000020A9FED072AB4EE410A30EE022AF1EE3A
:1027C00010FAC8BFB0EE420A704700BF0000B44321
:1027D0000000B4C3000000002DE9F04F81B02DEDE2
:1027E000048B8AB090ED020B9FEDB51B5AEC108B59
:1027F00090ED008B90ED049B069153EC112B40461D
:10280000514646F03FFE074655EC180B0C4629464C
:1028100002462B46099047F045F981460E46384658
:1028200021463A4623460897079447F03BF94A4623
:10283000334646F027FE9FEDA40B814656EC107BF5
:102840008B46404651463A46334647F05EFC28BB2D
:102850009FED9F0B099853EC102B294647F06AFC1B
:10286000E0B99FED9D0B099853EC102B294647F0DA
:102870004CFC98B99FED9A0B404653EC102B5146F7
:1028800047F058FC50B99FED9E0B51EC190B53ECDF
:10289000102B47F03AFCD0BB00240AE140465146D9
:1028A0003A46334647F031FC30BB9FED890B09981F
:1028B00053EC102B294647F03DFCE8B99FED8A0BFD
:1028C000099853EC102B294647F01FFCA0B99FED47
:1028D000880B404654EC106B51463246234647F075
:1028E00029FC48B951EC190B3246234647F00DFC40
:1028F00068B90024DDE000BF9FED7F0B51EC190BA0
:1029000053EC102B47F00FFC002840F0D1804BEC2B
:10291000109B46F099FBB0EE408AF0EE608A9FED86
:102920007A0B53EC192B51EC100B47F0C7FA024607
:102930000B46044605950D4647F0B4F802460B4693
:102940004846594646F09EFD41EC100B46F07CFB94
:10295000B0EE409A53EC182B20462946F0EE609AD0
:1029600046F04CFE41EC100B45F0A6FEB0EE408A5E
:10297000F0EE608A9FED660B51EC190B53EC102BB7
:1029800047F090F841EC100B45F0EAFC5AEC184B7C
:1029900057EC10BBDDF81880204651465A463B469E
:1029A00047F08CFA9FED5C0B53EC109B4A46029368
:1029B00047F078F89FED5A0B55EC106B32462B46DA
:1029C00046F060FD41EC100BCDE903105846394646
:1029D0002246534688ED000BAB4646F053FD029F5E
:1029E0004A463B4647F05EF802460B4630462946CB
:1029F00047F064FACDE9001041EC100B09980599F5
:102A0000DDE90732444688ED020B46F0F7FD41EC64
:102A1000100B45F051FE51EC100B4A46039D3B460E
:102A2000049F47F03FF841EC100B824684ED040B05
:102A30009FED3D0B884653EC102B38462946002469
:102A400047F078FBA8BB3846294632465B4647F03C
:102A50005CFB70BB9FED360B019D009E53EC102B71
:102A600028463146002447F065FB10BB9FED320B32
:102A7000284653EC102B314647F047FBC8B99FED71
:102A8000300B504653EC102B414647F045FB9FED71
:102A90002E0B0446002853EC102B5046414618BF1D
:102AA000012447F040FB002818BF0120044000E04B
:102AB000002420460AB0BDEC048B01B0BDE8F08FC5
:102AC00000000000004058C00000000000C06A4044
:102AD00000000000008061C000000000000049C04C
:102AE0000000000000C053400000000000805B4078
:102AF00000000000000000000000000000405FC077
:102B00000000000000003E40333333333373404055
:102B1000ED588130D28E653FAA9F9622DCA54C40AD
:102B2000000000000080564066666666662645C066
:102B300000000000000020400000000000805D4018
:102B400000000000008046C00000000000804640F9
:102B500070B540F218504FF2D57E49F2C2134FF2D1
:102B6000F50C47F2E652C2F20000CCF25F0EC0F262
:102B70004B13C4F2680CC0F21852C0E9063EC0E91B
:102B8000082C4FF6520E46F27C424BF6FF74C4F20C
:102B9000640EC4F6853248F2636C46F2A703C4F2B1
:102BA00067046FF00105C4F2620CC0F6BD43C0E9D2
:102BB0000C2EC0E9125448F200024EF28975C0E9A9
:102BC0000E3CC4F24D02C2F6B42547F2611448F23D
:102BD0005A03C4F23A04C2F2F57342F2D44E4DF6EF
:102BE0003866C0E9145200F16002CCF2600EC7F200
:102BF000B31682E858404CF2092447F6E02545F622
:102C00007C3243F2AB13C4F22604C3F24965CCF222
:102C10005902CBF24E73C0E9205449F68A2440F69B
:102C20002C654BF20806C0E91E3245F629424BF2EC
:102C30003D23C1F26A74C4F26B05C2F2FE46C4F2CF
:102C40007602C2F2C253C0E9264CC0E92A6540F6BA
:102C5000AC354EF646340021C0E924324AF25542E2
:102C60004FF29F1346F66C66C4F27205C0F6EA0492
:102C7000C0E90411C0E90A11C0E91011C0E9161138
:102C8000C0E91C11C0E92211C0E92811C6F2067280
:102C9000C4F24303C2F67E36C0E92E11C0E93245C4
:102CA00045F6AC1145F293050024C0E92C2EC0E98D
:102CB0003063CCF2863145F6AC124BF6606348F2D5
:102CC0000006C4F28335CCF2FA2400F1D00CC4F231
:102CD0008632CCF28D03C4F2EE368CE84E00C0E9A9
:102CE000384570BD80B541F24820C2F20000002195
:102CF00007F010FE40F21850C2F2000001210170EE
:102D000080BD0000000000002DE9F04F81B02DEDE6
:102D1000068B84B00F46FFF75FFD002800F0568158
:102D200040F60415C2F2000595ED151A9FEDB00AA4
:102D3000039030EE410AB5EE400AF1EE10FA03DAE4
:102D40009FEDAE0A09E000BF9FEDAA2AB4EE420A49
:102D5000F1EE10FA03DD9FEDA80A30EE410A9FED77
:102D6000A91A9FEDA78AB4EE410A30EE082AF1EEC7
:102D700010FAC8BFB0EE420A10EE100A47F08CF904
:102D800097ED000B54EC106B3246234647F096F853
:102D90009FED910B80468B4651EC100B95ED171A69
:102DA0009FED990A4FEAD17A30EE410AB5EE400A1A
:102DB000F1EE10FA6AF3DF7B029403DA9FED940AD6
:102DC00009E000BF9FED8B2AB4EE420AF1EE10FA43
:102DD00003DD9FED8E0A30EE410A9FED869A30EEBC
:102DE000081AB4EE490AF1EE10FAC8BFB0EE410A73
:102DF00010EE100A47F050F997ED020B53EC102B30
:102E000047F05CF895ED191A9FED820A0D4631EEF8
:102E1000000AB5EE400A0446F1EE10FA6AF3DF75D7
:102E2000019605DA9FED7D0A464631EE000A09E07B
:102E3000B4EE490AF1EE10FA4646C4BF9FED760A99
:102E400031EE000A9FED761A30EE082AB4EE410A00
:102E5000F1EE10FAC8BFB0EE420A10EE100A47F0C9
:102E60001BF997ED040B009753EC102B47F026F855
:102E7000814688463046594622462B466AF3DF781B
:102E800047F058F9D0B9304659464A46434647F0CC
:102E900051F998B92046294632465B4646F0AEFBCA
:102EA00041EC190B4846414632465B4646F0A6FBCC
:102EB0009FED4BAB41EC180B42E000BF204629468A
:102EC00032465B4647F036F9D0B9204629464A4695
:102ED000434647F02FF998B93046594622462B46CB
:102EE00046F08CFB41EC1A0B4846414622462B46E5
:102EF00046F084FB9FED3A9B41EC180B20E000BFAD
:102F00004846414632465B4647F014F9C0B9484648
:102F1000414622462B4647F00DF988B930465946BE
:102F20004A46434646F06AFB41EC1A0B20462946C6
:102F30004A46434646F062FB41EC190B9FED288B55
:102F40009FED290B51EC1A0B54EC105B2A462346DB
:102F500046F0A8FD46F0E8FC0646DDE9010146F032
:102F60005FFA00EE100A01203146FF2207F05CFCF8
:102F700051EC190B2A46234646F094FD46F0D4FC4A
:102F8000009F064697ED020B51EC100B46F048FAF5
:102F900000EE100A02203146FF2207F045FC51ECFA
:102FA000180B2A46234646F07DFD46F0BDFC97ED02
:102FB000040B044651EC100B46F032FA00EE100AF6
:102FC00003202146FF2207F02FFC039804B0BDEC3C
:102FD000068B01B0BDE8F08F00000000000000008B
:102FE000000000000000F03F00000000000024404E
:102FF00068669A420000B44366668DC39A99DA43C4
:103000000000B4C3000082436666FA42CDCC6AC3B6
:103010009A99F24300007CC20080D3C3008094439D
:10302000000087432DE9F0472DED088B84B040F672
:103030000415C2F2000595ED150A9FED9F8A38EE42
:10304000400A10EE100A47F027F849F20678C0F659
:1030500006080DF1060402460B4620464146FDF7E0
:10306000DBF94CF6E427C2F20107D7F884002146C9
:103070002FF086F995ED150A9FED909A9FED90AA95
:1030800038EE400AF0EE490AB0EE4A1AFFF77CFB30
:1030900095ED151AB0EE40BA38EE410AF0EE490A45
:1030A000B0EE4A1AFFF770FB10EE100A46F0F4FF7C
:1030B00049F20579C0F6060902460B46B5EE40BA5C
:1030C00049462046F1EE10FAB8BF4146FDF7A4F993
:1030D000D7F8880021462FF053F9786D21462FF05C
:1030E0004FF995F8581049F23176D7F88C00C0F6B0
:1030F000060649F2267A00293146C0F6060A08BFBC
:1031000051462FF03DF995F85910D7F89000002955
:10311000314608BF51462FF033F995F85A10D7F8C9
:1031200094000029314608BF51462FF029F995ED4A
:10313000170A38EE400A10EE100A46F0ADFF0246BC
:103140000B4620464146FDF767F9D7F8980021461F
:103150002FF016F995ED170A9FED5A9A38EE400AAE
:10316000F0EE490AB0EE481AFFF70EFB95ED171A7C
:10317000B0EE40AA38EE410AF0EE490AB0EE481A25
:10318000FFF702FB10EE100A46F086FF02460B46E0
:10319000B5EE40AA49462046F1EE10FAB8BF4146C6
:1031A000FDF73AF9D7F89C0021462FF0E9F8B86D01
:1031B00021462FF0E5F895F86010D7F8A000002917
:1031C000314608BF51462FF0DBF895F86110D7F86B
:1031D000A4000029314608BF51462FF0D1F895F8D8
:1031E0006210D7F8A8000029314608BF51462FF0D9
:1031F000C7F8686E46F050FF02460B46204641462F
:10320000FDF70AF9D7F8AC0021462FF0B9F89FED89
:103210002E8A9FED2E9A95ED190AF0EE480AB0EE2F
:10322000491AFFF7B1FA95ED191AB0EE40AAB0EEBF
:10323000410AF0EE480AB0EE491AFFF7A5FA10EE7F
:10324000100A46F029FFB5EE40AA02460B46F1EE01
:1032500010FAB8BFC14620464946FDF7DDF8D7F859
:10326000B00021462FF08CF8F86D21462FF088F839
:1032700095F86810D7F8B4000029314608BF5146C8
:103280002FF07EF895F86910D7F8B800002931467C
:1032900008BF51462FF074F895F86A10D7F8BC00B3
:1032A000002908BF564631462FF06AF804B0BDEC3D
:1032B000088BBDE8F08700BF0000B44366668DC38D
:1032C00000008243CDCC6AC300007CC2000087436B
:1032D000B0B58CB041F24824C2F20004204600216F
:1032E000002507F099FB40F21850C2F2000005706B
:1032F00020460021002207F04DFB0020C4F26400AC
:10330000CDE908500020C4F25900CDE90A5006A8C2
:103310006946CDE90655FFF7F7FC44F23440C4F2A4
:103320000100FA2101600CB0B0BD000010B541F2FF
:103330004820C2F200000021002407F06DFB40F29B
:103340001850C2F20000047010BD000070B586B0C5
:103350004CF6E426C2F20106F06E6FF02001012265
:103360001AF034FD706F3D2101221AF02FFDF06F2D
:10337000002101221AF02AFD49F22D35C0F606057A
:1033800001AC204614212A466FF0200338F0AEFD30
:10339000306F21462EF0F4FF204614212A463D23AB
:1033A00038F0A4FDB06F21462EF0EAFF204614212C
:1033B0002A46002338F09AFDD6F8800021462EF0E8
:1033C000DFFF06B070BD00002DE9F04186B040F689
:1033D0000418C2F20008B8F84A5040F2006740F200
:1033E0001854C2F20007C2F200041DB328B246F01E
:1033F000CAFA9FED650B53EC102B46F053FB46F0D9
:1034000093FA796894ED341A084400EE100AB8EE85
:10341000C00AB4EE401AF1EE10FA786006DC94EDC2
:10342000351AB4EE401AF1EE10FA03DABDEEC10A15
:1034300087ED010AB8F84C00002D18BF012520B314
:1034400000B246F0A0FA9FED500B53EC102B46F063
:1034500029FB46F069FAB96894ED361A084400EE83
:10346000100AB8EEC00AB4EE401AF1EE10FAB860D5
:1034700006DC94ED371AB4EE401AF1EE10FA03DAD6
:10348000BDEEC10A87ED020A012598F8360098F8CA
:10349000381051EA00021DD0081AF96800EBC0008C
:1034A000084400EE100A94ED381AB8EEC00AB4EEE3
:1034B000401AF1EE10FAF86006DC94ED391AB4EE19
:1034C000401AF1EE10FA06DABDEEC10A87ED030AE2
:1034D00001E000BFD5B34CF6E426C2F20106706BE2
:1034E000796801221AF072FCF06BB96801221AF0B7
:1034F0006DFC706CF96801221AF068FC49F22D35F8
:1035000000207A68C0F6060501ACCDE90400CDE9DB
:103510000200019020462946FCF77EFFB06B214651
:103520002EF02EFFBA6820462946FCF775FF306C56
:1035300021462EF025FFFA6820462946FCF76CFF4D
:10354000B06C21462EF01CFF18F032FE98F83D10AA
:1035500098F83E00012908BF002807D0002908BFBD
:10356000012805D100F0BCFA02E000BF00F0C0FA6B
:1035700098F83700012808BF18F074FE06B0BDE8BF
:10358000F08100BF00BF00BF7B14AE47E17A843FEB
:1035900040F20060C2F2000000210430A022642347
:1035A0000EC07047F0B583B040F604174CF6A43651
:1035B000C2F20007C2F2010697F83420306849F2DF
:1035C000427149F25273C0F60601C0F60603012AA1
:1035D00008BF19462EF0D4FE0020B7F942206C46F1
:1035E000ADF808000190009024A12046FCF714FFDC
:1035F000706821462EF0C4FE49F22D35B7F94420FB
:10360000C0F6060520462946FCF706FFB0682146AD
:103610002EF0B6FEB7F9462020462946FCF7FCFE00
:10362000F06821462EF0ACFEB7F948202046294626
:10363000FCF7F2FE306921462EF0A2FEB7F94A20CF
:1036400020462946FCF7E8FE706921462EF098FED8
:10365000B7F94C2020462946FCF7DEFEB06921462A
:103660002EF08EFEB7F94E2020462946FCF7D4FEF8
:10367000F06921462EF084FE03B0F0BD307825308D
:103680003278000010B540F21C64C2F2000494F8D5
:103690004D0094F89D1008431AD094F84E0010B1D4
:1036A000002007F079FD94F89E0010B1012007F08A
:1036B00073FD40F2BC60C2F200009FED110A90ED74
:1036C000001AF0EE400AFF2009F022FD0AE000BFD8
:1036D00040F61420C2F2000090F82A00002808BF2B
:1036E00000F09EF840F20064C2F200042078002846
:1036F00008BF10BDFFF768FE0020207010BD00BF9E
:1037000000000000F0B581B0044630F041FC2046D6
:1037100030F030FC40F60411C2F2000191F8341090
:1037200049F2527249F24273C0F60602C0F606032D
:1037300040F20457012908BF1346C2F200070021D6
:10374000002200970EF060FC002133F067F84CF681
:10375000A437C2F201073860204630F019FC204639
:1037600030F008FC2FF038FF40F20C54C2F2000495
:103770001EA122A32246054600940EF079FC49F2D0
:10378000E376C0F6060678601EA128462246334638
:1037900000940EF06DFCB8601BA12846224633460B
:1037A00000940EF065FCF86018A1284622463346C6
:1037B00000940EF05DFC386115A128462246334680
:1037C00000940EF055FC786112A12846224633463B
:1037D00000940EF04DFCB8610FA1284622463346F6
:1037E00000940EF045FCF86101B0F0BD64696769B2
:1037F00074616C5F64617461000000003078303087
:10380000000000004C5F58004C5F59004C5F3200D4
:10381000525F5800525F5900525F320000000000B2
:103820002DE9F0412DED048B40F60410C2F20000AA
:10383000B0F8441001F1630292B2C62A9CBF002185
:10384000A0F84410B0F8467007F1630292B2C62A9D
:103850009CBF0027A0F8467090F83520012A05D1BA
:10386000BDEC048BBDE8F04109F0EEBBB0F9486057
:10387000B0F94E8057EA01020CD1002E0ADCB8F1F3
:10388000010F07DA90F83B10012937D1BFEE000A8B
:103890003AE000BF08B246F076F89FED330B55ECE6
:1038A000104B22462B4646F0FDF845F0B9FD08EED8
:1038B000100A38B246F067F822462B4646F0F2F876
:1038C00045F0AEFD09EE100AA6EB080046F05BF8E5
:1038D0009FED270B53EC102B46F0E4F845F0A0FDCC
:1038E00001EE100AB0EE480AF0EE490AFF20BDECE6
:1038F000048BBDE8F04109F0CFBB00BF90F83C104D
:1039000001290DD1B7EE000ADFED1B0AB0EE601AF7
:10391000FF20BDEC048BBDE8F04109F0BDBB00BF4A
:1039200090F83910012905D19FED130AF7EE000A2E
:1039300008E000BF90F83A0001280DD19FED0E0A73
:10394000FFEE000AB0EE401AFF20BDEC048BBDE88C
:10395000F04109F0A1BB00BFBDEC048BBDE8F04114
:1039600009F0F2BC00BF00BFFCA9F1D24D62503F8C
:103970007B14AE47E17A743F0000000080B5002060
:10398000C4F202004FF4004100F0CEFD012080BDE2
:1039900070470000014640F6B070C2F2000002F02D
:1039A0000DBD000080B540F6B070C2F2000002F01C
:1039B00017FD043818BF012080BD000080B500F05D
:1039C0000DF801281CBF012080BD40F6B070C2F286
:1039D0000000BDE8804002F075BE000080B582B0F6
:1039E00001208DF80700FFF7C9FF002804BF002061
:1039F0008DF807009DF8070002B080BD80B5134622
:103A00000A46014640F6B070C2F2000003F032F8F8
:103A1000002818BF012080BD40F2CC60C2F2000037
:103A2000012101607047000080B513460A46014637
:103A300040F6B070C2F2000003F0C2F8002818BFD0
:103A4000012080BD40F64020C2F20000012101604B
:103A50007047000070470000B0B584B0044630F0F5
:103A600097FA204630F086FA40F20452002564218D
:103A7000C2F20002CDE90025029113A30021002229
:103A800003950EF099F80121044632F0C7FE4CF67A
:103A9000C435C2F201050EA168602EF071FC20460B
:103AA000022132F0BBFE0CA1A8602EF069FC20467A
:103AB000032132F0B3FE42210122286004B0BDE8A8
:103AC000B0401AF083B900BFE6B2B9E9878F0000B1
:103AD000332E394C0000000036362500FEE700008A
:103AE00044F23440C4F20100B82101607047000084
:103AF00044F23440C4F20100FA2101607047000032
:103B000040F66840C2F2000000F028BA40F6E850E3
:103B1000C2F2000000F022BA40F6C840C2F2000033
:103B200000F01CBA40F64860C2F2000000F016BA7D
:103B300040F62850C2F2000000F010BA10B540F66E
:103B40008854C2F20004204600F008FA94F83500C8
:103B5000012818BF10BD40F65830C2F200000068BE
:103B60001EF0EEFD40F60000C4F20200102101221A
:103B7000BDE8104000F0DEBC40F6A860C2F20000D4
:103B800000F0ECB970470000102000F0E3BB00002B
:103B90002DE9F04F83B00E462FF01EFD40F2640277
:103BA000C2F2000202F10C01044636F071FB20461D
:103BB0002DF0A6F940F20458C2F200084146002256
:103BC00007464FF0000931F081F8384631462EF0B3
:103BD000D7FB01253846012103220123CDE90099B5
:103BE00002954FF0030A36F01DFB20462DF088F9B0
:103BF00041460022064631F069F86DA130462EF0AC
:103C0000BFFB3046002100220123CDE9009502953B
:103C100036F008FB20462DF073F941460022064697
:103C200031F054F866A130462EF0AAFB304602214E
:103C300005220123CDE9009502954FF0020B36F0E5
:103C4000F1FA20462DF05CF940F20C56C2F2000663
:103C500031460022074631F039F85DA138462EF092
:103C60008FFB3846002102220123CDE9009B0295FB
:103C700036F0D8FA20462DF043F9314600220746A7
:103C800031F024F854A138462EF07AFB3846002152
:103C900004220123CDE9009B02954FF0040B36F07E
:103CA000C1FA20462DF02CF941460022064631F09B
:103CB0000DF84BA130462EF063FB30460021002268
:103CC0000123CDE9009A029536F0ACFA20462DF09A
:103CD00017F941460022064630F0F8FF42A130466F
:103CE0002EF04EFB3046012103220123CDE9009A3C
:103CF000029536F097FA20462DF002F9414600224F
:103D0000064630F0E3FF3AA130462EF039FB30464C
:103D1000022105220123CDE9009A029536F082FAAC
:103D200020462DF0EDF841460022074630F0CEFF48
:103D300049F22676C0F60606384631462EF020FBBC
:103D40003846002101220123CDE9009B029536F07F
:103D500069FA20462DF0D4F841460022074630F09B
:103D6000B5FF384631462EF00BFB384601210322C1
:103D70000123CDE9009B029536F054FA20462DF040
:103D8000BFF841460022074630F0A0FF38463146D2
:103D90002EF0F6FA3846002105220123CDE9009BDA
:103DA000029536F03FFA204603B0BDE8F08F00BF21
:103DB000E7BC96E7A081E599A8E8A792E5BAA60036
:103DC000E5AE9EE99985E8A792E5BAA60000000055
:103DD0003030302E300000002B3030302E300000DC
:103DE000E8B685E9809F0000E5BCB1E7A38100004B
:103DF000E4BD8EE58E8B0000EFF3108072B600BF3D
:103E0000FEE7000080B540F64833C2F200035A7A5C
:103E1000002A1CBF012080BD93F809C086460020FF
:103E200003F80C005A7A03EB8202C2F804E05A7AD3
:103E30001A44107293F809C00CF101025A720CF185
:103E400030020A7042F63A72A1F80120C87080BDB3
:103E5000B0B5864602208EF80500DEF800008368C3
:103E600043F0010383605AB3531E032B02F0030C8B
:103E700002D2002212E000BF22F00303A1F11004DD
:103E8000002200BF54F8105F043205606568934259
:103E90000560A5680560E5680560F3D1BCF1000F19
:103EA0000ED051F82230BCF1010F036008D001EBB5
:103EB00082014A68BCF1020F02601CBF8968016080
:103EC000006801218EF80510B0BD0000002804BF75
:103ED0000120704710B50446407918B10120607187
:103EE000002010BD00202071204600F005F80120C0
:103EF0006071002010BD000081B043F63001C4F2B3
:103F000002010068A1F50362904201D001B0704740
:103F100000200090086840F480500860086800F4B1
:103F200080500090009801B07047000090F8351064
:103F3000022909D1052180F835100068016821F0B7
:103F40000101016000207047802141650120704718
:103F5000406D704790F8350070470000F0B581B0B3
:103F600004460020009040F2EC00C2F2000002681B
:103F7000D4E9166048F2B51337680821C1F64E330C
:103F800081403942A2FB03250CD0226813685B07ED
:103F900008D5136823F004031360B160616D41F02C
:103FA0000101616501218140394208D022685269CE
:103FB000120604D5B160616D41F002016165042112
:103FC0008140394208D022681268920704D5B16056
:103FD000616D41F00401616510218140394217D0C3
:103FE00020680268120713D5B160026801685203A5
:103FF00008D4C90508D4016821F008010160216CCA
:1040000021B905E0080343D4216C09B12046884753
:10401000E16D202000FA01F23A4245D020680368A1
:10402000DB0641D5B26094F835300268052B1FD10C
:1040300022F016020260426922F080024261226C84
:104040000AB9A26C1AB1026822F0080202603F208D
:104050008840B060012084F83500216D00200029DF
:1040600084F8340058D02046884701B0F0BD00BF26
:104070000168520310D4C90512D4016821F010015F
:104080000160012084F83500002084F8340007E046
:10409000A16C0029BAD1BBE7080301D4616C00E030
:1040A000E16B09B120468847606DA8B3606DC00719
:1040B0002ED0052084F835002068A90A026822F075
:1040C00001020260009A01328A4200921AD8026804
:1040D000D20717D0009A01328A42009212D80268A1
:1040E000D2070FD0009A01328A4200920AD80268A1
:1040F000D20707D0009A01328A42009202D80268A1
:10410000D207DFD1012084F83500002084F8340084
:10411000E16C09B12046884701B0F0BD2DE9F041BE
:10412000044600F00DFA002C4ED00546022084F81B
:1041300035000020216884F83400086820F0010070
:1041400008600868C00708D000F0FAF9401B05288D
:104150006CD821680868C007F6D1086848F23F02A9
:10416000CFF21002D4E90135024004F10C0E9EE8B2
:10417000C1511A432A4310433043384340EA0800F0
:10418000626A40EA0C00042A40EA0E0320D1D4E916
:104190000A5E206B4EEA0302104308604869BEF1D4
:1041A000000F20F0030040EA050040F0040C15D099
:1041B000B8F5005F42D0B8F1000F51D1022D52D0B6
:1041C000012D47D055B94EE00120BDE8F08100BF78
:1041D0000B60486920F0070040EA020C6FF00F0006
:1041E0004AF6AB2250FA81F0CAF6AA22A0FB0223BB
:1041F0001A094AF2C073C0F604039A5C40F2FF3316
:104200005F284FF03F00C1F814C021EA030100FA13
:1042100002F088BF0431C4E916128860002301222D
:104220000020636584F83520BDE8F0810322202357
:104230000320636584F83520BDE8F081032DCDD8D7
:10424000012240230120DFE805F0030E030500BF33
:10425000E7E700BFAEF1C070B0FA80F0400904E0BB
:10426000032D04D3BAD1CEF300600028B6D00122CA
:1042700040230120636584F83520BDE8F08100000B
:1042800070B590F834C0BCF1010F46D04FF0010C6E
:1042900080F834C0D0F858E090F835C0BCF1010F78
:1042A00038D14FF0020C80F835C04FF0000CC0F848
:1042B00054C0D0F800C08468056CC06DDCF80060A4
:1042C000402C26F48026CCF80060CCF804300B4655
:1042D00004BF13460A463F2101FA00F0CCF808302B
:1042E000CCF80C20CEF80800DCF8000040F01600F6
:1042F000CCF800002DB1DCF8000040F00800CCF84C
:104300000000DCF8000040F00100CCF800000020C4
:1043100070BD00BF002180F83410022070BD000085
:10432000B0B5044600F00CF9054640F20000C2F2B8
:1043300000000078611C18BF044400BF00F000F9C1
:10434000401BA042FAD3B0BD102808BF16F0F8BE3B
:104350007047000043F61441C4F201010A680242AA
:1043600014BF08607047FFF7EFBF00002DE9F04F62
:1043700082B043F6004C40F60042C4F2010CC4F295
:104380000202072300244FF001094FF0000B4FF009
:104390000008904208BF032300933FE0012204F08D
:1043A0000C030F259D402EEA05059A402A4346F846
:1043B0002720DCF808204B6842EA0A0743F60C4540
:1043C000DE0258BF22EA0A07CCF80870C4F20105E1
:1043D0002A689E0242EA0A0758BF22EA0A072F60AB
:1043E000DCF804209E0342EA0A0758BF22EA0A07C3
:1043F000CCF80470DCF80020DB0342EA0A0758BF5F
:1044000022EA0A07CCF800700BF1020B08F1010850
:10441000BBF1200F04F1040400F082800A6809FA5D
:1044200008FA12EA0A0FEFD0D1F8049009F0030657
:10443000721E012A16D882680323CF6803FA0BF58F
:10444000AA4307FA0BF73A4382604268EF43C9F385
:10445000001522EA0A0205FA08F54FEA480E2A4337
:10446000426009E0032202FA0BF2D743032EDE4634
:1044700002D1DE4603261DE0C2688D683A4005FA87
:104480000EF52A43022EC26014D16FF0030202EA35
:1044900058020244D2F8209004F01C060F230D6944
:1044A000B34029EA0303B5402B431362D1F80490CB
:1044B00009F00306026806FA0EF33A401A4319F4AB
:1044C000403F4FF0010902609ED0002243F64407AE
:1044D0000192C4F202073B68ACF57E7643F4804358
:1044E0003B603B684FEA980703F480430193019BCC
:1044F000002356F827E0C4F2020398423FF44FAF7E
:1045000040F20042C4F2020290423FF447AF40F64C
:104510000002C4F202029042009A08BF02223EE763
:1045200002B0BDE8F08F00000069084018BF01200C
:1045300070470000002A08BF09048161704700002D
:1045400045F65460C2F203000068704770470000EF
:1045500070470000F0B581B00446006847694268C2
:1045600094F83E1002F480763E420FBF00256FF4AF
:10457000807242610125BA0505D5002E1EBF0235A5
:104580006FF4007242617A0516D5AEB1628D94F86F
:104590003D30D4F830C0202908BF002A24D06FF461
:1045A0008062402905F10405426101D0102903D140
:1045B000016841F400710160380507D536B1206803
:1045C00008356FF40061416101E000BF55B1206C16
:1045D00040EA05012046216401B0BDE8F04004F046
:1045E000E7B800BF01B0F0BD43F00801292909D0A8
:1045F000282B08BFBCF1210F04D06FF4806141610A
:104600000435D9E794F83D10E26A202A01D0082A3F
:104610001ED121291ED0282938D10021CFF6FF71C3
:10462000E162416821F4E06141606FF480614161C1
:10463000016821F48061016000202021206384F85A
:104640003D1084F83E00204600F0CCFDB4E700BFEA
:1046500021291BD10021CFF6FF71E16221212163C5
:10466000202184F83D10002184F83E10416821F497
:10467000E06141606FF480614161016821F4806113
:104680000160204601F000F996E700BF6FF48061F9
:10469000416191E72DE9F04182B0D0F800800446F5
:1046A000C4465CF8043FC06A94F83E5094F83D203C
:1046B000402D01D0102D21D1D8F81860D8F8141051
:1046C000CF0765D1B0F12A4F00F0D883B0F52A0F9B
:1046D00000F0D48313F400704FF0010787EA502EE6
:1046E00018BF11F0080057D0606B616C0028C9B288
:1046F000C8F8101040F0078107E100BF206C0028C7
:104700000CBFD8F818500025D8F8141013F4007610
:1047100018BF11F0020040F0A980002E18BF11F060
:10472000100040F00F8142F00800292840F09A81E3
:10473000580540F1C18101F08400802840F0BC811F
:1047400094F83D00618D002900F09883616A292862
:1047500011F8012BC8F810206162618DA1F10101EF
:104760006185618D08BF002940F08883DCF8000076
:10477000282120F48060CCF800002120206320460E
:1047800084F83D1002B0BDE8F04101F07DB800BFF3
:10479000980533D44FF0010EBEF1000F34D111F063
:1047A000020031D094F83E00E26A216B94F83D306B
:1047B000222B40F0BB804028236D08BF002B00F067
:1047C000B580206D002840F099812069B0F5404FF8
:1047D00040F0948100200190D8F814000190D8F89E
:1047E000180001900198D8F8000040F48070C8F8D3
:1047F0000000206D013000F0D8BB00BFE06AB0F5CA
:104800002A0F57D101205AE0DCF80000760700F4A7
:10481000006000F1DD80002840F03083580540F151
:10482000AB8101F04400402840F0A68194F83D009F
:10483000222840F02383608D0428C0F09382D8F8AA
:104840001000616A0870606A01306062608D013832
:104850006085608D032840F011832068416821F451
:104860008061416002B0BDE8F08100BF206C00288B
:1048700018BFD8F8185094F83D0000F028002828F8
:1048800040F0E280DCF80000002320F48060CCF8E7
:104890000000012020EA950128064FF0180058BFBB
:1048A0000C20225A204684F83C3002B0BDE8F0418A
:1048B000FFF74EBEE06AB0F12A4F01D10820E06256
:1048C00094F83E0040280DD1206D616C002801F065
:1048D000FE0018BF40F00100C8F8100002B0BDE8AB
:1048E000F08100BF2069B0F5804F40F0F58094F86A
:1048F0003D00616C212801F0FE0118BF0131C8F8AC
:104900001010606B08B1C06B38B9A06B002800F0C4
:10491000B582C06B002800F0B182DCF8000040F4E2
:104920000060CCF8000002B0BDE8F08100200190EA
:10493000D8F814000190D8F818000190019802B03E
:10494000BDE8F08194F83D50D8F8040020F4E06010
:10495000C8F8040000200190D8F814000190D8F89D
:10496000000040F00100C8F800000198D8F80000ED
:1049700020F48060C8F80000D8F80400000540F179
:104980005D8145F008002A2840F03881A06B01685D
:1049900049686185618D19B1216C41F00401216480
:1049A000DCF8001021F40061CCF80010FFF7D2FA17
:1049B000012800F04381A06B48F29561C0F6000128
:1049C0000165FFF7B3FA002800F03881A06B33E1EE
:1049D000002840F05382580540F1F08001F0840037
:1049E000802840F0EB8094F83D2094F83E00E16A86
:1049F000212A40F09B81238D002B40F0978111F5F7
:104A0000803F18BF082940F05D82D8F804002021BB
:104A100020F4E060C8F80400D8F8000040F400700A
:104A2000C8F800000020206384F83D1094F83E1080
:104A300084F83E004029204640F0568202B0BDE88E
:104A4000F04100F0D7BB00BF00200190D8F814104F
:104A50000191D8F818100191019984F83C0002B036
:104A6000BDE8F08158056BD501F04400402867D1BE
:104A700094F83D00618D002900F00082D8F81010F4
:104A8000626A2A281170616A01F101016162618D17
:104A9000A1F101016185618D08BF002940F0EE811F
:104AA0002068416821F48061416022202821206330
:104AB000204684F83D1021E1002E18BF11F00400BB
:104AC00000F0DC81608D002800F0D881606A10F869
:104AD000011BC8F8101069E0206D002842D0206D3D
:104AE000012840F0CB81606C062101EAD010F13042
:104AF000C8F8100002B0BDE8F08100BF608D70B151
:104B0000608D012840F00081202A18BF082A40F05B
:104B1000C381D8F8000020F48060C8F800000020AD
:104B20000190D8F814000190D8F81800019001986D
:104B3000D8F8000040F40070C8F8000034E200BF6C
:104B4000002E18BF11F0040000F09881608D00283D
:104B500000F09481D8F81000616A0870606A013032
:104B600024E000BF606C062101EAD010F030C8F8E4
:104B7000100002B0BDE8F08101F00400012181EADB
:104B8000900050EA0E0040F07981E16A608D0428BF
:104B900040F05681D8F8040020F48060C8F8040082
:104BA000D8F81000616A0870606A01306062608D38
:104BB0000138608502B0BDE8F08100BF01F004005B
:104BC000012181EA900050EA0E0040F05781212A2D
:104BD00040F04C81E06A94F83D10212940F04E816C
:104BE000618D00297FF472AF10F5803F18BF08284F
:104BF0003FF40BAF20283FF408AF66E1606B01681B
:104C000049686185618D19B1216C41F0040121640D
:104C1000DCF8001021F40061CCF80010FFF79AF9DD
:104C200001280BD0606B48F29561C0F60001016568
:104C3000FFF77CF910B1606B016D8847608D60B142
:104C400020684169490731D4416949063BD4608DE8
:104C500018B1206C40F004002064206C30B1204674
:104C600002B0BDE8F04103F0A3BD00BF2A2D07D17B
:104C700000202063282084F83D00204600F002FE3A
:104C800094F83D0028282BD10020CFF6FF70E06279
:104C900000212020216384F83D00204684F83E1046
:104CA00002B0BDE8F04100F09DBA00BF0069616A42
:104CB0000870616A206801316162618D0139618526
:104CC00041694906C3D50069616A0870606A0130AC
:104CD0006062608D01386085608D0028B9D1BCE7C5
:104CE000222D206B18BF222840F0C88000212020F0
:104CF000216384F83D00204684F83E1002B0BDE8F0
:104D0000F04100F0BFBD00BF608D022820D1102A05
:104D100000F21E81012014219040C0F201010842DE
:104D200000F016814FF480601AE100BF212A04D000
:104D3000222A08BF402840F0A180608D002800F0A2
:104D4000A18094F83E00402800F09280BEE600BFAB
:104D5000D8F8000040F48060C8F80000D8F80400DB
:104D600005E100BFE16A012800F28C80022900F011
:104D700089800020019040F2EC00C2F2000000683F
:104D80004BF28951C008C1F2F841A0FB0101080AA9
:104D900000EB8000019001980138019001980028F3
:104DA00000F00C81D8F80000800520D5019801386A
:104DB00001900198002800F00181D8F800008005DA
:104DC00015D50198013801900198002800F0F6806F
:104DD000D8F8000080050AD50198013801900198A3
:104DE000002800F0EB80D8F800008005D3D4D8F874
:104DF000000020F48060C8F80000D8F8040020F417
:104E0000E060C8F80400D8F81000616A0870606AB1
:104E1000002101306062608D01386085202084F8B7
:104E20003D0094F83E0084F83E10402800F01581C3
:104E300012212046216302B0BDE8F04100F0D4B950
:104E4000608D032856D1DCF80000022920F4806030
:104E5000CCF800003FF4A4AE04293FF4A1AED8F88A
:104E6000000020F48060C8F8000099E6402D05D1CC
:104E7000204602B0BDE8F04103F05ABD02B0BDE8E3
:104E8000F08100BFDCF8000020F48060CCF8000066
:104E900002B0BDE8F08100BF12F5803F42D1D8F8E2
:104EA000000020F48060C8F80000D8F80400000575
:104EB0007FF535AED8F8000020F48060C8F8000017
:104EC00069E000BF20293FF4A0ADDCF800002021FC
:104ED00020F4E060CCF8000011202063002084F86A
:104EE0003E00204684F83D1002B0BDE8F04100F0DD
:104EF0007DB900BF608D02287FF452AE481E0F2896
:104F000000F28280DFE800F0087A807A808080807A
:104F10008080808080808008D8F8000020F4806045
:104F200076E000BF012A02D012293FF4F2AD102A28
:104F3000C0D8012014219040C0F201010842B9D02C
:104F4000D8F8000040F48060C8F8000023E000BFFB
:104F5000D8F8000020F48060C8F800004FF400602A
:104F6000D8F800100843C8F80000DCF8000000057D
:104F700011D5501E1F281DD8012101FA00F048F25A
:104F80008101C8F20001084214D0DCF8000040F4AE
:104F90008050CCF8000000200190D8F81400019057
:104FA000D8F81800019001980020206502B0BDE8F3
:104FB000F08100BF12F5803FE7D0ECE7206C40F0B5
:104FC00020002064D8F8040020F4E060C8F8040051
:104FD000D8F81000616A0870606A002101306062D0
:104FE000608D01386085202084F83D00204684F8DB
:104FF0003E1002B0BDE8F04100F036B8D8F800002D
:1050000040F4806004E000BFD8F8000040F4007075
:10501000C8F80000D8F81000616A0870606A21685A
:10502000421C6262628D013A628509694170606A60
:10503000216801306062608D01386085486820F425
:1050400040704860202084F83D0094F83E00002124
:10505000402884F83E107FF4EBAE2046216302B076
:10506000BDE8F04100F0C4B87047000070B5B8B3B7
:10507000044690F83D0028B9002084F83C00204602
:1050800000F026FB242084F83D002068016821F010
:1050900001010160016841F400410160016821F4EF
:1050A0000041016000F09EFE48F28041C0F21E0106
:1050B00040F60013D4F804E088424FF00001C0F23B
:1050C0003D0348F2A16C4FF0000238BF0121984225
:1050D000C0F2010C38BF0122E64538BF0A460AB1CA
:1050E000012070BD4DF68361C4F21B31A0FB01129B
:1050F0002168950C4B684FF4967623F03F0343EA02
:105100009243754344F6D3564B60C1F262060B6A74
:10511000A5FB0656B50923F03F03E64538BF950CBD
:105120006A1C1A430A62CA6948F2A0664CF6FF7309
:10513000C0F20106B64522EA03020BD801384FEA55
:105140004E03B0FBF3F001306FF31F30042898BF1B
:1051500004201EE0A368013863B119230EFB03F39A
:10516000B0FBF3F001306FF31F3078B100F58040F1
:1051700008E000BF0EEB4E03B0FBF3F001306FF31D
:105180001F3028B100F5004003E000BF012000E01F
:1051900001201043C8610868D4E9072320F0C0004B
:1051A000104318430860886848F2FF3204F10C0687
:1051B00090434CCE18431043A5698860C86820F01E
:1051C000FF0030432843C860086840F001000860D1
:1051D00000202021206484F83D10206384F83E00E4
:1051E00070BD00007047000070470000704700006D
:1051F00070470000704700002DE9F04F83B09846DB
:1052000017460E460446FFF79BF994F83D102029F7
:1052100020D1DDF83890DDE90CBA054620688169B7
:10522000890713D5FFF78CF9401B1A28F6D3002005
:105230002021206384F83D1084F83E00216C41F069
:105240002001216484F83C0004E000BF94F83C1085
:10525000012903D1022003B0BDE8F08F012184F8B9
:105260003C100168C90703D1016841F001010160E8
:1052700001683A4621F400610160222084F83D0073
:10528000402084F83E0000202064C4F824B0A4F834
:105290002AA0608D314620850020CFF6FF70E062A5
:1052A00020464346CDF80090019503F09BFB18B1D2
:1052B000012003B0BDE8F08F208DA8B102282BD0CB
:1052C000012835D121680A6822F480620A60002230
:1052D00002924A6902928A690292029A0A6842F428
:1052E00000720A602CE000BF002002902068416933
:1052F0000291816902910299016841F40071016093
:10530000202084F83D00002084F83E0084F83C0012
:1053100003B0BDE8F08F00BF21680A6822F4806204
:105320000A600A6842F400620A600022029202E007
:105330000021029121684A690292896902910299C9
:1053400009F1010680B2032816D8022840D00128AE
:105350005AD1B9F1000F65D02068014651F8142FD9
:10536000520664D40868C00600F1F480FFF7E8F83C
:10537000401B4845F0D9E2E0B9F1000F10D000BF62
:105380002068014651F8142F52060ED40868C00652
:1053900000F1E080FFF7D4F8401B4845F0D9CEE09B
:1053A00020684169490640F1C3800069616A08705C
:1053B000606A2268411C208D616201382085638DFE
:1053C000013B638553695B0740F1AE80106930E0B3
:1053D000002E41D0B9F1000F0AD120684169490778
:1053E0000AD4AAE0FFF7ACF8401B484500F2A780BA
:1053F000206841694907F5D5016841F400710160F1
:105400000069616A08707AE0B6B1B9F1000F33D073
:1054100020684169490733D4FFF792F8401B48459B
:10542000F6D98CE020684169490640F18180006925
:10543000616A08706FE000BF2068416949071FD4A6
:10544000416949075CBF41695FEA417118D441690C
:105450004907F2D514E000BF206841694907CBD461
:10546000416949075CBF41695FEA4171C4D4416940
:105470004907F2D5C0E700BF2068416949075CD5FC
:10548000016821F4806101600069616A0870606AE6
:10549000218D00F10100A1F1010160622185618D82
:1054A000A1F1010161856EB1B9F1000F1AD0216837
:1054B000486940071CD4FFF743F8401B4845F6D91C
:1054C0003DE000BF21684A69520712D44A69520779
:1054D0005CBF4A695FEA42720BD44A695207F2D54F
:1054E00007E000BF21684A69520702D425E000BFE7
:1054F000606A0A6842F400720A6009690170606AB1
:105500002268411C6162218D01392185618D01393B
:10551000618511694170606A218D01306062481EA9
:105520002085618D0139618501047FF40BAFE7E6C9
:1055300050F8141FC90601460CD4FFF701F80020EB
:105540002021206384F83D1084F83E00216C41F056
:1055500020010AE06FF01000086000202021206385
:1055600084F83D1084F83E00216C216484F83C00EE
:10557000012003B0BDE8F08F2DE9F04F83B09946CC
:1055800016460F460446FEF7DBFF94F83D1020292F
:1055900020D1DDF83880DDE90CBA05462068816944
:1055A000890713D5FEF7CCFF401B1A28F6D300203D
:1055B0002021206384F83D1084F83E00216C41F0E6
:1055C0002001216484F83C0004E000BF94F83C1002
:1055D000012903D1022003B0BDE8F08F012184F836
:1055E0003C100168C90703D1016841F00101016065
:1055F0000168324621F400610160212084F83D00F9
:10560000402084F83E0000202064C4F824B0A4F8B0
:105610002AA0608D394620850020CFF6FF70E06219
:1056200020464B46CDF80080019503F0A5FA18B14D
:10563000012003B0BDE8F08F208D98B92046414687
:105640002A4603F01FFB98B3206C0428F0D1206891
:10565000016841F400710160012003B0BDE8F08FE2
:105660000004EBD0204641462A4603F0D9FB00282F
:10567000EAD1616A2268084610F8013B1361238D64
:105680006062581E2085678D0604A7F101076785B3
:10569000576918BF17F00407E2D048781061881CDA
:1056A0006062981E2085618D01396185D8E700BF51
:1056B0002068016841F400710160202084F83D00F9
:1056C000002084F83E0084F83C0003B0BDE8F08F71
:1056D0002DE9F04F87B00446006845F60041C4F25A
:1056E000000100278842CDE90577CDE903770297CD
:1056F00034D045F20041C4F20001884240F0BE803F
:10570000002543F630040195C4F20204206802A982
:1057100040F002002060206800F002000190019833
:10572000C02002901220CDE903050320059004203B
:1057300006900020C4F2020000F58060FEF716FE1D
:105740000195206940F400102061206900F40010E8
:105750000190019807B0BDE8F08F00BF43F6300517
:105760000197C4F20205286840F2000940F00400E5
:1057700028602868C4F2020900F004000190019832
:105780000197286802AE40F00100286028684FF0B9
:10579000120A00F00100019001984FF4007002908D
:1057A0004FF0030B4FF0040809F500603146CDE9D6
:1057B00003A7CDF814B0CDF81880FEF7D7FD4FF44D
:1057C0008070CDE9020ACDF8188046F228084846D4
:1057D0003146CDE9047BC4F20208FEF7C7FD01970C
:1057E00028694FF4806640F400002861286940F67B
:1057F000684500F4000001900198C2F200054FF0E6
:105800000070C5E900802846C5E90277C5E904674C
:10581000C5E90677C5E90877FEF780FC002818BFC0
:10582000FEF7EAFAA563AC6340F6C84508F1480004
:10583000C2F200054FF0C0614022002385E84F000E
:105840002846C5E90533C5E907336B62FEF766FCF8
:10585000002818BFFEF7D0FA482001210022656316
:10586000AC6300F08DF8482000F07AF8492001215F
:10587000002200F085F8492000F072F807B0BDE87A
:10588000F08F0000704700007047000040F20000F9
:1058900045F65461C2F20000C2F2030100780A68C2
:1058A000104408607047000080B543F60040C4F221
:1058B0000200016841F400710160016841F48061F7
:1058C0000160016841F480710160032000F084F8F8
:1058D000002000F005F800F027F8002080BD00004F
:1058E00070B540F20006C2F2000640F2EC013278D8
:1058F000C2F200014FF47A730968B3FBF2F2044676
:10590000B1FBF2F1084601F0EBFD0F2C4FF0010561
:1059100008D838B94FF0FF3021460022002500F0AA
:105920002FF87460284670BD82B0002043F6400115
:105930000190C4F202014A6842F480424A604A6817
:1059400002F480420192019A0090086840F0805071
:105950000860086800F080500090009802B070471E
:10596000002848BF704700F01F01012202FA01F130
:105970004EF200124009CEF2000242F820107047A9
:1059800010B54EF60C5CCEF2000CDCF80030C3F320
:10599000022E8EF00704042C28BF0424BEF103035A
:1059A0004FF0FF3E0EFA04F438BF0023A1439940A4
:1059B0000EFA03F39A4300F00F03043B11436344D0
:1059C00009010C3300F16042B0F1FF3FC8BF02F59E
:1059D0006443197010BD00004EF60C51CEF2000168
:1059E0000A684FF6FF031A4060F30A2242F0806013
:1059F00040F0FD70086070472DE9F04182B0044628
:105A0000006843F68C06C107C4F2020604D14FF0C9
:105A1000000881070CD415E03168626921F0C0618B
:105A200011433160B2FA82F14FEA5118810709D56A
:105A30003168A26921F0C05111433160002A08BFCA
:105A40004FF0010801075AD50020019056F84C0C80
:105A500047F2000740F0805046F84C0C56F84C0CCA
:105A6000C4F2000700F0805001900198386840F4BB
:105A700080703860FEF764FD054600BF3868C005D9
:105A800006D4FEF75DFD401B0228F7D9DBE000BF1E
:105A900056F81C0C10F4407017D0E16901F4407105
:105AA000884212D056F81C0C40F64061C4F24721DF
:105AB000012220F440700A6000220A6046F81C0CA3
:105AC00056F81C0CC00740F0C9802068E16956F800
:105AD000842C4FF6FF4701F4407322F4F812C0F60D
