:020000040800F2
:10000000D8A10320E902000869B60008A58B000802
:1000100005AB000805430008E5E00008000000000B
:1000200000000000000000000000000095CA000869
:10003000FD45000800000000F5BC0008E5CA000806
:100040000303000803030008030300080303000878
:100050000303000803030008030300080303000868
:100060000303000803030008014600080303000817
:100070000303000803030008914500080303000878
:100080000303000803030008030300080303000838
:100090000303000803030008030300080303000828
:1000A0000303000803030008030300080303000818
:1000B00003030008A9CB000803030008030300089A
:1000C00003030008030300080303000803030008F8
:1000D00003030008030300080303000803030008E8
:1000E00003030008030300080303000803030008D8
:1000F00003030008030300080303000803030008C8
:100100000000000031BD00080303000803030008DD
:100110000000000000000000B5CB00080303000849
:10012000030300089D45000803030008A9450008D3
:100130000303000803030008030300080303000887
:100140000303000803030008030300080303000877
:10015000B5450008F145000803030008D9E0000890
:100160000303000803030008000000000000000073
:10017000000000000000000000000000000000007F
:100180000303000803030008000000000000000053
:100190000303000803030008000000000000000043
:1001A000000000000000000000000000000000004F
:1001B0000303000800000000000000000303000823
:1001C0000303000800F002F800F07EF80AA090E8AF
:1001D000000C82448344AAF10107DA4501D100F002
:1001E00073F8AFF2090EBAE80F0013F0010F18BF51
:1001F000FB1A43F0010318472CE307004CE3070008
:100200000A444FF0000C10F8013B13F0070408BF3C
:1002100010F8014B1D1108BF10F8015B641E05D0DA
:1002200010F8016B641E01F8016BF9D113F0080F8F
:100230001EBF10F8014BAD1C0C1B09D16D1E58BF21
:1002400001F801CBFAD505E014F8016B01F8016B58
:100250006D1EF9D59142D6D37047000000230024CB
:1002600000250026103A28BF78C1FBD8520728BFC6
:1002700030C148BF0B60704766290CF019A2652990
:100280000CF016A267290CF013A261290CF012A23F
:10029000642900F0FD80782900F036810020704745
:1002A0001FB54CF0F0F901F019F80400002000210E
:1002B0004BF0DCFA401C6060002000214BF0C0FADB
:1002C000E0601FBD10B510BD01F035F91146FFF714
:1002D000E7FF41F0FDFC01F0D7FB03B4FFF7F2FFAD
:1002E00003BC00F0F5FF00000948804709480047BB
:1002F000FEE7FEE7FEE7FEE7FEE7FEE7FEE7FEE7D6
:10030000FEE7FEE704480549054A064B7047000032
:1003100095CB0008C5010008D8210320D8A10320EF
:10032000D8610320D861032053EA020C00F06980F1
:100330002DE9F04B4FF00006002B1FBFB3FA83F5F9
:1003400003FA05F424FA05F65E4012BF1643B2FA2A
:1003500082F502FA05F4C5F120051EBF22FA05FC5C
:1003600044EA0C04203556EA044C4FEA144418BF02
:10037000641C4FF000084FF00009904271EB030C31
:1003800039D3002919BFB1FA81F701FA07F6B0FA9B
:1003900080F700FA07F6C7F120071EBF20FA07FC16
:1003A00046EA0C062037B6FBF4FCA7EB0507103F26
:1003B00007F01F0BCBF120062CFA06F60CFA0BFB0C
:1003C00044BFB3460026202FA4BF5E464FF0000B6B
:1003D0005BEA060C08BF4FF0010B19EB0B0948EB69
:1003E0000608ABFB027C06FB02CC0BFB03CCC01B5C
:1003F00071EB0C01C1E70B46024641464846BDE899
:10040000F08B13B5084318BF4FF0FF300146AFF330
:100410000080BDE81C4070470FB41CB5074B06AA0E
:100420007B4469460090059800F0E1FE0020694693
:1004300000F0F0FE1CBC5DF814FB0000F10D0000A4
:1004400070B5044685690068C10601D5302600E014
:100450002026C00707D070BDD4E90121304690475F
:10046000206A401C20626D1EF6D570BD70B5044632
:1004700085690078C00707D170BDD4E9012120202B
:100480009047206A401C20626D1EF6D570BD0000AA
:100490002DE9F0410646002410687529314616A55D
:1004A00010D0AFF30080002802DA404213A507E025
:1004B00031688A0701D512A502E0490704D511A5C4
:1004C000012401E0AFF3008000210A2206F1240795
:1004D00009E0B0FBF2FCB0FBF2F302FB1C00303091
:1004E00078541846491C0028F3D123462A46304642
:1004F000BDE8F04100F090BA000000002D000000BF
:100500002B0000002000000070B504460D46214677
:100510001068AFF300802188090502D50F4A7A449C
:1005200002E00E4A7A440E32002104F1240305E071
:1005300000F00F060009965D5E54491C0028F7D1B3
:1005400020780023000704D5702D02D009B10223C2
:1005500011322046BDE8704000F05EBA92C204003D
:100560002DE9F05F894604464FF0000ADFF874B1C8
:10057000FB44C0F820A02046E1688847002874D0DA
:10058000252806D0D4E901219047206A401C20622A
:10059000F1E700265F462046E168884720280546A7
:1005A00007DB312D05D2781910F8200C08B106436D
:1005B000F1E7B00701D526F00406C4F81CA0002717
:1005C000C4F818A02A2D09D028464BF08CF838B36F
:1005D00004EB8708303DC8F8185019E059F8041B9F
:1005E000204604EB87029161E1688847012F0546A8
:1005F00018D1E069002820DA26F020061DE0D8F89E
:10060000180000EB800005EB40003038C8F81800F7
:100610002046E168884705464BF065F80028EED192
:10062000012F0AD02E2D08D12046E16888477F1C73
:100630000546022F46F02006C4DBA069002803DA35
:10064000404246F00106A061F00701D026F01006F6
:100650006C2D0BD0682D09D04C2D39D06A2D35D09A
:10066000742D35D07A2D33D016E038E0E1682F466E
:1006700020468847B842054609D16C2F26D04FF452
:100680008060E168064320468847054604E06C2FF9
:100690001AD04FF4807006430DB3A5F1410019281C
:1006A00002D8203546F400664A4629462046266090
:1006B0004E46FFF7E1FD80B101280BD0F61D26F074
:1006C000070000F1080956E74020E4E78020D8E75A
:1006D0000020D6E706F104094DE7284652E7206AD4
:1006E000BDE8F09F68C20400401ECAB210F8011FA6
:1006F0008A4202D00029F9D10020704740EA010364
:1007000010B59B070FD1042A0DD310C808C9121FBA
:100710009C42F8D020BA19BA884201D9012010BDF4
:100720004FF0FF3010BD1AB1D30703D0521C07E0C1
:10073000002010BD10F8013B11F8014B1B1B07D125
:1007400010F8013B11F8014B1B1B01D1921EF1D196
:10075000184610BD40EA0103024630B59B0710D190
:100760004FF0013400E008C208C91D1B9D4315EA83
:10077000C41FF8D013F0FF0102F8011B0DD01B0AB3
:10078000F8E711F8013B002B02F8013B05D011F806
:10079000013B002B02F8013BF3D130BD10B5431CE7
:1007A00002E010F8011B71B18107FAD14FF001325C
:1007B00002C88C1A8C4314EAC211F9D0C01A0A0676
:1007C00003D0C01E10BDC01A10BD0A0401D0801E87
:1007D00010BD0902FCD0401E10BD032A40F230803B
:1007E00010F0030C00F0158011F8013BBCF1020F72
:1007F000624498BF11F801CB00F8013B38BF11F8F3
:10080000013BA2F1040298BF00F801CB38BF00F809
:10081000013B11F0030300F02580083AC0F0088086
:1008200051F8043B083A51F804CBA0E80810F5E76A
:10083000121D5CBF51F8043B40F8043BAFF300804D
:10084000D20724BF11F8013B11F801CB48BF11F8C2
:10085000012B24BF00F8013B00F801CB48BF00F892
:10086000012B704710B5203AC0F00B80B1E818504A
:10087000A0E81850B1E81850A0E81850203ABFF48A
:10088000F5AF5FEA027C24BFB1E81850A0E8185029
:1008900044BF18C918C0BDE810405FEA827C24BF7D
:1008A00051F8043B40F8043B08BF7047D20728BF0B
:1008B00031F8023B48BF11F8012B28BF20F8023B5A
:1008C00048BF00F8012B704702F0FF0343EA032200
:1008D00042EA024200F00AB802F0FF0343EA0322B0
:1008E00042EA024200F024B84FF000020429C0F0AE
:1008F000128010F0030C00F01B80CCF1040CBCF152
:10090000020F18BF00F8012BA8BF20F8022BA1EBA3
:100910000C0100F00DB85FEAC17C24BF00F8012B88
:1009200000F8012B48BF00F8012B70474FF0000280
:1009300000B5134694469646203922BFA0E80C50D5
:10094000A0E80C50B1F12001BFF4F7AF090728BFB0
:10095000A0E80C5048BF0CC05DF804EB890028BF2C
:1009600040F8042B08BF704748BF20F8022B11F055
:10097000804F18BF00F8012B7047000000000000F6
:1009800030B44FF0013C50F8042B51F8043BCCFA42
:1009900052F4D51A20D1FCB950F8042B51F8043B7D
:1009A000CCFA52F4D51A17D1B4B950F8042B51F837
:1009B000043BCCFA52F4D51A0ED16CB950F8042B82
:1009C00051F8043BCCFA52F4D51A05D1002CDAD0F8
:1009D00030BC4FF00000704729BAB1FA81F111F034
:1009E0001801D1F120008440F2D1CA40CB4012F06E
:1009F000FF0213F0FF0330BCD01A704770477047F6
:100A0000704710B500F06EFC006810BD10B50446CC
:100A100000F068FC046010BD2DE9F0470D469946D2
:100A20009246044600F124080168880604D5E0696E
:100A300021F01001216000E00120A84201DD471BE8
:100A400000E00027A1697A1902EB0900081AA061E9
:100A50002078C00602D42046FFF7F2FC002608E00A
:100A6000D4E901211AF806009047206A401C761C40
:100A700020624E45F4DB2078C0060AD52046FFF7F9
:100A8000DFFC06E0D4E9012130209047206A401CB9
:100A90002062381EA7F10107F4DC07E0D4E9012148
:100AA00018F805009047206A401C2062281EA5F116
:100AB0000105F3DC2046FFF7D9FC2078000602D5BB
:100AC0000220BDE8F0870120FBE72DE9FF4F0C462F
:100AD0001E464FF0FF378BB0D2E90001DDF8608091
:100AE0000A908A46C1F30A5505B93D4600210846D9
:100AF0004FF00000BAF1000F00F4400005DA00EBFF
:100B000080004FF4400101EA50004FEA9059B9F1DA
:100B1000010F00DDB9460A9850EA4A000ED044F6AB
:100B20001050A5F2FF3545432F14B8F1000F1ED029
:100B30007542291E1EDDC9F100021CE0B8F1010F4B
:100B40004FF0000001D0302103E0F24305E02154D2
:100B5000401CB042FBDB30460022002121540B999F
:100B6000C1F80880C1E900200FB0BDE8F08FBD1BBF
:100B70006D1CDEE74A4600DA694206A800F064FC14
:100B800006AB93E8070003AB83E8070050460A99D9
:100B900048F02DFD8DE80700A0F500501F380090AB
:100BA0000398002D0ADD42F21F014A460844002343
:100BB00003A90390684648F0D9FF09E0A0F500506A
:100BC0004A461F38002303A90390684648F0F8FFFF
:100BD0008DE807000004000C03D04FF0FF304108FF
:100BE00000E01046B8F1000F03D000220092154635
:100BF0001EE0751E05D400F079FB303262556D1E83
:100C0000F9D5B3460122084302D000227F1C04E03C
:100C10002078302801D100227F1E002A099784D035
:100C20001DE0112D07DA00F061FB303262556D1CBA
:100C300050EA0102F5D1084302D00098C8B10EE095
:100C40000021681E05E0235C625C63542254401E50
:100C5000491C8142F7DBAB46A81B401E09900020CF
:100C600004F80B000B98099AC0F80880C0E9002B23
:100C70007AE711264FF0000857E72DE9F04F884634
:100C80000446D21D22F0070191B0D1E90001CDE95F
:100C90000A0149F0E1F802460B98C00F01D02D205F
:100CA00007E02068810701D52B2002E0202101EA1E
:100CB000C000032A099001D0072A05DB03464146FC
:100CC000204600F061FB0BE12078800601D5E06949
:100CD00000E00620B8F1650F814606D0B8F1660F36
:100CE00018D0B8F1670F70D131E00020B9F1110FC1
:100CF000009001DB112301E009F101030AAA01A917
:100D00000CA8FFF7E2FEDDE90C70002609F10105F1
:100D1000834647E001204B4600904FF000470AAA67
:100D200001A90CA8FFF7D1FEDDE90DB00C995D46D5
:100D3000002610B909F101000D18B9EB050003D424
:100D4000C0F1FF3609F10105A5EB09002BE0B9F16F
:100D5000010F01DA4FF001090020B9F1110F0090E5
:100D6000484601DD112300E003460AAA01A90CA8A8
:100D7000FFF7ABFEDDE90C704D4600268346207878
:100D800000070AD4AB4500DA5D4601A8012D04DD59
:100D9000411911F8011C302907D04F4502DA17F12B
:100DA000040F04DA012082460FE06D1EEEE7002FEB
:100DB00002DCED1B3E4403E0781CA84200DD7D1CF4
:100DC000B81B00F1010A4FF000472078000703D458
:100DD000AA4501DB4FF0FF3A0021B7F1004F0DF1BA
:100DE00043088DF8431024D002202B23002F01DA72
:100DF0007F422D230A21021EA0F1010000DC5FB119
:100E000097FBF1FC97FBF1F201FB1C7C17460CF100
:100E1000300C08F801CDEEE7A8F10100037021883D
:100E2000090501D5452100E06521A0F1010800F880
:100E3000011C09980FA9A1EB0807FF1D00B10120B3
:100E4000411901EBEA70A1693844081A401EA061FB
:100E50002078C00602D42046FFF7F2FA099828B19C
:100E6000D4E901219047206A401C20622078C00606
:100E700022D52046FFF7E4FA1EE0002E04DBB3453E
:100E800002DD01A8805D00E03020D4E90121904717
:100E9000206A401C2062761CAAF101005FEA000A69
:100EA0000AD100F01BFAC0680168405CD4E9012156
:100EB0009047206A401C2062281EA5F10105DCDC59
:100EC00007E0D4E9012118F8010B9047206A401C83
:100ED0002062381EA7F10107F3DC2046FFF7C6FAAF
:100EE000032011B041E600002DE9F04F04460D4605
:100EF000D21D22F0070089B0D0E900974846394654
:100F000048F0AAFF0246F80F01D02D2307E0206821
:100F1000810701D52B2302E0202101EAC0038DF8CF
:100F200020300BB1012000E00020032A824601D0CE
:100F3000072A04DB2946204600F026FA3FE1207804
:100F4000800601D40D2500E0E569C7F30A560D2D92
:100F500049DA00214FEA175B08464FF00000002FE6
:100F600000F4400007DA00EB80004FF4400100EB92
:100F7000D07001EA60008115012901DD4FF0FF31D9
:100F800000224FEA850CBCF1180F06D31346ACF1D2
:100F900018004FF08052C24003E04FF4801323FA50
:100FA0000CF30CF10C0CBCF1200F04D3ACF1200CB1
:100FB00009FA0CF001E007FA0CF000294FF00048A4
:100FC00001DD18B90FE00ED140450CD319EB020931
:100FD0005F4121B9404502D19F4329EA0209BBEB99
:100FE000175F00D0761C2088000502D57B48784426
:100FF00002E07A487844193808AA302302F80A3007
:10100000037C0AF10101002E0AF1020A53546A46D8
:1010100002DC4FF0300101E04FF031014FF00108E8
:101020008DF8001002D0A6F2FF3603E059EA47011E
:1010300000D06B4E002D02DC2178090704D54FF05B
:1010400002082E218DF80110C44600210BE0C7F3E1
:1010500003433F01C35C491C6D1E02F8083005299B
:1010600008F1010801DA002DF1DC00210CE000EBB1
:101070001973491C1B786D1E082902F808304FEAC5
:10108000091908F1010801DA002DF0DC21688B064E
:1010900002D516E0A8F10108E04505DD02EB0803E2
:1010A00013F8013C302BF5D0B8F1000F09DD02EB4D
:1010B000080313F8013C2E2B03D1090701D4A8F132
:1010C0000108002D05DD3E2102F808106D1E08F113
:1010D0000108407C002E02F8080008F1010804DA3B
:1010E0002D20764202F8080002E02B2002F80800CA
:1010F0000A214FF47A70864208F101080BDB96FB57
:10110000F0F3303302F8083096FBF0F308F10108F1
:1011100000FB136601E0642E0CDB642096FBF0F309
:10112000303302F8083096FBF0F308F1010800FBB9
:10113000136601E00A2E06DB96FBF1F0303002F870
:10114000080008F1010896FBF1F001FB1060303057
:1011500002F80800A16908F1010808EB050202EB9A
:101160000A00081AA0612078C00602D42046FFF7C2
:1011700067F9216A08AE01EB0A00206204E0D4E9B5
:10118000012116F8010B9047BAF1010AF7D2207835
:10119000C00602D52046FFF753F96E4609E016F85F
:1011A000010B3E280FD0D4E901219047206A401C52
:1011B0002062B8F10108F2D22046FFF757F909B0D2
:1011C0000320BDE8F08F206A2844206203E0D4E9C0
:1011D0000121302090476D1EEBD3F8E7F9B80400E9
:1011E00002FCFFFF01694A1C02610878704700B5E4
:1011F0008FB0CDE901310021059105497944CDE950
:10120000031011466846FFF7ABF90FB000BD0000B0
:10121000E5FFFFFF0A6802F8010B0A607047000053
:101220000FB40B0010B54FF000048AB00FA9009165
:101230000E99CC60234C7C44234A7A44CDE9064283
:1012400000D004236FF00042CDE901321F4A7A44F6
:101250006B460892024600204BF08EFA0AB010BC92
:101260005DF814FBF0B507464FF0FF301E461546FB
:101270000C463B4685B06A460091CDE901013146F6
:101280000020049004A8FFF7CBFF049903466018E0
:1012900025B109B1024600E022462A6000290ED09D
:1012A000002B02DD0099814209D03B466A46314657
:1012B000001B0094CDE9010404A8FFF7B1FF05B0BD
:1012C000F0BD0000CF010000E90100002501000091
:1012D00001491820ABBEFEE7260002000048704717
:1012E000B8010020004870479801002030B5B0F1E7
:1012F0000A0271F100034FEA900E4EEA817EB0EBD4
:101300000E0061EB91014FEA101E4EEA017E10EBD8
:101310000E0041EB11114FEA102E4EEA016E10EB58
:101320000E0041EB11214FEA104E4EEA014E10EB38
:101330000E0041EB1141401841F100014FEAD0008D
:1013400040EA41704FEAD1014FEA810444EA9074C7
:1013500010EB800544EB01046D1944EB0404521BAF
:10136000A3414FF0000348BF0A3200D530BD401CF6
:1013700041F1000130BD10B5044600F001F90068EC
:10138000005D00F0010010BD2DE9F0411F4604464C
:1013900003260168072A01F4006004DB08B116A5E2
:1013A00005E016A503E008B115A500E015A521F09C
:1013B00010002060A069C01EA0610FB1401EA06196
:1013C0002046FFF73DF84FB1D4E901213846904758
:1013D000206A401C2062C01C206206E0206AFAE7F6
:1013E000D4E9012115F8010B9047761EF8D220466A
:1013F000FFF73CF8BDE8F0814E414E006E616E0093
:10140000494E4600696E6600426842B1016811F8B3
:10141000013B23B1521EC0E900121846704701215A
:10142000C160881E704742685AB1C368016843B9F9
:1014300083688B4205D0491E521CC0E9001200206F
:1014400070474FF0FF3070472DE9F0478146164650
:101450008AB0354878440DC88DE80D00324878448C
:10146000801C03AC0DC884E80D0041F69B30084495
:10147000372190FBF1F290FBF1F5A5F1800501FB1E
:1014800012041B3C02D56442012000E00020DFF87A
:1014900098A080460027FA44AAF1BE0A0EE0E007B1
:1014A0000AD03246684607EB470101230AEB810167
:1014B00048F086FB8DE8070064107F1C002CEED1FD
:1014C000194F7F44AE3F19E0E80715D007EB041031
:1014D0000DF1180A90E80E008AE80E00C068F0428C
:1014E00001D1981908903246012306A903A848F0B3
:1014F00067FB03AB83E807006D10641C002DE3D18C
:101500004FF0010332466946B8F1000F03A802D03C
:1015100048F02CFB01E048F053FBC9E90001C9F891
:1015200008200AB0BDE8F087A4B604000048704760
:101530009801002070477546FFF7F8FFAE4605009A
:101540006946534620F00700854618B020B5FEF7DF
:10155000D9FEBDE820404FF000064FF000074FF0E5
:1015600000084FF0000BAC46ACE8C009ACE8C0097D
:10157000ACE8C009ACE8C00921F007018D4670470E
:1015800010B5FFF7ABFE001D10BD00BFE1A20400C7
:101590002DE9FF4F06468BB00878FF2806D0491C7E
:1015A0002D2805D000244FF0000908E000200CE0B1
:1015B0000124F8E709EB8903491C00EB430908788B
:1015C000FF28F7D114B1C9F1000081461078002539
:1015D0002C46AA4629462D2801D02B2804D1521C7E
:1015E0002D2813D0002082468B461078FF280FD07C
:1015F0004FF0000C0A21521CA5FB017804FB01816D
:1016000005FB0C11C5194BEB0104EEE70120EAE7DD
:10161000002108464FF00000BAF1000F02D000EBA5
:1016200080004008C0F38157012F01DD4FF0FF37E4
:101630000E9955EA040009EB01080BD04FF002099E
:1016400018F5FA7F16DA4FEACA70002F706008DDCD
:10165000012007E04FEACA70C6E900B00FB0BDE84C
:10166000F08F00203060FFF73DFEC0F80090182199
:10167000084616E0B8F5FA7F18DD002F02DAF748C1
:10168000784401E0F6487844D0E90010C6E900103B
:1016900040EACA707060FFF725FEC0F80090142180
:1016A00008460FB0BDE8F04F4AF0FFBF00210846E2
:1016B0004FF00000B8F10001099002DAC7F1000212
:1016C00000E03A4601DAC8F1000106A8FFF7BCFEC7
:1016D00006AB93E8070003AB83E8070044F23E0043
:1016E0005BEA04010090584604D144F21E012C46E6
:1016F0005D460091210C0904014306D100992404A0
:1017000044EA15442D041039009104F07F4101434F
:1017100006D10099240244EA15642D02083900918B
:1017200004F07041014306D10099240144EA157484
:101730002D01091F009104F04041014306D1009999
:10174000A40044EA9574AD00891E009104F00041A4
:10175000084304D100986D196441401E00904FF079
:1017600001033A466846B8F1000FCDE9014503A9E7
:1017700002DD48F03AFA01E048F00DFABAF1000F44
:1017800004460D4601D084F00044002108464FF085
:101790000000099940F2FF77484010F00C0F07D184
:1017A00024F00040284303D0C4F30A50B84212D1B9
:1017B000FFF798FDC0F80090C4F30A50B8420AD170
:1017C000A8487844D0E90010C6E9001004F00041B0
:1017D0000843706042E7C6E900543FE72DE9FF4F38
:1017E0001F464FF0000A4FF0FF38454691B0D7E949
:1017F0000146CDF83CA0FFF771FDC0680168405C70
:101800001090B96912986D1C8847396A81468847DB
:101810000028F6D1B9F1FF3F0AD0002E24F4D0649D
:1018200011DDB9F12B0F08D0B9F12D0F0BD102E06A
:10183000404615B013E744F48064B96912986D1CF2
:101840008847761E8146600504A901D52D2000E059
:101850002B20002E01F1010B0DF130088DF8100046
:101860003FDDB9F1690F08D0B9F1490F05D0B9F1E1
:101870006E0F02D0B9F14E0F1CD13B4601A8009566
:1018800080E85002DDE912126FF002004AF078FFA2
:10189000C11CCED10EE0B96912986D1C88478146F3
:1018A0001398761E44F4007405600F98401C002EB7
:1018B0000F9016DDB9F1300FEDD0B9F1780F02D0ED
:1018C000B9F1580F0DD10F9801280AD13B46CDE947
:1018D0000054DDE91212001F02964AF04FFFC11CAE
:1018E000A7D1109989453ED144F0800406E01399B0
:1018F000681CAAF1010A44F400740860B9696D1CFF
:101900001298761E884730288146F0D02BE0109937
:10191000894505D1200603D4761E44F0800418E0E2
:10192000484649F0E0FE08B3761E0DF123029345C8
:10193000A9F1300044F4007406D20BF8010B200624
:1019400007D5AAF1010003E0200602D40AF1010044
:101950008246A00502D51399681C0860B9691298DF
:101960006D1C88478146002ED1DC53E0002E51DDEE
:10197000B9F1650F02D0B9F1450F4BD1A00549D59A
:10198000B9696D1C1298761E24F440748847002EA5
:1019900081460CDD2B2804D0B9F12D0F07D144F47A
:1019A0008074B96912986D1C8847761E8146E005DF
:1019B00001D52D2100E02B2108F8011BCDF8008076
:1019C00021E0761E0DF13901884544F400740CD2F3
:1019D000A9F1300010F0FF0088F8000002D1009952
:1019E000884509D908F1010806E0E00501D51E483F
:1019F00001E042F20F708246B96912986D1C884767
:101A0000814613980560002E04DD484649F06BFEC0
:101A10000028D6D1F96912988847FF2053468BF8E1
:101A2000000088F8000000200A900B9004AA0CA97E
:101A30000AA8FFF7ADFDA00502D46FF00100F8E69B
:101A400014F0240F12D0E0071CD13868DDE90A1227
:101A5000031D3B600068C0E9001213E0C8CE070018
:101A6000BACE07007ECD0700F1D8FFFF0AA968466D
:101A700049F026FEE00705D13868009A011D39605B
:101A8000006802602846D4E610B50446AFF3008033
:101A90002046BDE81040FEF720BCB2F120030AD575
:101AA000C2F1200301FA02F120FA03F341EA030133
:101AB00000FA02F0704700FA03F14FF0000070479F
:101AC0002DE9FF4F1F464FF03C0987B04FF0004211
:101AD000DDE9141001F10108DDF858A002EA4050D8
:101AE0000390002005908346054604460490B9699A
:101AF000461E08988847AAF1010A0290BAF1000F21
:101B00003BDD02982E2815D0102100F003FA0028A2
:101B10002EDB4FF0010B0599014317D0B9F1000FEF
:101B20000BDB4A46C117FFF7B8FF05430C43A9F189
:101B3000040905E0012004900BE008B145F001051F
:101B400001200590049820B9361D02E0049800B1E8
:101B5000361FB969089808F101088847BBF1000FE2
:101B6000AAF1010A0290C9D00999C1F80080C5E71D
:101B70000298702808D0502806D0F969089888473C
:101B8000BBF1000F14D04FE0002002900120BBF108
:101B9000000F049009D0B969089808F10108884736
:101BA000AAF10109B9F1000F07DCF9690898884723
:101BB0006FF001000BB0BDE8F08F2B2804D02D286A
:101BC0000CD14FF0FF300490B969089808F1010872
:101BD0008847A9F10109B9F1000FE6DD411CE4D005
:101BE0000A2100F097F90028DFDB029908F10108CB
:101BF00001EB810100EB41000290B9690898884728
:101C00000A2100F087F9099AA9F10109B9F1000F39
:101C1000C2F8008001DD0028E7DAF96908988847F2
:101C20000499029800FB016655EA040004D004F010
:101C30004041090002D006E0039898E0A40044EA7D
:101C40009574AD00B61E04F00041080002D16D1974
:101C50006441761E159810F0240F03D04FF00B0945
:101C60005C4803E04FF028096FF07D00824656453E
:101C700007DAAAEB06018944B9F1410F01DD4FF003
:101C8000410901200021A9F10102FFF706FF0246E8
:101C900028400B462140084301D0012100E00021EB
:101CA000501E029143F1FF3128402140084301D0EA
:101CB000012000E000200299834651EA0B014FD039
:101CC000002108464FF00000039900F4400039B1AC
:101CD00000EB80004FF4400100EBD07001EA60009F
:101CE0008015012802DD4FF0FF3000E013D0401CCA
:101CF00036D0029860B3BBF1000F0CD14A460120E8
:101D00000021FFF7CAFE28402140084301D00120EE
:101D100000E00020E0B101204A460021FFF7BDFEAF
:101D2000034640190A4661412D1A8C4111D3B9F17D
:101D3000400F09DD159810F0240F02D0AAF13406E7
:101D400003E0AAF1170600E0761C00254FF00044DE
:101D500006E05B1E42F1FF3220EA030521EA02049D
:101D6000CAF10100B04206DA1B490398084301900A
:101D7000002000900EE0039AC4F3D321E80A0A433E
:101D8000164940EA44500A433146CDE9000268460C
:101D900049F09FFC159810F0240F0BD01598C00740
:101DA00015D13868DDE90012031D3B600068C0E909
:101DB00000120CE002A8694649F082FC1598C007A1
:101DC00005D13868029A011D3960006802604046FA
:101DD000F0E6000002FCFFFF0000F07F0000F03F93
:101DE0002DE9FF4F92461D4685B04FF00041DDE9D9
:101DF000124BDDE914727F1E01EA4B50414940F05D
:101E0000FF4940EA0108002122F0200049280491FE
:101E100002D04E2828D04CE03BA0012607C88DE810
:101E20000700A9690698641C88477F1E014606D4EE
:101E30001DF8060018B121F0200181420BD0E9699C
:101E400006988847032E34D0082E32D06FF0010058
:101E500009B0BDE8F08F761C032E01D0082EE0D12A
:101E6000601CCAF80000DCE7A9690698641C884772
:101E70007F1E2AD420F02000412826D1A969069887
:101E8000641C88477F1E20D420F020004E281CD1DF
:101E9000A9690698641C88477F1E48F4002849F405
:101EA0008009CAF8004001D4282806D0E9690698BC
:101EB00088475FEACB7012D022E0A9690698641CBB
:101EC00088477F1E01D4002803DAE969069888470D
:101ED000BCE72928F1D1641CCAF80040E9E71BF0EF
:101EE000240F07D028680499031D2B600068C0E9FF
:101EF000001805E02868021D2A600068C0F80090FC
:101F00002046A5E70000F07F494E46494E49545906
:101F1000000000003A2800D2303820F02002412A88
:101F200001D3A2F13700884201D34FF0FF30704750
:101F30002DE9F04F81B02DED028B86B0074637F0CA
:101F4000D5F837F0D3F88046384634F09BFA384657
:101F500034F08AFA054640F23050C2F20000009098
:101F600004460FF2BC7328460021002211F02AFA21
:101F7000012136F0C3FE462106463AF08DFF47F2B6
:101F8000E961C0F6040130461D22002335F088F8CF
:101F90000FF29C73284600210022009411F012FADF
:101FA000012136F0ABFE4FF29C2AC2F2010A462113
:101FB000CAF800003AF070FFDAF8000047F63D0179
:101FC000C0F604011D22002335F06AF8DAF800009B
:101FD000802135F0EDF83846039734F053FA38464F
:101FE00034F042FACDE904084046002133F0FEFD0A
:101FF0008146404633F094FD0021122237F0BEFEA8
:1020000005B24846294600223AF016FF48462946BE
:1020100000223AF017FF484634F026FA48F6E0234B
:10202000C0F60603002100220646009410F0E4FFEB
:10203000012136F063FE4621CAF804003AF02CFF75
:10204000DAF8040031F0E0F921460022054635F0C7
:10205000C3F848F6CA21C0F60601284632F034FC1F
:10206000284609210022002335F086F9DAF8040019
:1020700042F2E531C0F601010022002335F010F8EC
:1020800040F24054C2F2000494ED340A94ED351A43
:1020900040F228589FEDFB8ABDEEC00A40F2385549
:1020A000C2F2000848F63423BDEEC11A8DED010AD4
:1020B000C2F20005C0F60603304600214246B0EEEB
:1020C000480A8DED021A0095AB4611F071F8022115
:1020D000054636F013FECAF808002846042136F0FB
:1020E0000DFE43F6A567C0F6040739461D220023FE
:1020F000CAF8140034F0D4FF2846032136F0FEFD60
:1021000094ED360A94ED371ABDEEC00ACAF81800ED
:102110008DED010A48F636239FEDDB0ABDEEC11AAC
:10212000C0F606033046002142468DED021ACDF876
:1021300000B011F03DF80221054636F0DFFDCAF887
:102140000C002846042136F0D9FD39461D22002313
:10215000CAF81C0034F0A4FF2846032136F0CEFD57
:1021600094ED380A94ED391ABDEEC00ACAF8200081
:102170008DED010A48F638239FEDC40ABDEEC11A61
:10218000C0F606033046002142468DED021ACDF816
:1021900000B011F00DF80221054636F0AFFDCAF887
:1021A00010002846042136F0A9FD39461D220023DF
:1021B000CAF8240034F074FF2846032136F09EFD4F
:1021C000CAF8280004984246C34640F230580FF23D
:1021D00070530021C2F20008CDF8008011F0FEF823
:1021E00040F20455059EC2F2000501466860304683
:1021F0004A4634F055F96868802134F0D9FF3046FA
:10220000002133F0F3FC8146304633F089FC002195
:10221000122237F0B3FD05B24846294600223AF0B3
:102220000BFE4846294600223AF00CFE484634F0A0
:102230001BF948F6E02300210022C0F606030646FB
:10224000CDF8008010F0D8FE012136F057FD462170
:10225000CAF82C003AF020FEDAF82C0031F0D4F85D
:1022600041460022054634F0B7FF48F6CA21284609
:10227000C0F6060132F028FB28460921002200237F
:1022800035F07AF8DAF82C0042F2F931C0F60101A3
:102290000022002334F004FF6FF0290048F6C32326
:1022A0009FED7B0A5A27CDE90080C0F60603304631
:1022B00000215A46029710F07BFF0221044636F0B7
:1022C0001DFDCAF830002046042136F017FD43F604
:1022D000E565C0F6040529461D220023CAF83C0026
:1022E00034F0DEFE2046032136F008FDDAF83C101B
:1022F000CAF84000012008617620082148F6BC2376
:102300009FED640ACDE90110C0F6060330460021B6
:102310005A46CDF8008010F04BFF0221044636F0FB
:10232000EDFCCAF834002046042136F0E7FC2946CB
:102330001D220023CAF8440034F0B2FE20460321D7
:1023400036F0DCFCDAF84410CAF8480002200861D4
:102350006FF0590048F6D523CDE90107C0F6060312
:10236000304600215A46B0EE480ACDF8008010F001
:102370001FFF0221044636F0C1FCCAF8380020468F
:10238000042136F0BBFC29461D220023CAF84C006C
:1023900034F086FE2046032136F0B0FCDAF84C100B
:1023A000CAF85000032008610498E9A300215A46A6
:1023B000CDF8008011F012F840F20454059FC2F2EB
:1023C00000040146206038464A4634F069F8206827
:1023D000802134F0EDFE039C204634F053F8204673
:1023E00034F042F804903846002133F0FFFB834676
:1023F000384633F095FB0021122237F0BFFC04B2BF
:102400005846214600223AF017FD58462146002240
:102410003AF018FD584634F035F8584634F024F8B0
:1024200033F05EFB40F26402C2F2000202F11401DA
:1024300006463AF09BF9304630F0E6FF414600226E
:102440000446474634F0C8FEC5A1204632F03CFAA7
:102450000020CDE9000020460121032201230125AF
:102460004FF0000802953AF04BF9304630F0CCFFBF
:1024700039460022044634F0AFFE48F634212046A7
:1024800000F00AB800000000000020430000C8422D
:10249000000004C200007442C0F6060132F014FAD3
:1024A00001252046002100220123CDF800804FF0B5
:1024B0000008019502953AF023F9304630F0A4FF68
:1024C00039460022044634F087FE48F6362120467D
:1024D000C0F6060132F0F8F9012520460121032259
:1024E0000123CDF800804FF00008019502953AF0E5
:1024F00007F9304630F088FF39460022044634F0B0
:102500006BFE48F638212046C0F6060132F0DCF9B1
:1025100001272046022105220123CDF800804FF03B
:102520000008019702973AF0EBF8304630F06CFF64
:1025300040F23859C2F2000949460022044634F0FC
:102540004BFE48F68E35C0F606052046294632F089
:10255000BBF9CDF800804FF002082046002101228F
:1025600001230127CDF8048002973AF0C9F83046DC
:1025700030F04AFF49460022044634F02DFE204642
:10258000294632F0A1F90020CDE9000820460121BA
:10259000032201234FF00208029701273AF0B0F816
:1025A000304630F031FF49460022044634F014FE34
:1025B0002046294632F088F90020CDE9000820465F
:1025C00000210522012302973AF09AF830460421AF
:1025D00036F094FBCAF890003046052136F08EFBA9
:1025E000CAF894003046062136F088FBCAF89800F5
:1025F000584633F047FF584633F036FF48F6C321BC
:10260000C0F6060102F000F80321054636F076FB1D
:10261000CAF854002846042136F070FBCAF8580066
:102620002846082136F06AFBCAF85C0028460921D2
:1026300036F064FBCAF8600028460A2136F05EFBDB
:10264000CAF86400584633F01DFF584633F00CFFBB
:1026500048F6BC21C0F6060101F0D6FF032105466D
:1026600036F04CFBCAF868002846042136F046FBD9
:10267000CAF86C002846082136F040FBCAF8700002
:102680002846092136F03AFBCAF8740028460A2188
:1026900036F034FBCAF87800584633F0F3FE58465B
:1026A00033F0E2FE48F6D521C0F6060101F0ACFF9A
:1026B0000321054636F022FBCAF87C002846042197
:1026C00036F01CFBCAF880002846082136F016FBBD
:1026D000CAF884002846092136F010FBCAF88800A1
:1026E00028460A2136F00AFBCAF88C00049840F20A
:1026F000285240F230571EA30021C2F20002C2F25B
:102700000007009710F06AFE014605985A4606B089
:10271000BDEC028B01B0BDE8F04F33F0C1BE00BF8D
:10272000E5BC80E590AFE8B083E8AF95000000001D
:10273000E58AA8E58A9BE68EA7E588B6000000003A
:10274000E69CABE7ABAFE68EA7E588B600000000DD
:10275000E794B5E69CBAE8B083E8AF9500000000C6
:10276000E69CABE7ABAFE4BD8DE7BDAE000000007B
:10277000E7BC96E7A081E599A8E4BFA1E681AF0098
:102780002DE9F04385B040F60004C4F20204164679
:1027900089460746204620210022984602F054FC34
:1027A00020461021002202F04FFC40F6A4752A209A
:1027B000C2F20005ADF806000DF10601284601221F
:1027C000FF2304F093FB20461021012202F03CFC81
:1027D00020462021012202F037FC20461021002251
:1027E00002F032FC02A928460122FF23ADF808704E
:1027F00004F07CFB20461021012202F025FC20463B
:102800002021012202F020FC20461021002202F0AB
:102810001BFC0DF10A0128460122FF23ADF80A60D6
:1028200004F064FB20461021012202F00DFC20463A
:102830002021002202F008FC20461021002202F094
:1028400003FC2B20ADF80C0003A928460122FF232E
:1028500004F04CFB20461021012202F0F5FB20463B
:102860002021012202F0F0FB20461021002202F07C
:10287000EBFB0DF10E0128460122FF23ADF80E906F
:1028800004F034FB20461021012202F0DDFB20463B
:102890002021012202F0D8FB20461021002202F064
:1028A000D3FB04A928460122FF23ADF8108004F0D1
:1028B0001DFB20461021012202F0C6FB20462021EC
:1028C000002202F0C1FB20461021002202F0BCFBD6
:1028D0002C20ADF812000DF1120128460122FF2331
:1028E00004F004FB20461021012202F0ADFB05B0EC
:1028F000BDE8F08330EE800AB5EE400A9FED0E2A67
:10290000F1EE10FA02DA30EE020A08E0B4EE420A02
:10291000F1EE10FAC4BF9FED092A30EE020A9FEDD6
:10292000072AB4EE410A30EE022AF1EE10FAC8BFCF
:10293000B0EE420A704700BF0000B4430000B4C3C9
:102940002DE9F04F81B02DED048B8AB090ED020B94
:102950009FEDB71B58EC10AB90ED008B90ED049BF6
:10296000099153EC112B5046414648F0D3FF55ECEA
:1029700018BB81460E46584629465A462B4649F012
:10298000EDFA04460F46484631464A463346089615
:1029900049F0E4FA22463B4648F0BCFF9FEDA60B07
:1029A000079057EC104B0E465846294622463B46A8
:1029B00049F01CFE30BB9FEDA20B584653EC102B88
:1029C000294649F0FEFDE8B99FED9F0B504653ECB8
:1029D000102B414649F00AFEA0B99FED9D0B5046D1
:1029E00053EC102B414649F0ECFD58B99FEDA00B7C
:1029F00051EC190B53EC102B49F0E3FDD8BB00242C
:102A00000DE100BF5846294622463B4649F0EEFDFF
:102A100030BB9FED910B584653EC102B294649F0E3
:102A2000D0FDE8B99FED8E0B504654EC107B41462B
:102A30003A46234649F0DAFD90B99FED850B5046A2
:102A400053EC102B414649F0BCFD48B951EC190B31
:102A50003A46234649F0B5FD68B90024DFE000BFDF
:102A60009FED810B51EC190B53EC102B49F0B7FD86
:102A7000002840F0D380079F46EC107B48F0BCF95B
:102A8000B0EE408AF0EE608A9FED7B0B53EC192B81
:102A900051EC100B49F06EFC02460B4604460695BD
:102AA0000D4649F05BFA02460B463846314648F07F
:102AB00031FF41EC100B48F09FF9B0EE409A53EC17
:102AC000182B20462946F0EE609A48F0DFFF41ECD3
:102AD000100B47F001FCB0EE408AF0EE608A9FEDEB
:102AE000680B51EC190B53EC102B49F037FA41EC01
:102AF000100B47F045FA54EC187B56EC105B384647
:102B000021462A463346CDF81CB049F033FC9FEDF0
:102B10005E0B53EC10AB5246029349F01FFA9FED47
:102B20005C0B58EC10BB5A46434648F0F3FE41ECB0
:102B3000100BCDF80C90DDF82490CDE90410284658
:102B400031463A46234689ED000B48F0E3FE029CED
:102B50005246234649F002FA02460B465846414681
:102B6000CDF8048049F006FC0F46009041EC100BB4
:102B7000DDE90610039A089B89ED020B48F086FFF9
:102B800041EC100B47F0A8FB51EC100B52462346CA
:102B900049F0E4F941EC100BDDE9046589ED040B23
:102BA0009FED3D0B80468A4653EC102B284631465C
:102BB000002449F01BFD90BB019B284631465A4634
:102BC00049F0FFFC58BB9FED360B009D53EC102BDA
:102BD00028463946002449F009FD00BB9FED320B21
:102BE000284653EC102B394649F0EBFCB8B99FED61
:102BF000300B404653EC102B514649F0E9FC04469B
:102C0000002818BF0124019B404651465A4649F00E
:102C1000E6FC002818BF0120044000E00024204604
:102C20000AB0BDEC048B01B0BDE8F08F00BF00BF5F
:102C300000000000004058C000000000008061C09B
:102C400000000000000049C00000000000C0534028
:102C50000000000000C06A400000000000805B40EF
:102C600000000000000000000000000000405FC005
:102C70000000000000003E403333333333734040E4
:102C8000ED588130D28E653FAA9F9622DCA54C403C
:102C9000000000000080564066666666662645C0F5
:102CA00000000000000020400000000000805D40A7
:102CB00000000000008056C070B540F240504FF256
:102CC000D57E49F2C2134FF2F50C47F2E652C2F23A
:102CD0000000CCF25F0EC0F24B13C4F2680CC0F2DD
:102CE0001852C0E9063EC0E9082C4FF6520E46F2D3
:102CF0007C424BF6FF74C4F2640EC4F6853248F28F
:102D0000636C46F2A703C4F267046FF00105C4F2D6
:102D1000620CC0F6BD43C0E90C2EC0E9125448F263
:102D200000024EF28975C0E90E3CC4F24D02C2F6B3
:102D3000B42547F2611448F25A03C4F23A04C2F2CD
:102D4000F57342F2D44E4DF63866C0E9145200F1E4
:102D50006002CCF2600EC7F2B31682E858404CF223
:102D6000092447F6E02545F67C3243F2AB13C4F262
:102D70002604C3F24965CCF25902CBF24E73C0E986
:102D8000205449F68A2440F62C654BF20806C0E927
:102D90001E3245F629424BF23D23C1F26A74C4F259
:102DA0006B05C2F2FE46C4F27602C2F2C253C0E91B
:102DB000264CC0E92A6540F6AC354EF64634002173
:102DC000C0E924324AF255424FF29F1346F66C6630
:102DD000C4F27205C0F6EA04C0E90411C0E90A11A0
:102DE000C0E91011C0E91611C0E91C11C0E9221197
:102DF000C0E92811C6F20672C4F24303C2F67E3659
:102E0000C0E92E11C0E93245002145F293050024A6
:102E1000C0E92C2EC0E93063CCF2BE3100224BF663
:102E2000606348F20006C4F28335CCF2FA2400F164
:102E3000D00CC4F2BE32CCF28D03C4F2EE368CE874
:102E40004E00C0E9384570BD80B541F20020C2F2A5
:102E50000000002107F0BEFE40F24050C2F2000028
:102E60000121017080BD00002DE9F04F81B02DEDF2
:102E7000068B86B014460F46FFF762FD002800F06F
:102E8000538140F62818C2F2000898ED151A9FEDFC
:102E9000AE0A059030EE410AB5EE400AF1EE10FAA6
:102EA00002DA9FEDAC0A08E09FEDA82AB4EE420AD0
:102EB000F1EE10FA03DD9FEDA60A30EE410A9FED18
:102EC000A71A9FEDA58AB4EE410A30EE082AF1EE6A
:102ED00010FAC8BFB0EE420A10EE100A49F038FBF3
:102EE00097ED000B55EC106B32462B4649F042FA39
:102EF0009FED910B01908A4651EC100B98ED171A3B
:102F00009FED970A4FEAD17B30EE410AB5EE400AB9
:102F1000F1EE10FA6BF3DF7A049403DA9FED920A74
:102F200009E000BF9FED892AB4EE420AF1EE10FAE3
:102F300003DD9FED8C0A30EE410A9FED849A30EE5E
:102F4000081AB4EE490AF1EE10FAC8BFB0EE410A11
:102F500010EE100A49F0FCFA97ED020B53EC102B1F
:102F600049F008FA98ED191A9FED800A884631EE6B
:102F7000000AB5EE400A0446F1EE10FA6BF3DF7872
:102F8000CDE9026502DA9FED7B0A06E0B4EE490A5C
:102F9000F1EE10FA03DD9FED760A31EE000A9FEDA7
:102FA000761A30EE082AB4EE410AF1EE10FAC8BFE4
:102FB000B0EE420A10EE100A49F0CAFA97ED040B7F
:102FC0003D4653EC102B49F0D5F9019F0646894642
:102FD00038465146224643466BF3DF7949F006FBFB
:102FE000D0B93846514632464B4649F0FFFA98B9B7
:102FF000204641463A46534648F048FD41EC190BFD
:10300000304649463A46534648F040FD9FED4CABAA
:1030100041EC180B42E000BF204641463A46534679
:1030200049F0E4FAD0B92046414632464B4649F0D1
:10303000DDFA98B9384651462246434648F026FD07
:1030400041EC1A0B304649462246434648F01EFDE5
:103050009FED3B9B41EC180B20E000BF30464946FA
:103060003A46534649F0C2FAC0B93046494622466C
:10307000434649F0BBFA88B93846514632464B467A
:1030800048F004FD41EC1A0B2046414632464B46BF
:1030900048F0FCFC41EC190B9FED298B049848F09B
:1030A000D1FE04460E4651EC1A0B2246334648F038
:1030B00055FF48F081FE0746DDE9020148F0F8FBC4
:1030C00000EE100A01203946FF2207F01DFD51ECE9
:1030D000190B2246334648F041FF48F06DFE95ED4E
:1030E000020B074651EC100B48F0E2FB00EE100A11
:1030F00002203946FF2207F007FD51EC180B22464B
:10310000334648F02BFF48F057FE95ED040B04467C
:1031100051EC100B48F0CCFB00EE100A03202146C6
:10312000FF2207F0F1FC059806B0BDEC068B01B05C
:10313000BDE8F08F00BF00BF0000000000000000ED
:10314000000000000000F03F68669A420000B443AF
:1031500066668DC39A99DA430000B4C300008243C7
:103160006666FA42CDCC6AC39A99F24300007CC2EB
:103170000080D3C300809443000087430000000018
:103180002DE9F04F81B02DED108B8CB0824610EE02
:10319000100A0C46B0EE418AB0EE609A49F0D8F9B8
:1031A00041EC100B19EE100A8DED060B49F0D0F929
:1031B00041EC100B18EE100A8DED080B49F0C8F920
:1031C00041EC100B06A8694652468DED0A0BFFF73D
:1031D0004BFE002800F0CE8040F6240B9FED680BDC
:1031E000C4F2000B0020CBF8000051EC100B9FED57
:1031F000660B40F628159FED668A9FED689A9FED55
:1032000068AA9FED68BA9FED68CADFED69EA9FED95
:1032100061EA9FED68FADFED698ADFED699ADFED1B
:1032200066AADFED62BADFED5CCAC2F200054FEAC2
:10323000D17857EC106B42F2117900E0A04795ED80
:10324000151A9DED00DB38EE410AB5EE400AF1EEAD
:1032500010FA03DA39EE410A07E000BFB4EE4E0A75
:10326000F1EE10FAC8BF3CEEC10AB4EE4B0A30EEE4
:103270000A1AF1EE10FAC8BFB0EE410A10EE100AB9
:1032800049F066F902460B4651EC1D0B49F072F805
:1032900068F3DF7132463B4649F093F900285ED16E
:1032A00095ED171A9DED02DB3CEE410AB5EE400AA2
:1032B000F1EE10FA02DA3EEEC10A06E0B4EE4E0A72
:1032C000F1EE10FAC8BF3BEEC10AB4EE4E0A30EE82
:1032D0000A1AF1EE10FAC8BFB0EE410A10EE100A59
:1032E00049F036F902460B4651EC1D0B49F042F805
:1032F00068F3DF7132463B4649F063F978BB95EDE0
:10330000191A9DED04DB31EE0F0AB5EE400AF1EE1D
:1033100010FA03DA31EE280A07E000BFB4EE4E0AD5
:10332000F1EE10FAC8BF31EE2A0AB4EE690A30EEA7
:103330000A1AF1EE10FAC8BFB0EE410A10EE100AF8
:1033400049F006F902460B4651EC1D0B49F012F804
:1033500068F3DF7132463B4649F041F950B9DBF87A
:1033600000004845FFF46AAF06A869465246FFF7D9
:103370007BFD63E70CB0BDEC108B01B0BDE8F08FB6
:103380000000000000000000000000000000F03F0E
:1033900068669A420000B44366668DC39A99DA4320
:1033A0000000B4C3000082436666FA42CDCC6AC313
:1033B0009A99F24300007CC20080D3C300809443FA
:1033C00000008743000000002DE9F04F81B02DED93
:1033D0000C8B84B040F62814C2F2000494ED150A58
:1033E0009FEDE78A38EE400A10EE100A49F0B0F877
:1033F00048F6B528C0F606080DF1060A02460B4647
:1034000050464146FDF708F84FF29C2BC2F2010BE3
:10341000DBF85400514631F057FA94ED150A9FED50
:10342000D99A9FEDD9AA38EE400AF0EE490AB0EEDB
:103430004A1AFFF75FFA94ED151AB0EE40BA38EE6B
:10344000410AF0EE490AB0EE4A1AFFF753FA10EEBD
:10345000100A49F07DF848F6B429C0F6060902467C
:103460000B46B5EE40BA49465046F1EE10FAB8BFE9
:103470004146FCF7D1FFDBF85800514631F024FA01
:10348000DBF83000514631F01FFA94F8580048F646
:10349000DC27C0F606070028DBF85C0048F6D126DA
:1034A0003946C0F6060608BF314631F00DFA94F8E9
:1034B000590039460028DBF8600008BF314631F07A
:1034C00003FA94F85A0039460028DBF8640008BF74
:1034D000314631F0F9F994ED170A38EE400A10EE52
:1034E000100A49F035F802460B4650464146FCF7B3
:1034F00093FFDBF86800514631F0E6F994ED170AC6
:103500009FEDA2BA38EE400AF0EE4B0AB0EE481A30
:10351000FFF7F0F9B5EE400A94ED170A4D4638EE84
:10352000400AF0EE4B0AB0EE481AF1EE10FAB8BFBE
:103530004546FFF7DFF910EE100A49F009F8024698
:103540000B4650462946FCF767FFDBF86C005146F6
:1035500031F0BAF9DBF83400514631F0B5F994F89E
:10356000600039460028DBF8700008BF314631F0B2
:10357000ABF994F8610039460028DBF8740008BF05
:10358000314631F0A1F994F8620039460028DBF8A1
:10359000780008BF314631F097F9606E48F0D8FFE7
:1035A00002460B4650464146FCF736FFDBF87C00EE
:1035B000514631F089F99FED76CA9FED76DA94EDA8
:1035C000190AF0EE4C0AB0EE4D1AFFF793F9B5EE7A
:1035D000400A94ED190A4D46F0EE4C0AB0EE4D1A31
:1035E000F1EE10FAB8BF4546FFF784F910EE100A65
:1035F00048F0AEFF02460B4650462946FCF70CFF4A
:10360000DBF88000514631F05FF9DBF838005146B5
:1036100031F05AF994F8680039460028DBF8840044
:1036200008BF314631F050F994F869003946002856
:10363000DBF8880008BF314631F046F994F86A009B
:103640000028DBF88C0008BF3746394631F03CF9DA
:1036500094ED150AF0EE490A38EE400AB0EE4A1A27
:10366000FFF748F910EE100A48F072FF94ED170AC0
:10367000F0EE4B0A38EE400AB0EE481A41EC190B56
:10368000FFF738F910EE100A48F062FF94ED190ABE
:10369000F0EE4C0AB0EE4D1A41EC180BFFF72AF988
:1036A00010EE100A48F054FF41EC120BB0EE490A3C
:1036B000B0EE481AF0EE690AF0EE681A00F0C4F8AD
:1036C000B0EE419AF0EE619A9FED2B1B54EC106B1B
:1036D00057EC115BB0EE428A304621462A463B4603
:1036E000F0EE628A48F082FF002849465046324692
:1036F000234618BF4146FCF78FFE504641463246EE
:103700002346FCF789FEDBF89000514631F0DCF8E7
:1037100056EC194B204631462A463B4648F066FF98
:103720000028494650462246334618BF4146FCF71A
:1037300073FEDBF89400514631F0C6F856EC184B96
:10374000204631462A463B4648F050FF002818BF25
:10375000C1465046494622463346FCF75DFEDBF83B
:103760009800514631F0B0F804B0BDEC0C8B01B0BC
:10377000BDE8F08F00BF00BF0000000000000000A7
:103780000000B44366668DC300008243CDCC6AC39B
:1037900000007CC200008743B0B58CB041F2002429
:1037A000C2F2000420460021002507F095FA40F2FD
:1037B0004050C2F20000057020460021002207F0B0
:1037C00049FA40F62810C2F20000416D49000FD1BD
:1037D00090ED170AB5EE400AF1EE10FA08D190ED1F
:1037E000190AB5EE400AF1EE10FA01D1FEE700BF6A
:1037F0000020C4F26400CDE908500020C4F2590052
:10380000CDE90A5006A869460A22CDE90655FFF718
:103810002BFB44F23440C4F20100FA2101600CB0E9
:10382000B0BD000010B541F20020C2F2000000213E
:10383000002407F051FA40F24050C2F20000047038
:1038400010BD0000000000002DE9F04F81B02DED0B
:10385000068B82B054EC115B58EC109BB0EE428AA0
:10386000484641462A462346F0EE628A48F082FDE9
:103870009FED6F0B57EC106B32463B4648F06EFBEA
:1038800048F016F88246484641462A46234648F004
:1038900041F832463B4648F061FB9FED670B53EC25
:1038A000102B48F037F848F003F848F051FE41EC8F
:1038B000100B46F099FE51EC100B9FED610B53EC91
:1038C000102B48F04BFB47F0F3FF20F0004048F08E
:1038D0003FFE044650460D4648F03AFE41EC100BC0
:1038E00046F082FE51EC100B22462B4648F036FB88
:1038F00047F0DEFF9FED540B064653EC102B20469D
:10390000294648F02BFB41EC100B46F039FB51ECFB
:10391000100B9FED4F0B53EC102B48F01FFB47F0A3
:10392000C7FF074626F0004048F012FE9FED4A0B05
:1039300083468A4651EC180B53EC102B48F00EFBD3
:1039400041EC180B384648F003FE02460B46484649
:10395000414647F0DFFF80468946204629462246F9
:103960002B4648F0FBFA04460D46584651465A4647
:10397000534648F0F3FA02460B462046294648F0E3
:10398000F9FC41EC100B47F037FA8DED000B9DF878
:10399000070055EC104B80F080009FED310B8DF847
:1039A0000700DDE9006753EC102B4046494648F01C
:1039B00008FE9FED2D0B00281CBF34463D4653ECFE
:1039C000102B2046294647F0A5FFB0EE480AF0EE3E
:1039D000680A41EC190B46F007FE51EC100B5A46F1
:1039E000534648F0BBFA9FED220B53EC102B47F0E7
:1039F00091FFB0EE480AF0EE680A41EC1A0B47F06E
:103A000097F951EC100B5A46534648F0A7FAB0EE1E
:103A10004A1AB0EE492A41EC100BF0EE6A1AF0EEA9
:103A2000692A02B0BDEC068B01B0BDE8F08F00BF83
:103A30001839359D46DF813F4AD8124DFB21F93FA9
:103A40000000000000C07740ED588130D28E653F05
:103A5000AA9F9622DCA54C401839359D46DF913F40
:103A6000000000000080564033333333337340404E
:103A7000000000000040584070B586B04FF29C2610
:103A8000C2F20106F06B6FF0200101221DF0E4F993
:103A9000706C3D2101221DF0DFF9F06C0021012244
:103AA0001DF0DAF948F2DC65C0F6060501AC2046E7
:103AB00014212A466FF020033AF068FC306C21464E
:103AC00030F002FF204614212A463D233AF05EFCE6
:103AD000B06C214630F0F8FE204614212A4600231F
:103AE0003AF054FC306D214630F0EEFE06B070BD69
:103AF0002DE9F04186B040F62818C2F20008B8F867
:103B00004A5040F2A04740F24054C2F20007C2F2CD
:103B100000041DB328B248F07EF99FED650B53EC0D
:103B2000102B48F01BFA48F047F9B96894ED340AB5
:103B3000084401EE100AB8EEC11AB4EE410AF1EEE3
:103B400010FAB86006DC94ED350AB4EE410AF1EEE5
:103B500010FA03DABDEEC00A87ED020AB8F84C008D
:103B6000002D18BF012520B300B248F054F99FED95
:103B7000500B53EC102B48F0F1F948F01DF9F9689F
:103B800094ED360A084401EE100AB8EEC11AB4EEFC
:103B9000410AF1EE10FAF86006DC94ED370AB4EE53
:103BA000410AF1EE10FA03DABDEEC00A87ED030A0E
:103BB000012598F8360098F8381050EA01021DD017
:103BC000081A396900EBC000084401EE100A94EDB0
:103BD000380AB8EEC11AB4EE410AF1EE10FA3861B3
:103BE00006DC94ED390AB4EE410AF1EE10FA06DA79
:103BF000BDEEC00A87ED040A01E000BFD5B34FF265
:103C00009C26C2F201067069B96801221DF024F9F0
:103C1000F069F96801221DF01FF9706A3969012203
:103C20001DF01AF948F2DC650020BA68C0F60605F6
:103C300001ACCDE90400CDE90200019020462946FF
:103C4000FCF7EAFBB069214630F03EFEFA682046F8
:103C50002946FCF7E1FB306A214630F035FE3A692F
:103C600020462946FCF7D8FBB06A214630F02CFEEE
:103C70001BF0ACFA98F83D1098F83E00012908BFF7
:103C8000002807D0002908BF012805D100F070FCEA
:103C900002E000BF00F074FC98F83700012808BF6C
:103CA0001BF0F0FA06B0BDE8F08100BF00BF00BF16
:103CB0007B14AE47E17A843F40F2A040C2F200009C
:103CC00000210830A02264230EC07047F0B583B0F5
:103CD00040F628174FF23836C2F20007C2F201064A
:103CE00097F83420306848F6ED2148F6FD23C0F6F9
:103CF0000601C0F60603012A08BF194630F0E4FDAC
:103D00000020B7F942206C46ADF808000190009001
:103D100024A12046FCF780FB7068214630F0D4FDDA
:103D200048F2DC65B7F94420C0F60605204629466E
:103D3000FCF772FBB068214630F0C6FDB7F94620AB
:103D400020462946FCF768FBF068214630F0BCFDB0
:103D5000B7F9482020462946FCF75EFB306921462A
:103D600030F0B2FDB7F94A2020462946FCF754FB53
:103D70007069214630F0A8FDB7F94C20204629464D
:103D8000FCF74AFBB069214630F09EFDB7F94E20A2
:103D900020462946FCF740FBF069214630F094FDAF
:103DA00003B0F0BD307825303278000070B540F6B1
:103DB0002815C2F2000540F2A04495F83400C2F282
:103DC00000042178B0FA80F2520951EA020605D0C7
:103DD0001140012909D107F0EDFD01E007F0E4FDF4
:103DE00095F8340086F001012170A0B340F24065DF
:103DF000C2F2000595F84D0095F89D1008430BD1CF
:103E000040F68820C2F2000090F83B00002808BF6E
:103E100000F0AEF817E000BF40F68820C2F20000C4
:103E2000002195F84E20016041600021C4F27F31ED
:103E3000C16012B1002007F087FC95F89E0010B118
:103E4000012007F081FC2079002808BF70BDFFF732
:103E50004FFE0020207170BDF0B581B0044632F0F5
:103E600011FB204632F000FB40F62811C2F200019F
:103E700091F8341048F6FD2248F6ED23C0F606020C
:103E8000C0F6060340F23057012908BF1346C2F2BC
:103E900000070021002200970FF0A0FA002134F063
:103EA0002DFF4FF23837C2F201073860204632F05A
:103EB000E9FA204632F0D8FA31F012FE40F23854D6
:103EC000C2F200041EA122A32246054600940FF070
:103ED000B9FA48F68E36C0F6060678601EA1284666
:103EE0002246334600940FF0ADFAB8601BA1284675
:103EF0002246334600940FF0A5FAF86018A1284630
:103F00002246334600940FF09DFA386115A12846E9
:103F10002246334600940FF095FA786112A12846A4
:103F20002246334600940FF08DFAB8610FA128465F
:103F30002246334600940FF085FAF86101B0F0BDD7
:103F40006469676974616C5F64617461000000009A
:103F500030783030000000004C5F58004C5F590052
:103F60004C5F3200525F5800525F5900525F32007E
:103F70002DE9F0412DED048B40F62810C2F200002F
:103F8000B0F8441001F1630292B2C62A9CBF00212E
:103F9000A0F84410B0F8467007F1630292B2C62A46
:103FA0009CBF0027A0F8467090F83520012A05D163
:103FB000BDEC048BBDE8F0410AF0D6B9B0F9486019
:103FC000B0F94E80002908BF002F33D008B247F067
:103FD00022FF9FED390B54EC105B2A46234647F035
:103FE000BDFF47F065FC08EE100A38B247F013FF3A
:103FF0002A46234647F0B2FF47F05AFC09EE100A62
:10400000A6EB080047F007FF9FED2D0B53EC102B9C
:1040100047F0A4FF47F04CFC01EE100AB0EE480A4E
:10402000F0EE490AFF20BDEC048BBDE8F0410AF038
:10403000CFB900BF002EC9DCB8F1010FC6DA90F885
:104040003B10012902D1BFEE000A05E090F83C10B8
:1040500001290DD1B7EE000ADFED1B0AB0EE601AA0
:10406000FF20BDEC048BBDE8F0410AF0B1B900BF00
:1040700090F83910012905D19FED130AF7EE000AD7
:1040800008E000BF90F83A0001280DD19FED0E0A1C
:10409000FFEE000AB0EE401AFF20BDEC048BBDE835
:1040A000F0410AF095B900BFFF20BDEC048BBDE8DC
:1040B000F0410AF0FDBA00BFFCA9F1D24D62503FB9
:1040C0007B14AE47E17A743F0000000080B5002009
:1040D000C4F202004FF4004100F0B0FF012080BDA7
:1040E00070470000014640F62070C2F2000002F066
:1040F000E9B8000080B540F62070C2F2000002F07E
:10410000F3F8043818BF012080BD000080B500F02E
:104110000DF801281CBF012080BD40F62070C2F2BE
:104120000000BDE8804002F037BA000080B582B0E0
:1041300001208DF80700FFF7C9FF002804BF002009
:104140008DF807009DF8070002B080BD80B51346CA
:104150000A46014640F62070C2F2000002F0EAFB77
:10416000002818BF012080BD40F2F060C2F20000BC
:10417000012101607047000080B513460A460146E0
:1041800040F62070C2F2000002F070FC002818BF58
:10419000012080BD40F6C420C2F200000121016070
:1041A0007047000000000000F0B583B040F6281012
:1041B000C2F20000006F48F0CBF99FED270B53ECE3
:1041C000102B47F0CBFE9FED260B53EC102B47F046
:1041D000A1FB47F0F1FD47F01EFE9FED230B53ECD2
:1041E000102B47F0BBFE47F063FB48F0B1F99FEDA1
:1041F000200B044653EC102B0D4647F0AFFE9FED0D
:104200001E0B53EC102B47F085FB47F0D5FD0646FF
:1042100000206F46ADF80800CDE9000018A138462F
:1042200022462B46FCF7F8F84FF25834C2F201044C
:104230006068394630F048FB13A138463246FCF737
:10424000EBF8A068394630F03FFB20683146012288
:104250001CF002FE03B0F0BD00000000000024408E
:10426000000000000000E03F9A9999999999B93FA0
:104270000CE53594D7503A40E33594D7509E6CC046
:10428000252E31665600000025642525000000001B
:10429000B0B584B0044632F0F5F8204632F0E4F8C8
:1042A00040F2305200256421C2F20002CDE900251F
:1042B000029110A30021002203950EF063FE01215C
:1042C000044634F01BFD4FF25835C2F201050BA134
:1042D000686030F0F9FA2046022134F00FFD08A1A1
:1042E000A86030F0F1FA2046032134F007FD286081
:1042F00004B0B0BDE794B5E58E8B000030560000E9
:1043000030250000FEE7000041F24420C2F2000028
:1043100002A10622642304F003BB00BF4E6F5F4D71
:1043200073670000F0B583B040F61824C2F20004B1
:10433000607900210328ADF80810019100910DD09B
:10434000022811D0012819BF49F2E670C0F2A0007E
:104350004BF6E720C0F2A2000AE000BF49F2E830C5
:10436000C0F29D0004E000BF4BF6E730C0F2BF0092
:104370000090A0794CF614350138C0B20228C0F67E
:10438000040592BF55F8200049F2E670C0F2A00083
:10439000E17949F2E677CDF80300481EC0F2A007A4
:1043A0004FF26456C0B23946C2F20106022898BFE5
:1043B00055F820107069CDF80610694630F084FA7F
:1043C000A07800210328ADF80810019100910BD0CE
:1043D00002280FD0012811BF00974BF6E720C0F24A
:1043E000A20000900BE000BF49F2E830C0F29D004F
:1043F000009004E04BF6E730C0F2BF000090E07898
:104400000138C0B2022892BF55F8200049F2E67088
:10441000C0F2A0002179CDF803000139C9B2022908
:1044200092BF55F8211049F2E671C0F2A001706AFE
:10443000CDF80610694630F047FA03B0F0BD000031
:10444000B0B540F2286441F24425C2F200040220D3
:10445000C2F2000504F8010B06A1284606226423D7
:1044600004F05EFA284621460322BDE8B04004F07D
:1044700091B900BF4F626A6563740000B0B540F245
:10448000286441F24425C2F200040120C2F2000572
:1044900004F8010B06A128460722642304F040FA21
:1044A000284621460322BDE8B04004F073B900BF9E
:1044B00051525F436F646500B0B540F22865C2F2A7
:1044C00000052878022829D0012818BFB0BD6878D7
:1044D000A978A0F13103DBB2032B4FF00003EA7897
:1044E00038BFA0F1300340F61820C2F2000043713B
:1044F000A1F13103DBB2032B4FF0000338BFA1F170
:104500003003A2F131010024C9B28371032938BFFD
:10451000A2F13004C47100202870B0BD6C1C11A140
:1045200020460322FCF7EAF870B10FA120460322CF
:10453000FCF7E4F850B10DA1204603220324FCF758
:10454000DDF80028E7D102E0012400E0022440F673
:104550001820C2F2000041780844847000202870BE
:10456000B0BD00BF5245440047524500424C550083
:1045700044F23440C4F20100BA21016070470000E7
:1045800044F23440C4F20100FA2101607047000097
:1045900040F6AC50C2F2000000F06ABA40F60C607F
:1045A000C2F2000000F064BA40F6EC40C2F2000033
:1045B00000F05EBA10B540F64C54C2F2000420463A
:1045C00000F056FA94F83500012818BF10BD40F6E7
:1045D000DC30C2F20000006820F0A4F940F60000D0
:1045E000C4F2020010210122BDE8104000F02CBDF1
:1045F00040F66C60C2F2000000F03ABA704700006A
:10460000102000F031BC00002DE9F04F83B00E46C1
:1046100031F066FA044640F26400C2F2000000F194
:10462000220100F10802204638F0A0F820462EF0C2
:10463000EBFE40F23058C2F2000841460022074625
:104640004FF0000932F0C8FD3846314630F03CF9F1
:1046500001253846012103220123CDE90099029565
:104660004FF0030A38F04CF820462EF0CDFE4146BC
:104670000022064632F0B0FD6CA1304630F024F93D
:104680003046002100220123CDE90095029538F043
:1046900037F820462EF0B8FE41460022064632F09A
:1046A0009BFD66A1304630F00FF93046022105220D
:1046B0000123CDE9009502954FF0020B38F020F868
:1046C00020462EF0A1FE40F23856C2F200063146D6
:1046D0000022074632F080FD5CA1384630F0F4F845
:1046E0003846002102220123CDE9009B029538F0D3
:1046F00007F820462EF088FE31460022074632F0A9
:104700006BFD54A1384630F0DFF838460021042212
:104710000123CDE9009B02954FF0040B37F0F0FF29
:1047200020462EF071FE41460022064632F054FD2E
:104730004AA1304630F0C8F830460021002201235B
:10474000CDE9009A029537F0DBFF20462EF05CFEA3
:1047500041460022064632F03FFD42A1304630F08D
:10476000B3F83046012103220123CDE9009A0295D6
:1047700037F0C6FF20462EF047FE4146002206468F
:1047800032F02AFD39A1304630F09EF83046022141
:1047900005220123CDE9009A029537F0B1FF2046AA
:1047A0002EF032FE41460022074632F015FD48F653
:1047B000D126C0F606063846314630F085F8384630
:1047C000002101220123CDE9009B029537F098FFDB
:1047D00020462EF019FE41460022074632F0FCFC2E
:1047E0003846314630F070F8384601210322012363
:1047F000CDE9009B029537F083FF20462EF004FEA2
:1048000041460022074632F0E7FC3846314630F098
:104810005BF83846002105220123CDE9009B029573
:1048200037F06EFF204603B0BDE8F08FE7BC96E797
:10483000A081E599A8E8A792E5BAA600E5AE9EE9B1
:104840009985E8A792E5BAA6000000003030302E26
:10485000300000002B3030302E300000E8B685E903
:10486000809F0000E5BCB1E7A3810000E4BD8EE5B8
:104870008E8B0000EFF3108072B600BFFEE70000E1
:1048800080B540F6CC33C2F200035A7A002A1CBF2E
:10489000012080BD93F809C08646002003F80C0073
:1048A0005A7A03EB8202C2F804E05A7A1A44107270
:1048B00093F809C00CF101025A720CF130020A702F
:1048C00042F63A72A1F80120C87080BDB0B58646A4
:1048D00002208EF80500DEF80000836843F0010333
:1048E000836042B1531E032B02F0030C08D2002256
:1048F000BCF1000F1AD1006801218EF80510B0BD7F
:1049000022F00302A1F110035442002253F8105F79
:10491000043A05605D68944205609D680560DD6845
:104920000560F3D15242BCF1000FE4D051F82230BF
:10493000BCF1010F0360DED001EB82014A68BCF1DB
:10494000020F02601CBF89680160006801218EF8B7
:104950000510B0BD002804BF0120704710B5044603
:10496000407918B101206071002010BD0020207135
:10497000204600F005F801206071002010BD000005
:1049800081B043F63001C4F202010068A1F5036270
:10499000904201D001B0704700200090086840F4B8
:1049A00080500860086800F480500090009801B0C2
:1049B0007047000070B5866D044600F04BFB94F81C
:1049C000351002292ED105462068216C026822F09C
:1049D00016020260426922F08002426109B9A16CAC
:1049E00019B1016821F008010160016821F001019D
:1049F00001600068C00708D000F02CFB401B0528B0
:104A000018D820680068C007F6D1E06D3F2101FA90
:104A100000F0B060012084F835000020002184F807
:104A2000341070BD802060650120002184F83410AE
:104A300070BD00BF20206065032084F83500002190
:104A400084F8341070BD000090F83510022909D1A7
:104A5000052180F835100068016821F0010101602E
:104A6000002070478021416501207047406D7047EC
:104A7000F0B581B004460020009040F20010C2F270
:104A800000000268D4E9166048F2B51337680821BF
:104A9000C1F64E3381403942A2FB03250CD0226877
:104AA00013685B0708D5136823F004031360B16033
:104AB000616D41F00101616501218140394208D0F9
:104AC00022685269120604D5B160616D41F002019D
:104AD000616504218140394208D02268126892073A
:104AE00004D5B160616D41F0040161651021814020
:104AF000394217D020680268120713D5B1600268E6
:104B00000168520308D4C90508D4016821F00801DE
:104B10000160216C21B905E008033FD4216C09B183
:104B200020468847E16D202000FA01F23A4241D048
:104B300020680368DB063DD5B26094F83530026822
:104B4000052B1BD122F016020260426922F080027E
:104B50004261226C0AB9A26C1AB1026822F0080202
:104B600002603F208840B060012084F83500216D4C
:104B70000020002984F8340052D157E00168520324
:104B800010D4C90512D4016821F010010160012080
:104B900084F83500002084F8340007E0A16C002977
:104BA000BED1BFE7080301D4616C00E0E16B09B13D
:104BB00020468847606DC8B3606DC0072ED00520C1
:104BC00084F835002068A90A026822F00102026018
:104BD000009A01328A4200921AD80268D20717D08E
:104BE000009A01328A42009212D80268D2070FD08E
:104BF000009A01328A4200920AD80268D20707D08E
:104C0000009A01328A42009202D80268D207DFD1AC
:104C1000012084F83500002084F83400E16C29B1CB
:104C2000204601B0BDE8F040084700BF01B0F0BD2C
:104C30002DE9F041044600F00DFA002C4ED0054657
:104C4000022084F835000020216884F834000868C8
:104C500020F0010008600868C00708D000F0FAF9E9
:104C6000401B05286CD821680868C007F6D1086881
:104C700048F23F02CFF21002D4E90135024004F1BC
:104C80000C0E9EE8C1511A432A4310433043384367
:104C900040EA0800626A40EA0C00042A40EA0E0377
:104CA00020D1D4E90A5E206B4EEA0302104308606B
:104CB0004869BEF1000F20F0030040EA050040F013
:104CC000040C15D0B8F5005F42D0B8F1000F51D1F7
:104CD000022D52D0012D47D055B94EE00120BDE83C
:104CE000F08100BF0B60486920F0070040EA020C29
:104CF0006FF00F004AF6AB2250FA81F0CAF6AA22F2
:104D0000A0FB02231A094CF6A453C0F604039A5CD4
:104D100040F2FF335F284FF03F00C1F814C021EA92
:104D2000030100FA02F088BF0431C4E9161288605A
:104D3000002301220020636584F83520BDE8F0815E
:104D4000032220230320636584F83520BDE8F08129
:104D5000032DCDD8012240230120DFE805F0030E0A
:104D6000030500BFE7E700BFAEF1C070B0FA80F006
:104D7000400904E0032D04D3BAD1CEF3006000282B
:104D8000B6D0012240230120636584F83520BDE8B8
:104D9000F081000070B590F834C0BCF1010F46D02E
:104DA0004FF0010C80F834C0D0F858E090F835C0CE
:104DB000BCF1010F38D14FF0020C80F835C04FF034
:104DC000000CC0F854C0D0F800C08468056CC06DF9
:104DD000DCF80060402C26F48026CCF80060CCF88B
:104DE00004300B4604BF13460A463F2101FA00F087
:104DF000CCF80830CCF80C20CEF80800DCF8000025
:104E000040F01600CCF800002DB1DCF8000040F0B6
:104E10000800CCF80000DCF8000040F00100CCF8FD
:104E20000000002070BD00BF002180F83410022077
:104E300070BD0000B0B5044600F00CF9054640F224
:104E40000000C2F200000078611C18BF044400BFDB
:104E500000F000F9401BA042FAD3B0BD102808BFF3
:104E600019F02CB97047000043F61441C4F2010157
:104E70000A68024214BF08607047FFF7EFBF0000E6
:104E80002DE9F04F82B043F6004C40F60042C4F2E8
:104E9000010CC4F20202072300244FF001094FF075
:104EA000000B4FF00008904208BF032300933FE03F
:104EB000012204F00C030F259D402EEA05059A40BF
:104EC0002A4346F82720DCF808204B6842EA0A0704
:104ED00043F60C45DE0258BF22EA0A07CCF80870F8
:104EE000C4F201052A689E0242EA0A0758BF22EA74
:104EF0000A072F60DCF804209E0342EA0A0758BF25
:104F000022EA0A07CCF80470DCF80020DB0342EA4E
:104F10000A0758BF22EA0A07CCF800700BF1020B0F
:104F200008F10108BBF1200F04F1040400F08280B5
:104F30000A6809FA08FA12EA0A0FEFD0D1F80490C9
:104F400009F00306721E012A16D882680323CF686F
:104F500003FA0BF5AA4307FA0BF73A43826042685B
:104F6000EF43C9F3001522EA0A0205FA08F54FEAF1
:104F7000480E2A43426009E0032202FA0BF2D743AB
:104F8000032EDE4602D1DE4603261DE0C2688D6890
:104F90003A4005FA0EF52A43022EC26014D16FF092
:104FA000030202EA58020244D2F8209004F01C06E0
:104FB0000F230D69B34029EA0303B5402B43136265
:104FC000D1F8049009F00306026806FA0EF33A409D
:104FD0001A4319F4403F4FF0010902609ED00022AD
:104FE00043F644070192C4F202073B68ACF57E76B3
:104FF00043F480433B603B684FEA980703F48043E7
:105000000193019B002356F827E0C4F20203984263
:105010003FF44FAF40F20042C4F2020290423FF42C
:1050200047AF40F60002C4F202029042009A08BF65
:1050300002223EE702B0BDE8F08F000000690840A0
:1050400018BF012070470000002A08BF09048161D1
:105050007047000042F2D010C2F2030000687047AF
:1050600070B5B8B3044690F83D0028B9002084F824
:105070003C00204600F056FB242084F83D002068C8
:10508000016821F001010160016841F40041016003
:10509000016821F40041016000F028FE48F28041DF
:1050A000C0F21E0140F60013D4F804E088424FF02D
:1050B0000001C0F23D0348F2A16C4FF0000238BF7E
:1050C00001219842C0F2010C38BF0122E64538BFE9
:1050D0000A460AB1012070BD4DF68361C4F21B314E
:1050E000A0FB01122168950C4B684FF4967623F0D3
:1050F0003F0343EA9243754344F6D3564B60C1F2F3
:1051000062060B6AA5FB0656B50923F03F03E64588
:1051100038BF950C6A1C1A430A62CA6948F2A06635
:105120004CF6FF73C0F20106B64522EA03020BD823
:1051300001384FEA4E03B0FBF3F001306FF31F303C
:10514000042898BF04201EE0A368013863B1192326
:105150000EFB03F3B0FBF3F001306FF31F3078B1B7
:1051600000F5804008E000BF0EEB4E03B0FBF3F00B
:1051700001306FF31F3028B100F5004003E000BF9D
:10518000012000E001201043C8610868D4E907232A
:1051900020F0C000104318430860886848F2FF32CE
:1051A00004F10C0690434CCE18431043A569886067
:1051B000C86820F0FF0030432843C860086840F00A
:1051C0000100086000202021206484F83D10206345
:1051D00084F83E0070BD00002DE9F04784B0984689
:1051E00017460E460446FFF735FF94F83D10202978
:1051F00023D1054620688169890719D5FFF72AFF61
:10520000401B1928F6D900202021206384F83D1086
:1052100084F83E00206C04F13C0940F0200020643A
:105220000220002189F8001004B0BDE8F08700BF1B
:10523000A14619F83C1F012904D1022004B0BDE8A1
:10524000F08700BF012289F800200368DDE90D1A0C
:105250000C9ADB0703D1036843F001030360036882
:1052600023F400630360222084F83D00402084F88A
:105270003E000020206462626185608D3146208599
:105280000020CFF6FF70E06220463A464346CDF854
:1052900000A0019503F088FC20B1012004B0BDE816
:1052A000F08700BF208DA8B102282BD0012835D16E
:1052B00021680A6822F480620A60002203924A6927
:1052C00003928A690392039A0A6842F400720A60A0
:1052D0002CE000BF002003902068416903918169A0
:1052E00003910399016841F400710160202084F862
:1052F0003D00002084F83E00002189F8001004B031
:10530000BDE8F08721680A6822F480620A600A68B2
:1053100042F400620A600022039202E0002103913D
:1053200021684A6903928969039103990AF1010688
:1053300080B2032818D8022842D0012856D1BAF1E9
:10534000000F00F0AB802068014651F8142F520680
:1053500000F1A8800868C00600F1E280FFF77AFE3D
:10536000401B5045EFD9D0E0BAF1000F10D000BF7C
:105370002068014651F8142F52060ED40868C00662
:1053800000F1CE80FFF766FE401B5045F0D9BCE02F
:1053900020684169490640F1B1800069616A08707E
:1053A000606A2268411C208D616201382085638D0E
:1053B000013B638553695B0740F18080106973E0AE
:1053C00020684169490747D4002E59D0BAF1000F2F
:1053D00000F09980FFF73EFE401B504500F295809B
:1053E000206841694907F5D536E000BF206841696A
:1053F00049070FD4002E65D0BAF1000F00F083806A
:10540000FFF728FE401B504500F27F80206841696D
:105410004907F5D5016821F4806101600069616A7E
:105420000870606A218D0130013960622185206831
:10543000618D01396185416949070DD4002E4FD036
:10544000BAF1000F5FD0FFF705FE401B50455CD856
:10545000206841694907F6D5016841F4007101608F
:105460000069616A0870606A2268411C6162218D6E
:1054700001392185618D013961851169417014E01F
:1054800041694907E8D4416949075CBF41695FEA5E
:105490004171E1D441694907F2D5DDE720684169EE
:1054A00049062BD50069616A0870606A218D013058
:1054B0006062481E2085618D0139618501047FF499
:1054C00037AF13E741694907A4D4416949075CBF75
:1054D00041695FEA41719DD441694907F2D599E775
:1054E00041694907B8D4416949075CBF41695FEA2E
:1054F0004171B1D441694907F2D5ADE750F8141FA5
:10550000C90601460CD4FFF7A5FD00202021206329
:1055100084F83D1084F83E00206C40F020000AE042
:105520006FF01000086000202021206384F83D10F7
:1055300084F83E00206C20640120002189F80010CE
:1055400004B0BDE8F08700002DE9F04383B0994630
:1055500016460F460446FFF77DFD94F83D102029BE
:105560001CD1054620688169890713D5FFF772FDB4
:10557000401B1928F6D900202021206384F83D1013
:1055800084F83E00216C41F02001216484F83C0045
:1055900004E000BF94F83C10012903D1022003B0BD
:1055A000BDE8F083012284F83C200368DDE90B1894
:1055B0000A9ADB0703D1036843F001030360036821
:1055C00023F400630360212084F83D00402084F828
:1055D0003E000020206462626185608D394620852E
:1055E0000020CFF6FF70E062204632464B46CDF8F1
:1055F0000080019503F068FC20B1012003B0BDE8F4
:10560000F08300BF208D002850D0206808F10106EB
:10561000014651F8142F12062CD49EB1B8F1000F98
:105620005AD000BF086840055ED4FFF713FD401B49
:10563000404556D82068014651F8142F1206F1D57E
:1056400018E000BF0A6852054ED40A68120611D449
:105650000A68520548D40A6812060BD40A68520533
:1056600042D40A68120605D40A6852053CD40A6876
:105670001206E7D5626A114611F8013B0361238DDA
:105680006162591E2185678D013F678547697F07E4
:105690000AD50F0408D051780161911C6162991EEE
:1056A0002185628D013A62850904B1D120464146C7
:1056B0002A4603F043FD38BB2068016841F40071BD
:1056C0000160202084F83D00002084F83E0084F82A
:1056D0003C0003B0BDE8F0830868400504D4FFF740
:1056E000B9FC202004E000BF6FF480600860042053
:1056F00000212022216384F83D2084F83E10226C92
:105700001043206484F83C10206C04287FF475AFAB
:105710002068016841F400710160012003B0BDE818
:10572000F0830000B0B586B0016845F20040C4F2D5
:105730000000814202D006B0B0BD00BF002443F695
:1057400030050194C4F20205296800F5D83041F013
:1057500002012960296801F0020101910199C0212B
:1057600001911221CDE90214032104910421059134
:1057700001A9FFF785FB0094286940F40010286117
:10578000286900F400100090009806B0B0BD000039
:1057900040F2000042F2D011C2F20000C2F2030156
:1057A00000780A68104408607047000080B543F62E
:1057B0000040C4F20200016841F400710160016818
:1057C00041F480610160016841F48071016003204F
:1057D00000F084F8002000F005F800F027F8002021
:1057E00080BD000070B540F20006C2F2000640F233
:1057F00000113278C2F200014FF47A730968B3FBEA
:10580000F2F20446B1FBF2F1084601F0B1FD0F2CB3
:105810004FF0010508D838B94FF0FF30214600227B
:10582000002500F02FF87460284670BD82B000207B
:1058300043F640010190C4F202014A6842F48042FA
:105840004A604A6802F480420192019A0090086816
:1058500040F080500860086800F080500090009888
:1058600002B07047002848BF704700F01F010122B6
:1058700002FA01F14EF200124009CEF2000242F8A3
:105880002010704710B54EF60C5CCEF2000CDCF820
:105890000030C3F3022E8EF00704042C28BF04242A
:1058A000BEF103034FF0FF3E0EFA04F438BF0023AD
:1058B000A14399400EFA03F39A43114300F00F02FB
:1058C000043A624409010C3200F16043B0F1FF3F39
:1058D000C8BF03F56442117010BD00004EF60C51B4
:1058E000CEF200010A684FF6FF031A4060F30A2265
:1058F00042F0806040F0FD70086070472DE9F04193
:1059000082B00446006843F68C06C107C4F2020662
:1059100004D14FF0000881070CD415E031686269AA
:1059200021F0C06111433160B2FA82F14FEA51189F
:10593000810709D53168A26921F0C0511143316056
:10594000002A08BF4FF0010801075AD50020019036
:1059500056F84C0C47F2000740F0805046F84C0CCB
:1059600056F84C0CC4F2000700F0805001900198EA
:10597000386840F480703860FFF76CFB054600BF64
:105980003868C00506D4FFF765FB401B0228F7D92D
:10599000DDE000BF56F81C0C10F4407017D0E16930
:1059A00001F44071884212D056F81C0C40F6406158
:1059B000C4F24721012220F440700A6000220A60EC
:1059C00046F81C0C56F81C0CC00740F0CB80206831
:1059D000E16956F8842C4FF6FF4701F4407322F436
:1059E000F812C0F6FF770F40B3F5407F08BF3A4387
:1059F00046F8842C56F81C2C6FF31F31114346F8DF
:105A00001C1C41070AD4C10613D4810619D44106CF
:105A100024D4B8F1000F2AD03AE000BF94F838003F
:105A200040F64061C4F24721C1F8A0032068C106D6
:105A3000EBD5B168626A21F440011143B16081067F
:105A4000E5D5B168A26A21F000611143B160B2F1FD
:105A5000006F08BF4FF001084106DAD5B168226A2D
:105A600021F080511143B160B8F1000F10D18028AE
:105A70000ED0C10505D53168E26A21F0004111431D
:105A80003160800516D4002002B0BDE8F08100BF6F
:105A90006827C4F2472700203860FFF7DBFA054685
:105AA00056F88C0C00010FD5FFF7D4FA401B0228E2
:105AB000F6D94CE03068216B20F400400843306098
:105AC000002002B0BDE8F081606B40F64061C4F296
:105AD0004721C1F898022068C10701D0616989B1E6
