:020000040800F2
:1000000008080020890100085D2500087122000809
:100010005925000851040008D926000800000000F6
:100020000000000000000000000000006D25000836
:10003000650400080000000069250008712500081B
:10004000A3010008A3010008A3010008A301000800
:10005000A3010008A3010008A3010008A3010008F0
:10006000A3010008A3010008A3010008550400082B
:10007000A3010008A3010008A3010008A3010008D0
:10008000A3010008A3010008A3010008A3010008C0
:10009000A3010008A3010008A301000869040008E7
:1000A000A3010008C9260008A3010008A301000855
:1000B000A3010008A3010008A3010008A301000890
:1000C000A3010008A3010008A3010008A301000880
:1000D000A3010008A3010008A3010008A301000870
:1000E000A3010008A3010008A301000800F002F822
:1000F00000F03AF80AA090E8000C82448344AAF188
:100100000107DA4501D100F02FF8AFF2090EBAE885
:100110000F0013F0010F18BFFB1A43F0010318473B
:100120008C280000AC280000103A24BF78C878C1A1
:10013000FAD8520724BF30C830C144BF04680C60ED
:10014000704700000023002400250026103A28BF35
:1001500078C1FBD8520728BF30C148BF0B60704739
:100160001FB51FBD10B510BD00F084F81146FFF794
:10017000F7FF02F07FFB00F0A2F803B4FFF7F2FFF5
:1001800003BC00F0A9F8000009488047094800476F
:10019000FEE7FEE7FEE7FEE7FEE7FEE7FEE7FEE737
:1001A000FEE7FEE704480549054A064B7047000094
:1001B0000D260008ED0000080802002008080020B5
:1001C000080400200804002040EA010310B59B0742
:1001D0000FD1042A0DD310C808C9121F9C42F8D0B1
:1001E00020BA19BA884201D9012010BD4FF0FF3062
:1001F00010BD1AB1D30703D0521C07E0002010BD78
:1002000010F8013B11F8014B1B1B07D110F8013B03
:1002100011F8014B1B1B01D1921EF1D1184610BDE4
:100220004FF0000200B5134694469646203922BF8F
:10023000A0E80C50A0E80C50B1F12001BFF4F7AFDA
:10024000090728BFA0E80C5048BF0CC05DF804EBBC
:10025000890028BF40F8042B08BF704748BF20F82A
:10026000022B11F0804F18BF00F8012B7047704728
:1002700070477047754600F02BF8AE46050069469A
:10028000534620F00700854618B020B5FFF78AFFD7
:10029000BDE820404FF000064FF000074FF0000887
:1002A0004FF0000BAC46ACE8C009ACE8C009ACE8C4
:1002B000C009ACE8C00921F007018D46704710B5B0
:1002C0000446AFF300802046BDE81040FFF755BF5D
:1002D000004870477800002001491820ABBEFEE7B7
:1002E0002600020070470000B0B50446006881682F
:1002F000C90709D0816821F00101816000F076FE14
:1003000021688968C90701D10020B0BD054603E016
:1003100020688068C007F7D000F068FE401B032803
:10032000F6D320688068C007F2D0A06A40F01000C1
:10033000A062E06A40F00100E0620120B0BD000070
:1003400080B50146406A826A12F0500F04D0006AFC
:10035000026B0846904780BD0168826A42F40072D1
:100360008262896801F46021B1F5602F01D1017BBF
:1003700011B100F083F980BD816A21F4807181623E
:10038000816AC904F5D4816A41F00101816200F0FB
:1003900075F980BD80B5406A816A41F04001816293
:1003A000C16A41F00401C16200F06CF980BD000037
:1003B00080B5406A00F064F980BD0000B0B582B03D
:1003C00004460020019021688A68D2073DD18868E0
:1003D00040F00100886040F24800C2F2000000686E
:1003E0004DF68361C4F21B31A0FB0101880C00BFF4
:1003F0000190019810B101980138F9E700F0F6FD7D
:1004000021688968C9071CD1054603E02068806817
:10041000C00719D100F0EAFD401B0328F6D320687D
:100420008068C007F2D1A06A40F01000A062E06AC4
:1004300040F00100E062002084F82400012002B0B6
:10044000B0BD002002B0B0BD002002B0B0BD0000C1
:10045000FEE7000080B540F23010C2F2000000F06C
:100460003BFB80BD7047000080B54FF4807000F00A
:10047000A9FC80BDEFF3108072B600BFFEE700005C
:1004800070B582B004460020019094F82400012841
:1004900001D1022566E0012084F824002046FFF700
:1004A00023FF054600285AD1A06A41F20211884371
:1004B0000230A06240F24800C2F20000066802204A
:1004C00000F086FEB6FBF0F0400000BF01900198FE
:1004D00010B101980138F9E72046FFF76FFF206857
:1004E000816841F00801816000F080FD21688A6820
:1004F00012070DD4886840F00400886000F076FD93
:1005000021688968490713D401206FF0030122E0B4
:10051000064603E0216888680007EBD500F066FD19
:10052000801B0B28F6D3206880680007F2D50EE008
:10053000064603E0206880684007E5D500F056FDD8
:10054000801B0B28F6D3206880684007F2D5012570
:1005500010206FF01201A26A11400843A06200202F
:1005600084F82400284602B070BD0000B0B581B008
:100570000022009290F82420012A01D1022179E082
:100580004A680123062A80F8243005D803686FF0F2
:10059000040C03F1340E0AE003680C2A87BF03F150
:1005A0002C0E6FF0400C03F1300E6FF0220C02EBBA
:1005B0008202DEF8005062441F230C68934025EA53
:1005C000030304FA02F21A43CEF80020D1F800E047
:1005D00002680EEB4E051024BEF1090F88BF1E3DC8
:1005E00088BF0C2452F804C007238968AB402CEA6A
:1005F0000303A940194311512EF001014FF0000CE3
:1006000010294FF0000133D1016842F20042C4F2D8
:100610000102914205D0816A41F0200181620121ED
:1006200026E09268120222D48A68BEF1100F42F4CA
:1006300000028A601BD140F24801C2F20001096841
:100640004DF68362C4F21B32A1FB0212910C01EB46
:10065000810149000091009949B100BF0099013919
:100660000091009900294FF00001F7D100E000212E
:1006700080F824C0084601B0B0BD000070470000FB
:100680007047000070470000B0B5002846D004460F
:10069000806A30B90020E06284F82400204600F02F
:1006A000A1F820688168C90709D0816821F001019B
:1006B000816000F09BFC21688968C90730D1002067
:1006C0000121A36AA26A31B313F0100123D141F2D0
:1006D000021122EA01010231A162E169D4E9013289
:1006E00041EA030C531EB3FA83F35D091346B2F5D6
:1006F000807F18BF2B02217D257B01294CEA450E06
:1007000031D13DB3A56A45F02005A562E56A45F003
:100710000105E56227E042F01000A0620120B0BDB3
:10072000054603E020688068C007C8D000F05EFC82
:10073000401B0328F6D320688068C007F2D0A06A67
:10074000002140F01000A062E06A40F00100E06289
:100750000120B6E7D4F818C04EF60005CFF6FF75B5
:1007600005EB4C352B432568B2F5807F696821F491
:10077000694141EA03016960A9684FF2FD73CFF650
:10078000E17301EA030141EA0E01A96001D0012AE7
:1007900006D121690022CFF6F07202EB015200E08F
:1007A0000022E96A21F470011143E962A96840F668
:1007B000FE62CFF61F721140714507D10021E16240
:1007C000A16A012262F30101A162B0BDA06A40F0FA
:1007D000100020F00200A062E06A40F00100E06238
:1007E0000120B0BD2DE9F04186B040F60005044679
:1007F000C4F20105006805F5E0510027884205971D
:10080000CDE90377029702D006B0BDE8F08141F24E
:100810001800C4F2020001680DF1080841F40071EB
:1008200001600168032601F40071019101990168DA
:1008300041F004010160016801F004010191019996
:10084000016841F0080101600068414600F00800BD
:10085000019001986B2002902846039600F0C0FAA0
:100860000120CDE9020605F58060414600F0B8FAA6
:1008700040F230150820C2F20005C4F202004FF425
:100880008072C5E9000705F1100080214FF48063F4
:100890002026CCC02846C5E9027100F0D5F9002811
:1008A00018BFFFF7E7FD25626C6206B0BDE8F08176
:1008B0002DE9F0410546006842F60006C4F2010643
:1008C0009046B0420F4605D042F20041C4F2010109
:1008D00088420AD142F20440C4F20100006810F4D8
:1008E000702F1CBF0120BDE8F08195F8240001287D
:1008F00004BF0220BDE8F081012085F824002846CD
:10090000FFF75CFD044628B1002085F8240020464E
:10091000BDE8F08142F204402968AA6AC4F20100ED
:1009200040F601739A4300F57F7302F58072994295
:10093000AA6207D0A86A20F48010A862486840051F
:1009400018D512E0026812F4702FF3D0AA6AB142EF
:1009500042F48012AA6205D042F20042C4F20102BF
:10096000914207D10068400504D5A86A012262F3CC
:100970000D30A862AA6A0020D2044FF0000244BFE2
:10098000EA6A22F00602EA6285F82400286A40F248
:100990004132C0F6000240F2B13340F2953600F128
:1009A000280CC0F60003C0F600068CE84C006FF07F
:1009B00002020A608A68434642F480728A604C31BF
:1009C0003A4600F07DF92868816801F46022816868
:1009D000B2F5602F0CBF41F4A00141F48011816099
:1009E0002046BDE8F0810000B0B5044690F8240030
:1009F000012804BF0220B0BD0121206884F8241022
:100A00008268D20703D10020002941D028E0816804
:100A100021F00101816000F0E9FA21688968C907C5
:100A200003D10020012199B31AE0054604E000BF7C
:100A300020688068C007F4D000F0D8FA401B032873
:100A4000F6D320688068C007F2D0A06A002140F089
:100A50001000A062E06A40F00100E0620120B9B13C
:100A60002268216A936823F48073936091F82120AF
:100A7000022A0DD1084600F00FF8A16A41F20112D6
:100A800021EA020241F04001002808BF511CA16286
:100A9000002184F82410B0BD014690F821000228FE
:100AA00013D10868D1E90FC3026822F00E02026078
:100AB000026822F001020260012000FA03F2CCF881
:100AC000042081F82100002002E004208863012036
:100AD000002281F82020704710B5D0E90FCE0168C0
:100AE000DCF800300A6823FA0EF35C0724D512F014
:100AF000040421D00A68920603D40A6822F0040292
:100B00000A602F22C4F20202914240F20402C4F2AF
:100B1000020253DD3023C4F20203994266D044231B
:100B2000C4F20203994264D05823C4F202039942EA
:100B300064D14FF4802369E09C0727D512F00204AA
:100B400024D00A68920606D40A6822F00A020A60D3
:100B5000012280F821202F22C4F20202914240F2A9
:100B60000402C4F2020235DD3023C4F202039942CA
:100B700050D04423C4F2020399424ED05823C4F209
:100B8000020399424ED14FF4003353E01B0758BF84
:100B900010BD12F0080210D00A6822F00E020A609E
:100BA000012101FA0EF2CCF804208163016B4FF4AD
:100BB00080720029028418BF884710BD0823C4F240
:100BC0000203994218D01C23C4F20203994215D1A2
:100BD00040231BE00823C4F20203994220D01C23C7
:100BE000C4F2020399421DD1202323E04FF4806315
:100BF0000CE04FF4804309E0042307E002F16804AD
:100C00004FF08063A14208BF4FF480031360C16AB4
:100C1000B9B9D2E74FF400730CE04FF4005309E088
:100C2000022307E002F168044FF00073A14208BFFD
:100C30004FF400131360816A0022002980F82020FD
:100C4000BBD0884710BD0000002804BF01207047BA
:100C50002DE9F04101684FF6F872CBF6FD724CF6C3
:100C6000CD430A44CCF6CC43A2FB03236FF0030729
:100C700007EA93030027C4F2020700F1040E00F113
:100C80001008C0E90F739EE8045098E870010B68E3
:100C900043F6F077BB431A4342EA0C0242EA0E02E3
:100CA00022432A43324342EA08020A6000214FF4F9
:100CB000807281630284BDE8F041084670470000FD
:100CC000F0B590F820C0BCF1010F2FD090F821C0F2
:100CD0004FF0010EBCF1010F80F820E023D14FF05E
:100CE000020C80F821C04FF0000CC0F838C0D0E9E9
:100CF00000C4C56AC66BDCF80070102C27F0010731
:100D0000CCF80070006C0EFA00F070600846CCF869
:100D1000043004BF10460A46CCF80800CCF80C207A
:100D200035B10E200BE0002180F820100220F0BD2C
:100D3000DCF8000020F00400CCF800000A20DCF809
:100D400000100843CCF80000DCF8000040F001007F
:100D5000CCF800000020F0BDB0B5044600F046F924
:100D6000054640F27200C2F200000078611C18BF14
:100D7000044400BF00F03AF9401BA042FAD3B0BDD2
:100D800010B5B0F5807F1BD140F60044C4F20104D9
:100D900020464FF4807100F023F948B120464FF40B
:100DA000807100F01DF9012818BF10BD012002E07C
:100DB00001F02EFC002040F2D801C2F200010880B0
:100DC00010BD000080B540F21441C4F201010A6870
:100DD000024208BF80BD0860FFF7D2FF80BD00005F
:100DE0002DE9F04F82B041F20042C4F201020E68D8
:100DF0000423904208BF0323002E009300F0EC80F0
:100E000040F20C4E40F2004CC4F2010E0022C4F23B
:100E1000010C01244FF0000A4FF000093FE00125CA
:100E200002F00C040F27A7402BEA070705FA04F489
:100E30003C4343F826404E68F303DCF8003054BFCF
:100E400023EA080343EA0803CCF80030DCF8043056
:100E5000B40354BF23EA080343EA0803CCF8043080
:100E6000F402DCF8083054BF23EA080343EA08031D
:100E7000B402CCF80830DEF800304FF0010454BF63
:100E800023EA080343EA0803CEF800300E680AF1AB
:100E9000010A36FA0AF302F1040200F09D8004FA16
:100EA0000AFB16EA0B08F1D04B684FF6FF75C1F24A
:100EB0001005AB4210DC122B50D8DFE803F0330AE8
:100EC00041454F4F4F4F4F4F4F4F4F4F4F4F4F4851
:100ED0004C00D1F80C9041E04FF6FF75C1F22105AE
:100EE000AB420FDC0025C1F21105AB421AD0002540
:100EF000C1F21205AB4215D00025C1F22105AB426B
:100F000010D02BE00025C1F22205AB420AD000250B
:100F1000C1F23105AB4205D00025C1F23205AB422A
:100F20001CD100BF8B6843B1012B14BFC0F814B0B3
:100F3000C0F810B04FF0080910E04FF004090DE0C0
:100F4000CB6803F1080909E04FF0000906E0CB681F
:100F500003F1040902E0CB6803F10C0913460546CE
:100F6000B8F5807F24BF203B04352E680F279F40B3
:100F7000BE4309FA03F333432B60CB79DB067FF5DD
:100F800085AF41F21804C4F2020423684FEA9A06BE
:100F900043F001032360236840F6000403F00103DB
:100FA0000193019BACF57E7353F826B0C4F20104A3
:100FB000A0420FD040F60044C4F20104A0423FF426
:100FC0002EAF41F20004C4F20104009DA04208BF0C
:100FD000022525E7002523E702B0BDE8F08F0000D9
:100FE0008068084018BF01207047000040F20020D0
:100FF000C2F200000068704740F2720040F2002127
:10100000C2F20000C2F2000100780A6810440860D1
:101010007047000080B542F20000C4F2020001688F
:1010200041F010010160032000F08EF8002000F074
:1010300005F800F02BF8002080BD0000B0B540F2AC
:101040007202C2F2000240F248011278C2F20001BC
:101050004FF47A730968B3FBF2F20446B1FBF2F184
:10106000084600F05BFC0F2C4FF001050CD858B976
:101070004FF0FF3021460022002500F039F840F201
:101080007400C2F2000004602846B0BD82B041F294
:101090001800C4F202000168022241F0010101605F
:1010A000016801F0010101910199416841F080510D
:1010B0004160406800F08050009000980420C4F225
:1010C0000100016862F31A61016002B0704700001C
:1010D000002848BF704700F01F01012202FA01F109
:1010E0004EF200124009CEF2000242F82010704782
:1010F00010B54EF60C5CCEF2000CDCF80030C3F3F9
:10110000022E8EF00704042C28BF0424BEF1030332
:101110004FF0FF3E0EFA04F438BF0023A14399407C
:101120000EFA03F39A4300F00F03043B11436344A8
:1011300009010C3300F16042B0F1FF3FC8BF02F576
:101140006443197010BD00004EF60C51CEF2000140
:101150000A684FF6FF031A4060F30A2242F08060EB
:1011600040F0FD70086070474EF61050CEF200005F
:101170000268012922F0040202600FBF30BF40BFA5
:1011800020BF20BF7047000010B547F20002C4F234
:10119000000213684EF6105423F002031360136824
:1011A000CEF2000423F001031843106020680129E7
:1011B00040F00400206001D130BF04E040BF01F0E6
:1011C000CFF901F0CDF9206820F00400206010BDB7
:1011D00080B5012818D0022841D010283DD141F215
:1011E0000401C4F202010A6851F8040CC00134D5AC
:1011F000C2F383402EA3185CD2033FD440F6001202
:10120000C0F23D02504345E041F20400C4F2020046
:10121000C16940F202320A40B2F5817F04BF4FF447
:10122000004080BD01F44071B1F5407F0DD0B1F5B3
:10123000007F12D1026A920744BF49F6404080BD48
:10124000B1F5407F1CBF002080BD50F8040C4FF268
:101250002441800301EAE07080BD002080BD00F0E1
:10126000A7F941F20401C4F2020109680222C1F3A4
:10127000813102EB4101B0FBF1F080BD0A6810A39F
:10128000C2F340429A5C41F20023C0F27A03B3FBFE
:10129000F2F250430968490248BF80BD4AF6AB21CB
:1012A0004000CAF6AA21A0FB0101480880BD00BF8A
:1012B00002030405060708090A0B0C0D0E0F101097
:1012C000010200002DE9F04182B00446007841F2AD
:1012D0001C06C007C4F202064AD0306810F08058DD
:1012E00008D1306840F080503060306800F08050A5
:1012F0000190019847F20007C4F200073868C00562
:1013000012D4386840F480703860FFF76FFE0546ED
:101310003868C00508D4FFF769FE401B6428F7D978
:10132000032002B0BDE8F081706810F4407012D064
:10133000616801F4407188420DD0706840F240420B
:10134000C4F24222012320F4407113600023C0073D
:101350001360716029D17068616820F4407008439F
:10136000B8F1000F706003D1306820F08050306019
:101370002068810707D556F8181CA26821F440415F
:10138000114346F8181CC00603D4002002B0BDE883
:10139000F08156F8180CE16820F48000084346F804
:1013A000180C002002B0BDE8F081FFF71FFE0546D3
:1013B00041F2883770688007CDD4FFF717FE401BD5
:1013C000B8424FF00300F5D9ECE700002DE9F043F7
:1013D00081B0002800F0858042F20008C4F20208C3
:1013E0000446D8F800000D4600F0070088420CD2F1
:1013F000D8F8000020F007002843C8F80000D8F80B
:10140000000000F00700A8426BD1206841F20409F7
:101410008107C4F2020917D5410705D5D9F8001094
:1014200041F4E061C9F80010010705D5D9F80010B2
:1014300041F46051C9F80010D9F80010A26821F0F9
:10144000F0011143C9F80010C00741D1D8F80000DD
:1014500000F00700A8420CD9D8F8000020F00700DF
:101460002843C8F80000D8F8000000F00700A842A0
:1014700037D12068410707D5D9F80010E26821F478
:10148000E0611143C9F80010000708D5D9F8000041
:10149000216920F4605040EAC100C9F80000D9F881
:1014A000002002F00C00082841F20020C0F27A006F
:1014B0004ED142F69A13C2F38341C0F60003595C41
:1014C000D20339D440F60010C0F23D0048433FE05B
:1014D0006068022809D0012829D159F8041C890321
:1014E00007D4012001B0BDE8F08359F8041C89013C
:1014F000F7D5D9F8001021F003010843C9F800001E
:10150000FFF774FD064641F2883700BFD9F80000A6
:10151000616800F00C00B0EB810F97D0FFF766FD1B
:10152000801BB842F2D9032001B0BDE8F08359F81E
:10153000041C8907D5D5DCE7D9F8002042F68013D2
:10154000C2F34042C0F600039A5C4843B0FBF2F09D
:10155000D9F8001042F68212C1F30311C0F600025E
:10156000515C40F2480220FA01F140F27400C2F2EC
:1015700000000068C2F200021160FFF75FFD00206A
:1015800001B0BDE8F083000040F2480041F20401E0
:10159000C2F20000C4F202010068096842F6921229
:1015A000C1F30221C0F60002515CC8407047000040
:1015B00040F2480041F20401C2F20000C4F202010C
:1015C0000068096842F69212C1F3C221C0F6000217
:1015D000515CC840704700002DE9F04182B00028FE
:1015E00000F0D7800446007841F20006C007C4F23C
:1015F000020644D0706800F00C00042817D0706810
:1016000000F00C00082802D17068C0030FD4656890
:101610002DB1B5F5A02F10D0B5F5803F11D03068B1
:1016200020F480303060306820F480200CE0306896
:10163000800324D5606810BBABE0306840F48020A4
:101640003060306840F480303060FFF7CFFC002D10
:10165000054611D03068800311D4FFF7C7FC401B4A
:101660006428F7D916E100BFFFF7C0FC401B6428CF
:101670004FF0030000F28A8030688003F4D42078B1
:10168000800718D5706810F00C0F07D0706800F054
:101690000C00082827D17068C00324D43068800764
:1016A00002D52069012874D13068616920F0F80002
:1016B00040EAC1003060207800074FD5A06940B3F0
:1016C0000020C4F242200121C0F88014FFF78EFCF4
:1016D000054600BF706A80072DD4FFF787FC401BCA
:1016E0000228F7D9D6E02069002840F20000C4F2B1
:1016F000422000F0A68001210160FFF777FC05463B
:1017000030688007D0D4FFF771FC401B0228F7D95E
:10171000C0E00020C4F242200021C0F88014FFF78E
:1017200065FC0546706A800718D5FFF75FFC401B13
:101730000228F7D9AEE040F24800C2F2000000688B
:1017400044F6D351C1F26201A0FB0101480A0190A5
:1017500000BF0198411E00280191F9D1207840076F
:101760001BD4E5698DB1706800F00C00082846D1E3
:10177000012D0ED07068216A00F480328A4208D1AF
:10178000616A00F47010884203D1002002B0BDE805
:10179000F081012002B0BDE8F081F06910F08058BE
:1017A00008D1F06940F08050F061F06900F080509D
:1017B0000090009847F20007C4F200073868C0059F
:1017C0000FD4386840F480703860FFF70FFC05468E
:1017D0003868C00505D4FFF709FC401B6428F7D919
:1017E00058E0E5681DB1052D3CD0012D3ED0306A92
:1017F00020F001003062306A20F0040039E0002758
:10180000C4F2422700203866FFF7F0FB022D0546A0
:101810000CD100BF3068800154D5FFF7E7FB401BB7
:1018200002284FF00300F5D9B0E700BF306880010F
:10183000ABD5FFF7DBFB401B02284FF00300F5D9C7
:10184000A4E700210160FFF7D1FB0546306880075F
:101850007FF531AFFFF7CAFB401B02284FF00300B2
:10186000F4D993E7306A40F004003062306A40F007
:1018700001003062FFF7BAFB002D054641F28837C0
:1018800014D000BF306A800713D4FFF7AFFB401BB2
:10189000B842F7D9032002B0BDE8F081FFF7A6FBFC
:1018A000401BB8424FF003003FF670AF306A80072C
:1018B000F4D4B8F1000F7FF454AFF06920F08050F9
:1018C000F0614EE7206AB0F5803F05D17168A268EB
:1018D00021F40031114371607168626A21F474115E
:1018E00010430843706001203866FFF77FFB044611
:1018F000306880013FF549AFFFF778FB001B0228F5
:101900004FF00300F4D941E74EF21000CEF2000090
:10191000016841F00201016070470000411E002093
:10192000B0EB116F1CBF012070474EF21002CEF2D7
:10193000000251604EF62351CEF20001F0230B70ED
:1019400007219060116070474EF21000CEF2000047
:10195000016821F00201016070470000704700003B
:101960007047000010B590F83C20012A4FF00202A9
:1019700031D0012380F83C3080F83D200268D2F855
:1019800004E0D2F808C00C682EF07003234340F244
:10199000FF74C4F20004A242536005DCB2F1804F30
:1019A0000ED040F2004307E042F60043C4F20103C8
:1019B0009A4205D040F60003C4F200039A4204D1D3
:1019C00049682CF08003194391600121002280F8BE
:1019D0003D1080F83C20104610BD0000002804BFD8
:1019E0000120704710B5044690F83D0028B900204A
:1019F00084F83C00204600F05DF8022084F83D00A9
:101A0000206840F2FF730268C4F2000342F6004C03
:101A10009842C4F2010C05DCB0F1804F0AD040F2CC
:101A2000004103E0604505D040F60001C4F200012A
:101A3000884203D1A16822F070020A43984205DC73
:101A4000B0F1804F0AD040F2004103E0604505D07C
:101A500040F60001C4F20001884203D1216922F45A
:101A600040720A43A36922F08001D4F804E0E268DE
:101A7000194360450160C262C0F828E002D1616983
:101A8000CCF8301001214161002084F8461084F820
:101A90003E1084F83F1084F8401084F8411084F818
:101AA000421084F8431084F8441084F8451084F8F8
:101AB0003D1010BD80B582B0006842F60041C4F20E
:101AC0000101884201D002B080BD41F21800C4F289
:101AD00002000168002241F40061016000680121F8
:101AE00000F40060019001981920FFF701FB192014
:101AF000FFF7EEFA02B080BD90F83D1001291CBF3F
:101B000001207047022180F83D10006840F2FF720A
:101B1000C168C4F20002904241F00101C16005DCDD
:101B2000B0F1804F0ED040F2004107E042F6004194
:101B3000C4F20101884205D040F60001C4F2000160
:101B4000884206D1816801F00701062904BF002000
:101B50007047016841F001010160002070470000FA
:101B60000146006841F21113C26822F00102C2600E
:101B7000026A1A4208D1026A40F244431A4203D16F
:101B8000026822F0010202600122002081F83D205B
:101B90007047000080B590F83C20012A4FF0020207
:101BA00000F0C080012380F83C3080F83D20D0F860
:101BB00000C04FF67772DCF8083023EA0202CCF856
:101BC00008200B683F2B1CDD5F2B20DD602B4FD0E6
:101BD000B3F5005F6CD0702B40F09E80D1E901E33B
:101BE000C968DCF8082043EA0E0322F47F4243EA86
:101BF00001211143CCF80810DCF8081041F07701FE
:101C000088E01F2B28DC5BB3102B29D084E0402B0D
:101C100061D0502B40F08080D1F804E0C968DCF836
:101C20002030DCF8202022F00102CCF82020DCF863
:101C3000182022F0F00242EA011123F00A0242EADF
:101C40000E02CCF81810CCF82020DCF8081041F077
:101C5000570121F020015DE0202B01D0302B5BD11A
:101C6000DCF8081021F07001194341F0070151E040
:101C7000D1F804E0C968DCF8203023F01003CCF878
:101C80002030DCF81830DCF8202023F4704322F0F8
:101C9000A00243EA013142EA0E12CCF81810CCF847
:101CA0002020DCF8081041F0670121F0100131E03C
:101CB000D1E901E3C968DCF8082043EA0E0322F405
:101CC0007F4243EA01211143CCF80810DCF80810E8
:101CD00041F480411EE0D1F804E0C968DCF820300E
:101CE000DCF8202022F00102CCF82020DCF81820BB
:101CF00022F0F00242EA011123F00A0242EA0E0247
:101D0000CCF81810CCF82020DCF8081041F047017E
:101D100021F03001CCF808100121002280F83D109C
:101D200080F83C20104680BD7047000010B5044686
:101D300000680169890744BFC1685FEA817138D4CE
:101D400020680169490744BFC1685FEA41713CD41A
:101D500020680169090744BFC1685FEA017141D485
:101D600020680169C90644BFC1685FEAC16145D402
:101D700020680169C9071CBFC1685FEAC1714AD107
:101D800020680169090644BFC1685FEA016149D45E
:101D900020680169490644BFC1685FEA416148D4CF
:101DA00020680169890644BFC1685FEA816147D440
:101DB00010BD6FF002010161012121778069800768
:101DC00045D02046FFF7B0FF47E06FF00401016106
:101DD00002212177806910F4407F41D02046FFF72F
:101DE000A3FF43E06FF00801016104212177C0697E
:101DF00080073ED02046FFF797FF40E06FF01001CC
:101E0000016108212177C06910F4407F3AD0204653
:101E1000FFF78AFF3CE06FF001010161204600F00E
:101E20003FF8ADE76FF0800101612046FFF796FDB6
:101E3000AEE76FF040010161204600F041F8AFE7E6
:101E40006FF0200101612046FFF78AFD10BD20469A
:101E500000F022F8204600F021F8002020776FE7FC
:101E6000204600F019F8204600F018F800202077EE
:101E70006EE7204600F010F8204600F00FF8002032
:101E800020776DE7204600F007F8204600F006F8BE
:101E9000002020776CE700007047000070470000CA
:101EA00040F27411C2F20001884218BF704780B539
:101EB000FFF72AFD00F012FCBDE8804070470000EB
:101EC00070470000002804BF0120704710B5044689
:101ED00090F83D0028B9002084F83C00204600F02E
:101EE0005FF8242084F83D002068D4E90212C3681A
:101EF00023F40053C360036923F440531A4302617F
:101F0000D4E904231143C268194341F20C639A4394
:101F10001143C1604169A26921F44071114343F644
:101F20000002C4F201029042416102D0FFF72CFB93
:101F300001E0FFF73DFB6268192148439100B0FBC7
:101F4000F1F048F21F51C5F2EB11A0FB01235A0931
:101F50006FF0630302FB0300322303EB0010A0FBCE
:101F60000101F02303EA5113206803EB0212C1F3CD
:101F7000431111448160016921F49041016141697B
:101F800021F02A014161C16841F40051C160002083
:101F90002021206484F83D1084F83E1010BD00001C
:101FA00070B586B040F60044C4F20104006804F540
:101FB0003051002688420596CDE90366029601D08D
:101FC00006B070BD41F21800C4F20200016802AD13
:101FD00041F480410160016801F48041019101995F
:101FE000016841F0080101600068294600F008001E
:101FF0000190019840200290022003900320059058
:102000002046FEF7EDFE8020CDE902062046294657
:102010000496FEF7E5FE0420C4F20100016841F0D9
:10202000E06141F00401016006B070BD2DE9F047A8
:10203000044690F83E0020280DD10E4600294FF0AE
:1020400001006AD01746002A08BFBDE8F08794F85F
:102050003C00012802D10220BDE8F087012084F86D
:102060003C004FF0000A22201D46C4F840A084F82E
:102070003E00C4F830A0FEF7B9FFA785E785A16848
:102080008046B1F5805F07D1206900281CBF30462B
:102090005646B146064601E04FF0000984F83CA0E0
:1020A000E08DB0B36F1C0BE02068002640686FF332
:1020B0005F2029F8020BE08D0138E085E08D40B308
:1020C00020680068800611D46FB135B927E000BFE1
:1020D000016889060AD4002FFAD0FEF787FFA0EB2B
:1020E0000800A8421BD82068F2E700BF002EDBD012
:1020F000A068B0F5805F07D008B9206920B12068DA
:10210000406800F07F0001E02068406806F8010B9D
:10211000D1E7202084F83E000020BDE8F087206849
:10212000C16821F4D071C160416921F001014161B0
:10213000202084F83D0084F83E00002084F83C0014
:102140000320BDE8F08700002DE9F047044690F831
:102150003D0020280ED10F4600294FF0010000F06D
:1021600085801646002A08BFBDE8F08794F83C0039
:10217000012802D10220BDE8F087012084F83C004C
:102180004FF0000A21201D46C4F840A084F83D000D
:10219000FEF72CFFA684E684A1688046B1F5805F37
:1021A00007D1206900281CBF38465746B946074664
:1021B00001E04FF0000984F83CA0E08C48B36E1CAD
:1021C0000AE000BF87B117F8010B21684860E08C76
:1021D0000138E084E08CE0B1206800680006F1D4AA
:1021E000AEB175B91DE000BF39F8020B21686FF37D
:1021F0005F2048600027EAE701680906E2D4002E64
:10220000FAD0FEF7F3FEA0EB0800A84209D8206838
:10221000F2E720680068400624D415B16E1C14D083
:1022200019E02068C16821F4D071C160416921F0D2
:1022300001014161202084F83D0084F83E00002027
:1022400084F83C000320BDE8F08720680168490657
:1022500008D4002EFAD0FEF7C9FEA0EB0800A84271
:10226000F3D9DEE7202084F83D000020BDE8F087A8
:10227000FEE70000B0B584B040F2001042F2004228
:102280000021C2F20000C4F201020391CDE9011164
:102290004FF48073012501754FF46024C0E90021DB
:1022A00006210573C46183600161FEF7EDF9002822
:1022B00018BFFEF7DFF80520CDE9010507200390E0
:1022C00040F20010C2F2000001A9FEF74FF9002809
:1022D00018BFFEF7CFF8062001900220029040F2CE
:1022E0000010C2F2000001A9FEF740F9002818BF53
:1022F000FEF7C0F80320CDE9010040F20010C2F261
:10230000000001A9FEF732F9002818BFFEF7B2F865
:10231000002001900420029040F20010C2F2000060
:1023200001A9FEF723F9002818BFFEF7A3F8012042
:1023300001900520029040F20010C2F2000001A9B5
:10234000FEF714F9002818BFFEF794F80820019052
:102350000620029040F20010C2F2000001A9FEF730
:1023600005F9002818BFFEF785F804B0B0BD0000DD
:1023700080B582B041F21400C4F20200016800226C
:1023800041F0010101600068022100F001000190AC
:1023900001980B20FEF7ACFE0B20FEF799FE02B071
:1023A00080BD00002DE9F04385B04FF0000841F2F8
:1023B0001800CDE90388CDE90188C4F20200016864
:1023C00040F6004441F0100101600168C4F20104CC
:1023D00001F0100100910099016801AD41F0200168
:1023E000016001684FF0030901F02001009100999C
:1023F000016841F004010160016801F004010091ED
:102400000099016841F0080101600068294600F068
:102410000800009000984FF46040019004F580603F
:10242000CDF80890FEF7DCFC49F66B60A4F58066F9
:10243000CDE9010930462946FEF7D2FC4FF4CA70B7
:10244000CDE901080127304629460397FEF7C8FC6D
:1024500040F23920CDE9010920462946FEF7C0FCAB
:102460004FF60640CDE90108204629460397FEF7BE
:10247000B7FC4FF4807001900020C1F23100CDE92B
:10248000020720462946FEF7ABFC17200121002257
:10249000FEF72EFE1720FEF71BFE05B0BDE8F08309
:1024A00080B586B040F2741042F600420021C2F2BC
:1024B0000000C4F2010240F2AF434FF0090CCDE935
:1024C0000411CDE90211CDE90011C0E90023C0E9F2
:1024D000021CC0E904118161FFF780FA002818BFCF
:1024E000FDF7C8FF4FF48050029040F27410C2F222
:1024F000000002A9FFF74EFB002818BFFDF7BAFF46
:102500000020CDE9000040F27410C2F200006946DC
:10251000FFF728FA002818BFFDF7ACFF06B080BD12
:1025200080B540F2BC1043F60001C2F20000C4F2D4
:10253000010100234FF00C0C4FF4165280E80E00FE
:10254000C0E90333C0E905C3C361FFF7BBFC002842
:1025500018BFFDF78FFF80BDFEE70000FEE700001B
:1025600020BF00BF704700007047000070470000A8
:1025700080B5FEF741FD80BD70B594B00AAC204631
:102580002821FDF74DFE01200A900E904FF4802087
:1025900000254FF480310226139020460995CDE99D
:1025A0000755CDE90555CDE90355CDE90155CDE9EF
:1025B0000B15CDE91161FFF70FF820B1EFF3108093
:1025C00072B600BFFEE70F20CDE905068020079018
:1025D0004FF48060CDE9080505A80021FEF7F6FE5E
:1025E00018B1EFF3108072B6FEE7022001904FF4AD
:1025F0000040039001A8FEF765FE20B1EFF31080C4
:1026000072B600BFFEE714B070BD00007047000056
:10261000B0B586B0FEF7FEFCFFF7AEFFFFF7C2FED7
:10262000FFF728FEFFF77CFFFFF73AFF40F20015A7
:10263000C2F200052846FDF723FF40F2DA04C2F299
:102640000004284621460622FEF732F96420FEF7F0
:1026500083FB00206946CDE90400CDE90200CDE905
:10266000000000BF002200BF34F8123051F82250A1
:102670002B4441F822300132062AF5D101300A28D4
:10268000F0D14CF6CD4C40F2F405081F6FF001017B
:10269000CCF6CC4C4FF40063C2F2000550F8044F66
:1026A000A4FB0C42D40804606C180231A3EBD202E4
:1026B0000A296280F2D140F27410C2F20000FFF7E2
:1026C0001BFA06B0B0BD000080B540F27410C2F233
:1026D0000000FFF72BFB80BDFEE700002DE9F0476F
:1026E00086B040F2DA0540F2F408C2F20005C2F208
:1026F000000840F2E800A91EA8F102026FF00103F1
:10270000C2F2000031F8027F32F8026FC418374479
:10271000A7F50066A7F2ED77BFB2272F03F10203FA
:1027200038BF00260A2B6680ECD1418802894942D5
:10273000418051420181D0E90012806840F24C068C
:1027400040F2180940F2000AC2F200060027C2F265
:102750000009C2F2000A0124C6E90112F06000BFBC
:1027600059F827003AF81710FEF73AFC718804FA76
:1027700007F221EA0203002807F1010708BF41EA36
:1027800002030C2F7380EBD170880A2831D100200E
:102790006946CDE90400CDE90200CDE9000000BFA3
:1027A000002200BF35F8123051F822703B4441F846
:1027B00022300132062AF5D101300A28F0D14CF638
:1027C000CD42081F6FF00101CCF6CC424FF40063FC
:1027D00050F8047FA7FB0276F7080760A3EBD60743
:1027E00008EB010602310A297780F1D106B0BDE875
:1027F000F08700203082012036F81010328A013034
:10280000514008283182F7D140F24C0840F260056F
:10281000C2F20008C2F20005404629461222FDF726
:10282000D3FCD8B140F2BC1640F24C070020C2F2F3
:102830000006C2F200076C468DF8000030463946AB
:1028400012225023FFF780FC3046214601225023FC
:10285000FFF7ECFB9DF800008828EFD198E80F0007
:10286000EB6085E80700B8F81000288206B0BDE8E4
:10287000F087000086B0FEF7CDFBFFF77DFEFFF787
:1028800091FDFFF775FDFFF7F5FCFFF749FEFFF738
:1028900007FE6420FEF760FA40F20015C2F2000560
:1028A0002846FDF7EDFD40F2DA04C2F200042846A6
:1028B00021460622FDF7FCFF6420FEF74DFA0020BA
:1028C0006946CDE90400CDE90200CDE9000000BF72
:1028D000002200BF34F8123051F82260334441F82E
:1028E00022300132062AF5D101300A28F0D14CF607
:1028F000CD4240F2F406081F6FF00101CCF6CC4245
:102900004FF40063C2F2000650F8045FA5FB0254C6
:10291000E5080560A3EBD405741802310A29658027
:10292000F2D140F27414C2F200042046FFF7E4F83A
:1029300040F60040C4F201004FF48071FEF750FBF6
:1029400040F2D80640F20015C2F20006C2F20005BD
:10295000308003E000200121FEF706FCFEF7F4FFC3
:1029600030880028F6D00128F8D12846FEF73CF838
:102970002046FFF7F5F801200121FEF705FCEDE701
:10298000010200000000000000000102030406072D
:102990000809000000000102030402030405060701
:1029A00008090A0B0C0D0E0F10100000D0290008AA
:1029B000000000207800000028010008482A0008D4
:1029C000780000209007000044010008000000008B
:1029D0008000100004000200040000040008001041
:1029E0000020000100800040000801400008014074
:1029F00000080140000C0140000C0140000C0140A7
:102A0000000C0140000C0140000C01400008014096
:102A1000000C0140000C01400024F400660000009E
:102A200000000000000000000000000000000000A6
:102A30006600000000000000000000000000000030
:082A400000000100100000007D
:04000005080000ED02
:00000001FF
