:020000040800F2
:10000000601A0020AD010008234500086F3B00087E
:1000100021450008ED0E0008C5560008000000004C
:100020000000000000000000000000000D4F00086C
:10003000AB16000800000000034E0008914F0008B6
:10004000C7010008C7010008C7010008C701000870
:10005000C7010008C7010008C7010008C701000860
:10006000C7010008C7010008C7010008C701000850
:10007000C7010008C7010008C7010008C701000840
:100080003D160008C7010008C70100080000000075
:10009000000000000000000000000000C701000890
:1000A000C701000845500008C7010008C701000843
:1000B000C7010008C7010008C7010008C701000800
:1000C000C7010008793B0008713B0008C701000820
:1000D000C7010008C70100081D5600080000000005
:1000E000C7010008C7010008C701000800000000A0
:1000F000000000000000000000000000C701000830
:1001000000000000C7010008C7010008C70100087F
:1001100000000000000000000000000000000000DF
:10012000C701000849160008C7010008C7010008F8
:10013000C7010008000000000000000000000000EF
:10014000000000000000000000000000C7010008DF
:10015000C7010008C7010008C70100087156000860
:100160008D3B0008853B00080000000000000000F7
:10017000000000000000000000000000000000007F
:1001800000000000C701000800000000000000009F
:10019000C7010008C7010008DFF80CD000F0ACFB75
:1001A0000048004791580008601A00200648804720
:1001B00006480047FEE7FEE7FEE7FEE7FEE7FEE74C
:1001C000FEE7FEE7FEE7FEE735500008990100086C
:1001D0002DE9F05F0546002092469B46884606467C
:1001E000814640241BE0284641464746224600F00F
:1001F0004CFA53465A46C01A914110D3114618463C
:10020000224600F033FA2D1A67EB01084F462246CA
:100210000120002100F02AFA17EB00094E41201EB0
:10022000A4F10104DFDC484631462A464346BDE8D6
:10023000F09F40EA01039B0703D009E008C9121FA1
:1002400008C0042AFAD203E011F8013B00F8013B90
:10025000521EF9D27047D2B201E000F8012B491EBC
:10026000FBD270470022F6E710B513460A46044653
:100270001946FFF7F0FF204610BD2DE9FE4F8046DE
:1002800081EA0300C00F0C46009021F0004123F0EA
:100290000045B8EB0200A94105D2404621469046F0
:1002A0001C460B46024623F00040104347D0270D62
:1002B000C7F30A00C3F30A510290401A0190402884
:1002C0006BDAC3F3130040F4801B0098924620B110
:1002D0000023D2EB030A63EB0B0B01985946C0F1E4
:1002E0004002504600F0C2F906460D4650465946B7
:1002F000019A00F0DAF910EB08006141002487EA66
:10030000115284EAE7731A4340D0009A62B3019A0B
:10031000012A4FEA075215DC001B61EB02014FF086
:10032000004202EA0752CDE90042001C41F580116B
:1003300032462B4600F011FA03B0BDE8F08F40467C
:100340002146F9E7001B61EB0201001C41F5801317
:1003500000185B412018A2F5001747EB030140EAA3
:10036000D570B6196D4111E06D084FEA360645EAC1
:10037000C0754FEA0752001B61EB0201001C41F5FA
:10038000801149084FEA30000019514132462B468E
:1003900003B0BDE8F04F00F0D1B900980122400051
:1003A0000023D0EB020263EBE073009821464FEA92
:1003B000E074B8EB000061EB0401E9E783F000436F
:1003C0005BE781F0004158E72DE9FE4F81EA030425
:1003D00004F0004421F0004100944FF0000B23F0A2
:1003E000004350EA01045ED052EA03045BD0C3F339
:1003F0000A54C1F30A552C44A4F2F3340194A0FB2F
:100400000254C1F3130141F48011C3F3130343F405
:10041000801301FB024400FB034E840A970A44EA5E
:10042000815447EA8357A4FB076802958D0A05FBB0
:1004300007854FEA932C04FB0C542705029D4FEAD5
:10044000065847EA1637B5EB08056EEB070C870E22
:10045000920E47EA811742EA8312A7FB0201B6EB2C
:100460000B0164EB00042B0D43EA0C335E1844EBE4
:100470001C50DA465146E7FB0201C5F313044FEA6C
:100480000B3343EA14534FEA0432019C43EA060358
:10049000A4F10C040294009CCDE900B400F05DF9D5
:1004A00003B0BDE8F08F00200146F9E72DE9F04DDB
:1004B00081EA030404F0004B21F0004514464FF09C
:1004C000000A23F0004150EA050220D054EA01025C
:1004D0001DD0C5F30A570246C5F31303C1F3130039
:1004E000C1F30A5640F4801543F48013A7EB0608C5
:1004F000101BD64608F2FD3873EB050002D308F155
:10050000010801E092185B41B8F1000F03DA002006
:100510000146BDE8F08D00204FF480110646844668
:100520000EE0171B73EB050705D3121B63EB0503E6
:1005300006434CEA010C49084FEA300092185B412F
:1005400050EA0107EDD152EA030012D082EA04001A
:1005500083EA0501084305D0101BAB4106D20122F6
:10056000002306E000224FF0004302E06FF001029A
:1005700053101AEB06004CEB085110EB0A0041EB4C
:100580000B01BDE8F04D00F0D9B830B5041E71F193
:10059000000404DB4FF00044404264EB0101141EF0
:1005A00073F1000405DB1C464FF00043524263EB3D
:1005B0000403801A994101D3012030BD002030BDD1
:1005C0000EB5C10F80EAE0700844CA07002140F26E
:1005D00033438DE80E000A460B4600F0BEF803B028
:1005E00000BD00F0004230F000400AD0C10D01F51E
:1005F0006071C0F3160042EA0151C208400711437E
:10060000704700200146704701F0004330B421F0EC
:10061000004150EA010206D00A0DA2F56072C1F352
:100620001301002A02DC30BC00207047440F44EA6A
:10063000C104C100E01830BC00EBC25000F047B864
:1006400030B50B46014600202022012409E021FAA2
:1006500002F59D4205D303FA02F5491B04FA02F59F
:100660002844151EA2F10102F1DC30BD202A04DB72
:10067000203A00FA02F1002070479140C2F12003B5
:1006800020FA03F3194390407047202A04DB203AF4
:1006900021FA02F00021704721FA02F3D040C2F1A2
:1006A00020029140084319467047202A06DBCB17E9
:1006B000203A41FA02F043EAE07306E041FA02F31D
:1006C000D040C2F1200291400843194670470029EA
:1006D000A8BF7047401C490008BF20F001007047C8
:1006E00010B4B0FA80FC00FA0CF050EA010404BF28
:1006F00010BC704749B1CCF1200421FA04F411FA7E
:100700000CF118BF012121430843A3EB0C01CB1DC1
:100710004FEA00614FEA102042BF002010BC704732
:1007200000EBC35010440029A4BF10BC7047401C0C
:10073000490008BF20F0010010BC704710B5141E1E
:1007400073F1000408DA401C41F1000192185B418A
:100750001A4301D120F0010010BD2DE9F04D924661
:100760009B4611B1B1FA81F202E0B0FA80F2203278
:100770009046FFF77BFF04460F4640EA0A0041EA35
:100780000B0153465A46084313D0114653EA010061
:1007900019D0C8F140025046FFF777FF05460E46D4
:1007A000504659464246FFF761FF084305D00120F5
:1007B00004E020463946BDE8F08D0020054346EAB6
:1007C000E0762C4337430A986305E40AA0EB08005F
:1007D0000022FD0A44EA47540A3002D500200146AF
:1007E000E9E7010510196941DDE90845001969418A
:1007F000BDE8F04DA2E72DE9F04D00231A461B1A83
:100800008A4103DB00200146BDE8F08DC1F30A52A6
:10081000C1F3130141F480154FF0000BD10702D151
:1008200000186D41521E0027044640F2FF11384661
:1008300001EB620A3E468046024600204FF48011DA
:10084000FFF723FFC2197141BB1846EB0100B4EB5F
:10085000030C75EB000C04D3E41A65EB0005174696
:100860000E46241908F101006D4180463428E3DD6D
:10087000F91946EB0600091BA84103D24FF0FF32DD
:10088000134601E0002213461BEB070046EB0A511A
:10089000BDE8F04DFFF752BFC1F30A52C1F3130197
:1008A00040F2FF3341F480119A4202DA00200146FF
:1008B000704740F233439A42A2F2334202DC524282
:1008C000FFF7E3BEFFF7D2BE30B5041E71F100049E
:1008D00004DB4FF00044404264EB0101141E73F14D
:1008E000000405DB1C464FF00043524263EB040357
:1008F000994208BF904230BD064C074D06E0E068C3
:1009000040F0010394E8070098471034AC42F6D356
:10091000FFF746FC84B30008A4B300080EB540F20C
:10092000334102910021CDE900110A460B46FFF741
:1009300014FF03B000BD70B5C1F30A5201F00045C9
:100940000024C1F3130140F2FF3341F480119A42B5
:1009500001DA002070BD40F233439A42A2F23342E2
:1009600003DC5242FFF791FE00E090402C43F1D0AF
:10097000404270BD000000002DE9F84F2DED0E7BC8
:10098000BA4890ED020A90ED031A90ED068A90EDB8
:1009900007AA064630EE419A19EE100AFFF721FE2B
:1009A00003F032FE38EE4AAA04460D461AEE100A4B
:1009B000FFF717FE03F028FE02460B4620462946A5
:1009C000FFF75BFC41EC100B96ED0ACA96ED0BDAD3
:1009D00007F0E6F896ED00BAB0EE408AF0EE608AD5
:1009E0001BEE100AFFF7FDFD03F00EFE04467068D3
:1009F0000D46FFF7F6FD03F007FE02460B462046C4
:100A00002946FFF7DBFC05460E4651EC180BFFF7B5
:100A1000FBFD8246FFF7E5FD03F0F6FD2A4633466F
:100A200007460C46FFF729FC3CEE4DCA83460E46AE
:100A30001CEE100AFFF7D5FD02460B4601908946D1
:100A4000FFF7C2FC5A46334605468846FFF715FCB9
:100A500083460E46284641463A462346FFF70DFC9C
:100A600003F0CBFFB0EE408A3BEE0B0A10EE100A0B
:100A7000F0EE608AFFF7B5FD02460B4651EC180B0D
:100A8000FFF7A2FC02460B4658463146FFF70EFD23
:100A900041EC100B06F058FBB0EE408A00EE10AAB5
:100AA0008CEE000AF0EE608A03F00CFE41EC100BB5
:100AB00006F0A6FE51EC180B53EC102BFFF7DDFBF4
:100AC000FFF7A2FDDFF858A7CAF83800FFF789FD45
:100AD00041EC100BDAF8004080460F4606F0FCFFB0
:100AE000204656EC105BFFF77CFD2A463346FFF7A5
:100AF0006BFCDDF804B002460B4649465846FFF74A
:100B00005DFC03F03DFF03F0B9FF41EC100B06F074
:100B1000C7FC53EC102B40463946FFF74FFCFFF75C
:100B200073FDCAF83C00DAF80000DAF83840FFF745
:100B300058FD054620460E46FFF753FD41EC100BCD
:100B400006F0CAFF53EC102B28463146FFF73CFC59
:100B500002460B4658464946FFF730FC03F010FFAB
:100B600003F08CFF41EC100B06F09AFC51EC100BDB
:100B7000FFF74AFDFFF735FD9FED1D0B54EC105BB1
:100B800003F08CFEFFF740FD89EE0A0A064603F0EB
:100B900099FD41EC100B06F033FECAF84060DAE92B
:100BA0000E06B0EE408AF0EE608AFFF71AFD03F001
:100BB00075FEFFF729FDCAF838003046FFF711FD32
:100BC00003F06CFEFFF720FDCAF83C0051EC180B57
:100BD000FFF71AFDFFF705FD03F060FEFFF714FDB8
:100BE000CAF84400BDEC0E7B01B0BDE8F08F00BF39
:100BF000E79AD56194A94C401C489FED1D4A9FED92
:100C00001D5A9FED1D6A224A90ED113A90ED0E0A91
:100C100090ED0F1A90ED102A184883EE043A80EEFA
:100C2000040A03EE056ABDEEC63A80ED003A9FED78
:100C3000143A144800EE053ABDEEC30A80ED010AED
:100C400081EE040A9FED101A00EE051ABDEEC10AEE
:100C50009FED0E1A80ED000A82EE040A00EE051ADE
:100C6000BDEEC10A10EE101A81507047040000203A
:100C7000000034430000FA440080ED443C0800408A
:100C80000000FA43340800400000114400C0A844AA
:100C900004FCFFFFB0B588B0914C94F822006628A0
:100CA00028D16D4604F12201122205F10C00FFF754
:100CB000C0FA05F10E0100200022072A04D031F904
:100CC000123001325840F8E7BDF91C10884211D1AA
:100CD00000200C2807D0BDF90E10C14001F0010121
:100CE00029540130F5E7694620462022FFF7A1FA92
:100CF0000120A07708B0B0BD2DE9F843784CC94E6B
:100D00006FF06308B4F9160006F10C073D4664283D
:100D100003DC40450ADA06F1080502204FF000091D
:100D20002870002000F05AFA85F80090B4F91800F5
:100D300006F108052E46642802DC40453E4606DAE8
:100D400003203070012000F049FA002030706078F4
:100D5000E178012808BF002903D0012908D13D46C8
:100D600030B903202870022000F038FA00202870E3
:100D7000217A607A012908BF002805D031B90128FD
:100D800004D104F0F9FC01E004F0FCFCA078012897
:100D900018BFBDE8F883BDE8F84304F0D5BC00BF38
:100DA00080B5FFF7A9FFBDE8804000F001B8000062
:100DB0002DE9F0474A4F388A00F1C70189B2B1F5F1
:100DC000C77F9CBF002038827C8A04F1C70189B2AA
:100DD000B1F5C77F9CBF00247C82B98B11B13978F3
:100DE000012902D106F0D2F84AE0B7F9149050EA8E
:100DF000040113D1B7F91AA0B9F1650F02DBBAF1FA
:100E0000640F0DDBBAF1650F02DBB9F1630F07DD8B
:100E1000B879012841D1B7EE000A43E0B7F81AA02B
:100E200000B24042FFF7CCFB9FED290B55EC106B55
:100E300032462B46FFF73AFBFFF7E6FB804620B22F
:100E4000FFF7BEFB32462B46FFF730FBFFF7DCFB1C
:100E500005460FFA8AF0A9EB0000FFF7B1FB9FED02
:100E60001E0B53EC102BFFF721FBFFF7CDFB00EE21
:100E7000905A00EE108A01EE100AFF2000F0F0F9FF
:100E8000B87A012801D1012003E0F87A012802D1C3
:100E9000002015490870BDE8F087F879012806D1CF
:100EA000BFEE000ADFED0F0AB0EE601AE5E7387911
:100EB000012802D1F7EE000A04E078790128DFD199
:100EC000FFEE000A9FED070AB0EE401AD5E700BF1B
:100ED0000000000000C08240000000000070A74039
:100EE00094000020000000004C000020FEE70000FD
:100EF000B0B54C4D14460A46297A19B1BDE8B04048
:100F000000F028BB297B09B9297921B12346BDE826
:100F1000B04000F065BB297C0029EFD1B0BD00BF17
:100F200070B5344E04460D46307818B9FFF724FDED
:100F300001203070012D14D1E00712D039484178DA
:100F400079B114F47F0F4ED1210E230A022909D062
:100F500001290CD0002946D1017A69B1B7EE000A07
:100F60000EE070BD017AC9B1B7EE000A1AE0017A4D
:100F700029B3B7EE000A26E0007B40B1BFEE000ABD
:100F8000A74890ED021A31EE000A80ED020AA44A49
:100F900002F1080002F11801283221E0007B40B183
:100FA000BFEE000A9E4890ED0A1A31EE000A80ED6D
:100FB0000A0A9B4A02F1280002F118010FE0007BA7
:100FC00040B1BFEE000A964890ED061A31EE000AD5
:100FD00080ED060A924A02F1180002F12801083257
:100FE000DBB200F009F8FFF7C7FCBDE87040FFF77F
:100FF00003BE00BF40010020BCB50A4D2C7A0CB1E5
:10100000094D04E02C7B0CB92C7C34B1074DCDE9A3
:101010000035234600F0C2F8BCBD2C79002CEFD17E
:10102000BCBD00BF7E000020311000082512000862
:101030002DE9F0472DED068B00EE103A90ED002AD9
:1010400090ED033AB8EEC01A90ED010AB8EEC33A3B
:1010500032EE404A34EE014AB4EE434AF1EE10FA61
:1010600003DDBDEC068BBDE8F08732EE011ADDF83A
:10107000388091ED018ADFF8A8A191460F46054618
:10108000BFEE009A80ED001A91ED00AA31EE400A01
:1010900003F018FB03F0B8FA3AEE480A06460C468D
:1010A00003F010FB03F0B0FA02460B46304621462F
:1010B000FFF7E3F803F0A1FCB0EE408A9AED000AD6
:1010C0009AED011AF0EE608A30EE010A03F0FAFAA6
:1010D00003F02DFDC8B997ED000A97ED018A97ED51
:1010E000021A30EE482AB8EEC11A32EE092AB4EEDE
:1010F000412AF1EE10FA08DD30EE09AA95ED010A59
:1011000087ED00AA95ED001AC0E799ED001A99ED58
:10111000010A31EE400A03F0D5FA03F075FA95EDB5
:10112000000A95ED011A07460E4630EE410A03F01B
:10113000C9FA03F069FA3A463346FFF79EF803F01E
:101140005CFCB0EE408A9AED000A9AED011AF0EECE
:10115000608A30EE010A03F0B5FA03F0E8FCA8B9A2
:1011600099ED001A99ED010A99ED022A31EE403A03
:10117000B8EEC22A33EE093AB4EE423AF1EE10FA72
:1011800004DD31EE091A89ED001AC2E74046BDECD4
:10119000068BBDE8F04700F089BC00BF7CB5069D1A
:1011A000032D14D86424DFE805F0020E0B0D013B7B
:1011B000DCB2032C0BD25BB205A454F8234002E04E
:1011C0003C2400E00A24079D01230094A8477CBD2D
:1011D000640000003C0000000A00000080B5022806
:1011E00009D001280DD0A8B90D4A02F1080002F17A
:1011F000180128320BE00A4A02F1280002F1180116
:1012000004E0074A02F1180002F128010832002325
:10121000FFF7F2FEFFF7B0FBBDE88040FFF7ECBC44
:101220000400002090ED001A90ED012A00EE103A23
:1012300090ED023AB8EEC00A31EE422AB8EEC33A57
:1012400032EE402AB4EE432AF1EE10FAB8BF7047EE
:10125000009931EE400A80ED000A084600F026BCF5
:101260002DE9F84F2DED0C5B0390B0EE41AAB0EEE6
:10127000608AB0EE409A05F021FF594800780128B5
:101280001CD1B5EE40AAF1EE10FA0BD15548DFEDB6
:10129000570A90ED0B0A5448503003F0DFFCB0EED3
:1012A00040AA01E002F0B4FE4E48F0EE4A0A90ED8A
:1012B000070A4D4803F0D2FCB0EE40AA38EE490AC6
:1012C00010EE100AFFF78DF9029004461AEE100A8C
:1012D0000D460191FFF785F99FED3D0B57EC106B23
:1012E00041EC100B32463B468DED040BFFF76CF8DA
:1012F00022462B4681468A46FEF7BFFF9FED360BFE
:101300005BEC104B03F0E2F9FFF77EF9904939EE00
:10131000080A886010EE100AFFF763F90546884650
:10132000484651462A464346FEF7A7FF03F0CEF94A
:10133000FFF76AF9DFF8189232463B46C9F80C000D
:101340009DF8170080F080008DF81700DDE904019A
:10135000FFF73AF82A46434606460F46FEF78DFF4A
:1013600003F0B4F9FFF750F9DDE901320546C9F899
:10137000000030463946FEF780FF03F0A7F9FFF77B
:1013800043F900EE105A039C194DC9F804000120DE
:10139000BDEEC00A10EE101A2246A84799ED020AC7
:1013A000022003F07FFA99ED010A032003F07AFA94
:1013B00099ED030A042022462B46BDEEC00A10EE2A
:1013C000101ABDEC0C5B01B0BDE8F04F184700BF30
:1013D00030DD24068195CB3F5A643BDF4F8DA73F1C
:1013E0004C0000200001002044010020000000000B
:1013F000394F0008032920D1C1071ED0534949782D
:10140000D9B1020E010A10F47F0F09D0022A15D0BB
:10141000012A16D08AB91548C9B24FF4487221E0A2
:10142000022A10D0012A18D03AB91148C9B240F2A4
:10143000145240F23A7300F01DB870470B48083060
:101440000DE00A480AE00A48C9B24FF4FA7240F6C1
:10145000980300F5806000F00DB805480430C9B26B
:101460004FF4FA7240F6C41300F004B83808004094
:1014700034040040BCB5354D14460A46297A21B1E2
:101480000124009400F010F8BCBD297B09B929792A
:1014900031B14FF0FF330093234600F005F8BCBD97
:1014A000297C0029ECD1FAE7B0B5032A28D8049C9E
:1014B000DFE802F002081A1203290DD0022913D026
:1014C00001291DD1C4EB04110568C3EB41022A4474
:1014D0006243A2B9490010E0C4EB04110568CA1ABE
:1014E0002A4462435AB908E004EB84010568C3EB5F
:1014F00081022A44624312B98900026853180360CA
:10150000B0BD0000022914D1C10712D00F4949789B
:1015100079B1010E10F47F0F05D00D4A51B10129A8
:1015200007D10C3209E039B1012902D108490A1D5D
:1015300003E07047083200E0054A000A1923C1B2EF
:1015400010466FF01802FFF7D3BC00BF7E000020EA
:101550003001002010B5032A3BD8DFE802F0020872
:101560001327032903D0022934D0012931D190ED6A
:10157000000AB7EE001A30EE011A00EE103AB8EE8B
:10158000C00A1DE090ED000AB0EE001A30EE012A0C
:1015900000EE103AB8EEC00AB4EE402AB0EE401A9F
:1015A000F1EE10FAB8BFB0EE421A05E000EE103AC4
:1015B00090ED001AB8EEC00AB7EE002A31EE021A1A
:1015C000B4EE401AF1EE10FAB8BFB0EE410A80ED69
:1015D000000A10BD90ED000AB0EE001ACBE7000043
:1015E00010B5032A23D8BFEE000ADFE802F0020F8D
:1015F0000D0F0139CAB2032A19D249B20CA202EB6B
:10160000810191ED000A01E0B8EE000A90ED001AA8
:1016100031EE000A01EE103AB8EEC11AB4EE410AFA
:10162000F1EE10FAC8BFB0EE401A80ED001A10BDFE
:10163000000080BF000000C0000080BF014800F033
:10164000D3B800BFE8010020014800F0CDB800BFCA
:101650004802002010B501686FF00F02182308A49B
:1016600052FA81F2B2FBF3F3E35C40F2FF34A143A0
:101670005F2A88BF0431C0E91613084610BD00BFB9
:101680000006101600061016B0B5046880682568BC
:101690004028084625F480252560636008BF104671
:1016A000A06008BF0A46E260B0BD7047EFF310804B
:1016B00072B6FEE770B500691C46154608420FD0A9
:1016C000207860B11A4890F83D00022807D11848E8
:1016D0000026267001F0C0FD16482E80468170BDA0
:1016E000134890F83D1001290CD1012040F201115E
:1016F0006870104841810E4801F050FD0E480021ED
:10170000016011E090F83D0002280DD10A480168FF
:1017100089097C2901D8012005E00068C0097C28DE
:101720008CBF0320022028700120207070BD00BFF4
:10173000F0030020740000202400004070B5866D86
:10174000044600F0A1FA054694F8350002281ED19F
:101750002068216C026822F016020260426922F0C1
:101760008002426109B9A16C19B1016821F0080138
:101770000160016821F0010101600068C0070AD022
:1017800000F082FA401B05280FD82068F5E780207A
:10179000606501200EE0E06D3F2101FA00F0B060CD
:1017A000012084F83500002004E02020606503203B
:1017B00084F83500002184F8341070BD90F835109D
:1017C000022909D1052180F835100068016821F04F
:1017D00001010160002070478021416501207047B0
:1017E00090F8350070470000F8B504460020544AD0
:1017F00008210090D4E916601568376881403942A5
:101800000CD0226813685B0708D5136823F0040323
:101810001360B160616D41F001016165012181409A
:10182000394208D022685269120604D5B160616D50
:1018300041F00201616504218140394208D02268EB
:101840001268920704D5B160616D41F004016165D1
:1018500010218140394217D020680268120713D541
:10186000B16002680168520306D4C90506D4016854
:1018700021F00801016001E0080301D4216C00E0BF
:10188000A16C09B120468847E16D202000FA01F2E1
:101890003A4233D020680368DB062FD5B26094F853
:1018A00035300268052B15D122F01602026042691C
:1018B00022F080024261226C0AB9A26C1AB102685D
:1018C00022F0080202603F208840B06002F0BBFEB8
:1018D000216D2FE00168520308D4C9050AD40168BC
:1018E00021F01001016002F0AEFE03E0080301D414
:1018F000616C00E0E16B09B120468847606DF0B192
:10190000606DC00715D005214FF4165084F83510CE
:10191000B5FBF0F021680A6822F001020A60009A23
:1019200001328242009202D80A68D207F7D102F04F
:101930008AFEE16C19B12046BDE8F8400847F8BDC1
:10194000580000202DE9F041044600F09DF9ACB1AB
:101950000546022084F835000020216884F8340010
:10196000086820F0010008600868C00709D000F08E
:101970008BF9401B052839D82168F5E70120BDE81F
:10198000F0810868271D304AE8CF00EA020ED4E94A
:10199000050CD4E9072843EA0E032B4333433B43AA
:1019A0001843636A40EA0C00104340EA0802042B23
:1019B00004D1D4E90B05104340EA05020A60042B68
:1019C000486920F0070040EA03022CD1D4E90A63F9
:1019D000324343B3BCF5005F0CD0BCF1000F18D10B
:1019E000022E19D0012E0ED0002E14E00325202740
:1019F000032024E0032E16D8012540270120DFE82C
:101A000006F01E0B1E02A3F1C070B0FA80F0400970
:101A100004E0032E03D306D1C3F3006018B10125FF
:101A2000402701200BE020464A61FFF713FEE16DDD
:101A30003F220027012502FA01F18160002067653D
:101A400084F83550BDE8F0813F8010F0B0B502F069
:101A50004BFE28D00120A56D84F8340094F83500A1
:101A600001281DD1022084F8350000206065204641
:101A7000FFF70AFEE26D3F232068216C03FA02F2B1
:101A8000AA60026842F01602026019B1016841F0D2
:101A900008010160016841F0010101600020B0BD52
:101AA000002084F834000220B0BD0000B0B5044628
:101AB00000F0EAF805460548611C007818BF0444A8
:101AC00000F0E2F8401BA042FAD3B0BD5000002065
:101AD0002DE9FC4F634A07244FF0010B4FF000093A
:101AE0004FF0000A9042604A08BF042402444FEAC3
:101AF000B223042B38BF4FEAB22400940023202BDA
:101B000008BFBDE8FC8F0F680BFA0AF6374200F0F9
:101B1000A2804F6807F00308A8F10104012C18D82F
:101B2000032285684FEA4A0E02FA03F425EA040C00
:101B3000CD689D4045EA0C058560C7F3001505FAA0
:101B40000AFC4568B54345EA0C056FEA040C45609C
:101B50000BE003249E469C406FEA040CB8F1030F8F
:101B600003D19E464FF0030820E0C4688D6804EA64
:101B70000C0405FA0EF52C43B8F1020FC46015D120
:101B800009F01C040F2202FA04F86FF0030202EAC3
:101B90005A0707443D6A25EA08080D6905FA04F466
:101BA00044EA08043C624F6807F00308056808FA35
:101BB0000EF405EA0C052C4317F4403F04604AD0AC
:101BC00000222AF0030701922A4A146844F4804450
:101BD000146014680F2204F48044019409F00C048A
:101BE00002FA04FC214A019D96461744224ABD5838
:101BF0009046009A25EA0C0502FA04F42C4347F8B3
:101C00000840DEF808404F68FA0244EA0605184A20
:101C100058BF24EA0605CEF80850BD029446126863
:101C200042EA060458BF22EA0604CCF80040BD038D
:101C3000DEF8042042EA060458BF22EA0604CEF881
:101C40000440FD03DEF8002042EA060458BF22EA01
:101C50000604CEF8004009F1040902330AF1010A32
:101C60004DE700BF001002400000FEBF003C0140F5
:101C70000C3C01404438024008FCFFFF002A08BF2A
:101C8000090481617047000001480068704700BF87
:101C90005C0A002070477047F8B504460068476941
:101CA000466894F83E10FA0501D5F20501D40025E6
:101CB00003E06FF4807201254261BA0505D5F20593
:101CC00042BF6FF40072426102357A0554D5F205C5
:101CD00052D5628D94F83D30D4F830C0202908BF29
:101CE000002A0AD004356FF480624029426101D095
:101CF000102941D102F0F7FD3EE043F00801292907
:101D00002ED194F83D10E26A082A04D1212908D086
:101D1000282916D02DE0202A08BF282911D02129F2
:101D200027D11F49E1622121216302F059FF416857
:101D300021F4E061416002F0DFFD204600F06FFD1C
:101D40001AE01749E162416821F4E061416002F064
:101D5000D3FD0020202102F046FE00F0B3FC0BE092
:101D6000282B08BFBCF1210FCBD06FF48061043564
:101D700001E06FF480614161380501D5F00501D4BF
:101D80002DB9F8BD20686FF4006108354161206C01
:101D9000284320642046BDE8F84001F057BF00BF4B
:101DA0000000FFFFF8B5D0F800E00446F4465CF808
:101DB000042FC16A90F83E5090F83D30402D01D07C
:101DC000102D0ED1DEF81870DEF81460F0070DD17A
:101DD000B1F12A4F00F0B882B1F52A0F00F0B482B9
:101DE00006E0206C002840D0002540E0900536D465
:101DF000300702D5900500F10681B00702D59005A5
:101E000000F16881DCF8000000F40061780700F15F
:101E1000C080002940F0988206F00401700640F16D
:101E20009681500540F19381002940F0908194F80B
:101E30003D00222840F08882618D0429C0F0948200
:101E4000606ADEF81010017002F08FFE032840F087
:101E50007B822068416821F480614160F8BDE06ABE
:101E6000B0F52A0F4CD101214FE0DEF81850DEF812
:101E70001460B00701D5900556D4F00602D5900540
:101E800000F1D88043F0080006F00401292840F052
:101E9000FF80300624D5500522D509BB94F83D10AB
:101EA000608D002800F05082606A10F8012BCEF897
:101EB0001020628D013A62856062608D002840F0DA
:101EC0004382292940F04082DCF8000020F4806041
:101ED000CCF8000002F070FEBDE8F84000F09FBCB6
:101EE000002900F03182900540F12E82608D00289B
:101EF00000F02A82606A10F8011BCEF810107AE216
:101F0000E06AB0F12A4F01D10821E16294F83E0065
:101F100040282AD1206D616C01F0FE01002800F0FC
:101F2000138141F0010046E1206C08B1DEF8185041
:101F300094F83D0000F02800282840F0ED80DCF8FF
:101F4000000020F48060CCF8000002F064FE280657
:101F50004FF0180058BF0C20225A012020EA9501AA
:101F60002046BDE8F840FFF796BE2069B0F5804FE7
:101F700040F0DE8094F83D00616C01F0FE01212804
:101F800018BF0131CEF81010606B002843D0C06B31
:101F900040E0002940F0D88106F00401300640F10D
:101FA000E880500540F1E580002940F0E28094F897
:101FB0003D1094F83E30E26A208D002840F09A816E
:101FC000212940F0978112F5803F18BF082A40F080
:101FD0001682DEF80400202120F4E060CEF8040030
:101FE000DEF8000040F40070CEF80000002020630E
:101FF00084F83D1002F066FD40F012822046BDE8F4
:10200000F84000F063BB616B606CC0B2CEF81000AA
:1020100009B1C86B38B9A06B002800F09581C06B7E
:10202000002800F09181DCF8000040F40060CCF85A
:102030000000F8BD94F83D50DEF8040020F4E060A4
:10204000CEF8040000200090DEF814000090DEF8C6
:10205000000040F00100CEF800000098DEF800001B
:1020600020F48060CEF80000DEF80400000540F1A6
:10207000FE8045F0080026462A2840F0D88056F811
:10208000380F0168496826F80E1C36F80E1CD6E099
:10209000700636D5500534D599BB94F83D10608D47
:1020A000002800F05181606ADEF81020027002F012
:1020B0005CFD002840F048812A2940F045812068D5
:1020C000416821F48061416022202063282084F847
:1020D0003D000AE194F83E10E26A236B94F83D005B
:1020E000222804D1206D002868D1402966D1002023
:1020F0000090DEF814000090DEF8180000900098C0
:10210000F8BD002900F02081900540F11D81608D0F
:10211000002840F06A8117E100200090DEF81410DA
:102120000091DEF818100091009984F83C00F8BD89
:10213000206DD8B3206D012840F00681606C062127
:1021400001EAD010F13036E0CEF81010F8BD0029C9
:1021500000F0FA80900540F1F780E26A608D042873
:1021600040F0D780DEF8040020F48060CEF8040050
:102170003BE1002900F0E880900540F1E580212B4B
:1021800040F0DB80E16A94F83D00212840F0DC80DB
:10219000608D00287FF4AEAE11F5803F18BF08298E
:1021A0003FF417AF20293FF414AF2BE1606C0621F8
:1021B00001EAD010F030CEF81000F8BD206DA8B9BB
:1021C0002069B0F5404F11D100200090DEF81400D6
:1021D0000090DEF8180000900098DEF8000040F44F
:1021E0008070CEF80000206D013094E1608D70B1F8
:1021F000608D012840F0A980202A18BF082A40F0ED
:102200001981DEF8000020F48060CEF80000002084
:102210000090DEF814000090DEF81800009000989E
:10222000DEF8000040F40070CEF8000072E156F8CD
:10223000340F0168496826F80A1C36F80A1C19B1DF
:10224000216C41F004012164DCF8001021F40061EC
:10225000CCF80010FFF7C4FA012808D03068CA494A
:102260000165FFF7ABFA10B13068016D8847608DEA
:10227000A8B120684169490704D502F04AFB618D85
:10228000013961854169490603D502F0BDFC02F0C0
:10229000DDFB608D18B1206C40F004002064206CE0
:1022A00020B12046BDE8F84001F0D0BC2A2D02D173
:1022B000002002F0F3FB94F83D00282809D1B34830
:1022C0002021E062002002F08EFBBDE8F84000F023
:1022D000F9B9206B222818BF222D35D100202021EA
:1022E000206384F83D1084F83E002046BDE8F840A5
:1022F00000F094BA212903D0402B08BF222923D112
:10230000608D00285BD094F83E0040287FF4F2AD49
:1023100015E0608D032857D1DCF80000022A20F474
:102320008060CCF8000060D0042A5ED0DEF80000A7
:1023300020F48060CEF8000057E0402D04D1204604
:10234000BDE8F84001F016BDF8BD608D02286CD1E3
:10235000102A00F2A580012089499040084200F02F
:102360009F804FF48061A3E0E06A022827D0012912
:1023700025D8002046F2A811009082480068B0FBE2
:10238000F1F000EB80000090714602F01CFC8E46DC
:102390005FD0DEF800008005F6D4DEF8000020F4FF
:1023A0008060CEF80000DEF8040020F4E060CEF893
:1023B0000400606ADEF8101002F03EFBCCE0DCF8AE
:1023C000000020F4806032E6608D02280DD1102AD2
:1023D00006D0022A5FD0042A5DD0012A40F09D80F9
:1023E000DEF8000020F480609BE0606ADEF81010E8
:1023F0000170606A0130606202F028FBF8BD202A9B
:102400003FF4E7ADDCF8000020F4E060CCF8000019
:1024100011202063002084F83E00202084F83D0035
:102420002046BDE8F84000F04FB9DEF8000040F467
:10243000806040E012F5803F23D1DEF8000020F4F8
:102440008060CEF80000DEF8040000057FF5DFAE06
:102450001CE0206C40F020002064DEF8040020F432
:10246000E060CEF80400606ADEF8101002F0E4FAD2
:102470006062002084F83E002046BDE8F84000F08D
:1024800087B8122B30D1012A7FF4BBAEDEF80000F2
:1024900020F4806033E0DEF8000040F4806040E02B
:1024A000DEF800004FF4006120F48060CEF80000F8
:1024B000DEF800000843CEF80000DEF80400000556
:1024C0001FD5511E1F290BD8012088402B490842D7
:1024D00006D0DCF8000040F48050CCF8000010E09A
:1024E00012F5803FF5D00CE0102ACFD80120244906
:1024F00090400842CAD0DEF8000040F48060CEF878
:10250000000000200090DEF814000090DEF81800B3
:102510000090009800202065F8BDDEF8000040F42F
:102520000070CEF80000606ADEF810100170608D57
:1025300001386085616A20684A1C626200694870DF
:1025400002F084FA2068616A426822F440724260B4
:10255000202084F83D00481C6062002002F0B2FA9E
:1025600005D120632046BDE8F84000F0AEB8122047
:1025700020632046BDE8F84000F0A5B881800080C7
:102580001400010058000020993B00080000FFFFE4
:1025900070470000F8B528B3044690F83D0020B914
:1025A00002F039FB204600F093F802F0D5FA0168FA
:1025B00041F400410160016821F40041016000F034
:1025C00059FA3B4900253B4A88424FF0000138BF89
:1025D0000121904238BF01256368374A934238BFD2
:1025E0000D460DB10120F8BD34494FF47A77B0FBA8
:1025F000F1F521684E6826F03F062E434E604FF4F9
:1026000096766E43934228BFB6FBF7F56A1C0D6AB7
:1026100025F03F052A434CF6FF750A62CA69AA43B2
:10262000274DAB420AD85B000138B0FBF3F0013014
:102630006FF31F30042898BF042013E0A568013809
:102640003DB119256B4302F0D2FA0AD000F5804063
:1026500004E003EB430302F0CAFA02D000F50040A5
:1026600000E00120104304F10C06C861E0690A682B
:1026700022F0C0021043226A104348F2FF32086081
:10268000886890436CCE184310438860C86820F077
:10269000FF0028433043C86002F00AFA00202021DE
:1026A000206484F83D10206384F83E00F8BD00BF2C
:1026B00080841E0000093D00A186010040420F00F9
:1026C000A086010070477047704770477047000050
:1026D0002DE9F04786B0044601A81421FDF7C2FD9C
:1026E00020684A4988423AD04949884240F08A8065
:1026F0000027484E4FF003084FF01209009730684A
:1027000040F002003060306800F0020000900420C9
:10271000CDE90378CDF8089005904FF480600190E2
:10272000009801AD3C48294600F580642046FFF73B
:10273000CFF909202946CDE90297CDE90480082088
:1027400001902046FFF7C4F9009722242125306923
:1027500040F480003061306900F4800040E00027E0
:102760002C4E4FF004084FF003094FF0120A2A4C88
:102770000097306840F004003060306800F00400DA
:10278000009000980097306840F001003060306899
:1027900000F0010000904FF40070CDF81480CDE9F6
:1027A0000379CDF808A00190009801AD04F5006010
:1027B0002946FFF78DF94FF480702946CDE904983A
:1027C000CDE902A701902046FFF782F9009749243E
:1027D0004825306940F400003061306900F40000A1
:1027E0000090009828460421002200F083F8284633
:1027F00000F074F820460421002200F07BF8204607
:1028000000F06CF806B0BDE8F08700BF005C004047
:1028100000580040303802400000024070477047C6
:102820001F48034900780A6810440860704700BFD9
:102830005C0A002080B50B48016841F4007101601A
:10284000016841F480610160016841F480710160B8
:10285000032000F075F8002000F006F800F022F8E0
:10286000002080BD003C024070B50D4E04464FF480
:102870007A713078B1FBF0F088490968B1FBF0F06B
:1028800000F0ECFB01250F2C08D838B94FF0FF30D1
:1028900021460022002500F02DF87460284670BD06
:1028A0005000002082B000200B4901904A6842F499
:1028B00080424A604A6802F480420192019A009084
:1028C000086840F080500860086800F08050009070
:1028D000009802B0704700BF40380240002806D47C
:1028E000734601F006FF9E46014A42F820107047E9
:1028F00000E100E0F0B5184B4FF0FF361C68C4F360
:102900000224E51E84F0070438BF002506FA05F707
:10291000BA43042C28BF042406FA04F4A14300F0AF
:102920000F04A940043C11432344044A09010C3319
:10293000B0F1FF3FC8BF83181970F0BD00E400E09C
:1029400005494FF6FF030A681A4060F30A2203485C
:1029500010430860704700BF0CED00E00000FA056E
:102960002DE9F041002857D03F4B04468846D3F864
:10297000000400F00700884204D283F8008401F0CC
:102980005CFE49D12068810711D5410703D59968BC
:1029900041F4E0519960010703D5996841F4604121
:1029A0009960A1689A6822F0F00211439960C0070B
:1029B0002BD101F042FE04D983F8008401F03DFEE2
:1029C0002AD12068410705D5E1689A6822F4E052CF
:1029D00011439960000706D52069996821F4604188
:1029E00041EAC00098601C4600F05EF8A1681F4AEA
:1029F000C1F30311515CC840284908601C480068B5
:102A0000FFF732FF0020BDE8F0816068811E0229D7
:102A100005D21968890107D40120BDE8F081012899
:102A20001DD119688903F7D599681D4621F0030166
:102A300008439860FFF728F9064641F28837606836
:102A4000A9682B4601F00C01B1EB800FB1D0FFF764
:102A50001BF9801BB842F2D90320BDE8F081196848
:102A60008907D9D5E0E700BF003802401890000878
:102A70005400002009480A490A4A00680968C1F35D
:102A80008221515CC840704704480549054A0068E6
:102A90000968C1F34231515CC840704758000020BA
:102AA000083802402890000810B5134C606800F008
:102AB0000C00082804D0042814BF1048104810BD8A
:102AC000226820680023400202F03F020C485CBFED
:102AD00042F20040C0F2F4002168C1F38811A0FB6B
:102AE0000101FDF775FB21680222C1F3014102EBF0
:102AF0004101B0FBF1F010BD043802400024F400A5
:102B000040787D012DE9FC4100285FD00446007823
:102B1000C24EC0070BD0B06800F00C00042840F093
:102B20008E803068800302D5606800284ED02078FF
:102B3000800718D5B06810F00C0F07D001F0BCFE6C
:102B400040F095807068400200F191803068800705
:102B500002D5E068012839D12069316821F0F801F7
:102B600041EAC00030602078000732D42078400766
:102B700042D4A7693FB301F09FFE40F0A980012F26
:102B800024D0E169706800F480028A421ED1216A73
:102B900000F03F028A4219D147F6C071626A0140D3
:102BA000B1EB821F12D1A16A9F4A02EBC13100F43E
:102BB00040326FF30F018A4208D1E16A00F0706081
:102BC000B0EB016F02D10020BDE8FC810120BDE81F
:102BD000FC816169924800296AD00121C0F8801EF9
:102BE000FFF752F80546706F8007BFD4FFF74CF827
:102BF000401B0228F7D9C9E0306C10F080580AD188
:102C000000200190306C40F080503064306C00F057
:102C1000805001900198834F3868C0053AD43868D5
:102C200040F480703860FFF72FF805463868C0051B
:102C300030D4FFF729F8401B0228F7D9A6E001F0AD
:102C40003BFE03D1706840023FF56BAF6068B0F5A2
:102C5000803F07D0B0F5A02F40F08280306840F46C
:102C600080203060306840F48030306082E0E0687E
:102C700000284CD06A4801210160FFF705F805469D
:102C8000306880073FF568AFFEF7FEFF401B022863
:102C9000F6D97BE0A068012805D0052848D1306F1F
:102CA00040F004003067306F40F00100306749E0C9
:102CB0000021C0F8801EFEF7E7FF0546706F800711
:102CC0007FF554AFFEF7E0FF401B0228F6D95DE028
:102CD0005349002088460866FEF7D6FF0546022FB6
:102CE0000AD147463068800153D5FEF7CDFF411B1E
:102CF00003200229F6D967E7306880017FF563AFCA
:102D0000FEF7C2FF411B03200229F5D95CE74448C6
:102D100000210160FEF7B8FF0546306880077FF5A7
:102D200022AFFEF7B1FF411B03200229F5D94BE783
:102D3000316F002821F001013167316F21F004016A
:102D4000316744D0FEF7A0FF054641F28837306F67
:102D500080074BD4FEF798FF401BB842F7D915E027
:102D60003168002821F480313160316821F48021FC
:102D7000316044D0FEF788FF0546306880033FF598
:102D8000D6AEFEF781FF401B6428F6D90320BDE8CC
:102D9000FC811C341FCC0843234940EA821001EB1C
:102DA000C33140EA04606FF30F01084370600120F3
:102DB0003866FEF769FF0446306880013FF503AFCF
:102DC000FEF762FF011B03200229F5D9FCE6FEF79E
:102DD0005BFF054641F28837306F800706D5FEF766
:102DE00053FF411B0320B942F6D9EDE6B8F1000FBD
:102DF0007FF4BFAE306C20F080503064B9E6FEF74F
:102E000043FF0546306880037FF591AEFEF73CFF37
:102E1000411B03206429F5D9D6E600BF00380240E3
:102E200000004742007000400000FFFF70B538B15D
:102E30000446406A30B10020206104F1140007E02C
:102E400001254BE06068B0F5827F03D004F11C00DF
:102E5000002101600025A56294F8510020B92046A8
:102E600084F8505000F03CF8022084F8510094E8B7
:102E70000F0001F4827102F404420668114403F465
:102E80000062114426F040060660226902F0020248
:102E90001144626902F001021144A26902F4007354
:102EA0001944E36903F038031944236A03F08003EB
:102EB0001943A36A03F4005319430160042101EA92
:102EC0001241626A02F0100211444160C16921F4AA
:102ED0000061C1610120656584F85100284670BD1C
:102EE000FEB501681448814224D10021134A00F53F
:102EF000E6300191136943F400431361136903F44D
:102F000000430193019B0091136843F00403136095
:102F1000126802F004020092062205920322CDE913
:102F20000312022102914FF4A0510191009901A9CD
:102F3000FEF7CEFD06B080BD003C004030380240B8
:102F40002DE9F84301F065FC04BF0220BDE8F883D9
:102F50004FF001091D4616460F4684F85090FEF7C3
:102F600093FE804694F85100012844D1002F44D0AC
:102F7000002E42D0032084F8510000206065E686D0
:102F8000A6862763A087A063C4E91000E087A16834
:102F90002068B1F5004F07D1016821F040010160C0
:102FA000016841F4804101600168490601D401F0E3
:102FB000EAFDE2686168B2F5006F20D109B1012E27
:102FC00001D101F088FC6E1CE08E90B301F090FC02
:102FD00008D4FEF759FE002EF6D0A0EB0800A84258
:102FE000F2D337E0216B31F8022BC2602163E08E0F
:102FF0000138E086E8E702202DE001202BE009B14E
:10300000012E02D1397801F000FD6E1CE08E80B1F6
:1030100001F06EFC08D4FEF737FE002EF6D0A0EBD0
:103020000800A842F2D315E0216B097801F0EDFC0D
:10303000ECE720462946424601F0E4FE08B1202094
:103040006065A06808B901F0B0FC606D002818BF89
:10305000012000E0032001F0BABB0000411E002067
:10306000B0EB116F1CBF01207047044AF023516080
:1030700003490B70072190601160704710E000E079
:1030800023ED00E07047704710B590F83C30022205
:10309000012B26D080F83D2002680B68546824F08C
:1030A00070041C439368B2F1804F54600ED0654C9D
:1030B000A2420BD0644CA24208D0644CA24205D07C
:1030C000634CA24202D0634CA24204D1496823F06F
:1030D0008003194391600022012180F83C2080F890
:1030E0003D10104610BD00BF58B110B501F0B2FC44
:1030F00003D101F023FC00F007F801F049FD01F0D5
:10310000FFBA012070470000E0B50068B0F1804FC1
:103110001ED0E849884226D0E54988422ED04D4944
:10312000884237D10020002201901B48416841F0BD
:10313000010141600521406800F001000190019803
:103140001920FFF7D7FB1920BDE88C40FFF7C6BB5D
:10315000002001901048016841F001010160006801
:1031600000F0010014E0002001900B48016841F0DC
:1031700002010160006800F0020009E000200190F7
:103180000548016841F004010160006800F0040096
:10319000019001988CBD00BF4038024090F83D106E
:1031A00001291CBF01207047022180F83D100068F2
:1031B000B0F1804F0ED0BF4988420BD0BC49884245
:1031C00008D02249884205D02149884202D02149AD
:1031D000884204D1724601F0B9FA964603D072468D
:1031E00001F037FD96460020704700BF90F83D1073
:1031F00001291CBF01207047022180F83D100068A2
:10320000C168B0F1804F41F00101C1600ED0FD49AD
:1032100088420BD0FC49884208D0FC49884205D03E
:10322000FB49884202D0F649884204D1724601F037
:103230008DFA964603D0724601F00BFD96460020AB
:10324000704700BF0004004000080040000C004030
:103250000040014000000140016841F211130A6A78
:103260001A420AD14DF808ED01F0E2FA5DF808EBD8
:1032700003D10A6822F001020A6001F01EBC10B5F9
:1032800001F0D4FB52D084F83D0001204FF6777353
:1032900084F83C00206882689A4382600A68C2B160
:1032A000102A16D0202A14D0302A12D0402A17D043
:1032B000502A1ED0602A25D0B2F5005F2ED0B2F57C
:1032C000805F30D0702A32D101F02BFB41F07701C2
:1032D00028E0816821F07001114341F0070121E0ED
:1032E00001F004FC2068816841F0470121F03001C1
:1032F00018E001F0FBFB2068816841F0570121F0E4
:1033000020010FE04B68CA68194601F0A4FF20684D
:10331000816841F0670121F0100103E001F001FB39
:1033200041F480418160002001F0D9FB10BD0120F3
:10333000FAE7704710B5044600680169890712D59D
:10334000C16889070FD56FF0020101610121217762
:103350008069800702D001F0A8FB01E001F039FB91
:103360000020207720680169490713D5C168490703
:1033700010D56FF00401016102212177806910F4FA
:10338000407F02D001F091FB01E001F022FB002020
:10339000207720680169090712D5C16809070FD590
:1033A0006FF00801016104212177C069800702D014
:1033B00001F07BFB01E001F00CFB0020207720688E
:1033C0000169C90613D5C168C90610D56FF010018F
:1033D000016108212177C06910F4407F02D001F01B
:1033E00064FB01E001F0F5FA002020772068016914
:1033F000C90709D0C168C90706D06FF00101016192
:10340000204600F007F920680169090609D5C1685E
:10341000090606D56FF0800101612046FFF732FEF4
:1034200020680169490609D5C168490606D56FF0CB
:1034300040010161204600F0FBF82068016989061F
:1034400002D5C168890600D410BD6FF0200101616A
:103450002046BDE81040FFF716BE000010B586B04C
:10346000044601A81421FCF7FDFE20686649884245
:1034700009D06449884219D1002000900E4801F01B
:10348000F8F8302006E0002000900B4801F0F1F839
:103490004FF4707001900021009804910220059073
:1034A000CDE90201054801A9FEF712FB06B010BDE7
:1034B0000008004000040040303802400004024090
:1034C00070470000B0B501F042FB04BF0220B0BD60
:1034D00001F0C5FA37D8DFE801F0020A12222068AD
:1034E000294601F00FFE206850F8181F0EE02068F2
:1034F000294601F02DFE206850F8181F16E02068BC
:10350000294601F04DFE206850F81C1F41F00801CB
:103510000160016821F00401016029690FE0206861
:10352000294601F065FE206850F81C1F41F4006137
:103530000160016821F48061016029690902026863
:10354000114301600020002184F83C10B0BD58B147
:1035500010B501F07FFA03D101F0F0F900F006F8A0
:1035600001F016FB01F0CCB801207047704770479E
:1035700010B50446B9B1082906D0042914BF04F1D6
:10358000410004F13F0001E004F14000007801280F
:1035900011D10220082910D0042914BF84F8410059
:1035A00084F83F000BE094F83E00012803D102208C
:1035B00084F83E0003E0012010BD84F8400020683C
:1035C00001F03BF920680E49884201D101F09CF9D5
:1035D000B0F1804F0DD00B4A90420AD00A4A904277
:1035E00007D00A4A904204D0094A904201D088424A
:1035F00002D101F0ABF801D001F02BFB002010BD8F
:10360000000001400004004000080040000C0040A1
:103610000040014080B50549884218BF80BD02F0D6
:10362000EDF8BDE8804000F07DBF00BFA80300209A
:103630007047704710B504460068416994F83D2012
:10364000212A0FD111F080010CD001F0E6F901D050
:103650002068FAE7606B08B1FEF770F8204601F0C9
:10366000A0FE2068416994F83E20222A0ED111F074
:1036700040010BD001F05BF801D02068FAE7A06BA5
:1036800008B1FEF75BF8204601F067FE002010BD90
:10369000704700007CB5044600680268C16845694F
:1036A00013073FD001F4907605F0010576193DD05F
:1036B000D60705D0CE0503D5266C46F00106266454
:1036C000560704D51DB1266C46F0020626649607FF
:1036D00004D51DB1266C46F004062664002B07D5E0
:1036E00001F020035B1903D0236C43F0080323642B
:1036F000236C002B00F0C480920605D5890603D503
:10370000204601F05CFE20684069216C00F040001A
:1037100001F00801401846D12046FFF7B9FF00200C
:103720002064ADE0930601D58B0648D4236B012BB2
:1037300003D1D30601D5CB0646D4130601D50B061B
:1037400011D4520640F19C80490640F19980C1682D
:1037500021F04001C160202084F83D002046BDE8F2
:103760007C4000F003BA94F83D10212940F0888095
:10377000A168B1F5805F03D12169002900F09C8028
:10378000216A4A1C226209784160E18C0139E18496
:10379000090475D1C16821F08001C160C16841F0A0
:1037A0004001C1607CBD204601F0D7FD2068416921
:1037B000490649D500F0BBFF3AD02068FAE7204619
:1037C000BDE87C4001F0FBBD0021019100F0DBFF72
:1037D000416949063DD4E18DA28DE38D002B4FD088
:1037E000511A0A044CD050E8030F226820F490705C
:1037F00042E803030BB12068F5E7206850E8050FA5
:10380000226820F0010042E80503002BF5D12020BA
:1038100084F83E0000202063206850E8030F2268EF
:1038200020F0100042E80303002BF5D189B23EE0FE
:10383000A06B48B124490165FDF7C0FF00B3A06B40
:10384000016DBDE87C4008472046BDE87C40FFF79D
:103850001FBFA26B11684B689DB28DB1A18D8D42C7
:103860000ED2E385D269B2F5807F1DD050E8030FF8
:10387000216820F4807001F00DF902D02068F5E78E
:103880007CBD00F0E7FEFCD1206800F050FFFBD1CA
:10389000202084F83E000020206301F012F8FCD1C3
:1038A000A06BFDF74BFFA18DE08D081A81B2204679
:1038B000BDE87C40FFF7BDBE216A31F8022B6FF3F3
:1038C0005F222162426060E77952000890B110B532
:1038D000044690F83D0008B901F033F901F06EF8A4
:1038E0002068016921F490410161416921F02A01B8
:1038F00001F055B90120704770B586B0044601A8A3
:103900001421FCF7AFFC2068564988422BD0564959
:10391000884263D05549884240F0A2800020544933
:1039200000904A6942F010024A614A6902F01002AE
:103930000092009A00900A6842F001020A60096849
:1039400001F001010091072105910321CDE9030157
:10395000022002904FF4C0600190009801A94548F0
:10396000FEF7B6F87CE0002641480096016941F474
:1039700000310161016901F4003100910099009664
:10398000016841F001010160006800F00100009051
:10399000072000F064FF0C200190009801A9354831
:1039A000FEF796F8364D354A4FF480604FF00061CF
:1039B000C5E90021286105F114001421C5E902665A
:1039C000FCF750FC2846FDF7BDFF08B1FDF76EFE81
:1039D0002620032100F056FE26203FE00026244842
:1039E0000096416941F020014161416901F02001E7
:1039F000009100990096016841F00401016000689F
:103A000000F004000090082000F029FFC020019081
:103A1000009801A9174800F50060FEF759F8164D07
:103A2000164B4FF480704FF480614FF0206203F525
:103A30006873C5E906602846C5E90866C5E90266F7
:103A4000C5E90416C5E90032FDF77CFF08B1FDF7B2
:103A50002DFE4720022100F015FE4720FEF73EFF15
:103A600006B070BD00440040001401400010014049
:103A700030380240000002404802002088600240C6
:103A8000E801002010B590F83E30202B05D131B16F
:103A90002AB190F83C30012B03D1022408E0012424
:103AA00006E000240123046380F83C3001F03EFD71
:103AB000204610BD704770472DE9F843044690F842
:103AC0003D00202806D10E4639B117462AB100F034
:103AD00090FE05D10220BDE8F8830120BDE8F883FF
:103AE0004FF0000901201D46C4F8409084F83C00C6
:103AF000212084F83D00FEF7C7F8E7848046A784BC
:103B0000A068B0F5805F01D1206908B1002701E00D
:103B10003746002684F83C90E08CB8B120468021DE
:103B200042462B4601F04AFDB8B926B116F8010B02
:103B30002168486006E037F8021B206800266FF312
:103B40005F214160E08C0138E084E5E720464021B8
:103B500042462B4601F032FD10B10320BDE8F88348
:103B6000202084F83D000020BDE8F8837047FEE780
:103B70000348FEF791B800BF0148FEF713B900BF34
:103B8000A80200200348FEF787B800BF0148FEF7EF
:103B900009B900BFFC020020B8B5002146F2A81206
:103BA00000912949806B0968B1FBF2F123224A4355
:103BB00090F83D100092009A3AB1009A013A0092B2
:103BC000026812689205F6D403E0026C42F020020B
:103BD0000264436B0BB10022DA63846B0CB10022E8
:103BE000E2630268156825F4806515600025458547
:103BF00003B11D650CB100232365136823F0010395
:103C0000136090F83D30602B06D100F0E2FF0164B4
:103C1000BDE8B840FEF73EB801F0280128290DD1D3
:103C2000116841F001011160116841F48061116077
:103C300000210163282180F83D1001E000F0C9FF58
:103C4000BDE8B840FEF7A4BC5800002010B50446FB
:103C500090F83D1090F83E00102814BF402822290B
:103C60000AD001F0280028280CD100202063282049
:103C700084F83D0020680FE02068026822F40062AA
:103C8000026000E020684268120503D4602901D078
:103C900000F0A6FF002121634168090515D494F8BE
:103CA0003D1060292FD1202184F83D10002121648E
:103CB0004169490601D500F02CFE016821F001019F
:103CC00001602046FDF7E6FF36E0416821F400611F
:103CD0004160606B90F8351001291DD1A06B23491C
:103CE0000165FDF76BFD38B320684169490601D5D0
:103CF00000F00FFE016821F001010160202084F82E
:103D00003D00A06B16E04169490601D500F07CFF3B
:103D10002046FEF73DFC0FE014490165FDF74EFD1E
:103D200050B12168606B0A6822F001020A6020210C
:103D300084F83D10016D8847206C000704D020688E
:103D4000416821F4E061416094F83D00216C49072D
:103D50000BD5282809D106482021E062002000F078
:103D600042FEBDE81040FEF7ADBC10BD993B000817
:103D70000000FFFF90F83D10026D3AB1026D012A7C
:103D80000ED10168826CD2B20A6118E0C26C816CFB
:103D9000012A10D10268C9B21161016D023110E02F
:103DA000026D022A33D122290DD101680A6842F43A
:103DB00080720A6003E00268C1F307211161016D9E
:103DC000013101657047428D5AB1212909D1426AFA
:103DD000016812F8013B0B614262418D0139418556
:103DE00015E0428D9AB9212911D101684A6822F45F
:103DF000E0624A600A6842F400720A6000212022F0
:103E0000016380F83D2080F83E10FEF75FBC7047EC
:103E1000F8B565208D4C6D460D4E03224FF0FF33F3
:103E20008DF802004AF6FF202946ADF80000204632
:103E3000B047084F0A20B847522000F0AEFD0A20D4
:103E4000B847672000F0A9FD0A20B847F8BD00BFB9
:103E5000B93A0008AD1A00082DE9F0472DED068BA0
:103E6000002001F097FC48B3654E9FED668AB3EEE3
:103E7000009AB6F92400B6F92670B6F9288000EE4B
:103E8000100A00F027FC9FED560B54EC105B00F07D
:103E90000FFDFCF7B9FB00EE107AF06200F01AFC9F
:103EA00000F006FDFCF7B0FB00EE108A306300F076
:103EB00011FC00F0FDFCFCF7A7FB70630B2001F088
:103EC00069FC002853D0DFF838819FED4E8A9FEDC2
:103ED0004E9A9FED4EAAB8F92400B8F92670B8F9A9
:103EE000289000EE100A00F09CFB9FED3F0B54EC75
:103EF000105B00F0DDFCFCF787FB00EE107A064655
:103F0000C8F8380000F08DFB00F0D2FCFCF77CFB19
:103F100000EE109A0746C8F83C0000F082FB00F063
:103F2000C7FCFCF771FB0446C8F840003046FCF7BC
:103F300058FB00F066FD054638460E46FCF751FB7F
:103F400000F05FFD00F0A0FD054620460E46FCF7A0
:103F500048FB00F056FD00F097FD41EC100B03F01C
:103F60001FFE51EC100BFCF74FFBC8F84400162065
:103F700001F010FC78B3DFF888A0BAF92400BAF990
:103F80002690BAF92880FCF71BFB9FED190B54EC27
:103F9000105B00F08DFC9FED180B57EC106B00F0E0
:103FA000CCFDFCF731FBCAF848004846FCF708FB9B
:103FB00000F07EFC00F0C1FDFCF726FBCAF84C00C7
:103FC0004046FCF7FDFA00F073FC00F0B6FDFCF78C
:103FD0001BFBCAF85000BDEC068BBDE8F08700BFA4
:103FE0009A999999999923401F85EB51B81E0940D8
:103FF000000000000000003F00000000008066405C
:10400000DC000020000000380000FA440000B44347
:10401000E0B50D4890ED140AB5EE400AF1EE10FA45
:1040200010D0522003224FF0FF338DF806004AF6DD
:10403000FF20ADF80400054801A9FFF73DFD012070
:10404000FDF734FD8CBD00BFDC0000200C05002016
:10405000E0B500205C4901900A6842F480020A60E1
:104060000A6802F480020192019A00900868002216
:1040700040F4001008600868032100F4001000906C
:1040800000981020FEF736FC1020FEF727FC3920A0
:1040900002210022FEF72EFC3920BDE88C40FEF7FD
:1040A0001DBC00BF2DE9F04F87B000244648474EA5
:1040B0000022CDE905440194016841F0040101604A
:1040C000016801F0040100F057FA41F0800101603D
:1040D000016801F0800100F04FFA41F00101016038
:1040E000016801F0010100F047FA41F002010160AE
:1040F000016801F0020100F03FFA41F0080101609F
:104100004FF40041006800F008000190019830462B
:10411000FDF7B4FD06F500654FF400610022B246DC
:104120002846FDF7ABFD4FF40050CDE90344DFF81E
:10413000A080029002AE28463146C0474CF20F10D4
:104140004FF0030B3146049402902846CDF80CB092
:10415000C04741F6030000F087FA5046C047F02000
:104160004FF00109314602905046CDE90349C0475E
:1041700030203146CDE9034902902846C047072048
:104180000AF580673146CDE9034902903846C047B9
:104190004FF4704000F068FA3846C0474FF40040D2
:1041A00000F04EFB5046C0474FF4006000F048FB63
:1041B0002846C047042000F057FA0AF54060C0477F
:1041C00007B0BDE8F08F00BF303802400000024069
:1041D000D11A0008B0B505480D4C054D00F0D1F9D5
:1041E00018B1BDE8B040FDF761BAB0BDA80200202B
:1041F00000580040B0B50548054C064D00F0C1F927
:1042000018B1BDE8B040FDF751BAB0BDFC020020C6
:10421000A0860100005C004010B50E480E4B4FF424
:10422000827200214FF40074C0E900320A22C0E912
:104230000211C0E90411C0E90641C0E90811C0E952
:104240000A12FEF7F3FD18B1BDE81040FDF72EBAD3
:1042500010BD00BF50030020003C004010B586B0E8
:104260001448154C0021C72242F20F730591CDE985
:104270000311CDE90011C0E90043C0E90212C0E911
:1042800004118161FEF730FF08B1FDF70FFA4FF41A
:1042900080500290074802A9FEF7F1FF08B1FDF730
:1042A00005FA04486946FEF7EFFE08B1FDF7FEF98E
:1042B00006B010BDA80300200000014010B586B074
:1042C000154800214FF0FF3242F20F734FF0804447
:1042D0000591CDE90311CDE900118161C0E90043E9
:1042E000C0E902120161FEF7FFFE08B1FDF7DEF939
:1042F0004FF480500290084802A9FEF7C0FF08B1B1
:10430000FDF7D4F904486946FEF7BEFE08B1FDF793
:10431000CDF906B010BD00BFF003002010B58EB07F
:1043200000F095FA01A8FBF79DFF1E4880211E4B67
:1043300000F036F908B1FDF7B9F94FF480500A9052
:1043400018480AA9FEF79BFF08B1FDF7AFF9154819
:10435000FFF7FDF808B1FDF7A9F900241148CDE9F0
:10436000084408A9FEF790FE08B1FDF79FF940F256
:10437000DC5000F0E8FA0B4801A9FFF7A3F808B1F8
:10438000FDF794F940F2513004220290054801A94A
:10439000FFF798F808B1FDF789F90248FFF75EF8D2
:1043A0000EB010BD380400200004004010B58EB0DF
:1043B00000F04DFA01A8FBF755FF29488021294B51
:1043C00000F0EEF808B1FDF771F94FF480500A9053
:1043D00023480AA9FEF753FF08B1FDF767F9204803
:1043E000FFF7B5F808B1FDF761F900241C48CDE9E5
:1043F000084408A9FEF748FE08B1FDF757F940F652
:10440000D20000F0A0FA164801A9FFF75BF808B146
:10441000FDF74CF940F28E6004220290104801A989
:10442000FFF750F808B1FDF741F940F23A70082261
:1044300002900B4801A9FFF745F808B1FDF736F9DE
:1044400000200C220290064801A9FFF73BF808B1B2
:10445000FDF72CF90248FFF701F80EB010BD00BFC0
:10446000800400200008004010B50B480B4C0021D0
:104470000C224FF4E133C0E90043C0E90211C0E966
:104480000412C0E90611FFF721FA18B1BDE8104087
:10449000FDF70CB910BD00BFC8040020001001409A
:1044A00010B50C4C00200C210B4B4FF4165200F0B1
:1044B00082F808B1FDF7FAF820682122C16841F0BE
:1044C0001001C1600548811C2046BDE81040FFF77F
:1044D000D9BA00BF0C05002000440040DC000020D9
:1044E00010B50C4C00200C210B4B4FF4E13200F0C6
:1044F00062F808B1FDF7DAF820682422C16841F0BB
:104500001001C1600548811C2046BDE81040FFF73E
:10451000B9BA00BF5005002000140140B4000020CB
:10452000FEE7FEE71249C87930B112480078013839
:1045300008BF0320073109E00E48CA7C00784AB161
:10454000421C032808BF01221046133100220A70C2
:1045500008490870C0B2032808BF01F0ADBC0228AA
:1045600004D0012818BF704701F0C2BA01F0C2BBE5
:104570007E0000205C0000200191019901940168F7
:10458000704700214FF480428023C0E90054C0E905
:104590000213C0E90421C0E906110162FDF7FABF68
:1045A0006322816144F61F61C0E900320461C0E901
:1045B0000241FEF799BDC4E90200C4E90401C4E95F
:1045C00006002046C4E90032FFF780B90096016872
:1045D00000914068009000982046FFF72BB80246F3
:1045E0000B46284631464047206865692C21002348
:1045F0008278204628470D46044602F0DFBB20683B
:10460000292102792046284702460B46FBF7DCBEEB
:10461000B0EE480AF0EE480AB0EE481AFF20FCF768
:104620001FBEB8EEC00A20EE080A20EE090A80EE8E
:104630000A0A10EE100AFBF7D4BFD3F8000400F00A
:10464000070040457047002084F83400012084F8BA
:1046500035007047206850E8050F216820F0010000
:1046600041E80502002A70473146CDE903B40290C3
:104670007047016841F002010160006800F002002B
:10468000009070470022AC63A563FEF733B9BD1CF0
:1046900039782846FBF7E6BD7D2300902046284761
:1046A000C1B2781BC2B2681CC3B2404601F0C2BDA1
:1046B000206865692C210023C278204628472046BF
:1046C00002F0F6BA10EE100AFBF78BBF22465B46EB
:1046D000FBF7ECBEB8EEC00A20EE080A20EE090A8D
:1046E00010EE100AFBF77DBF044690F83400012855
:1046F000704700F01F010122400902FA01F17047E2
:10470000012084F8460084F83E0084F83F0084F8D5
:10471000400084F8410084F8420084F8430084F8A3
:10472000440084F8450084F83D00002010BD50E8A6
:10473000050F216820F0400041E80502002A70477B
:10474000204600210B22002300962847816801F0B3
:10475000070106297047016851E8051F026821F02A
:10476000010142E80513002B704720467D210B22F2
:104770007D23009628472846494640471E46144652
:1047800001EB800170470168019141680191019935
:1047900070472922002338470546A1F11400052857
:1047A000704764216FF06303B0FBF1F202FB03007A
:1047B000322370471722002338470C99029822466B
:1047C0005B460027CDE900015046002170470021DB
:1047D00084F8501084F85190BDE8F8830068FBF726
:1047E00000BFA9EB04003A46C1B2681CC3B2404600
:1047F000704794F83C000128704704220323009579
:1048000020463047F01BC1B204EB0900C2B240465B
:104810007047044690F850000128704728463146FA
:104820004047A7EB4405C4F101064FF0010870476B
:104830000A6A40F244431A427047012200F052BC17
:104840003146CDF814B0CDE90394029070470024AE
:104850001C210D94CDE90B44CDE908447047059027
:104860000320CDE903600220029070470422032355
:1048700000953047C3B2404601F0DCBC216D2046B4
:104880000847204602F006BBD5F810C02846394636
:10489000224633467047204602F070BA2A46234625
:1048A000FBF792BD2246BDEEC00A10EE101A284753
:1048B0002A462346FBF788BDB06800F00C000828A4
:1048C0007047206850E8030F216820F0100041E88D
:1048D0000302002A704737F8021BC1602763E08E8D
:1048E0000138E0867047016841F40071016070474B
:1048F00020688168890770476FF4806141610168B1
:1049000021F48061016070474A6C42F400424A64BD
:104910007047616A00690870616A206801316162EC
:104920007047D1E90123C9681A4342EA012182682C
:1049300022F47F421143816081687047002084F82F
:104940003C002046704705940394002202906020AA
:1049500001907047CDE900102046112102F0C4BA41
:10496000127C5143C900FBF77DBCC2B2404601F046
:1049700040BC2846214602F04FB9204602F0D6B985
:104980000446DAF804000D46FBF72BBE94ED080A46
:10499000B4EE490AF1EE10FA7047294603224FF0AF
:1049A000FF338DF802002046304700200090206839
:1049B000C16800918068009000987047242084F8B6
:1049C0003D002068C16821F40051C160204600F01C
:1049D00057BD4DF808ED2046FEF772FD20465DF804
:1049E00008EBFEF7C4BD206384F83D1084F83E0058
:1049F00020467047204601F054BC41EC100B03F0F8
:104A0000CFB802460B46FBF7DFBC0173206B0130C9
:104A10002063E08E0138E086704750E8050F21687A
:104A200020F0800041E80502002A704790F83C2001
:104A300004460220012A70470170608D01386085AC
:104A4000202084F83D00606A01307047608D013895
:104A500060857047044690F83D00002870470D4679
:104A600001204FEAB201032984F83C007047042278
:104A7000032300950178204601F0C5BA02460B4693
:104A800020462946FBF712BD02460B462846314612
:104A9000FBF7F3BB41E80302002A7047206328209C
:104AA00084F83D002046FDF7B9BE2046FEF741BC24
:104AB000086840F0010008607047012180F83D104F
:104AC0000020704794F83E1084F83E00402970475B
:104AD000B04202620A688B68046A45687047002128
:104AE00084F83C10012184F83D1070474B68CA6877
:104AF000194600F09FBB3F26204600213F227D2320
:104B0000009628471C4601338B460292824699182C
:104B1000121B5B44C9B2D2B2DBB20091ABEB040111
:104B2000C9B201F08DBB2846002102F084B80246CC
:104B30000B4651EC180BFBF728BD32463B46FBF702
:104B400043BC002084F83C002046FEF7D5BE044656
:104B500090F83C0001287047242084F83D0020682C
:104B6000016821F0010101607047608D01386085A6
:104B7000606A01306062608D7047204648210B22D8
:104B8000482300962847016841F0400101607047C2
:104B90000220211D84F83D00206800F059BA4161CF
:104BA000C16841F40051C16000202021206484F8D4
:104BB0003D1084F83E1010BD21202063282084F889
:104BC0003D0020467047009801380090009800286A
:104BD0007047202180F83D10002180F83E1070477A
:104BE000202184F83D10002184F83E107047B0FB6E
:104BF000F3F001306FF31F300028704720463F214B
:104C00000B223F2300962847616A00690870606A9A
:104C1000013060627047002084F83C0070472046F5
:104C200009210B2209230096284702984FFA86F99A
:104C300001375B46F9B200900C9801906FEAE910D9
:104C400004445046E2B27047206849214278204629
:104C50007047016841F001010160704780ED080A6A
:104C600030EEC00A90ED063A90ED101A90ED112A40
:104C7000C0ED070AB0EEC04A80ED100AB4EE434A18
:104C800080ED111A80ED122AF1EE10FA03DC9FED8F
:104C90004B0A0021016490F84C10B9B3012949D1A5
:104CA00090ED004A30EE413A90ED055A31EE011A8E
:104CB00024EE033AB0EEC04AB4EE454A80ED0A3A1B
:104CC000F1EE10FADABF90ED014A20EE044A9FEDB2
:104CD0003B4A30EE410AD0E90D1290ED095A90EDB1
:104CE000041A80ED0B4A32EE000A90ED022A80EDA4
:104CF0000D0AC0E90E1220EE020A33EE042A80EDFE
:104D00000C0A30EE020A35EE000A44E090ED053A56
:104D100090ED002AB0EEC04AB4EE434A22EE002ADB
:104D2000F1EE10FA80ED0A2A07DD9FED243A00210A
:104D3000C1620AE090ED090A704790ED014A90EDDA
:104D40000B3A04EE003A80ED0B3A30EE414A90ED1A
:104D5000031A90ED020AD0E90D1280ED0D4AB4EE6F
:104D6000413A24EE000AC0E90E12F1EE10FA80ED8D
:104D70000C0A06DCB1EE411AB4EE413AF1EE10FA3B
:104D800003DAB0EE413A80ED0B1A32EE031A30EE40
:104D9000010A90ED041A80ED090AB4EE410AF1EE21
:104DA00010FA06DCB1EE411AB4EE410AF1EE10FA47
:104DB00003DAB0EE410A80ED091A704700000000E6
:104DC00080B51C303021FBF74DFA80BD10B52DEDBC
:104DD000048B80F84C10044680EC030A80ED032A13
:104DE000C0ED041A24302821B0EE438AB0EE629A56
:104DF000FBF738FA84ED059A84ED068ABDEC048B46
:104E000010BD70471CB504463F4813460A46114979
:104E10000068B0FBF1F04FF47A714843019060688C
:104E2000B0F5827F0AD12046802100F015F870B1DC
:104E3000606D40F02000606503201CBD019830B11A
:104E4000019801380190206880680006F6D400209F
:104E50001CBD00BF00366E012DE9FC411E46174601
:104E60000D468046FCF710FF301AC419FCF70CFF02
:104E70000646254801370068C0F3CB3060430190F7
:104E8000D8F8000081682940A9420ED1002FF9D03E
:104E9000FCF7FAFE801BA0420AD201980199013961
:104EA0000191002808BF0446EAE70020BDE8FC8124
:104EB000D8E900014268B1F5827F22F0E002426049
:104EC0000BD1D8F80810B1F5004F02D0B1F5806FC2
:104ED00003D1016821F040010160D8F82810B1F534
:104EE000005F07D1016821F400510160016841F4BD
:104EF00000510160002088F85000012088F851001E
:104F00000320BDE8FC8100BF58000020704700006E
:104F1000E0B5084A4FF0FF3301928DF804001B48BA
:104F20008DF8061001A90422FEF7C6FD0120FCF74A
:104F3000BDFD8CBD0084006BE0B58DF80620F62227
:104F40006B238DF802008DF803204A428DF807305C
:104F5000C007084608BF104600230028C8BF012329
:104F60001801002900D5114640EA11208DF80510DE
:104F70000DF1020106224FF0FF338DF804000348C3
:104F8000FEF79AFD0120FCF791FD8CBDC8040020BE
:104F9000FDF746BC70B592B006AC1421201DFBF79E
:104FA00061F901A81421FBF75DF900251F480226CD
:104FB0000095016841F080510160006800F0805068
:104FC0000090009800951A48016841F44041016042
:104FD000006800F44040009004201096CDE90C6574
:104FE0000696119064200F9008200E9010200A90D1
:104FF0000120099000982046FDF784FD18B1EFF3D9
:10500000108072B6FEE74FF480500595CDE9026539
:10501000032104900F20019001A8FDF7A1FC18B115
:10502000EFF3108072B6FEE712B070BD4038024058
:10503000007000400248016841F47001016070474F
:1050400088ED00E00148FEF775B900BFA803002015
:1050500070B5774A036890421FD000F140444FEA90
:10506000B424032C03D84C6823F070032343B0F11D
:10507000804F16D0154CA04213D0154CA04210D032
:10508000144CA0420DD0144CA0420AD0134CA042A4
:1050900007D0134CA04204D007E04C6823F0700303
:1050A0002343CC6823F4407323434E6923F08003E9
:1050B0000C688D68334390420360C562846201D1FD
:1050C000096911630121416170BD00BF0004004006
:1050D00000080040000C0040004001400048014032
:1050E0000044014010B501F01F010123046A8B4008
:1050F00002FA01F124EA03030362026A1143016226
:1051000010BD0000F0B5026A494E22F001020262B1
:105110000A688B68046A456824F0020423438469A2
:10512000B0420CD1D1E9057625F44075D1F80CC018
:1051300023F00C033D4335432CF00406334324F0A5
:105140007304456022438261496841630362F0BD94
:10515000F0B5026A364E22F01002FFF7B9FC24F0D7
:10516000200444EA0313846910D1D1E9057625F4BB
:105170004065D1F80CC023F0C00345EA870545EA35
:1051800086056FF0400606EA0C16334324F4E64425
:10519000456044EA02228261496881630362F0BD8E
:1051A000F0B5026A224E22F48072FFF791FC24F4DB
:1051B000007444EA0323C46911D1D1E9057625F4CA
:1051C0004055D1F80CC023F4406345EA071540F27E
:1051D000FF4745EA06154FEA0C26BE43334324F049
:1051E000730445602243C2614968C1630362F0BD34
:1051F000F0B5026A0E4F22F48052B8420262026A8F
:1052000045680C688B68C66904D14F6925F48045F0
:1052100045EA8715456026F4E64545EA0424C4615D
:105220004968016422F4005141EA03310162F0BD92
:105230000000014010B5036A046A24F0010404620E
:10524000846924F0F00444EA0212826123F00A0225
:105250001143016210BD036A23F0100303628369E6
:1052600023F4704343EA0232036A826123F0A0020E
:1052700042EA011101627047806B0021C185C1843F
:10528000FEF706BA10B5846B2068416994F83D209A
:10529000212A08D111F0800105D00020E0842046A9
:1052A00000F07FF82068406994F83E10222907D169
:1052B00010F0400004D00020E085204600F04DF8BA
:1052C000206C40F0100020642046BDE81040FEF73E
:1052D000DFB90168806B0968C9052CD40021C1853C
:1052E000016851E8031F026821F4807142E803134A
:1052F000002BF5D14DF808EDFFF72DFA5DF808EB1E
:10530000F8D1016851E8051F026821F0400142E828
:105310000513002BF5D1202180F83E10016B0129E7
:1053200009D1016851E8031F026821F0100142E829
:105330000313002BF5D1016B012918BFFEF7BABB8F
:10534000818DFEF776B9806B016B012918BFFEF7DE
:10535000B2BB818D4908FEF76CB9016851E8031FA3
:10536000026821F4907142E80313002BF5D14DF847
:1053700008EDFFF7F0F95DF808EBF8D1016B0129B2
:1053800009D1016851E8031F026821F0100142E8C9
:105390000313002BF5D1202180F83E10002101637A
:1053A0007047016851E8031F026821F0C00142E81C
:1053B0000313002BF5D1202180F83D10704781B0F8
:1053C00090F83E10222920D18368B3F5805F08D180
:1053D0000169002948D000F128010A6803685B6868
:1053E0000AE0014651F8282F13B90369002BF5D0C4
:1053F00003685B6803F07F0313700A6801320A6078
:10540000C18D0139C185090401D001B0704701681F
:10541000CA6822F02002CA60CA6822F48072CA6098
:105420004A6922F001024A61202280F83E20026B84
:10543000012A22D10022026351E8031F026821F0F1
:10544000100142E803130168002BF5D10A68D20667
:1054500006D5002200920A680092496800910099DE
:10546000818D01B0FEF7E5B80168826A49686FF383
:105470005F2122F8021B8262C2E701B0FEF71ABB6D
:10548000B0B50446006804F108030ECB056925F4A5
:10549000405519432A4349F20C650261C2686369A9
:1054A0001943E369AA4319431143C1604169A269E1
:1054B00021F44071114341611B4940F480608842EE
:1054C00002D1FDF7E1FA01E0FDF7D4FAE269192112
:1054D0006368A0FB0101B2F5004F10D15A00DB0F49
:1054E000FAF776FEFFF75DF903EBC000B0FBF1F0D1
:1054F0004FF4F87101EA400100F007000DE09A0056
:105500009B0FFAF765FEFFF74CF903EB0010B0FBB9
:10551000F1F000F0F00100F00F0001EB021108447F
:1055200021688860B0BD00BF00140140F8B5134683
:10553000002504461E4E0A461F4F0564838581627E
:10554000222084F83E00A06B2168C0E91365194E43
:105550000431C0E90F76FCF779FA009520680168FC
:10556000009141680091009984F83C50216949B14B
:1055700050E8030F216840F48070FFF78BFA01D0E8
:105580002068F5E7206850E8050F216840F0010029
:1055900041E80502002AF5D1206850E8050F21688E
:1055A00040F0400041E80502002AF5D10020F8BD96
:1055B0008552000847530008D35200082DE9F041F6
:1055C0001D4690460F4604465E1C20680068384021
:1055D000B8421FD0002EF8D02DB1FCF755FBA0EB40
:1055E0000800A842F1D9206850E8030F216820F490
:1055F000D070FFF74FFAF6D1FFF72CF8FCD120203E
:10560000002184F83D0084F83C1084F83E0003201B
:10561000BDE8F0810020BDE8F0810000F8B5114838
:1056200000680168C90617D500260E4CFEF7CEFFAC
:105630000D480E4F00684068C0F12100387001200D
:105640007870FEF709FCFFF722F820462946212250
:105650003E707E70FEF716FA0248BDE8F840FEF78D
:1056600019B800BF0C050020E8010020DC00002074
:10567000F8B5114800680168C90617D500260E4C18
:10568000FEF7A4FF0D480E4F00684068C0F12400EB
:10569000387001207870FBF7FDFAFEF7F8FF20461E
:1056A000294624223E707E70FEF7ECF90248BDE8E0
:1056B000F840FDF7EFBF00BF500500204802002072
:1056C000B4000020FEE7000010B501F05FFC0020F0
:1056D0000021FFF71DFC144CF2EE061A9FED130A91
:1056E000DFED130A9FED133AB1EE021A0121B0EE7D
:1056F000612AF0EE612A2046FFF768FBB0EE082A27
:105700009FED0D0ADFED0D0A9FED0D1ADFED0D1A6D
:1057100004F15000B7EE003A0021F0EE422ABDE855
:105720001040FFF753BB00BF440100203333F33F69
:10573000CDCC4C3ECDCCCC3DCDCCCC3C6F12033A45
:1057400014AE473E3333B33E80B508480849816202
:105750000849816100218160FBF70EF9FBF74CFAE3
:105760000B4840F2A461016080BD00BF040000202E
:10577000000020420000C042054840F21451016080
:10578000704700BF024840F2A4610160704700BF4B
:105790003404004070B50D4900F10A0200230446AC
:1057A00051FA84F5E6B2AD78B24203D92B44013404
:1057B000DBB2F5E7AB421CBF002070BD0844028994
:1057C0000A8540684862012070BD00BFDC000020EF
:1057D00070B515460E460446012B02D1D84800F09C
:1057E000E9FBEAB2D64DF1B22346284600F018FD97
:1057F0002846BDE8704000F04BBD00BFF8B5214C15
:10580000214D224F102104F10C0228462346B847AF
:1058100004F10E02631C28462021B84704F110024F
:10582000A31C28464021B84704F11202E31C284675
:105830008021B84705F5006604F11402231D1021EC
:105840003046B84704F11602631D30462021B847A0
:1058500005F5806504F11802A31D01212846B8470B
:1058600004F11A02E31D28460221B84704F11C0284
:1058700004F1080328460421BC4601B0BDE8F0400D
:10588000604700BF7400002000000240B516000809
:10589000FCF7D0FFFFF77EFBFEF704FCFEF7D8FB1A
:1058A000FEF7A8FCFEF73AFDFEF780FDFEF7DCFDF3
:1058B000FEF716FEFEF7B0FCFEF700FDFEF78AFCD1
:1058C000FEF7EEFDFEF7CAFCC24C2149214A224BED
:1058D000204600F025FD204601F029F92046002150
:1058E00001F031F91D48FDF781FC1D4C1D4D0021D3
:1058F0002046A84720460421A84720460821A8475B
:1059000020460C21A847184C00212046A8472046D5
:105910000421A84720460821A84720460C21A84773
:10592000FFF712FFFEF774FAFFF7CEFE0F4C104D93
:10593000A0682978FBF75EFD20682978FBF7F0FA6C
:1059400060682978FBF7DEFDFBF72AFAF0E700BF75
:1059500048900008B96B000805690008A8030020FA
:105960003804002071350008800400206300002006
:105970005C00002010B5037883BBEF4B5C7A012CF0
:1059800008D1C178002918BF0A46511EC17003F121
:10599000090121E05C7B012C08D1C178013A521A3F
:1059A00018BF4A1CC27003F10D0115E05A79012A93
:1059B00007D18278002A18BF114601398170591D1C
:1059C0000AE05A7C012A09D182780139891A18BF64
:1059D000511C817003F1110100220A70D649CA7A64
:1059E000012A06D1027882F00102027001F10B0057
:1059F00014E0CA78012A06D14278D31E18BF531C7E
:105A00004370C81C0AE0CA7B012A09D14278531EA0
:105A1000002A08BF0323437001F10F000021017029
:105A200010BD00BFF8B5254C204600F0C3FA24494C
:105A3000FEF7E0FF254F23A0282109220123B847C4
:105A40000B20234D00210B22FEF726FE1B200021F8
:105A50001B22FEF721FE2D2000212D22FEF71CFE29
:105A6000FFF749F8FEF76CFEFFF7D9F8FFF7C6F825
:105A7000FFF783F8FEF779FE1649FEF7BBFF16A085
:105A80000121FEF797FE15A00121FEF782FE14A06A
:105A900001213B220023B84712A04021FEF78AFED5
:105AA00011A04021FEF775FE10A040213B220023EB
:105AB000BC4601B0BDE8F040604700BFD4050020FF
:105AC0000B9B000841524D5F58595A00D1570008AE
:105AD00055610008C5A600087800000079000000A4
