:020000040800F2
:1000000070C80320F10200083DD60008B196000830
:100010002DC60008093F000835F90008000000005F
:1000200000000000000000000000000095EA000849
:10003000D53F000800000000A1DC000899EA000894
:100040000B0300080B0300080B0300080B03000858
:100050000B0300080B0300080B0300080B03000848
:100060000B0300080B0300080B0300080B03000838
:100070002D3F00080B0300080B030008393F000860
:10008000453F00080B0300080B0300080B030008A2
:100090000B0300080B0300080B030008E13F0008F6
:1000A0005DEB00080B03000869EB00080B03000878
:1000B0000B03000875EB000881EB00080B03000838
:1000C0000B0300080B0300080B0300080B030008D8
:1000D0000B03000841F800080B0300080B0300089D
:1000E000D93F00080B0300080B0300080B030008AE
:1000F0000B030008B1EB00080B0300080B0300081A
:1001000000000000C5DD00088DEB00080B030008AF
:10011000000000000000000099EB0008A5EB0008BB
:100120000B0300085D3F0008693F0008A53F000879
:100130000B0300080B0300080B0300080B03000867
:100140000B0300080B0300080B0300080B03000857
:10015000B13F0008BD3F0008C93F0008B9F80008DA
:10016000C1960008B59600080000000000000000DD
:10017000000000000000000000000000000000007F
:100180000B0300080B030008000000000000000043
:100190000B0300080B030008000000000000000033
:1001A000000000000000000000000000000000004F
:1001B0000B03000800000000000000000B03000813
:1001C0000B03000800F002F800F082F80AA090E8A3
:1001D000000C82448344AAF10107DA4501D100F002
:1001E00077F8AFF2090EBAE80F0013F0010F18BF4D
:1001F000FB1A43F0010318472478050044780500F2
:100200000A444FF0000C10F8013B13F0070408BF3C
:1002100010F8014B1D1108BF10F8015B641E05D0DA
:1002200010F8016B641E01F8016BF9D113F0080F8F
:100230001EBF10F8014BAD1C0C1B09D16D1E58BF21
:1002400001F801CBFAD505E014F8016B01F8016B58
:100250006D1EF9D59142D6D37047000000230024CB
:1002600000250026103A28BF78C1FBD8520728BFC6
:1002700030C148BF0B60704766290CF021A7652983
:100280000CF01EA767290CF01BA761290CF01AA718
:10029000642900F05781782900F090810020704790
:1002A0001FB54CF0F8FE9DE8030000F01FFC01F0C4
:1002B000CBF80400002000214BF0F4FF401C6060EC
:1002C000002000214BF0D8FFE0601FBD10B510BD2D
:1002D00001F004FA1146FFF7E3FF42F055FD01F08B
:1002E000A7FC03B4FFF7F2FF03BC01F0A3F8000082
:1002F0000948804709480047FEE7FEE7FEE7FEE7BA
:10030000FEE7FEE7FEE7FEE7FEE7FEE704480549F5
:10031000054A064B7047000049EB0008C50100087C
:100320007048032070C80320708803207088032061
:1003300070B5064600F0BEFB056806F10B0020F024
:100340000704B4429CBF002070BD2B466A68BAB156
:100350001068A04210D304F1080188423CBF5068E5
:10036000586007D35168101941601168091B01607A
:1003700058601460101D70BD13465268002AE7D102
:100380002146284600F09EFB0028DED170BD70B5E6
:100390000446051F00F08EFB0068002C14BF446863
:1003A00070BD002C18BFAC423CBF20466468F8D337
:1003B00001680A18AA4218BF456003D12A68054699
:1003C0001144016028684119A1421CBF6C6070BDD6
:1003D0006168696021680844286070BD53EA020CB6
:1003E00000F069802DE9F04B4FF00006002B1FBF95
:1003F000B3FA83F503FA05F424FA05F65E4012BF5A
:100400001643B2FA82F502FA05F4C5F120051EBFC3
:1004100022FA05FC44EA0C04203556EA044C4FEA63
:10042000144418BF641C4FF000084FF000099042BC
:1004300071EB030C39D3002919BFB1FA81F701FA26
:1004400007F6B0FA80F700FA07F6C7F120071EBFDB
:1004500020FA07FC46EA0C062037B6FBF4FCA7EBB3
:100460000507103F07F01F0BCBF120062CFA06F60C
:100470000CFA0BFB44BFB3460026202FA4BF5E46F8
:100480004FF0000B5BEA060C08BF4FF0010B19EBB5
:100490000B0948EB0608ABFB027C06FB02CC0BFB0E
:1004A00003CCC01B71EB0C01C1E70B460246414671
:1004B0004846BDE8F08B13B5084318BF4FF0FF3036
:1004C0000146AFF30080BDE81C4070470FB41CB577
:1004D000074B06AA7B4469460090059800F031FF5F
:1004E0000020694600F040FF1CBC5DF814FB0000D2
:1004F000910E000070B5044685690068C10601D5FB
:10050000302600E02026C00707D070BDD4E90121C5
:1005100030469047206A401C20626D1EF6D570BDA3
:1005200070B5044685690078C00707D170BDD4E96D
:10053000012120209047206A401C20626D1EF6D5C4
:1005400070BD00002DE9F0410646002410687529B1
:10055000314616A510D0AFF30080002802DA4042E1
:1005600013A507E031688A0701D512A502E0490703
:1005700004D511A5012401E0AFF3008000210A2277
:1005800006F1240709E0B0FBF2FCB0FBF2F302FB3A
:100590001C00303078541846491C0028F3D12346FB
:1005A0002A463046BDE8F04100F0E1BA0000000004
:1005B0002D0000002B0000002000000070B5044654
:1005C0000D4621461068AFF300802188090502D549
:1005D0000F4A7A4402E00E4A7A440E32002104F1B6
:1005E000240305E000F00F060009965D5E54491CE7
:1005F0000028F7D120780023000704D5702D02D001
:1006000009B1022311322046BDE8704000F0AFBAB4
:10061000EECB04002DE9F05F894604464FF0000A56
:10062000DFF874B1FB44C0F820A02046E168884799
:10063000002874D0252806D0D4E901219047206AEB
:10064000401C2062F1E700265F462046E1688847AB
:100650002028054607DB312D05D2781910F8200C2B
:1006600008B10643F1E7B00701D526F00406C4F847
:100670001CA00027C4F818A02A2D09D028464BF04A
:100680004EFD38B304EB8708303DC8F8185019E028
:1006900059F8041B204604EB87029161E168884702
:1006A000012F054618D1E069002820DA26F020063F
:1006B0001DE0D8F8180000EB800005EB4000303852
:1006C000C8F818002046E168884705464BF027FD2A
:1006D0000028EED1012F0AD02E2D08D12046E16846
:1006E00088477F1C0546022F46F02006C4DBA06920
:1006F000002803DA404246F00106A061F00701D06D
:1007000026F010066C2D0BD0682D09D04C2D39D059
:100710006A2D35D0742D35D07A2D33D016E038E0DF
:10072000E1682F4620468847B842054609D16C2F1C
:1007300026D04FF48060E16806432046884705468E
:1007400004E06C2F1AD04FF4807006430DB3A5F16E
:100750004100192802D8203546F400664A46294649
:10076000204626604E46FFF787FD80B101280BD05A
:10077000F61D26F0070000F1080956E74020E4E7DF
:100780008020D8E70020D6E706F104094DE7284687
:1007900052E7206ABDE8F09FC4CB0400401ECAB2F5
:1007A00010F8011F8A4202D00029F9D100207047B9
:1007B00040EA010310B59B070FD1042A0DD310C8DE
:1007C00008C9121F9C42F8D020BA19BA884201D930
:1007D000012010BD4FF0FF3010BD1AB1D30703D078
:1007E000521C07E0002010BD10F8013B11F8014B2E
:1007F0001B1B07D110F8013B11F8014B1B1B01D14A
:10080000921EF1D1184610BD40EA0103024630B5F0
:100810009B0710D14FF0013400E008C208C91D1B2E
:100820009D4315EAC41FF8D013F0FF0102F8011B25
:100830000DD01B0AF8E711F8013B002B02F8013B31
:1008400005D011F8013B002B02F8013BF3D130BD7C
:1008500010B5431C02E010F8011B71B18107FAD1F9
:100860004FF0013202C88C1A8C4314EAC211F9D03D
:10087000C01A0A0603D0C01E10BDC01A10BD0A045B
:1008800001D0801E10BD0902FCD0401E10BD032AFD
:1008900040F2308010F0030C00F0158011F8013B9D
:1008A000BCF1020F624498BF11F801CB00F8013B84
:1008B00038BF11F8013BA2F1040298BF00F801CB48
:1008C00038BF00F8013B11F0030300F02580083A1F
:1008D000C0F0088051F8043B083A51F804CBA0E876
:1008E0000810F5E7121D5CBF51F8043B40F8043BCB
:1008F000AFF30080D20724BF11F8013B11F801CB00
:1009000048BF11F8012B24BF00F8013B00F801CBD0
:1009100048BF00F8012B704710B5203AC0F00B809B
:10092000B1E81850A0E81850B1E81850A0E81850E5
:10093000203ABFF4F5AF5FEA027C24BFB1E818505B
:10094000A0E8185044BF18C918C0BDE810405FEABD
:10095000827C24BF51F8043B40F8043B08BF704739
:10096000D20728BF31F8023B48BF11F8012B28BF3E
:1009700020F8023B48BF00F8012B704702F0FF034C
:1009800043EA032242EA024200F00AB802F0FF03FF
:1009900043EA032242EA024200F024B84FF0000288
:1009A0000429C0F0128010F0030C00F01B80CCF181
:1009B000040CBCF1020F18BF00F8012BA8BF20F8EF
:1009C000022BA1EB0C0100F00DB85FEAC17C24BF43
:1009D00000F8012B00F8012B48BF00F8012B7047ED
:1009E0004FF0000200B5134694469646203922BFC8
:1009F000A0E80C50A0E80C50B1F12001BFF4F7AF13
:100A0000090728BFA0E80C5048BF0CC05DF804EBF4
:100A1000890028BF40F8042B08BF704748BF20F862
:100A2000022B11F0804F18BF00F8012B7047000017
:100A300030B44FF0013C50F8042B51F8043BCCFA91
:100A400052F4D51A20D1FCB950F8042B51F8043BCC
:100A5000CCFA52F4D51A17D1B4B950F8042B51F886
:100A6000043BCCFA52F4D51A0ED16CB950F8042BD1
:100A700051F8043BCCFA52F4D51A05D1002CDAD047
:100A800030BC4FF00000704729BAB1FA81F111F083
:100A90001801D1F120008440F2D1CA40CB4012F0BD
:100AA000FF0213F0FF0330BCD01A70477047704745
:100AB0007047000000487047780100207047704779
:100AC0007047704738B504460A4600206946AFF3C0
:100AD0000080002808BF38BD02460099204600F07B
:100AE000BBFC012038BD012000F0F0BDF8B5AFF32C
:100AF0000080054600200C46102000BF0646A819BD
:100B0000A0420DD9324669460020AFF300800700AD
:100B100008BF00F0DBFD0098A04218BF0546C419CD
:100B2000FFF7C8FF05600746F01D20F007004619D3
:100B3000284600F00AF8B44208BFF8BDA21B3146AF
:100B40003868BDE8F84000F087BC00210160C0E9CA
:100B5000011070471020704710B500F079FC006854
:100B600010BD10B5044600F073FC046010BD2DE903
:100B7000F0470D4699469246044600F12408016864
:100B8000880604D5E06921F01001216000E0012011
:100B9000A84201DD471B00E00027A1697A1902EB9A
:100BA0000900081AA0612078C00602D42046FFF789
:100BB000A1FC002608E0D4E901211AF806009047BC
:100BC000206A401C761C20624E45F4DB2078C0066B
:100BD0000AD52046FFF78EFC06E0D4E9012130203B
:100BE0009047206A401C2062381EA7F10107F4DC00
:100BF00007E0D4E9012118F805009047206A401C5D
:100C00002062281EA5F10105F3DC2046FFF788FCD1
:100C10002078000602D50220BDE8F0870120FBE71E
:100C20002DE9FF4F0C461E464FF0FF378BB0D2E93F
:100C30000001DDF860800A908A46C1F30A5505B9C3
:100C40003D46002108464FF00000BAF1000F00F4C5
:100C5000400005DA00EB80004FF4400101EA50004B
:100C60004FEA9059B9F1010F00DDB9460A9850EAF0
:100C70004A000ED044F61050A5F2FF3545432F141C
:100C8000B8F1000F1ED07542291E1EDDC9F1000209
:100C90001CE0B8F1010F4FF0000001D0302103E05B
:100CA000F24305E02154401CB042FBDB30460022F9
:100CB000002121540B99C1F80880C1E900200FB030
:100CC000BDE8F08FBD1B6D1CDEE74A4600DA6942C5
:100CD00006A800F089FC06AB93E8070003AB83E8A5
:100CE000070050460A9949F0D6FD8DE80700A0F5A7
:100CF00000501F3800900398002D0ADD42F21F01BA
:100D00004A460844002303A9039068464AF082F843
:100D100009E0A0F500504A461F38002303A90390BC
:100D200068464AF0A1F88DE807000004000C03D0E3
:100D30004FF0FF30410800E01046B8F1000F03D03B
:100D40000022009215461EE0751E05D400F09EFBA1
:100D5000303262556D1EF9D5B3460122084302D0E8
:100D600000227F1C04E02078302801D100227F1E61
:100D7000002A099784D01DE0112D07DA00F086FBC8
:100D8000303262556D1C50EA0102F5D1084302D0A1
:100D90000098C8B10EE00021681E05E0235C625C8B
:100DA00063542254401E491C8142F7DBAB46A81B0A
:100DB000401E0990002004F80B000B98099AC0F817
:100DC0000880C0E9002B7AE711264FF0000857E7AA
:100DD0002DE9F04F88460446D21D22F0070191B05C
:100DE000D1E90001CDE90A014AF08AF902460B98DF
:100DF000C00F01D02D2007E02068810701D52B20EE
:100E000002E0202101EAC000032A099001D0072A4C
:100E100005DB03464146204600F086FB0BE12078C7
:100E2000800601D5E06900E00620B8F1650F814633
:100E300006D0B8F1660F18D0B8F1670F70D131E065
:100E40000020B9F1110F009001DB112301E009F13D
:100E500001030AAA01A90CA8FFF7E2FEDDE90C7064
:100E6000002609F10105834647E001204B4600902A
:100E70004FF000470AAA01A90CA8FFF7D1FEDDE94F
:100E80000DB00C995D46002610B909F101000D184E
:100E9000B9EB050003D4C0F1FF3609F10105A5EB5C
:100EA00009002BE0B9F1010F01DA4FF00109002030
:100EB000B9F1110F0090484601DD112300E003460F
:100EC0000AAA01A90CA8FFF7ABFEDDE90C704D469C
:100ED00000268346207800070AD4AB4500DA5D4639
:100EE00001A8012D04DD411911F8011C302907D09A
:100EF0004F4502DA17F1040F04DA012082460FE0B1
:100F00006D1EEEE7002F02DCED1B3E4403E0781C73
:100F1000A84200DD7D1CB81B00F1010A4FF000471C
:100F20002078000703D4AA4501DB4FF0FF3A0021E7
:100F3000B7F1004F0DF143088DF8431024D0022083
:100F40002B23002F01DA7F422D230A21021EA0F15C
:100F5000010000DC5FB197FBF1FC97FBF1F201FBB4
:100F60001C7C17460CF1300C08F801CDEEE7A8F117
:100F7000010003702188090501D5452100E06521A4
:100F8000A0F1010800F8011C09980FA9A1EB0807BE
:100F9000FF1D00B10120411901EBEA70A16938443D
:100FA000081A401EA0612078C00602D42046FFF730
:100FB000A1FA099828B1D4E901219047206A401C80
:100FC00020622078C00622D52046FFF793FA1EE063
:100FD000002E04DBB34502DD01A8805D00E0302077
:100FE000D4E901219047206A401C2062761CAAF1B6
:100FF00001005FEA000A0AD100F026FAC068016821
:10100000405CD4E901219047206A401C2062281EE0
:10101000A5F10105DCDC07E0D4E9012118F8010B9A
:101020009047206A401C2062381EA7F10107F3DCBC
:101030002046FFF775FA032011B041E62DE9F04F85
:1010400004460D46D21D22F0070089B0D0E9009772
:10105000484639464AF054F80246F80F01D02D238D
:1010600007E02068810701D52B2302E0202101EA57
:10107000C0038DF820300BB1012000E00020032ACE
:10108000824601D0072A04DB2946204600F04CFAAC
:101090003FE12078800601D40D2500E0E569C7F323
:1010A0000A560D2D49DA00214FEA175B08464FF02A
:1010B0000000002F00F4400007DA00EB80004FF43E
:1010C000400100EBD07001EA60008115012901DDCB
:1010D0004FF0FF3100224FEA850CBCF1180F06D308
:1010E0001346ACF118004FF08052C24003E04FF4B9
:1010F000801323FA0CF30CF10C0CBCF1200F04D379
:10110000ACF1200C09FA0CF001E007FA0CF0002910
:101110004FF0004801DD18B90FE00ED140450CD367
:1011200019EB02095F4121B9404502D19F4329EAE9
:101130000209BBEB175F00D0761C2088000502D5A2
:101140007B48784402E07A487844193808AA30236A
:1011500002F80A30037C0AF10101002E0AF1020AAA
:1011600053546A4602DC4FF0300101E04FF0310188
:101170004FF001088DF8001002D0A6F2FF3603E010
:1011800059EA470100D06B4E002D02DC2178090797
:1011900004D54FF002082E218DF80110C44600211D
:1011A0000BE0C7F303433F01C35C491C6D1E02F80B
:1011B0000830052908F1010801DA002DF1DC0021D1
:1011C0000CE000EB1973491C1B786D1E082902F80E
:1011D00008304FEA091908F1010801DA002DF0DCA6
:1011E00021688B0602D516E0A8F10108E04505DD6F
:1011F00002EB080313F8013C302BF5D0B8F1000FD7
:1012000009DD02EB080313F8013C2E2B03D109077B
:1012100001D4A8F10108002D05DD3E2102F80810D7
:101220006D1E08F10108407C002E02F8080008F14C
:10123000010804DA2D20764202F8080002E02B2093
:1012400002F808000A214FF47A70864208F101087A
:101250000BDB96FBF0F3303302F8083096FBF0F32B
:1012600008F1010800FB136601E0642E0CDB64202A
:1012700096FBF0F3303302F8083096FBF0F308F1F8
:10128000010800FB136601E00A2E06DB96FBF1F075
:10129000303002F8080008F1010896FBF1F001FB7C
:1012A0001060303002F80800A16908F1010808EB6D
:1012B000050202EB0A00081AA0612078C00602D4D9
:1012C0002046FFF717F9216A08AE01EB0A002062F9
:1012D00004E0D4E9012116F8010B9047BAF1010AA4
:1012E000F7D22078C00602D52046FFF703F96E46F4
:1012F00009E016F8010B3E280FD0D4E901219047F0
:10130000206A401C2062B8F10108F2D22046FFF7A3
:1013100007F909B00320BDE8F08F206A2844206255
:1013200003E0D4E90121302090476D1EEBD3F8E7AC
:10133000B5C1040002FCFFFF01694A1C0261087884
:10134000704700B58FB0CDE9013100210591054905
:101350007944CDE9031011466846FFF75BF90FB0F9
:1013600000BD0000E5FFFFFF0A6802F8010B0A60FC
:10137000704700000FB40B0010B54FF000048AB0A6
:101380000FA900910E99CC60234C7C44234A7A44E7
:10139000CDE9064200D004236FF00042CDE90132CE
:1013A0001F4A7A446B460892024600204BF0ECFE3E
:1013B0000AB010BC5DF814FBF0B507464FF0FF30E3
:1013C0001E4615460C463B4685B06A460091CDE95F
:1013D000010131460020049004A8FFF7CBFF0499D7
:1013E0000346601825B109B1024600E022462A6092
:1013F00000290ED0002B02DD0099814209D03B4626
:101400006A463146001B0094CDE9010404A8FFF7A9
:10141000B1FF05B0F0BD00001B0200003502000066
:101420007101000008B569468DF800000320ABBECD
:1014300008BD000001491820ABBEFEE726000200EF
:10144000004870477001002000487047900100205C
:101450000048704770010020034640688C46002811
:1014600018BF88423CBF03464068F8D31868184448
:10147000884207D00CF1030020F00700001D411A3C
:10148000521A0146081D0A60FEF781BF30B5B0F15F
:101490000A0271F100034FEA900E4EEA817EB0EB32
:1014A0000E0061EB91014FEA101E4EEA017E10EB37
:1014B0000E0041EB11114FEA102E4EEA016E10EBB7
:1014C0000E0041EB11214FEA104E4EEA014E10EB97
:1014D0000E0041EB1141401841F100014FEAD000EC
:1014E00040EA41704FEAD1014FEA810444EA907426
:1014F00010EB800544EB01046D1944EB0404521B0E
:10150000A3414FF0000348BF0A3200D530BD401C54
:1015100041F1000130BD10B5044600F005F9006846
:10152000005D00F0010010BD2DE9F0411F460446AA
:1015300003260168072A01F4006004DB08B116A540
:1015400005E016A503E008B115A500E015A521F0FA
:1015500010002060A069C01EA0610FB1401EA061F4
:101560002046FEF7C7FF4FB1D4E901213846904726
:10157000206A401C2062C01C206206E0206AFAE754
:10158000D4E9012115F8010B9047761EF8D22046C8
:10159000FEF7C6FFBDE8F0814E414E006E616E0061
:1015A000494E4600696E6600426842B1016811F812
:1015B000013B23B1521EC0E90012184670470121B9
:1015C000C160881E704742685AB1C368016843B958
:1015D00083688B4205D0491E521CC0E900120020CE
:1015E00070474FF0FF3070472DE9F04781461646AF
:1015F0008AB0354878440DC88DE80D0032487844EB
:10160000801C03AC0DC884E80D0041F69B300844F3
:10161000372190FBF1F290FBF1F5A5F1800501FB7C
:1016200012041B3C02D56442012000E00020DFF8D8
:1016300098A080460027FA44AAF1BE0A0EE0E0070F
:101640000AD03246684607EB470101230AEB8101C5
:1016500049F00AFC8DE8070064107F1C002CEED1D5
:10166000194F7F44AE3F19E0E80715D007EB04108F
:101670000DF1180A90E80E008AE80E00C068F042EA
:1016800001D1981908903246012306A903A849F010
:10169000EBFB03AB83E807006D10641C002DE3D166
:1016A0004FF0010332466946B8F1000F03A802D09B
:1016B00049F0B0FB01E049F0D7FBC9E90001C9F8E6
:1016C00008200AB0BDE8F087ECBD040010B500F0BA
:1016D000BDFABDE8104000F0B4BA70477546FFF798
:1016E000AFFEAE4605006946534620F0070085462A
:1016F00018B020B5FEF70AFEBDE820404FF0000606
:101700004FF000074FF000084FF0000BAC46ACE87C
:10171000C009ACE8C009ACE8C009ACE8C00921F0D8
:1017200007018D467047000010B5FFF78DFE001DC4
:1017300010BD00BF71AB04002DE9FF4F06468BB012
:101740000878FF2806D0491C2D2805D000244FF02A
:10175000000908E000200CE00124F8E709EB890308
:10176000491C00EB43090878FF28F7D114B1C9F1EF
:1017700000008146107800252C46AA4629462D28CF
:1017800001D02B2804D1521C2D2813D000208246D2
:101790008B461078FF280FD04FF0000C0A21521C06
:1017A000A5FB017804FB018105FB0C11C5194BEB6E
:1017B0000104EEE70120EAE7002108464FF00000AF
:1017C000BAF1000F02D000EB80004008C0F381574F
:1017D000012F01DD4FF0FF370E9955EA040009EBA8
:1017E00001080BD04FF0020918F5FA7F16DA4FEA1C
:1017F000CA70002F706008DD012007E04FEACA7050
:10180000C6E900B00FB0BDE8F08F00203060FFF7F0
:101810001FFEC0F800901821084616E0B8F5FA7FC0
:1018200018DD002F02DAF748784401E0F6487844E2
:10183000D0E90010C6E9001040EACA707060FFF7F6
:1018400007FEC0F80090142108460FB0BDE8F04F25
:101850004BF033BC002108464FF00000B8F1000106
:10186000099002DAC7F1000200E03A4601DAC8F155
:10187000000106A8FFF7B8FE06AB93E8070003AB2C
:1018800083E8070044F23E005BEA040100905846FA
:1018900004D144F21E012C465D460091210C09043E
:1018A000014306D10099240444EA15442D0410395B
:1018B000009104F07F41014306D10099240244EADB
:1018C00015642D020839009104F07041014306D1DE
:1018D0000099240144EA15742D01091F009104F0B8
:1018E0004041014306D10099A40044EA9574AD003B
:1018F000891E009104F00041084304D100986D193D
:101900006441401E00904FF001033A466846B8F12A
:10191000000FCDE9014503A902DD49F0BAFA01E063
:1019200049F08DFABAF1000F04460D4601D084F05B
:101930000044002108464FF00000099940F2FF776B
:10194000484010F00C0F07D124F00040284303D08A
:10195000C4F30A50B84212D1FFF77AFDC0F80090E4
:10196000C4F30A50B8420AD1A8487844D0E900101C
:10197000C6E9001004F000410843706042E7C6E980
:1019800000543FE72DE9FF4F1F464FF0000A4FF08C
:10199000FF38454691B0D7E90146CDF83CA0FFF7A6
:1019A00053FDC0680168405C1090B96912986D1CC5
:1019B0008847396A814688470028F6D1B9F1FF3F48
:1019C0000AD0002E24F4D06411DDB9F12B0F08D019
:1019D000B9F12D0F0BD102E0404615B013E744F4E6
:1019E0008064B96912986D1C8847761E814660052F
:1019F00004A901D52D2000E02B20002E01F1010BC0
:101A00000DF130088DF810003FDDB9F1690F08D0F5
:101A1000B9F1490F05D0B9F16E0F02D0B9F14E0FEF
:101A20001CD13B4601A8009580E85002DDE9121266
:101A30006FF002004BF0ACFBC11CCED10EE0B969D7
:101A400012986D1C884781461398761E44F40074E2
:101A500005600F98401C002E0F9016DDB9F1300F75
:101A6000EDD0B9F1780F02D0B9F1580F0DD10F9820
:101A700001280AD13B46CDE90054DDE91212001FCE
:101A800002964BF083FBC11CA7D1109989453ED12A
:101A900044F0800406E01399681CAAF1010A44F49A
:101AA00000740860B9696D1C1298761E884730284A
:101AB0008146F0D02BE01099894505D1200603D44A
:101AC000761E44F0800418E048464AF028FB08B32C
:101AD000761E0DF123029345A9F1300044F4007401
:101AE00006D20BF8010B200607D5AAF1010003E08E
:101AF000200602D40AF101008246A00502D51399FE
:101B0000681C0860B96912986D1C88478146002ED0
:101B1000D1DC53E0002E51DDB9F1650F02D0B9F1EF
:101B2000450F4BD1A00549D5B9696D1C1298761E99
:101B300024F440748847002E81460CDD2B2804D005
:101B4000B9F12D0F07D144F48074B96912986D1C56
:101B50008847761E8146E00501D52D2100E02B2126
:101B600008F8011BCDF8008021E0761E0DF1390147
:101B7000884544F400740CD2A9F1300010F0FF0045
:101B800088F8000002D10099884509D908F10108B8
:101B900006E0E00501D51E4801E042F20F708246E2
:101BA000B96912986D1C8847814613980560002E0C
:101BB00004DD48464AF0B3FA0028D6D1F9691298F4
:101BC0008847FF2053468BF8000088F8000000206B
:101BD0000A900B9004AA0CA90AA8FFF7ADFDA00576
:101BE00002D46FF00100F8E614F0240F12D0E007E1
:101BF0001CD13868DDE90A12031D3B600068C0E9AA
:101C0000001213E0186205000A620500CE600500AC
:101C1000F1D8FFFF0AA968464AF06EFAE00705D13D
:101C20003868009A011D3960006802602846D4E6D1
:101C300010B50446AFF300802046BDE81040FEF723
:101C400050BB002801D0FFF7F5BB704710B5012845
:101C500005D0002103A000F034F8012010BD09A137
:101C6000F8E7000053494752544D454D3A204F750F
:101C700074206F662068656170206D656D6F727984
:101C8000000000003A2048656170206D656D6F723C
:101C90007920636F7272757074656400B2F120030D
:101CA0000AD5C2F1200301FA02F120FA03F341EA56
:101CB000030100FA02F0704700FA03F14FF0000050
:101CC000704770B505460C460A2000E06D1CFFF712
:101CD000A9FB35B128780028F8D102E0641CFFF791
:101CE000A1FB14B120780028F8D1BDE870400A208B
:101CF000FFF798BB2DE9FF4F1F464FF03C0987B017
:101D00004FF00042DDE9141001F10108DDF858A0A0
:101D100002EA4050039000200590834605460446A1
:101D20000490B969461E08988847AAF1010A0290F2
:101D3000BAF1000F3BDD02982E2815D0102100F0DB
:101D400003FA00282EDB4FF0010B0599014317D051
:101D5000B9F1000F0BDB4A46C117FFF79FFF0543A0
:101D60000C43A9F1040905E0012004900BE008B13F
:101D700045F0010501200590049820B9361D02E0C8
:101D8000049800B1361FB969089808F1010888471E
:101D9000BBF1000FAAF1010A0290C9D00999C1F85C
:101DA0000080C5E70298702808D0502806D0F9694D
:101DB00008988847BBF1000F14D04FE00020029034
:101DC0000120BBF1000F049009D0B969089808F10F
:101DD00001088847AAF10109B9F1000F07DCF96988
:101DE000089888476FF001000BB0BDE8F08F2B28F2
:101DF00004D02D280CD14FF0FF300490B969089819
:101E000008F101088847A9F10109B9F1000FE6DDE1
:101E1000411CE4D00A2100F097F90028DFDB029989
:101E200008F1010801EB810100EB41000290B96962
:101E3000089888470A2100F087F9099AA9F1010951
:101E4000B9F1000FC2F8008001DD0028E7DAF96976
:101E5000089888470499029800FB016655EA040037
:101E600004D004F04041090002D006E0039898E055
:101E7000A40044EA9574AD00B61E04F000410800C9
:101E800002D16D196441761E159810F0240F03D00D
:101E90004FF00B095C4803E04FF028096FF07D001C
:101EA0008246564507DAAAEB06018944B9F1410F8B
:101EB00001DD4FF0410901200021A9F10102FFF7E6
:101EC000EDFE024628400B462140084301D0012187
:101ED00000E00021501E029143F1FF3128402140D3
:101EE000084301D0012000E000200299834651EA16
:101EF0000B014FD0002108464FF00000039900F479
:101F0000400039B100EB80004FF4400100EBD0708D
:101F100001EA60008015012802DD4FF0FF3000E08B
:101F200013D0401C36D0029860B3BBF1000F0CD127
:101F30004A4601200021FFF7B1FE28402140084316
:101F400001D0012000E00020E0B101204A4600213C
:101F5000FFF7A4FE034640190A4661412D1A8C4141
:101F600011D3B9F1400F09DD159810F0240F02D0FC
:101F7000AAF1340603E0AAF1170600E0761C00255A
:101F80004FF0004406E05B1E42F1FF3220EA0305F9
:101F900021EA0204CAF10100B04206DA1B490398A3
:101FA00008430190002000900EE0039AC4F3D3216F
:101FB000E80A0A43164940EA44500A433146CDE94B
:101FC000000268464AF0A1F8159810F0240F0BD0D3
:101FD0001598C00715D13868DDE90012031D3B6074
:101FE0000068C0E900120CE002A869464AF084F8D3
:101FF0001598C00705D13868029A011D396000683C
:1020000002604046F0E6000002FCFFFF0000F07FA7
:102010000000F03F2DE9FF4F92461D4685B04FF07E
:102020000041DDE9124BDDE914727F1E01EA4B50DD
:10203000414940F0FF4940EA0108002122F0200018
:102040004928049102D04E2828D04CE03BA001261C
:1020500007C88DE80700A9690698641C88477F1E99
:10206000014606D41DF8060018B121F02001814276
:102070000BD0E96906988847032E34D0082E32D059
:102080006FF0010009B0BDE8F08F761C032E01D07F
:10209000082EE0D1601CCAF80000DCE7A9690698A8
:1020A000641C88477F1E2AD420F02000412826D1B6
:1020B000A9690698641C88477F1E20D420F0200060
:1020C0004E281CD1A9690698641C88477F1E48F4D5
:1020D000002849F48009CAF8004001D4282806D015
:1020E000E969069888475FEACB7012D022E0A969B7
:1020F0000698641C88477F1E01D4002803DAE9692A
:1021000006988847BCE72928F1D1641CCAF800402A
:10211000E9E71BF0240F07D028680499031D2B6002
:102120000068C0E9001805E02868021D2A60006800
:10213000C0F800902046A5E70000F07F494E4649D0
:102140004E495459000000003A2800D2303820F09F
:102150002002412A01D3A2F13700884201D34FF077
:10216000FF3070472DE9F04F81B02DED028B86B026
:10217000054638F017F838F015F80446284635F0CB
:10218000DDF9284635F0CCF940F29857C2F2000745
:102190000FF20053002100220646009712F0F0FCD7
:1021A000012137F007FE4BF2385AC2F2010A4621EC
:1021B000CAF800003BF0CCFEDAF8000048F65921DE
:1021C000C0F604011D22002335F0C6FF0FF2D443F0
:1021D000304600210022009712F0D2FC012137F096
:1021E000E9FD4621CAF804003BF0B2FEDAF804002B
:1021F00048F68D31C0F604011D22002335F0ACFFF6
:10220000DAF80400802136F02FF8284635F096F9E8
:10221000284635F085F9CDE904402046002134F008
:102220003DFD0646204634F0D3FC0021122238F052
:1022300001FE04B23046214600223BF059FE3046F2
:10224000214600223BF05AFE304635F069F947F24C
:10225000F453C0F60503002100228346009712F0D4
:10226000ADFA012137F0A6FD4621CAF808003BF07F
:102270006FFEDAF8080032F01FF9394600220446F2
:1022800036F006F847F2E551C0F60501204633F076
:1022900073FB204609210022002336F0C9F8DAF842
:1022A000080043F67D31C0F601010022002335F01D
:1022B00053FF40F2A858C2F2000898ED380A98ED92
:1022C000391A47F2EC599FEDF28ABDEEC00A40F28E
:1022D000A054C0F6050940F29052BDEEC11A8DED32
:1022E000010AC2F20004C2F20002F2A358464946B3
:1022F000B0EE480A8DED021A009412F03BFB00216B
:10230000074637F057FDCAF81C003846012137F060
:1023100051FDCAF828003846022137F04BFDCAF8B3
:1023200010003846042137F045FD45F26905C0F636
:10233000040529461D220023CAF8340035F00CFF9D
:102340003846032137F036FD98ED3A0A98ED3B1AEE
:10235000BDEEC00A40F29057CAF838008DED010A70
:102360009FEDD60AC2F20007BDEEC11AD2A35846AD
:1023700049463A468DED021A009412F0FBFA00210C
:10238000044637F017FDCAF820002046012137F037
:1023900011FDCAF82C002046022137F00BFDCAF8C7
:1023A00014002046042137F005FD29461D22002394
:1023B000CAF83C0035F0D0FE2046032137F0FAFC85
:1023C00098ED3C0A98ED3D1ACAF8400040F2A05042
:1023D000BDEEC00AC2F20000BDEEC11A8DED010AC9
:1023E0000090B7A3B1EE040A584649463A46BB46A8
:1023F0008DED021A12F0BEFA0021044637F0DAFC25
:10240000CAF824002046012137F0D4FCCAF8300075
:102410002046022137F0CEFCCAF8180020460421DD
:1024200037F0C8FC29461D220023CAF8440035F0C5
:1024300093FE2046032137F0BDFCCAF848000598FA
:1024400040F298589FA300213A46C2F20008CDF806
:10245000008012F0A1FB40F24444049DC2F200044B
:10246000014660602846324635F076F86068802183
:1024700035F0FAFE2846002134F010FC06462846C6
:1024800034F0A6FB0021122238F0D4FC04B230460E
:10249000214600223BF02CFD3046214600223BF035
:1024A0002DFD304635F03CF847F2F4530021002270
:1024B000C0F605030546CDF8008012F07FF9012132
:1024C00037F078FC4621CAF84C003BF041FDDAF8C1
:1024D0004C0031F0F1FF41460022044635F0D8FEB1
:1024E00047F2E5512046C0F6050133F045FA204693
:1024F00009210022002335F09BFFDAF84C0043F657
:10250000B931C0F601010022002335F025FE452037
:102510006FF00C019FED710ACDE901106DA3284603
:1025200049463A46CDF8008012F024FA00210446CC
:1025300037F040FCCAF860002046012137F03AFC31
:10254000CAF86C002046022137F034FCCAF8540067
:102550002046042137F02EFC45F2A907C0F60407F7
:1025600039461D220023CAF8780035F0F5FD2046D3
:10257000032137F01FFCCAF87C00DAF87800052147
:1025800001616D2017219FED580ACDE9011054A378
:10259000284649465A46CDF8008012F0EBF9002152
:1025A000044637F007FCCAF864002046012137F0E2
:1025B00001FCCAF870002046022137F0FBFBCAF884
:1025C00058002046042137F0F5FB39461D22002330
:1025D000CAF8800035F0C0FD2046032137F0EAFB41
:1025E000CAF88400DAF88000062101612C206FF01F
:1025F0002B01CDE901103DA3284649465A46B0EECD
:10260000480ACDF8008012F0B5F90021044637F0F1
:10261000D1FBCAF868002046012137F0CBFBCAF88D
:1026200074002046022137F0C5FBCAF85C00204642
:10263000042137F0BFFB39461D220023CAF8880069
:1026400035F08AFD2046032137F0B4FBCAF88C0030
:10265000DAF8880007210161059826A300215A466F
:10266000CDF8008012F098FA40F24444C2F200041F
:10267000014620600498324634F06EFF20688021C5
:1026800006B0BDEC028B01B0BDE8F04F35F0ECBDFB
:1026900000000000E5BC80E590AFE8B083E8AF95AE
:1026A00000000000E58AA8E58A9BE68EA7E588B6CB
:1026B0000000000058000000590000000000164310
:1026C0005A000000E69CABE7ABAFE68EA7E588B604
:1026D00000000000E5A4A7E887820000666656C1F6
:1026E000E5B08FE887820000CDCC1442E5BA95E5CD
:1026F000BAA70000E794B5E69CBAE8B083E8AF95C6
:10270000000000002DE9F04784B040F60004C4F258
:102710000204A4F5006592468946074628464021F2
:102720000022984602F06AFA20461021002202F0A8
:1027300065FA42F274062A20C2F20006ADF80200E1
:102740000DF1020130460122FF2304F0CFFF2046A5
:102750001021012202F052FA28464021012202F003
:102760004DFA20461021002202F048FA01A9304615
:102770000122FF23ADF8047004F0B8FF20461021B9
:10278000012202F03BFA28464021012202F036FAEB
:1027900020461021002202F031FA0DF106013046E8
:1027A0000122FF23ADF806A004F0A0FF204610216F
:1027B000012202F023FA28464021002202F01EFAEC
:1027C00020461021002202F019FA2B20ADF8080053
:1027D00002A930460122FF2304F088FF2046102181
:1027E000012202F00BFA28464021012202F006FAEB
:1027F00020461021002202F001FA0DF10A013046B4
:102800000122FF23ADF80A9004F070FF204610214A
:10281000012202F0F3F928464021012202F0EEF9EC
:1028200020461021002202F0E9F903A930460122D6
:10283000FF23ADF80C8004F059FF2046102101223F
:1028400002F0DCF928464021002202F0D7F92046A8
:102850001021002202F0D2F92C20ADF80E000DF16B
:102860000E0130460122FF2304F040FF20461021D4
:10287000012202F0C3F904B0BDE8F0872DE9F0436E
:1028800081B040F2A85840F2A4660024C2F20008C9
:10289000C2F200064FF48079002700BF98ED010ACC
:1028A000D6ED510A052001210A22FF233D46CDF82D
:1028B000009009F0BDFE0A2002F092F898ED020A9D
:1028C000D6ED520A062001210A22FF23CDF80090FE
:1028D00009F0AEFE0A2002F083F898ED030AD6ED67
:1028E000530A072001210A22FF23CDF8009009F0A6
:1028F0009FFE781C87B2B7F5FA6F98BF4FF4FA675E
:10290000012002F06DF80135A9B296F82F01B1F55A
:10291000FA6F0FD20128F3D196F830010128EFD1D8
:1029200096F831010128EBD10121012201202F4627
:1029300004E000BF96F8302196F83111B0FA80F02B
:10294000B2FA82F240095209B1FA81F11043490901
:102950000843012803D1042C04F101049ED305206F
:102960000AF000FA06200AF0FDF907200AF0FAF949
:1029700005200AF069FD06200AF066FD072001B077
:10298000BDE8F0430AF060BD2DE9F04F81B02DEDB8
:10299000088B8AB090ED020B9FEDC71B90ED009B5A
:1029A00090ED048B069153EC112B51EC100B099018
:1029B0008A4649F0CBFC5BEC198B05460E46404637
:1029C000594642465B4649F0D1FF04460F46284629
:1029D00031462A46334649F0C9FF22463B4649F074
:1029E000B5FCCDE90710404659462A46334649F022
:1029F00069FD41EC100B48F0C3FD51EC100B9FED4D
:102A0000B00B54EC107B3A46234649F0AFFF9FEDE4
:102A1000AE0B054653EC102B0E4641EC1A0B4FF053
:102A200000094AF0EBFA002840F075829FEDA80BF0
:102A3000284653EC102B31464AF0CBFA002840F0E0
:102A40006A829FEDA50B404655EC106B5946324605
:102A50002B464AF0D3FAD146DDF824A040BB9FEDC7
:102A6000A00B404653EC102B59464AF0B2FAF8B985
:102A70009FED9D0B504653EC102B49464AF0BEFA91
:102A8000B0B99FED9B0B504653EC102B49464AF0D2
:102A9000A0FA68B99FED980B51EC180B53EC102B72
:102AA0004AF0ACFA00283DD04FF0000933E200BFF5
:102AB0004046594632462B464AF0A0FA30BB9FEDBD
:102AC000900B404653EC102B59464AF082FAE8B975
:102AD0009FED8D0B504655EC106B494632462B4608
:102AE0004AF08CFA90B99FED820B504653EC102BB4
:102AF00049464AF06EFA48B951EC180B32462B465B
:102B00004AF07CFA70B14FF0000904E29FED800BAF
:102B100051EC180B53EC102B4AF070FA10B14FF037
:102B20000009F8E1DDE90710059441EC100B40F2D3
:102B3000A8540297C2F2000449F0EAF994ED341B5C
:102B400056EC102B94ED369B51EC110B3346274677
:102B5000009249F00BFF9FEDF40B04460D4653EC39
:102B6000102B51EC190B49F0F1FB22462B4649F092
:102B7000EDFB55EC184B22462B464AF02AFA00286A
:102B80000196CDE9035400F0C78097ED100B97ED47
:102B900012BB97ED148B97ED169B53EC102B404610
:102BA00059464AF0EFF802460B4649F0DFFE074669
:102BB0000E4653EC1B2B504649464AF0E3F80246BA
:102BC0000B4649F0D3FE3A46334649F0BFFB064672
:102BD0000F4653EC182B204629464AF0D3F80246FC
:102BE0000B4649F0C3FE02460B463046394649F0D3
:102BF000ADFB41EC100B49F08BF9B0EE408A53EC81
:102C0000192B40465946F0EE608A4AF0BBF802465E
:102C10000B4649F0ABFE40F2A857C2F2000797ED11
:102C2000180B06460D4653EC102B504649464AF009
:102C3000A9F802460B4649F099FE32462B4649F068
:102C400085FB97ED1A0B049E039F04460D4653EC3B
:102C5000102B304639464AF095F802460B4649F0AB
:102C600085FE02460B462046294649F06FFB41ECA3
:102C7000100B49F04DF9B0EE409AF0EE609A9FEDDE
:102C8000AC0B51EC180B54EC105B2A4623464FF06A
:102C900000094AF09EF9002840F03D8151EC190BE3
:102CA0002A4623464AF0AAF9DDF814B0DDF808A058
:102CB000002800F0C5802EE100000000000059C08F
:102CC000AA9F9622DCA54C4000000000000046C0F0
:102CD000000000000000464000000000008061C0CD
:102CE00000000000000049C00000000000C0534088
:102CF0000000000000C06A400000000000003E40EC
:102D00000000000000805B400000000000000000A8
:102D10000000000000405FC097ED040B97ED06BB7C
:102D200097ED088B97ED0A9B53EC102B40465946C4
:102D30004AF028F802460B4649F018FE06460F46B0
:102D400053EC1B2B504649464AF01CF802460B46F2
:102D500049F00CFE32463B4649F0F8FA06460F466B
:102D600053EC182B204629464AF00CF802460B4635
:102D700049F0FCFD02460B463046394649F0E6FA7A
:102D800041EC100B49F0C4F8B0EE408A53EC192B1B
:102D900040465946F0EE608A49F0F4FF02460B4681
:102DA00049F0E4FD40F2A857C2F2000797ED0C0B82
:102DB00006460D4653EC102B5046494649F0E2FFBB
:102DC00002460B4649F0D2FD32462B4649F0BEFA88
:102DD00097ED0E0B049E039F04460D4653EC102BFB
:102DE0003046394649F0CEFF02460B4649F0BEFD5B
:102DF00002460B462046294649F0A8FA41EC100B42
:102E000049F086F8B0EE409AF0EE609A9FED480BDC
:102E100051EC180B54EC105B2A4623464FF0000986
:102E20004AF0ECF8002876D151EC190B2A462346DB
:102E30004AF0DDF8DDF814B0DDF808A000286AD00B
:102E40009FED3D0B324651EC100B3B4649F09AFF8B
:102E500002460B465E4604460D4649F087FD024693
:102E60000B46DDE9071049F071FA41EC100B49F00F
:102E70004FF8DDE90023B0EE408A20462946F0EE07
:102E8000608A49F01FFB41EC100B48F079FBB0EE73
:102E9000409AF0EE609A9FED2A0B51EC180B53EC20
:102EA000102B49F063FD41EC100B48F0BDF958ECD4
:102EB000199BD3465AEC107B484641463A46534646
:102EC00049F060FF5A46334649F050FD9FED1E0B16
:102ED00054EC105B2A46234649F038FA41EC100BBB
:102EE000069E384651464A46434686ED000B49F059
:102EF0002DFA059B5A4649F039FD02460B462846F5
:102F0000214649F03FFF41EC100B4FF0010986EDDF
:102F1000020B86ED04AB48460AB0BDEC088B01B04D
:102F2000BDE8F08F00BF00BF0000000000004FC0F0
:102F30000000000000C0674000000000000026C044
:102F4000ED588130D28E653F000000000080564071
:102F5000B0B540F2A850C2F200000021C0E904114F
:102F6000C0E90A11C0E91011C0E91611C0E91C112D
:102F7000C0E92211C0E92811C0E92E1143F22A311B
:102F8000CCF28031C0F8E01043F22A31C4F2803133
:102F9000C0F8E4104FF6E431C4F24B01C16143F2D2
:102FA0001D21C1F6E95181614BF67A21C4F2650118
:102FB000416246F61F51C3F24A31016247F2A11144
:102FC000C4F27101416342F2D821C5F28F2101633D
:102FD00043F22E61C4F24A01C16344F21051C9F6B2
:102FE0001641816345F2FB71C4F27101C16446F27E
:102FF0005B51C4F6CD01816446F2DE31C4F24C016E
:1030000041654FF64A41C5F64751016540F21F211F
:10301000C4F26601416646F23131C4F28E010166A6
:1030200042F27C31CCF2670140F2614E4BF6E16333
:103030004DF6F73C45F65E62C16641F28751C4F237
:10304000400EC2F22203C4F24E0CCBF61952C4F267
:103050000441C0E91E3EC0E9202C44F69C1E48F6FF
:1030600033034CF2836C49F25702816640F6C20189
:10307000C4F2760EC9F65C33C4F2660CC3F657622E
:10308000C4F20431C0E9243EC0E9262C4AF61222DB
:1030900045F6D213C0F8E81048F60B51CCF24B02BB
:1030A000CBF2C823C4F2EA31C0E92C32C0F8EC10EC
:1030B0004AF64B0144F22E02CCF2EA21C4F26D3200
:1030C000C0E93C124CF20A21C3F6D771C0F8D41003
:1030D0004BF6BC51C4F68E114BF2152442F6E65560
:1030E000C0F8D0104EF6D411C4F26F04CDF22925E9
:1030F000C4F24801C0E92A544EF23B2E49F238246A
:103100004BF2024C4FF63275C0F8DC1049F27131C7
:10311000C4F2600ECAF69844C4F2720CCEF627557B
:10312000CFF60B41C0E9304EC0E9325CC0F8D81090
:10313000B0BD000080B5052009F0CEFC062009F0E6
:10314000CBFC072009F0C8FC40F2A850C2F20000F6
:103150000121017080BD00002DE9F04381B02DED0B
:10316000048B82B00D46FFF70FFC002800F08A8028
:1031700095ED000B9FED481B58EC109B95ED029BC5
:1031800095ED048B53EC112B48464146002449F041
:1031900035FF002877D19FED420B484653EC102BAA
:1031A000414649F016FF00286DD19FED3F0B56ECCC
:1031B000197B53EC102B38463146002449F01EFF92
:1031C000002860D19FED3A0B384653EC102B314666
:1031D00049F0FFFE002856D19FED370B56EC187BC7
:1031E00053EC102B38463146002449F007FF0028E5
:1031F00049D19FED330B384653EC102B314649F043
:10320000E8FE00283FD14846414649F06DF840F2BB
:10321000A466C2F20006D6ED510A00EE100A4FF481
:1032200080770124052001210A22FF2300940197C1
:1032300009F0D2FA95ED020B51EC100B49F054F85D
:10324000D6ED520A00EE100A062001210A22FF23C1
:103250000094019709F0C0FA95ED040B51EC100BA6
:1032600049F042F880F00040D6ED530A00EE100A13
:10327000072001210A22FF230197009409F0ACFAEC
:1032800001E000BF0024204602B0BDEC048B01B079
:10329000BDE8F08300BF00BFCDCCCCCCCCCC2AC0E5
:1032A00066666666664651409A999999999937403B
:1032B0000000000000605B4000000000000046C00D
:1032C000000000000000464080B540F2A850C2F265
:1032D00000000021C4F2C41146F266624DF6B863E4
:1032E0000430C4F25222C4F22F330EC00520002154
:1032F00009F00CFC0620002109F008FC0720002141
:1033000009F004FCBDE88040FFF7B8BA80B505209D
:1033100009F018FC062009F015FC072009F012FC42
:1033200040F2A850C2F200000021017080BD0000F0
:1033300080B582B040F2A46EC2F2000E0EEB800E99
:10334000DDF810C0DEED4C0A4FF4807ECDE900CEF2
:1033500009F042FA02B080BDF0B581B040F2A46637
:103360004BF23855C2F20006C2F2010596F82F1151
:1033700047F2EC54E86EC0F6050447F2F057002916
:103380002146C0F6050708BF394630F055F896F8D3
:103390003011286F0029214608BF394630F04CF81B
:1033A00096F83111686F002908BF3C46214601B0EC
:1033B000BDE8F04030F040B870B586B04BF23856FA
:1033C000C2F20106B06F6FF00C0101221EF012FE76
:1033D000D6F88000252101221EF00CFED6F88800C8
:1033E000002101221EF006FE47F23815C0F6050541
:1033F00001AC204614212A4600233CF023F8F06F4C
:10340000214632F0B9FA204614212A4600233CF026
:1034100019F8D6F88400214632F0AEFA204614217D
:103420002A4600233CF00EF8D6F88C00214632F0F4
:10343000A3FA06B070BD0000F0B585B040F2A44616
:10344000C2F200063078002800F0C980F58C40F206
:10345000A854C2F200041DB328B249F0F8F99FED58
:10346000620B53EC102B49F081FA49F0C1F97168F5
:1034700094ED380A084401EE100AB8EEC11AB4EE11
:10348000410AF1EE10FA706006DC94ED390AB4EEF0
:10349000410AF1EE10FA03DABDEEC00A86ED010A28
:1034A000308D002D18BF012520B300B249F0CFF9AF
:1034B0009FED4D0B53EC102B49F058FA49F098F959
:1034C000B16894ED3A0A084401EE100AB8EEC11A48
:1034D000B4EE410AF1EE10FAB06006DC94ED3B0A5E
:1034E000B4EE410AF1EE10FA03DABDEEC00A86ED41
:1034F000020A0125707CF17C50EA01021CD0081AF6
:10350000F16800EB4000084401EE100A94ED3C0A1B
:10351000B8EEC11AB4EE410AF1EE10FAF06006DC22
:1035200094ED3D0AB4EE410AF1EE10FA05DABDEE73
:10353000C00A86ED030A00E0D5B34BF23857C2F259
:103540000107786B716801221EF054FDF86BB168B9
:1035500001221EF04FFD786CF16801221EF04AFD39
:1035600047F2381500207268C0F605056C46CDE9B3
:103570000300CDE90100009020462946FCF7A6FF94
:10358000B86B214632F0F8F9B26820462946FCF7BC
:103590009DFF386C214632F0EFF9F268204629464B
:1035A000FCF794FFB86C214632F0E6F91CF0DEFE21
:1035B000317E707E012908BF002807D0002908BF8E
:1035C000012805D100F0A2FC02E000BF00F0A6FC3B
:1035D000B07C012808BF1CF023FF0020307005B02C
:1035E000F0BD00BF00BF00BF4F1BE8B4814E6B3F72
:1035F00040F2A440C2F200000021043096220523CC
:103600000EC070472DE9F04F87B040F2A446C2F2D9
:10361000000696F83200662840F0C380B58EB6F8F2
:1036200036B0378FB6F93AA085EA0B01B6F83C8080
:103630007940B6F83E9081EA0A01B6F9402081EA65
:10364000080181EA0901B6F842405140708E89B202
:10365000A142ADF81A0040F0A48028B20290882060
:103660008DF8170042F2B040C2F200000DF11701D0
:103670000192012205F0AAFFE8B205F001013174C0
:10368000C0F340017174C0F38001B174C0F3C00194
:10369000F174C0F300113175C0F340117175C0F3BE
:1036A0008011C009F075C5F34020B175C5F3002144
:1036B0007076C5F3C0203176C5F38021F076BDF871
:1036C0001800B176BDF81A10F085BAF5FA60B1832A
:1036D000F583A6F820B07784A6F82680A6F828906F
:1036E000B4854FF00001D8BF0846B084019803AC00
:1036F000B0F5FA60D8BF084670850120029A86F8B6
:103700002E00ADF81410CDE9031127A12046FCF7D7
:10371000DDFE4BF2C857C2F201077868214632F04D
:103720002BF947F23815B6F92020C0F605052046DA
:103730002946FCF7CBFEB868214632F01DF9B6F9F0
:10374000222020462946FCF7C1FEF868214632F0C7
:1037500013F9B6F9242020462946FCF7B7FE38694C
:10376000214632F009F9B6F9262020462946FCF711
:10377000ADFE7869214632F0FFF8B6F928202046E0
:103780002946FCF7A3FEB869214632F0F5F8B6F9F0
:103790002A2020462946FCF799FEF869214632F096
:1037A000EBF807B0BDE8F08F3078253032780000B4
:1037B00080B5012001F014F940F20040C4F202008B
:1037C000202101F015FA012808D142F2C420C2F2EA
:1037D000000004F095FB0DA107E000BF42F2C420F9
:1037E000C2F2000004F036FB04A14BF2C850C2F252
:1037F00001000068BDE8804032F0BEB8E6898BE683
:103800009F84E5B7B2E8BF9EE68EA500E6898BE609
:103810009F84E69CAAE8BF9EE68EA50010B540F600
:103820002004C2F2000494F8540058B194F85500F2
:1038300010B100200AF060F894ED140ABDE81040C1
:103840000AF084B894F8AC0060B194F8AD0010B1FF
:1038500001200AF051F894ED2A0ABDE810400AF060
:1038600021B800BF40F20050C2F2000090F82210D0
:10387000002918BF10BD40F2A441C2F200018A7EA7
:10388000012A01D1012103E0C97E012902D10021D1
:1038900080F82010BDE8104000F05AB92DE9F04141
:1038A00082B0044633F04AFE204633F039FE054626
:1038B00040F20040C4F20200202101F099F990A1E9
:1038C00093A340F29857012808BF0B46C2F20007A5
:1038D000284600210022009711F05EF9002136F001
:1038E00069FA4BF2C858C2F20108C8F80000204635
:1038F00033F024FE204633F013FE33F049F904463A
:1039000030F0DAFD40F2A055C2F20005294600224F
:10391000064634F0BDFC82A1304632F02DF8304628
:10392000012139F037FF30464FF4000134F05CFCE0
:10393000204630F0C1FD29460022064634F0A8FC9E
:103940007BA1304632F018F82046C8F8046030F009
:10395000B3FD29460022064634F09AFC76A1304693
:1039600032F00AF83046012139F014FF30464FF4A6
:10397000000134F039FC204630F09EFD294600223B
:10398000074634F085FC47F25F56C0F60506384618
:10399000314631F0F1FF2046C8F8087030F08CFD58
:1039A00029460022074634F073FC64A1384631F002
:1039B000E3FF3846012139F0EDFE38464FF40001AF
:1039C00034F012FC204630F077FD294600220746ED
:1039D00034F05EFC3846314631F0CEFF2046C8F860
:1039E0000C7030F069FD29460022074634F050FC87
:1039F00053A1384631F0C0FF3846012139F0CAFEE4
:103A000038464FF4000134F0EFFB204630F054FD0F
:103A100029460022074634F03BFC3846314631F057
:103A2000ABFF2046C8F8107030F046FD2946002252
:103A3000074634F02DFC43A1384631F09DFF38464F
:103A4000012139F0A7FE38464FF4000134F0CCFBD9
:103A5000204630F031FD29460022074634F018FC9C
:103A60003846314631F088FF2046C8F8147030F0EF
:103A700023FD29460022074634F00AFC32A13846CD
:103A800031F07AFF3846012139F084FE38464FF490
:103A9000000134F0A9FB204630F00EFD294600223B
:103AA000074634F0F5FB3846314631F065FF2046D5
:103AB000C8F8187030F000FD29460022074634F09F
:103AC000E7FB22A1384631F057FF3846012139F093
:103AD00061FE38464FF4000134F086FB204630F09A
:103AE000EBFC29460022044634F0D2FB2046314646
:103AF00031F042FFC8F81C4002B0BDE8F08100BFC1
:103B0000E6898BE69F84E69CAAE8BF9EE68EA50028
:103B1000E6898BE69F84E5B7B2E8BF9EE68EA500F6
:103B20006469676974616C5F6461746100000000BE
:103B300030783030000000004C5F58004C5F590076
:103B40004C5F3200525F5800525F5900525F3200A2
:103B50002DE9F0412DED048B40F2A440C2F20000AB
:103B6000018C01F1C70292B2B2F5C77F9CBF002160
:103B70000184468C06F1C70292B2B2F5C77F9CBFA2
:103B800000264684027C012A08D040F20052C2F28C
:103B9000000292F821203AB9828D2AB9BDEC048B3B
:103BA000BDE8F0410BF0FCBFB0F92470B0F92A80F9
:103BB000002908BF002E33D008B248F048FE9FED20
:103BC000340B54EC105B2A46234648F0CFFE48F0F5
:103BD0008BFB08EE100A30B248F039FE2A46234625
:103BE00048F0C4FE48F080FB09EE100AA7EB08007D
:103BF00048F02DFE9FED280B53EC102B48F0B6FE3D
:103C000048F072FB01EE100AB0EE480AF0EE490AE5
:103C1000FF20BDEC048BBDE8F0410BF0E1BF00BF1D
:103C2000002FC9DCB8F1010FC6DA817D012903D16B
:103C3000BFEE000A05E000BFC17D01290CD1B7EE3F
:103C4000000ADFED170AB0EE601AFF20BDEC048B0E
:103C5000BDE8F0410BF0C4BF017D012904D19FED07
:103C6000100AF7EE000A06E0407D01280CD19FED16
:103C70000C0AFFEE000AB0EE401AFF20BDEC048BE8
:103C8000BDE8F0410BF0ACBFBDEC048BBDE8F081AA
:103C90004F1BE8B4814E5B3F7B14AE47E17A743F23
:103CA0000000000080B50020C4F202004FF48061E3
:103CB00000F09EFFB0FA80F0400980BD7047000020
:103CC000014641F6F070C2F2000002F0D5BF0000DC
:103CD00080B541F6F070C2F2000002F0DFFF043858
:103CE00018BF012080BD000080B500F019F8012840
:103CF0001CBF012080BD41F6F070C2F2000003F04D
:103D000025F9002818BF80BD41F6F070C2F200000E
:103D10004FF4006102F056FE002818BF012080BD5C
:103D200080B582B001208DF80700FFF7BBFF0028A7
:103D300004BF00208DF807009DF8070002B080BD89
:103D400080B513460A46014641F6F070C2F2000003
:103D500003F0E4FA002818BF012080BD40F6D0002F
:103D6000C2F20000012101607047000080B51346D7
:103D70000A46014641F6F070C2F2000003F06AFB09
:103D8000002818BF012080BD41F62C10C2F20000AF
:103D900001210160704700002DE9F04184B040F23C
:103DA000CE07C2F20007387800285CD041F64C34C8
:103DB000C2F20004204600F049FB20460A2100F030
:103DC000C7FA204600F0DCF980054AD50020ADF89E
:103DD0000C00CDE9010041F64C30C2F2000000F0C9
:103DE000D1F980B200EE100A9FED251AB8EEC00A94
:103DF00020EE010A10EE100A49F0B2F805460E4610
:103E000001AC20A120462A463346FCF75FFB4BF26B
:103E1000E858C2F20108D8F80400214631F0ACFDA0
:103E20009FED130B284653EC102B314648F09EFDB6
:103E30009FED110B53EC102B48F088FA48F0D8FC9A
:103E4000054612A120462A46FCF740FBD8F8080098
:103E5000214631F091FDD8F80000294600221EF0DD
:103E6000C9F80020387004B0BDE8F08100BF00BF81
:103E70000CE53594D7503A40E33594D7509E6CC04A
:103E80003D0AA13B252E31665600000025642525FC
:103E900000000000B0B584B0044633F04FFB20466C
:103EA00033F03EFB40F2985200256421C2F200023A
:103EB000CDE90025029110A300210022039510F006
:103EC00043FC0121044635F075FF4BF2E855C2F280
:103ED00001050BA1686031F04FFD2046022135F04D
:103EE00069FF08A1A86031F047FD2046032135F0A5
:103EF00061FF286004B0B0BDE794B5E58E8B00008B
:103F00003056000030250000FEE7000044F2344047
:103F1000C4F20100502101607047000044F23440B7
:103F2000C4F20100A02101607047000041F6943006
:103F3000C2F2000000F072BB41F6F430C2F20000A1
:103F400000F06CBB80B541F6D450C2F2000000F026
:103F500065FBBDE8804006F0E9BD000041F6346035
:103F6000C2F2000000F05ABB10B541F6B444C2F2F0
:103F70000004204600F052FB94F83500012818BFD9
:103F800010BD41F64420C2F20000006821F026FD79
:103F900040F60000C4F2020010210122BDE81040EA
:103FA00000F02CBE41F65440C2F2000000F036BBD7
:103FB00041F61450C2F2000000F030BB41F69460AC
:103FC000C2F2000000F02ABB41F67450C2F20000B9
:103FD00000F024BB704700004FF4804000F01EBD8D
:103FE000202000F01BBD0000EFF3108072B600BF70
:103FF000FEE7000080B541F63423C2F200035A7A8E
:10400000002A1CBF012080BD93F809C0864600200D
:1040100003F80C005A7A03EB8202C2F804E05A7AE1
:104020001A44107293F809C00CF101025A720CF193
:1040300030020A7042F63A72A1F80120C87080BDC1
:1040400070B581B00022009290F83C20012A03D183
:104050000221084601B070BDD1F800E00122BEF196
:104060000A0F80F83C200BD31FFA8EF2520006682C
:1040700012FA8EF2A2F11E0306F10C0205E000BF57
:1040800006680EEB4E0306F110024FF0070C1568A0
:104090000CFA03F4A54315608D68146805FA03F360
:1040A000234313604968062906D801EB81010539CD
:1040B00006F134020AE000BF0C2901EB810187BF41
:1040C000413906F12C02233906F130021F2314680E
:1040D0008B4024EA030342F2043C1360C4F2010C57
:1040E0001FFA8EF3146803FA01F1ACF54173214312
:1040F0009E4211603ED1BEF1120F07D1DCF80010D4
:1041000041F48001CCF8001034E000BF2EF0010132
:1041100010292FD1DCF80010BEF1100F41F400017E
:10412000CCF8001026D140F2D001C2F2000109689B
:104130004DF68362C4F21B32A1FB0212910C01EB1B
:104140008101490000910099A1B1009901390091C4
:10415000009979B1009901390091009951B1009904
:1041600001390091009929B1009901390091009914
:104170000029EAD1002180F83C10084601B070BD4A
:10418000006C70470068C06C70470000002804BFD6
:104190000120704710B50446006C00283ED0206C0A
:1041A000C00645D4206C41F202118843023042F22D
:1041B00004312064C4F20101086820F44030086032
:1041C0000A6894E809101A43D4F810E00A604168BC
:1041D000012321F4807141604168C0F6007341EA17
:1041E0000E214160416821F040714160416841EA1F
:1041F0000C014160816821F400618160E16882689E
:1042000011438160A16A8268994222F070628260E3
:10421000826813D122F0405119E000BF204600F01F
:1042200065F80020606484F83C00206CC006B9D5B5
:104230000120002184F83C1010BD00BF11438160B3
:10424000816821F040518160E16A82681143816098
:10425000816821F0020181608168227E94F820301B
:1042600041EA42018160416883B141F400614160EB
:1042700041684EF2000221F460414160616ACFF66C
:10428000FF72436802EB4131194301E021F4006100
:104290004160C16A40F2000C21F47001C162E26920
:1042A0006169CFF6F07CC36A0CEB02521A43C2621A
:1042B000826822F40072826094F83020836843EAB6
:1042C00042228260826822F480628260826842EACE
:1042D0008121816000206064216C012262F3010170
:1042E0002164002184F83C1010BD000080B586B028
:1042F00042F200010068C4F20101002288420592E6
:10430000049201D006B080BD43F630000092C4F2A2
:104310000200436943F480734361436903F480738B
:104320000093009B0092036843F001030360006860
:1043300000F0010000900098012001900320CDE9D9
:10434000020201F5604001A900F074FB06B080BDD7
:1043500070B5044600680D468268520544BF806807
:104360005FEAC05038D400F04FFC21680A68920719
:1043700049D40646681C3CD0DDB90868800721D5C1
:10438000086880073FD4086880071BD50868800745
:1043900039D40868800715D50868800733D40868C1
:1043A00080070FD508688007E7D52CE008688007EC
:1043B00029D400F029FC801B2168A842F6D908689E
:1043C0008007F3D4206C40F004002064002084F8BF
:1043D0003C00032070BD00BF206C40F02000206432
:1043E000002084F83C00012070BD00BF08688007F1
:1043F00009D40868800706D4086880075CBF08688D
:104400005FEA8070F2D56FF012000860206C40F413
:1044100000702064886810F0405F01D1207E08B1F0
:10442000002070BDC86A10F4700F02D08868400583
:10443000F6D4206C20F480702064206CC004EFD48B
:10444000206C40F001002064002070BD10B581B0E8
:104450000021009190F83C10012903D1022001B005
:1044600010BD00BF0468012180F83C10214651F8BE
:10447000083FDB0729D10B684DF6836243F0010347
:104480000B6040F2D003C2F200031B68C4F21B327F
:10449000A3FB02239A0C02EB42020092009AA2B103
:1044A000009A013A0092009A7AB1009A013A009279
:1044B000009A52B1009A013A0092009A2AB1009AE9
:1044C000013A0092009A002AEAD10A68036CD207E6
:1044D0000AD143F01001016400F1440101200A688F
:1044E0001043086034E000BF40F2017223EA020288
:1044F00002F5807202646268520504D5026C0123E1
:1045000063F30D320264026C4FF0000C0023D204FE
:1045100044BF426C22F0060342F2000E436480F86E
:104520003CC06FF02200C4F2010E2060DEF80403EC
:10453000C00609D074450BD1DEF8080010F0405FCA
:1045400006D14FF08040CAE7086810F0405FF8D00D
:10455000002001B010BD000070B5866D044600F06B
:1045600053FB94F8351002292ED105462068216CA2
:10457000026822F016020260426922F08002426163
:1045800009B9A16C19B1016821F008010160016845
:1045900021F0010101600068C00708D000F034FB81
:1045A000401B052818D820680068C007F6D1E06DC8
:1045B0003F2101FA00F0B060012084F835000020AE
:1045C000002184F8341070BD802060650120002136
:1045D00084F8341070BD00BF20206065032084F88B
:1045E0003500002184F8341070BD000090F83510BB
:1045F000022909D1052180F835100068016821F0F1
:104600000101016000207047802141650120704751
:10461000406D704790F8350070470000F0B581B0EC
:1046200004460020009040F2D000C2F20000026870
:10463000D4E9166048F2B51337680821C1F64E3345
:1046400081403942A2FB03250CD0226813685B0726
:1046500008D5136823F004031360B160616D41F065
:104660000101616501218140394208D02268526907
:10467000120604D5B160616D41F00201616504214B
:104680008140394208D022681268920704D5B1608F
:10469000616D41F00401616510218140394217D0FC
:1046A00020680268120713D5B160026801685203DE
:1046B00008D4C90508D4016821F008010160216C03
:1046C00021B905E008033FD4216C09B12046884791
:1046D000E16D202000FA01F23A4241D020680368DF
:1046E000DB063DD5B26094F835300268052B1BD14E
:1046F00022F016020260426922F080024261226CBE
:104700000AB9A26C1AB1026822F0080202603F20C6
:104710008840B060012084F83500216D0020002918
:1047200084F8340052D157E00168520310D4C9050F
:1047300012D4016821F010010160012084F83500D5
:10474000002084F8340007E0A16C0029BED1BFE747
:10475000080301D4616C00E0E16B09B12046884791
:10476000606DC8B3606DC0072ED0052084F8350099
:104770002068A90A026822F001020260009A013250
:104780008A4200921AD80268D20717D0009A0132E2
:104790008A42009212D80268D2070FD0009A0132E2
:1047A0008A4200920AD80268D20707D0009A0132E2
:1047B0008A42009202D80268D207DFD1012084F831
:1047C0003500002084F83400E16C29B1204601B0A6
:1047D000BDE8F040084700BF01B0F0BD2DE9F04151
:1047E000044600F011FA002C4ED00546022084F851
:1047F00035000020216884F83400086820F00100AA
:1048000008600868C00708D000F0FEF9401B0528C2
:104810006CD821680868C007F6D1086848F23F02E2
:10482000CFF21002D4E90135024004F10C0E9EE8EB
:10483000C1511A432A4310433043384340EA080029
:10484000626A40EA0C00042A40EA0E0320D1D4E94F
:104850000A5E206B4EEA0302104308604869BEF10D
:10486000000F20F0030040EA050040F0040C15D0D2
:10487000B8F5005F42D0B8F1000F51D1022D52D0EF
:10488000012D47D055B94EE00120BDE8F08100BFB1
:104890000B60486920F0070040EA020C6FF00F003F
:1048A0004AF6AB2250FA81F0CAF6AA22A0FB0223F4
:1048B0001A094DF61403C0F604039A5C40F2FF3364
:1048C0005F284FF03F00C1F814C021EA030100FA4D
:1048D00002F088BF0431C4E9161288600023012267
:1048E0000020636584F83520BDE8F0810322202391
:1048F0000320636584F83520BDE8F081032DCDD811
:10490000012240230120DFE805F0030E030500BF6C
:10491000E7E700BFAEF1C070B0FA80F0400904E0F4
:10492000032D04D3BAD1CEF300600028B6D0012203
:1049300040230120636584F83520BDE8F081000044
:1049400070B590F834C0BCF1010F46D04FF0010CA7
:1049500080F834C0D0F858E090F835C0BCF1010FB1
:1049600038D14FF0020C80F835C04FF0000CC0F881
:1049700054C0D0F800C08468056CC06DDCF80060DD
:10498000402C26F48026CCF80060CCF804300B468E
:1049900004BF13460A463F2101FA00F0CCF8083064
:1049A000CCF80C20CEF80800DCF8000040F016002F
:1049B000CCF800002DB1DCF8000040F00800CCF885
:1049C0000000DCF8000040F00100CCF800000020FE
:1049D00070BD00BF002180F83410022070BD0000BF
:1049E000B0B5044600F010F9054640F20000C2F2EE
:1049F00000000078611C18BF044400BF00F004F9F7
:104A0000401BA042FAD3B0BD202805D0B0F5804F9E
:104A100018BF70471AF022BCFEF7CABE43F6144115
:104A2000C4F201010A68024214BF08607047FFF730
:104A3000EBBF00002DE9F04F82B043F6004C40F68A
:104A40000042C4F2010CC4F20202072300244FF01A
:104A500001094FF0000B4FF00008904208BF0323FC
:104A600000933FE0012204F00C030F259D402EEA45
:104A700005059A402A4346F82720DCF808204B68B1
:104A800042EA0A0743F60C45DE0258BF22EA0A074B
:104A9000CCF80870C4F201052A689E0242EA0A07AF
:104AA00058BF22EA0A072F60DCF804209E0342EA7E
:104AB0000A0758BF22EA0A07CCF80470DCF8002085
:104AC000DB0342EA0A0758BF22EA0A07CCF8007063
:104AD0000BF1020B08F10108BBF1200F04F10404F3
:104AE00000F082800A6809FA08FA12EA0A0FEFD089
:104AF000D1F8049009F00306721E012A16D88268C4
:104B00000323CF6803FA0BF5AA4307FA0BF73A43DE
:104B100082604268EF43C9F3001522EA0A0205FAEF
:104B200008F54FEA480E2A43426009E0032202FAE0
:104B30000BF2D743032EDE4602D1DE4603261DE0EC
:104B4000C2688D683A4005FA0EF52A43022EC2600B
:104B500014D16FF0030202EA58020244D2F8209006
:104B600004F01C060F230D69B34029EA0303B54086
:104B70002B431362D1F8049009F00306026806FA89
:104B80000EF33A401A4319F4403F4FF00109026016
:104B90009ED0002243F644070192C4F202073B680C
:104BA000ACF57E7643F480433B603B684FEA980760
:104BB00003F480430193019B002356F827E0C4F2DD
:104BC000020398423FF44FAF40F20042C4F20202A7
:104BD00090423FF447AF40F60002C4F20202904216
:104BE000009A08BF02223EE702B0BDE8F08F000045
:104BF0000069084018BF012070470000002A08BF64
:104C0000090481617047000044F66800C2F20300A5
:104C1000006870477047000070470000F0B581B031
:104C20000446006800254769426894F83E1002F483
:104C30008076FA0505D5002E1EBF6FF480724261A2
:104C40000125BA0505D5002E1EBF02356FF400728E
:104C500042617A0516D5AEB1628D94F83D30D4F834
:104C600030C0202908BF002A24D06FF48062402978
:104C700005F10405426101D0102903D1016841F416
:104C800000710160380507D536B1206808356FF42A
:104C90000061416101E000BF55B1206C40EA0501AF
:104CA0002046216401B0BDE8F04004F059BE00BFC9
:104CB00001B0F0BD03F0F701212909D0282B08BF6E
:104CC000BCF1210F04D06FF4806141610435D9E754
:104CD00094F83D10E26AB2F1080318BF0123203AAC
:104CE00018BF0122134208BF28291DD0212935D120
:104CF0000021CFF6FF71E16221212163202184F898
:104D00003D10002184F83E10416821F4E0614160CB
:104D10006FF480614161016821F480610160204687
:104D200001F07AF9AEE700BF0021CFF6FF71E16232
:104D3000416821F4E06141606FF480614161016884
:104D400021F48061016000202021206384F83D105F
:104D500084F83E00204600F0D9FB93E76FF48061B1
:104D600041618FE7F0B581B0076804467868E26A70
:104D700094F83E3094F83DE0402B01D0102B27D121
:104D8000BE697D69E90751D1B2F12A4F00F0A282D4
:104D9000B2F52A0F00F09E8200F400724FF0010C71
:104DA00029078CEA522C45D5002A43D0606B616CF0
:104DB000C9B2396118B1C06B002840F02281A06BE4
:104DC000002800F08782C06B002840F01A8181E241
:104DD000216C00F4007300290CBFBE6900267D69B8
:104DE000A90753D5002B51D0206C002818BFBE69ED
:104DF00094F83D0000F02800282840F0938078685F
:104E0000002320F480607860012020EA96013006BB
:104E10004FF0180058BF0C20225A204684F83C302E
:104E200001B0BDE8F040FFF7F7BE00BF810557D4E1
:104E30004FF0010CA90759D5BCF1000F56D194F8D9
:104E40003E30E06A226B94F83D10222940F0E08069
:104E5000216D002908BF402B00F0DA80216D002968
:104E600040F034812169B1F5404F40F02F8100209E
:104E7000009078690090B86900900098386840F414
:104E800080703860206D01306DE200BFE90655D5B5
:104E9000002B53D094F83D50786820F4E06078609F
:104EA0000020009078690090386840F00100386078
:104EB0000098386820F4806038607868000540F118
:104EC000428105F0F7002646222840F01B8156F863
:104ED000380F0168496826F80E1C36F80E1C19E1D7
:104EE000E06AB0F52A0F5DD1012060E079687207B1
:104EF00001F4006100F19680002940F0EB81690621
:104F000005F0040140F1AE8110F4806000F0AA8148
:104F1000002940F0A781204601B0BDE8F04004F030
:104F200059BE00BF0020009079690091B9690091D5
:104F3000009984F83C0001B0F0BD00BF0EF0F7010D
:104F4000212940F08580290605F0040240F14C81BA
:104F500010F4806000F04881002A40F0458194F808
:104F60003D00618D002900F0B581616A11F8012BC7
:104F70003A616162618D01396185618D002908BFE7
:104F8000292840F0A7817868282120F48060786083
:104F900021202063204684F83D1001B0BDE8F04098
:104FA00001F03AB8E06AB0F12A4F01D10820E0627E
:104FB00094F83E0040280BD1206D616C002801F070
:104FC000FE0018BF40F00100386101B0F0BD00BF25
:104FD0002069B0F5804F69D194F83D00616C2128BB
:104FE00001F0FE0118BF01313961606B08B1C06B7F
:104FF00038B9A06B002800F06D81C06B002800F06C
:105000006981786840F40060786001B0F0BD00BF4D
:105010000020009078690090B8690090009801B075
:10502000F0BD00BF002940F05581290605F00401BC
:1050300040F1248110F4806000F02081002940F0CC
:105040001D81204601B0BDE8F04004F0A7BE00BFBE
:10505000690605F0040240F1D98010F4806000F088
:10506000D580002A40F0D28094F83D00618D00295F
:1050700000F030813969626A1170616A01316162E0
:10508000618D01396185618D002908BF2A2840F0B2
:1050900021812068416821F480614160222028211B
:1050A0002063204684F83D10D7E000BF206D002823
:1050B00000F0BE80206D012840F00C81606C06215C
:1050C00001EAD010F130386101B0F0BD618D61B1FD
:1050D000618D012940F0E280202818BF082840F0A7
:1050E000FB80386820F48060386000200090786988
:1050F0000090B86900900098386840F400703860FB
:1051000030E100BF56F8340F0168496826F80A1CE0
:1051100036F80A1C19B1216C41F004012164796848
:1051200021F400617960FFF775FA01280BD030682F
:1051300049F2CD61C0F600010165FFF757FA10B1E1
:105140003068016D8847608D60B12068416949070A
:1051500030D4416949063AD4608D18B1206C40F0D2
:1051600004002064206C28B1204601B0BDE8F04066
:1051700004F0F6BB2A2D07D100202063282084F8F4
:105180003D00204600F046FF94F83D00282857D106
:105190000020CFF6FF70E06200212020216384F818
:1051A0003D00204684F83E1001B0BDE8F04000F01C
:1051B000ADB900BF0069616A0870616A2068013199
:1051C0006162618D0139618541694906C4D5006913
:1051D000616A0870606A01306062608D01386085C4
:1051E000608D0028BAD1BDE7002A18BF002B71D00E
:1051F000608D00286ED0606A10F8011B3961606212
:10520000608D0138608501B0F0BD00BF002A18BF75
:10521000002B5FD0608D00285CD03869616A08700F
:10522000606A01306062608D0138608552E000BFC5
:10523000606C062101EAD010F030386101B0F0BD99
:10524000206B222818BF222D44D100212020216369
:1052500084F83D00204684F83E1001B0BDE8F040DF
:1052600000F0D8BEB1FA81F0400950EA0C0031D10B
:10527000204601B0BDE8F04004F038BCB1FA81F03E
:10528000400950EA0C0025D1BEF1210F1AD1204669
:1052900001B0BDE8F04004F03FBD00BF618D0229C0
:1052A0000CD110283CD8012114228140C0F2010207
:1052B000114235D04FF4806238E000BF396841F4C4
:1052C000806135E0402B05D1204601B0BDE8F040BB
:1052D00004F0BEBD01B0F0BD10F5803F0CD13868C0
:1052E00020F480603860786800057FF5FEAE38688D
:1052F00020F4806038602EE0122A02D101287FF469
:10530000F0AE1028F3D8012101FA00F01421C0F208
:1053100001010842EBD0386840F4806038601AE040
:1053200039684FF4006221F48061396039681143B3
:105330003960796809050ED5421E1F2A16D8012149
:10534000914048F28102C8F2000211420ED0786802
:1053500040F4805078600020009078690090B8692F
:10536000009000980020206501B0F0BD10F5803F4E
:10537000EDD0F0E741F69C71C2F20001884218BFFF
:10538000704741F69C70C2F2000009F065BD000054
:10539000006C704770B5B8B3044690F83D0028B96A
:1053A000002084F83C00204600F00EFD242084F804
:1053B0003D002068016821F001010160016841F4AD
:1053C00000410160016821F40041016001F0D4F85E
:1053D00048F28041C0F21E0140F60013D4F804E008
:1053E00088424FF00001C0F23D0348F2A16C4FF03B
:1053F000000238BF01219842C0F2010C38BF0122DF
:10540000E64538BF0A460AB1012070BD4DF68361FA
:10541000C4F21B31A0FB01122168950C4B684FF4BC
:10542000967623F03F0343EA9243754344F6D356FE
:105430004B60C1F262060B6AA5FB0656B50923F064
:105440003F03E64538BF950C6A1C1A430A62CA69D5
:1054500048F2A0664CF6FF73C0F20106B64522EA98
:1054600003020BD801384FEA4E03B0FBF3F00130D2
:105470006FF31F30042898BF04201EE0A368013892
:1054800063B119230EFB03F3B0FBF3F001306FF3AC
:105490001F3078B100F5804008E000BF0EEB4E03EE
:1054A000B0FBF3F001306FF31F3028B100F500407E
:1054B00003E000BF012000E001201043C86108683C
:1054C000D4E9072320F0C00010431843086088681F
:1054D00048F2FF3204F10C0690434CCE18431043BF
:1054E000A5698860C86820F0FF0030432843C86081
:1054F000086840F00100086000202021206484F842
:105500003D10206384F83E0070BD0000704700002D
:105510007047000041F69C71C2F20001884208BF4A
:1055200009F0A4BC7047000070B582B004460020AA
:10553000019094F83D00202837D140F2D000C2F20B
:10554000000000684BF28956C008C1F2F846A0FB83
:105550000606300A1926704301900198013801901F
:10556000019838B32568A86980071AD501980138D1
:1055700001900198F0B12568A869800711D50198BC
:10558000013801900198A8B12568A869800708D55D
:10559000019801380190019860B12568A8698007D9
:1055A000DBD494F83C00012816D10226304602B024
:1055B00070BD00BF00202021206384F83D1084F8D6
:1055C0003E00216C012641F02001216484F83C005A
:1055D000304602B070BD00BF012084F83C0028684E
:1055E000C00703D1286840F0010028602868002621
:1055F00020F400602860222084F83D00102084F808
:105600003E00266462626385638D0020CFF6FF70E2
:105610002385E06261642BB3A06BA8B349F63D011A
:10562000C0F6000149F2F17C0026C0F6000CC0E98A
:105630000F1605F11001C0E91166C0E913C6FFF7A6
:105640007FF968B3202084F83D0084F83E60206C28
:1056500040F01000206484F83C600126304602B01F
:1056600070BD00BF84F83C60686840F4E06068602A
:10567000286840F480602860286840F480702860C2
:10568000304602B070BD00BF202084F83D000020ED
:1056900084F83E00216C012641F0800195E700BFAF
:1056A0002068016841F480610160016841F4807103
:1056B000016084F83C60416841F440714160416898
:1056C00041F400614160304602B070BD70B582B0F7
:1056D00004460020019094F83D00202837D140F284
:1056E000D000C2F2000000684BF28956C008C1F237
:1056F000F846A0FB0606300A19267043019001986F
:1057000001380190019838B32568A86980071AD537
:105710000198013801900198F0B12568A8698007C7
:1057200011D50198013801900198A8B12568A869A0
:10573000800708D5019801380190019860B125686B
:10574000A8698007DBD494F83C00012816D1022612
:10575000304602B070BD00BF00202021206384F8D5
:105760003D1084F83E00216C012641F020012164A7
:1057700084F83C00304602B070BD00BF012084F8C0
:105780003C002868C00703D1286840F00100286069
:105790002868002620F400602860212084F83D005D
:1057A000102084F83E00266462626385638D0020C9
:1057B000CFF6FF702385E06261643BB3606BB8B3E2
:1057C00049F2F17C49F63D01C0F6000C0026C0F616
:1057D0000001C0E913C605F1100CC0E90F1611460F
:1057E0006246C0E91166FFF7ABF868B3202084F881
:1057F0003D0084F83E60206C40F01000206484F886
:105800003C600126304602B070BD00BF286840F4FD
:1058100080602860286840F48070286084F83C60CC
:10582000686840F4E0606860304602B070BD00BF58
:10583000202084F83D00002084F83E00216C0126E1
:1058400041F0800193E700BF206884F83C60416824
:1058500041F440714160416841F400614160016878
:1058600041F480610160016841F48071016030465B
:1058700002B070BD70470000704700002DE9F0478E
:1058800084B0984617460E460446FFF7BDF994F8D3
:105890003D10202923D1054620688169890719D543
:1058A000FFF7B2F9401B1928F6D900202021206308
:1058B00084F83D1084F83E00206C04F13C0940F06F
:1058C000200020640220002189F8001004B0BDE807
:1058D000F08700BFA14619F83C1F012904D102201E
:1058E00004B0BDE8F08700BF012289F800200368FA
:1058F000DDE90D1A0C9ADB0703D1036843F00103BD
:105900000360036823F400630360222084F83D00F1
:10591000402084F83E000020206462626185608D32
:10592000314620850020CFF6FF70E06220463A46DF
:105930004346CDF800A0019504F0E4FA20B101201F
:1059400004B0BDE8F08700BF208DA8B102282BD09D
:10595000012835D121680A6822F480620A60002299
:1059600003924A6903928A690392039A0A6842F48D
:1059700000720A602CE000BF00200390206841699B
:105980000391816903910399016841F400710160F9
:10599000202084F83D00002084F83E00002189F892
:1059A000001004B0BDE8F08721680A6822F4806224
:1059B0000A600A6842F400620A600022039202E070
:1059C0000021039121684A6903928969039103992F
:1059D0000AF1010680B2032818D8022842D0012813
:1059E00056D1BAF1000F00F0AB802068014651F8A3
:1059F000142F520600F1A8800868C00600F1E2806A
:105A0000FFF702F9401B5045EFD9D0E0BAF1000F83
:105A100010D000BF2068014651F8142F52060ED452
:105A20000868C00600F1CE80FFF7EEF8401B504535
:105A3000F0D9BCE020684169490640F1B1800069B5
:105A4000616A0870606A2268411C208D61620138B9
:105A50002085638D013B638553695B0740F180803E
:105A6000106973E020684169490747D4002E59D076
:105A7000BAF1000F00F09980FFF7C6F8401B5045BF
:105A800000F29580206841694907F5D536E000BFEE
:105A90002068416949070FD4002E65D0BAF1000F84
:105AA00000F08380FFF7B0F8401B504500F27F8084
:105AB000206841694907F5D5016821F480610160DA
:105AC0000069616A0870606A218D01300139606285
:105AD00021852068618D01396185416949070DD4AF
