:020000040800F2
:10000000A0AE0320F102000809C40008B58600086C
:10001000ADB60008A9300008F9E6000800000000AD
:1000200000000000000000000000000065D800088B
:10003000593100080000000071CA000869D80008A2
:100040000B0300080B0300080B0300080B03000858
:100050000B0300080B0300080B0300080B03000848
:100060000B0300080B0300080B0300080B03000838
:10007000AD300008B9300008C5300008D1300008A4
:10008000DD3000080B0300080B0300080B03000819
:100090000B0300080B0300080B0300086531000880
:1000A0002DD900080B03000839D900080B030008FC
:1000B0000B03000845D9000851D900080B030008BC
:1000C0000B0300080B0300080B0300080B030008D8
:1000D0000B0300080B0300080B03000805E60008EB
:1000E0005D3100080B0300080B0300080B03000838
:1000F0000B03000875D900080B0300080B03000868
:100100000000000095CB00080B0300080B0300085B
:1001100000000000000000005DD9000869D9000857
:100120000B030008F53000080B030008013100083C
:100130000B0300080B0300080B0300080B03000867
:100140000B0300080B0300080B0300080B03000857
:100150000D3100084D3100080B0300087DE6000852
:10016000C5860008B98600080000000000000000F5
:10017000000000000000000000000000000000007F
:100180000B0300080B030008000000000000000043
:100190000B0300080B030008000000000000000033
:1001A000000000000000000000000000000000004F
:1001B0000B03000800000000000000000B03000813
:1001C0000B03000800F002F800F082F80AA090E8A3
:1001D000000C82448344AAF10107DA4501D100F002
:1001E00077F8AFF2090EBAE80F0013F0010F18BF4D
:1001F000FB1A43F001031847C85B0500E85B0500E4
:100200000A444FF0000C10F8013B13F0070408BF3C
:1002100010F8014B1D1108BF10F8015B641E05D0DA
:1002200010F8016B641E01F8016BF9D113F0080F8F
:100230001EBF10F8014BAD1C0C1B09D16D1E58BF21
:1002400001F801CBFAD505E014F8016B01F8016B58
:100250006D1EF9D59142D6D37047000000230024CB
:1002600000250026103A28BF78C1FBD8520728BFC6
:1002700030C148BF0B60704766290BF06FA165293C
:100280000BF06CA167290BF069A161290BF068A143
:10029000642900F05781782900F090810020704790
:1002A0001FB54BF046F99DE8030000F01FFC01F07C
:1002B000CBF80400002000214AF0B4FA401C606032
:1002C000002000214AF098FAE0601FBD10B510BD73
:1002D00001F004FA1146FFF7E3FF41F09FFB01F044
:1002E000A7FC03B4FFF7F2FF03BC01F0A3F8000082
:1002F0000948804709480047FEE7FEE7FEE7FEE7BA
:10030000FEE7FEE7FEE7FEE7FEE7FEE704480549F5
:10031000054A064B7047000019D90008C5010008BE
:10032000A02E0320A0AE0320A06E0320A06E032009
:1003300070B5064600F0BEFB056806F10B0020F024
:100340000704B4429CBF002070BD2B466A68BAB156
:100350001068A04210D304F1080188423CBF5068E5
:10036000586007D35168101941601168091B01607A
:1003700058601460101D70BD13465268002AE7D102
:100380002146284600F09EFB0028DED170BD70B5E6
:100390000446051F00F08EFB0068002C14BF446863
:1003A00070BD002C18BFAC423CBF20466468F8D337
:1003B00001680A18AA4218BF456003D12A68054699
:1003C0001144016028684119A1421CBF6C6070BDD6
:1003D0006168696021680844286070BD53EA020CB6
:1003E00000F069802DE9F04B4FF00006002B1FBF95
:1003F000B3FA83F503FA05F424FA05F65E4012BF5A
:100400001643B2FA82F502FA05F4C5F120051EBFC3
:1004100022FA05FC44EA0C04203556EA044C4FEA63
:10042000144418BF641C4FF000084FF000099042BC
:1004300071EB030C39D3002919BFB1FA81F701FA26
:1004400007F6B0FA80F700FA07F6C7F120071EBFDB
:1004500020FA07FC46EA0C062037B6FBF4FCA7EBB3
:100460000507103F07F01F0BCBF120062CFA06F60C
:100470000CFA0BFB44BFB3460026202FA4BF5E46F8
:100480004FF0000B5BEA060C08BF4FF0010B19EBB5
:100490000B0948EB0608ABFB027C06FB02CC0BFB0E
:1004A00003CCC01B71EB0C01C1E70B460246414671
:1004B0004846BDE8F08B13B5084318BF4FF0FF3036
:1004C0000146AFF30080BDE81C4070470FB41CB577
:1004D000074B06AA7B4469460090059800F031FF5F
:1004E0000020694600F040FF1CBC5DF814FB0000D2
:1004F000910E000070B5044685690068C10601D5FB
:10050000302600E02026C00707D070BDD4E90121C5
:1005100030469047206A401C20626D1EF6D570BDA3
:1005200070B5044685690078C00707D170BDD4E96D
:10053000012120209047206A401C20626D1EF6D5C4
:1005400070BD00002DE9F0410646002410687529B1
:10055000314616A510D0AFF30080002802DA4042E1
:1005600013A507E031688A0701D512A502E0490703
:1005700004D511A5012401E0AFF3008000210A2277
:1005800006F1240709E0B0FBF2FCB0FBF2F302FB3A
:100590001C00303078541846491C0028F3D12346FB
:1005A0002A463046BDE8F04100F0E1BA0000000004
:1005B0002D0000002B0000002000000070B5044654
:1005C0000D4621461068AFF300802188090502D549
:1005D0000F4A7A4402E00E4A7A440E32002104F1B6
:1005E000240305E000F00F060009965D5E54491CE7
:1005F0000028F7D120780023000704D5702D02D001
:1006000009B1022311322046BDE8704000F0AFBAB4
:100610008AB004002DE9F05F894604464FF0000AD5
:10062000DFF874B1FB44C0F820A02046E168884799
:10063000002874D0252806D0D4E901219047206AEB
:10064000401C2062F1E700265F462046E1688847AB
:100650002028054607DB312D05D2781910F8200C2B
:1006600008B10643F1E7B00701D526F00406C4F847
:100670001CA00027C4F818A02A2D09D028464AF04B
:1006800052F838B304EB8708303DC8F8185019E029
:1006900059F8041B204604EB87029161E168884702
:1006A000012F054618D1E069002820DA26F020063F
:1006B0001DE0D8F8180000EB800005EB4000303852
:1006C000C8F818002046E168884705464AF02BF82C
:1006D0000028EED1012F0AD02E2D08D12046E16846
:1006E00088477F1C0546022F46F02006C4DBA06920
:1006F000002803DA404246F00106A061F00701D06D
:1007000026F010066C2D0BD0682D09D04C2D39D059
:100710006A2D35D0742D35D07A2D33D016E038E0DF
:10072000E1682F4620468847B842054609D16C2F1C
:1007300026D04FF48060E16806432046884705468E
:1007400004E06C2F1AD04FF4807006430DB3A5F16E
:100750004100192802D8203546F400664A46294649
:10076000204626604E46FFF787FD80B101280BD05A
:10077000F61D26F0070000F1080956E74020E4E7DF
:100780008020D8E70020D6E706F104094DE7284687
:1007900052E7206ABDE8F09F60B00400401ECAB274
:1007A00010F8011F8A4202D00029F9D100207047B9
:1007B00040EA010310B59B070FD1042A0DD310C8DE
:1007C00008C9121F9C42F8D020BA19BA884201D930
:1007D000012010BD4FF0FF3010BD1AB1D30703D078
:1007E000521C07E0002010BD10F8013B11F8014B2E
:1007F0001B1B07D110F8013B11F8014B1B1B01D14A
:10080000921EF1D1184610BD40EA0103024630B5F0
:100810009B0710D14FF0013400E008C208C91D1B2E
:100820009D4315EAC41FF8D013F0FF0102F8011B25
:100830000DD01B0AF8E711F8013B002B02F8013B31
:1008400005D011F8013B002B02F8013BF3D130BD7C
:1008500010B5431C02E010F8011B71B18107FAD1F9
:100860004FF0013202C88C1A8C4314EAC211F9D03D
:10087000C01A0A0603D0C01E10BDC01A10BD0A045B
:1008800001D0801E10BD0902FCD0401E10BD032AFD
:1008900040F2308010F0030C00F0158011F8013B9D
:1008A000BCF1020F624498BF11F801CB00F8013B84
:1008B00038BF11F8013BA2F1040298BF00F801CB48
:1008C00038BF00F8013B11F0030300F02580083A1F
:1008D000C0F0088051F8043B083A51F804CBA0E876
:1008E0000810F5E7121D5CBF51F8043B40F8043BCB
:1008F000AFF30080D20724BF11F8013B11F801CB00
:1009000048BF11F8012B24BF00F8013B00F801CBD0
:1009100048BF00F8012B704710B5203AC0F00B809B
:10092000B1E81850A0E81850B1E81850A0E81850E5
:10093000203ABFF4F5AF5FEA027C24BFB1E818505B
:10094000A0E8185044BF18C918C0BDE810405FEABD
:10095000827C24BF51F8043B40F8043B08BF704739
:10096000D20728BF31F8023B48BF11F8012B28BF3E
:1009700020F8023B48BF00F8012B704702F0FF034C
:1009800043EA032242EA024200F00AB802F0FF03FF
:1009900043EA032242EA024200F024B84FF0000288
:1009A0000429C0F0128010F0030C00F01B80CCF181
:1009B000040CBCF1020F18BF00F8012BA8BF20F8EF
:1009C000022BA1EB0C0100F00DB85FEAC17C24BF43
:1009D00000F8012B00F8012B48BF00F8012B7047ED
:1009E0004FF0000200B5134694469646203922BFC8
:1009F000A0E80C50A0E80C50B1F12001BFF4F7AF13
:100A0000090728BFA0E80C5048BF0CC05DF804EBF4
:100A1000890028BF40F8042B08BF704748BF20F862
:100A2000022B11F0804F18BF00F8012B7047000017
:100A300030B44FF0013C50F8042B51F8043BCCFA91
:100A400052F4D51A20D1FCB950F8042B51F8043BCC
:100A5000CCFA52F4D51A17D1B4B950F8042B51F886
:100A6000043BCCFA52F4D51A0ED16CB950F8042BD1
:100A700051F8043BCCFA52F4D51A05D1002CDAD047
:100A800030BC4FF00000704729BAB1FA81F111F083
:100A90001801D1F120008440F2D1CA40CB4012F0BD
:100AA000FF0213F0FF0330BCD01A70477047704745
:100AB0007047000000487047780100207047704779
:100AC0007047704738B504460A4600206946AFF3C0
:100AD0000080002808BF38BD02460099204600F07B
:100AE000BBFC012038BD012000F0F0BDF8B5AFF32C
:100AF0000080054600200C46102000BF0646A819BD
:100B0000A0420DD9324669460020AFF300800700AD
:100B100008BF00F0DBFD0098A04218BF0546C419CD
:100B2000FFF7C8FF05600746F01D20F007004619D3
:100B3000284600F00AF8B44208BFF8BDA21B3146AF
:100B40003868BDE8F84000F087BC00210160C0E9CA
:100B5000011070471020704710B500F079FC006854
:100B600010BD10B5044600F073FC046010BD2DE903
:100B7000F0470D4699469246044600F12408016864
:100B8000880604D5E06921F01001216000E0012011
:100B9000A84201DD471B00E00027A1697A1902EB9A
:100BA0000900081AA0612078C00602D42046FFF789
:100BB000A1FC002608E0D4E901211AF806009047BC
:100BC000206A401C761C20624E45F4DB2078C0066B
:100BD0000AD52046FFF78EFC06E0D4E9012130203B
:100BE0009047206A401C2062381EA7F10107F4DC00
:100BF00007E0D4E9012118F805009047206A401C5D
:100C00002062281EA5F10105F3DC2046FFF788FCD1
:100C10002078000602D50220BDE8F0870120FBE71E
:100C20002DE9FF4F0C461E464FF0FF378BB0D2E93F
:100C30000001DDF860800A908A46C1F30A5505B9C3
:100C40003D46002108464FF00000BAF1000F00F4C5
:100C5000400005DA00EB80004FF4400101EA50004B
:100C60004FEA9059B9F1010F00DDB9460A9850EAF0
:100C70004A000ED044F61050A5F2FF3545432F141C
:100C8000B8F1000F1ED07542291E1EDDC9F1000209
:100C90001CE0B8F1010F4FF0000001D0302103E05B
:100CA000F24305E02154401CB042FBDB30460022F9
:100CB000002121540B99C1F80880C1E900200FB030
:100CC000BDE8F08FBD1B6D1CDEE74A4600DA6942C5
:100CD00006A800F089FC06AB93E8070003AB83E8A5
:100CE000070050460A9948F002FC8DE80700A0F57D
:100CF00000501F3800900398002D0ADD42F21F01BA
:100D00004A460844002303A90390684648F0AEFE13
:100D100009E0A0F500504A461F38002303A90390BC
:100D2000684648F0CDFE8DE807000004000C03D0B3
:100D30004FF0FF30410800E01046B8F1000F03D03B
:100D40000022009215461EE0751E05D400F09EFBA1
:100D5000303262556D1EF9D5B3460122084302D0E8
:100D600000227F1C04E02078302801D100227F1E61
:100D7000002A099784D01DE0112D07DA00F086FBC8
:100D8000303262556D1C50EA0102F5D1084302D0A1
:100D90000098C8B10EE00021681E05E0235C625C8B
:100DA00063542254401E491C8142F7DBAB46A81B0A
:100DB000401E0990002004F80B000B98099AC0F817
:100DC0000880C0E9002B7AE711264FF0000857E7AA
:100DD0002DE9F04F88460446D21D22F0070191B05C
:100DE000D1E90001CDE90A0148F0B6FF02460B98AF
:100DF000C00F01D02D2007E02068810701D52B20EE
:100E000002E0202101EAC000032A099001D0072A4C
:100E100005DB03464146204600F086FB0BE12078C7
:100E2000800601D5E06900E00620B8F1650F814633
:100E300006D0B8F1660F18D0B8F1670F70D131E065
:100E40000020B9F1110F009001DB112301E009F13D
:100E500001030AAA01A90CA8FFF7E2FEDDE90C7064
:100E6000002609F10105834647E001204B4600902A
:100E70004FF000470AAA01A90CA8FFF7D1FEDDE94F
:100E80000DB00C995D46002610B909F101000D184E
:100E9000B9EB050003D4C0F1FF3609F10105A5EB5C
:100EA00009002BE0B9F1010F01DA4FF00109002030
:100EB000B9F1110F0090484601DD112300E003460F
:100EC0000AAA01A90CA8FFF7ABFEDDE90C704D469C
:100ED00000268346207800070AD4AB4500DA5D4639
:100EE00001A8012D04DD411911F8011C302907D09A
:100EF0004F4502DA17F1040F04DA012082460FE0B1
:100F00006D1EEEE7002F02DCED1B3E4403E0781C73
:100F1000A84200DD7D1CB81B00F1010A4FF000471C
:100F20002078000703D4AA4501DB4FF0FF3A0021E7
:100F3000B7F1004F0DF143088DF8431024D0022083
:100F40002B23002F01DA7F422D230A21021EA0F15C
:100F5000010000DC5FB197FBF1FC97FBF1F201FBB4
:100F60001C7C17460CF1300C08F801CDEEE7A8F117
:100F7000010003702188090501D5452100E06521A4
:100F8000A0F1010800F8011C09980FA9A1EB0807BE
:100F9000FF1D00B10120411901EBEA70A16938443D
:100FA000081A401EA0612078C00602D42046FFF730
:100FB000A1FA099828B1D4E901219047206A401C80
:100FC00020622078C00622D52046FFF793FA1EE063
:100FD000002E04DBB34502DD01A8805D00E0302077
:100FE000D4E901219047206A401C2062761CAAF1B6
:100FF00001005FEA000A0AD100F026FAC068016821
:10100000405CD4E901219047206A401C2062281EE0
:10101000A5F10105DCDC07E0D4E9012118F8010B9A
:101020009047206A401C2062381EA7F10107F3DCBC
:101030002046FFF775FA032011B041E62DE9F04F85
:1010400004460D46D21D22F0070089B0D0E9009772
:101050004846394648F080FE0246F80F01D02D235D
:1010600007E02068810701D52B2302E0202101EA57
:10107000C0038DF820300BB1012000E00020032ACE
:10108000824601D0072A04DB2946204600F04CFAAC
:101090003FE12078800601D40D2500E0E569C7F323
:1010A0000A560D2D49DA00214FEA175B08464FF02A
:1010B0000000002F00F4400007DA00EB80004FF43E
:1010C000400100EBD07001EA60008115012901DDCB
:1010D0004FF0FF3100224FEA850CBCF1180F06D308
:1010E0001346ACF118004FF08052C24003E04FF4B9
:1010F000801323FA0CF30CF10C0CBCF1200F04D379
:10110000ACF1200C09FA0CF001E007FA0CF0002910
:101110004FF0004801DD18B90FE00ED140450CD367
:1011200019EB02095F4121B9404502D19F4329EAE9
:101130000209BBEB175F00D0761C2088000502D5A2
:101140007B48784402E07A487844193808AA30236A
:1011500002F80A30037C0AF10101002E0AF1020AAA
:1011600053546A4602DC4FF0300101E04FF0310188
:101170004FF001088DF8001002D0A6F2FF3603E010
:1011800059EA470100D06B4E002D02DC2178090797
:1011900004D54FF002082E218DF80110C44600211D
:1011A0000BE0C7F303433F01C35C491C6D1E02F80B
:1011B0000830052908F1010801DA002DF1DC0021D1
:1011C0000CE000EB1973491C1B786D1E082902F80E
:1011D00008304FEA091908F1010801DA002DF0DCA6
:1011E00021688B0602D516E0A8F10108E04505DD6F
:1011F00002EB080313F8013C302BF5D0B8F1000FD7
:1012000009DD02EB080313F8013C2E2B03D109077B
:1012100001D4A8F10108002D05DD3E2102F80810D7
:101220006D1E08F10108407C002E02F8080008F14C
:10123000010804DA2D20764202F8080002E02B2093
:1012400002F808000A214FF47A70864208F101087A
:101250000BDB96FBF0F3303302F8083096FBF0F32B
:1012600008F1010800FB136601E0642E0CDB64202A
:1012700096FBF0F3303302F8083096FBF0F308F1F8
:10128000010800FB136601E00A2E06DB96FBF1F075
:10129000303002F8080008F1010896FBF1F001FB7C
:1012A0001060303002F80800A16908F1010808EB6D
:1012B000050202EB0A00081AA0612078C00602D4D9
:1012C0002046FFF717F9216A08AE01EB0A002062F9
:1012D00004E0D4E9012116F8010B9047BAF1010AA4
:1012E000F7D22078C00602D52046FFF703F96E46F4
:1012F00009E016F8010B3E280FD0D4E901219047F0
:10130000206A401C2062B8F10108F2D22046FFF7A3
:1013100007F909B00320BDE8F08F206A2844206255
:1013200003E0D4E90121302090476D1EEBD3F8E7AC
:1013300066A5040002FCFFFF01694A1C02610878EF
:10134000704700B58FB0CDE9013100210591054905
:101350007944CDE9031011466846FFF75BF90FB0F9
:1013600000BD0000E5FFFFFF0A6802F8010B0A60FC
:10137000704700000FB40B0010B54FF000048AB0A6
:101380000FA900910E99CC60234C7C44234A7A44E7
:10139000CDE9064200D004236FF00042CDE90132CE
:1013A0001F4A7A446B460892024600204AF03AF9F6
:1013B0000AB010BC5DF814FBF0B507464FF0FF30E3
:1013C0001E4615460C463B4685B06A460091CDE95F
:1013D000010131460020049004A8FFF7CBFF0499D7
:1013E0000346601825B109B1024600E022462A6092
:1013F00000290ED0002B02DD0099814209D03B4626
:101400006A463146001B0094CDE9010404A8FFF7A9
:10141000B1FF05B0F0BD00001B0200003502000066
:101420007101000008B569468DF800000320ABBECD
:1014300008BD000001491820ABBEFEE726000200EF
:10144000004870477001002000487047900100205C
:101450000048704770010020034640688C46002811
:1014600018BF88423CBF03464068F8D31868184448
:10147000884207D00CF1030020F00700001D411A3C
:10148000521A0146081D0A60FEF781BF30B5B0F15F
:101490000A0271F100034FEA900E4EEA817EB0EB32
:1014A0000E0061EB91014FEA101E4EEA017E10EB37
:1014B0000E0041EB11114FEA102E4EEA016E10EBB7
:1014C0000E0041EB11214FEA104E4EEA014E10EB97
:1014D0000E0041EB1141401841F100014FEAD000EC
:1014E00040EA41704FEAD1014FEA810444EA907426
:1014F00010EB800544EB01046D1944EB0404521B0E
:10150000A3414FF0000348BF0A3200D530BD401C54
:1015100041F1000130BD10B5044600F005F9006846
:10152000005D00F0010010BD2DE9F0411F460446AA
:1015300003260168072A01F4006004DB08B116A540
:1015400005E016A503E008B115A500E015A521F0FA
:1015500010002060A069C01EA0610FB1401EA061F4
:101560002046FEF7C7FF4FB1D4E901213846904726
:10157000206A401C2062C01C206206E0206AFAE754
:10158000D4E9012115F8010B9047761EF8D22046C8
:10159000FEF7C6FFBDE8F0814E414E006E616E0061
:1015A000494E4600696E6600426842B1016811F812
:1015B000013B23B1521EC0E90012184670470121B9
:1015C000C160881E704742685AB1C368016843B958
:1015D00083688B4205D0491E521CC0E900120020CE
:1015E00070474FF0FF3070472DE9F04781461646AF
:1015F0008AB0354878440DC88DE80D0032487844EB
:10160000801C03AC0DC884E80D0041F69B300844F3
:10161000372190FBF1F290FBF1F5A5F1800501FB7C
:1016200012041B3C02D56442012000E00020DFF8D8
:1016300098A080460027FA44AAF1BE0A0EE0E0070F
:101640000AD03246684607EB470101230AEB8101C5
:1016500048F036FA8DE8070064107F1C002CEED1AC
:10166000194F7F44AE3F19E0E80715D007EB04108F
:101670000DF1180A90E80E008AE80E00C068F042EA
:1016800001D1981908903246012306A903A848F011
:1016900017FA03AB83E807006D10641C002DE3D13B
:1016A0004FF0010332466946B8F1000F03A802D09B
:1016B00048F0DCF901E048F003FAC9E90001C9F893
:1016C00008200AB0BDE8F0879CA1040010B500F026
:1016D000BDFABDE8104000F0B4BA70477546FFF798
:1016E000AFFEAE4605006946534620F0070085462A
:1016F00018B020B5FEF70AFEBDE820404FF0000606
:101700004FF000074FF000084FF0000BAC46ACE87C
:10171000C009ACE8C009ACE8C009ACE8C00921F0D8
:1017200007018D467047000010B5FFF78DFE001DC4
:1017300010BD00BFF19004002DE9FF4F06468BB0AD
:101740000878FF2806D0491C2D2805D000244FF02A
:10175000000908E000200CE00124F8E709EB890308
:10176000491C00EB43090878FF28F7D114B1C9F1EF
:1017700000008146107800252C46AA4629462D28CF
:1017800001D02B2804D1521C2D2813D000208246D2
:101790008B461078FF280FD04FF0000C0A21521C06
:1017A000A5FB017804FB018105FB0C11C5194BEB6E
:1017B0000104EEE70120EAE7002108464FF00000AF
:1017C000BAF1000F02D000EB80004008C0F381574F
:1017D000012F01DD4FF0FF370E9955EA040009EBA8
:1017E00001080BD04FF0020918F5FA7F16DA4FEA1C
:1017F000CA70002F706008DD012007E04FEACA7050
:10180000C6E900B00FB0BDE8F08F00203060FFF7F0
:101810001FFEC0F800901821084616E0B8F5FA7FC0
:1018200018DD002F02DAF748784401E0F6487844E2
:10183000D0E90010C6E9001040EACA707060FFF7F6
:1018400007FEC0F80090142108460FB0BDE8F04F25
:1018500049F081BE002108464FF00000B8F10001B8
:10186000099002DAC7F1000200E03A4601DAC8F155
:10187000000106A8FFF7B8FE06AB93E8070003AB2C
:1018800083E8070044F23E005BEA040100905846FA
:1018900004D144F21E012C465D460091210C09043E
:1018A000014306D10099240444EA15442D0410395B
:1018B000009104F07F41014306D10099240244EADB
:1018C00015642D020839009104F07041014306D1DE
:1018D0000099240144EA15742D01091F009104F0B8
:1018E0004041014306D10099A40044EA9574AD003B
:1018F000891E009104F00041084304D100986D193D
:101900006441401E00904FF001033A466846B8F12A
:10191000000FCDE9014503A902DD48F0E6F801E03A
:1019200048F0B9F8BAF1000F04460D4601D084F032
:101930000044002108464FF00000099940F2FF776B
:10194000484010F00C0F07D124F00040284303D08A
:10195000C4F30A50B84212D1FFF77AFDC0F80090E4
:10196000C4F30A50B8420AD1A8487844D0E900101C
:10197000C6E9001004F000410843706042E7C6E980
:1019800000543FE72DE9FF4F1F464FF0000A4FF08C
:10199000FF38454691B0D7E90146CDF83CA0FFF7A6
:1019A00053FDC0680168405C1090B96912986D1CC5
:1019B0008847396A814688470028F6D1B9F1FF3F48
:1019C0000AD0002E24F4D06411DDB9F12B0F08D019
:1019D000B9F12D0F0BD102E0404615B013E744F4E6
:1019E0008064B96912986D1C8847761E814660052F
:1019F00004A901D52D2000E02B20002E01F1010BC0
:101A00000DF130088DF810003FDDB9F1690F08D0F5
:101A1000B9F1490F05D0B9F16E0F02D0B9F14E0FEF
:101A20001CD13B4601A8009580E85002DDE9121266
:101A30006FF0020049F0FAFDC11CCED10EE0B96989
:101A400012986D1C884781461398761E44F40074E2
:101A500005600F98401C002E0F9016DDB9F1300F75
:101A6000EDD0B9F1780F02D0B9F1580F0DD10F9820
:101A700001280AD13B46CDE90054DDE91212001FCE
:101A8000029649F0D1FDC11CA7D1109989453ED1DC
:101A900044F0800406E01399681CAAF1010A44F49A
:101AA00000740860B9696D1C1298761E884730284A
:101AB0008146F0D02BE01099894505D1200603D44A
:101AC000761E44F0800418E0484648F02CFE08B327
:101AD000761E0DF123029345A9F1300044F4007401
:101AE00006D20BF8010B200607D5AAF1010003E08E
:101AF000200602D40AF101008246A00502D51399FE
:101B0000681C0860B96912986D1C88478146002ED0
:101B1000D1DC53E0002E51DDB9F1650F02D0B9F1EF
:101B2000450F4BD1A00549D5B9696D1C1298761E99
:101B300024F440748847002E81460CDD2B2804D005
:101B4000B9F12D0F07D144F48074B96912986D1C56
:101B50008847761E8146E00501D52D2100E02B2126
:101B600008F8011BCDF8008021E0761E0DF1390147
:101B7000884544F400740CD2A9F1300010F0FF0045
:101B800088F8000002D10099884509D908F10108B8
:101B900006E0E00501D51E4801E042F20F708246E2
:101BA000B96912986D1C8847814613980560002E0C
:101BB00004DD484648F0B7FD0028D6D1F9691298EF
:101BC0008847FF2053468BF8000088F8000000206B
:101BD0000A900B9004AA0CA90AA8FFF7ADFDA00576
:101BE00002D46FF00100F8E614F0240F12D0E007E1
:101BF0001CD13868DDE90A12031D3B600068C0E9AA
:101C0000001213E0BC450500AE4505007244050016
:101C1000F1D8FFFF0AA9684648F072FDE00705D138
:101C20003868009A011D3960006802602846D4E6D1
:101C300010B50446AFF300802046BDE81040FEF723
:101C400050BB002801D0FFF7F5BB704710B5012845
:101C500005D0002103A000F034F8012010BD09A137
:101C6000F8E7000053494752544D454D3A204F750F
:101C700074206F662068656170206D656D6F727984
:101C8000000000003A2048656170206D656D6F723C
:101C90007920636F7272757074656400B2F120030D
:101CA0000AD5C2F1200301FA02F120FA03F341EA56
:101CB000030100FA02F0704700FA03F14FF0000050
:101CC000704770B505460C460A2000E06D1CFFF712
:101CD000A9FB35B128780028F8D102E0641CFFF791
:101CE000A1FB14B120780028F8D1BDE870400A208B
:101CF000FFF798BB2DE9FF4F1F464FF03C0987B017
:101D00004FF00042DDE9141001F10108DDF858A0A0
:101D100002EA4050039000200590834605460446A1
:101D20000490B969461E08988847AAF1010A0290F2
:101D3000BAF1000F3BDD02982E2815D0102100F0DB
:101D400003FA00282EDB4FF0010B0599014317D051
:101D5000B9F1000F0BDB4A46C117FFF79FFF0543A0
:101D60000C43A9F1040905E0012004900BE008B13F
:101D700045F0010501200590049820B9361D02E0C8
:101D8000049800B1361FB969089808F1010888471E
:101D9000BBF1000FAAF1010A0290C9D00999C1F85C
:101DA0000080C5E70298702808D0502806D0F9694D
:101DB00008988847BBF1000F14D04FE00020029034
:101DC0000120BBF1000F049009D0B969089808F10F
:101DD00001088847AAF10109B9F1000F07DCF96988
:101DE000089888476FF001000BB0BDE8F08F2B28F2
:101DF00004D02D280CD14FF0FF300490B969089819
:101E000008F101088847A9F10109B9F1000FE6DDE1
:101E1000411CE4D00A2100F097F90028DFDB029989
:101E200008F1010801EB810100EB41000290B96962
:101E3000089888470A2100F087F9099AA9F1010951
:101E4000B9F1000FC2F8008001DD0028E7DAF96976
:101E5000089888470499029800FB016655EA040037
:101E600004D004F04041090002D006E0039898E055
:101E7000A40044EA9574AD00B61E04F000410800C9
:101E800002D16D196441761E159810F0240F03D00D
:101E90004FF00B095C4803E04FF028096FF07D001C
:101EA0008246564507DAAAEB06018944B9F1410F8B
:101EB00001DD4FF0410901200021A9F10102FFF7E6
:101EC000EDFE024628400B462140084301D0012187
:101ED00000E00021501E029143F1FF3128402140D3
:101EE000084301D0012000E000200299834651EA16
:101EF0000B014FD0002108464FF00000039900F479
:101F0000400039B100EB80004FF4400100EBD0708D
:101F100001EA60008015012802DD4FF0FF3000E08B
:101F200013D0401C36D0029860B3BBF1000F0CD127
:101F30004A4601200021FFF7B1FE28402140084316
:101F400001D0012000E00020E0B101204A4600213C
:101F5000FFF7A4FE034640190A4661412D1A8C4141
:101F600011D3B9F1400F09DD159810F0240F02D0FC
:101F7000AAF1340603E0AAF1170600E0761C00255A
:101F80004FF0004406E05B1E42F1FF3220EA0305F9
:101F900021EA0204CAF10100B04206DA1B490398A3
:101FA00008430190002000900EE0039AC4F3D3216F
:101FB000E80A0A43164940EA44500A433146CDE94B
:101FC0000002684648F0A5FB159810F0240F0BD0CE
:101FD0001598C00715D13868DDE90012031D3B6074
:101FE0000068C0E900120CE002A8694648F088FBCE
:101FF0001598C00705D13868029A011D396000683C
:1020000002604046F0E6000002FCFFFF0000F07FA7
:102010000000F03F2DE9FF4F92461D4685B04FF07E
:102020000041DDE9124BDDE914727F1E01EA4B50DD
:10203000414940F0FF4940EA0108002122F0200018
:102040004928049102D04E2828D04CE03BA001261C
:1020500007C88DE80700A9690698641C88477F1E99
:10206000014606D41DF8060018B121F02001814276
:102070000BD0E96906988847032E34D0082E32D059
:102080006FF0010009B0BDE8F08F761C032E01D07F
:10209000082EE0D1601CCAF80000DCE7A9690698A8
:1020A000641C88477F1E2AD420F02000412826D1B6
:1020B000A9690698641C88477F1E20D420F0200060
:1020C0004E281CD1A9690698641C88477F1E48F4D5
:1020D000002849F48009CAF8004001D4282806D015
:1020E000E969069888475FEACB7012D022E0A969B7
:1020F0000698641C88477F1E01D4002803DAE9692A
:1021000006988847BCE72928F1D1641CCAF800402A
:10211000E9E71BF0240F07D028680499031D2B6002
:102120000068C0E9001805E02868021D2A60006800
:10213000C0F800902046A5E70000F07F494E4649D0
:102140004E495459000000003A2800D2303820F09F
:102150002002412A01D3A2F13700884201D34FF077
:10216000FF3070472DE9F04F81B02DED028B86B026
:10217000054636F061FE36F05FFE0446284633F031
:10218000E9FF284633F0D8FF074605902046002196
:1021900033F090FB0546204633F026FB0021122247
:1021A00037F092FC06B22846314600223AF0EAFCAB
:1021B0002846314600223AF0EBFC284633F0BCFFBB
:1021C00040F2805640F27852C2F20006C2F200029B
:1021D000C9A33846002190460096374611F0C2FB4D
:1021E000014620462A46049433F0C2FF20460021CF
:1021F00033F060FB8346204633F0F6FA00211222CA
:1022000037F062FC06B25846314600223AF0BAFC7A
:102210005846314600223AF0BBFC584633F08CFF5A
:10222000B9A3002100220646009711F08FFB01217F
:1022300036F00AFC49F6AC3AC2F2010A4621CAF865
:1022400000003AF0CFFCDAF8000047F29161C0F6E6
:1022500004011D22002334F0C9FDAFA33046002144
:1022600000223C46009711F071FB012136F0ECFB97
:102270004621CAF804003AF0B5FCDAF8040047F247
:10228000D571C0F604011D22002334F0AFFDDAF849
:102290000400802134F032FE584633F05BFF58468C
:1022A00033F04AFFA0A3002100220746009411F05A
:1022B0006BF9012136F0C8FB4621CAF80C003AF050
:1022C00091FCDAF80C0030F003FF214600220646AC
:1022D00034F028FE98A1304632F05AF930460921F0
:1022E0000022002334F0EEFEDAF80C0042F6C911A9
:1022F000C0F601010022002334F078FDDAF80C006A
:10230000802134F0FBFD8EA338460021002200948A
:1023100011F03AF9012136F097FB4621CAF808007E
:102320003AF060FCDAF8080030F0D2FE21460022D4
:10233000064634F0F7FD86A1304632F029F93046E2
:1023400009210022002334F0BDFEDAF8080042F62D
:102350006D11C0F601010022002334F047FDDAF8C8
:102360000800802134F0CAFD9FED7D8A45F6A11159
:1023700050260025C0F6050177A338464246B0EE48
:10238000480A009401954446029611F0D9F90021BB
:10239000804636F059FBCAF81C004046012136F051
:1023A00053FBCAF828004046022136F04DFBCAF81C
:1023B00010004046042136F047FB43F6E149C0F6E1
:1023C000040949461D220023CAF8340034F00EFDEA
:1023D0004046032136F038FBCAF83800DAF83400FA
:1023E00005210161802134F089FD45F6A118CDE970
:1023F0000156C0F6050840F280555AA338464146BA
:102400002246B0EE480AC2F20005009511F098F994
:102410000021064636F018FBCAF82000304601219C
:1024200036F012FBCAF82C003046022136F00CFBC5
:10243000CAF814003046042136F006FB49461D2236
:102440000023CAF83C0034F0D1FC3046032136F0BA
:10245000FBFACAF84000DAF83C000621016180214D
:1024600034F04CFDB4206FF0B301CDE901103FA36F
:10247000384641462246B0EE480A009511F060F910
:102480000021064636F0E0FACAF824003046012161
:1024900036F0DAFACAF830003046022136F0D4FAC3
:1024A000CAF818003046042136F0CEFA49461D22FB
:1024B0000023CAF8440034F099FC3046032136F07A
:1024C000C3FACAF84800DAF8440007210161802104
:1024D00034F014FD059827A300212246009511F041
:1024E00041FA014604985A4606B0BDEC028B01B091
:1024F000BDE8F04F33F03CBEE69CABE7ABAFE68EF9
:10250000A7E588B600000000E5BC80E590AFE8B024
:1025100083E8AF9500000000E58AA8E58A9BE68E77
:10252000A7E588B600000000E99BB6E782B9E8AEEF
:10253000BEE7BDAE00000000E689A7E8A18C000060
:10254000E8A792E5BAA6E68EA7E588B600000000E7
:10255000E5A48DE4BD8D0000E5A4A7E88782000016
:1025600000000000E5B08FE887820000E5BA95E53D
:10257000BAA70000E794B5E69CBAE8B083E8AF9547
:10258000000000002DE9F04784B040F20044C4F29E
:102590000204A4F5806592468946074628464021F4
:1025A0000022984601F0ECFB20464FF480510022B7
:1025B00001F0E6FB41F674762A20C2F20006ADF87F
:1025C00002000DF1020130460122FF2304F052F90E
:1025D00020464FF48051012201F0D2FB28464021D1
:1025E000012201F0CDFB20464FF48051002201F082
:1025F000C7FB01A930460122FF23ADF8047004F0A7
:1026000039F920464FF48051012201F0B9FB2846E8
:102610004021012201F0B4FB20464FF480510022FA
:1026200001F0AEFB0DF1060130460122FF23ADF8AB
:1026300006A004F01FF920464FF48051012201F05A
:102640009FFB28464021002201F09AFB20464FF4D0
:102650008051002201F094FB2B20ADF8080002A964
:1026600030460122FF2304F005F920464FF4805143
:10267000012201F085FB28464021012201F080FB68
:1026800020464FF48051002201F07AFB0DF10A013F
:1026900030460122FF23ADF80A9004F0EBF8204603
:1026A0004FF48051012201F06BFB284640210122AA
:1026B00001F066FB20464FF48051002201F060FBE0
:1026C00003A930460122FF23ADF80C8004F0D2F8B4
:1026D00020464FF48051012201F052FB2846402150
:1026E000002201F04DFB20464FF48051002201F002
:1026F00047FB2C20ADF80E000DF10E0130460122F3
:10270000FF2304F0B7F820464FF48051012201F076
:1027100037FB04B0BDE8F08780B5052009F0CEF89E
:10272000062009F0CBF8072009F0C8F840F29050D5
:10273000C2F200000121017080BD000080B540F2AE
:10274000905000210022C2F20000C4F2A011C4F295
:102750002022C0E901120520002109F0C9F8062055
:10276000002109F0C5F807200021BDE8804009F0EC
:10277000BFB8000080B5052009F0D6F8062009F0A2
:10278000D3F8072009F0D0F840F29050C2F20000D0
:102790000021017080BD000080B582B0A0F1050E5F
:1027A000DDF810C05FFA8EFEBEF1010F0CD8DFED30
:1027B0000E0A4FF4807ECDF804E0CDF800C008F09A
:1027C00077FF02B080BD00BF07281CBF02B080BDEC
:1027D0004FF480700190F7EE000A0720CDF800C09A
:1027E00008F066FF02B080BDCDCC6C4080B50520FE
:1027F00009F0D8F9062009F0D5F90720BDE8804096
:1028000009F0D0B92822062808BF2C22072849F64B
:10281000AC30C2F2010008BF302280582FF018BC43
:1028200070B586B049F6AC36C2F20106706B002175
:1028300001221EF0EBF9F06B002101221EF0E6F9F7
:10284000706C002101221EF0E1F945F2F445C0F65A
:10285000050501AC204614212A4600233BF03CFC30
:10286000B06B214631F094FE204614212A46002305
:102870003BF032FC306C214631F08AFE20461421B8
:102880002A4600233BF028FCB06C214631F080FE44
:1028900006B070BD2DE9F04F87B040F29C46C2F201
:1028A000000696F82200662840F0C180B58CB6F884
:1028B00026B0378DB6F92AA085EA0B01B6F82C8030
:1028C0007940B6F82E9081EA0A01B6F9302081EA03
:1028D000080181EA0901748E5140708C89B2A142CD
:1028E000ADF81A0040F0A38028B2029088208DF83D
:1028F000170042F22430C2F200000DF117010192DC
:10290000012205F065FEE8B205F001013170C0F367
:1029100040017170C0F38001B170C0F3C001F1706B
:10292000C0F300113171C0F340117171C0F3801117
:10293000C009F071C5F34020B171C5F30021707278
:10294000C5F3C0203172C5F38021F072BDF81800C4
:10295000B172BDF81A10F083BAF5FA60B181F58151
:10296000A6F810B07782A6F81680A6F81890B4835F
:102970004FF00001D8BF0846B082019803ACB0F513
:10298000FA60D8BF084670830120029AB077ADF88C
:102990001410CDE9031127A12046FDF797FD49F654
:1029A000F837C2F201077868214631F0F1FD45F2AF
:1029B000F445B6F91020C0F6050520462946FDF776
:1029C00085FDB868214631F0E3FDB6F912202046B6
:1029D0002946FDF77BFDF868214631F0D9FDB6F9AF
:1029E000142020462946FDF771FD3869214631F053
:1029F000CFFDB6F9162020462946FDF767FD786918
:102A0000214631F0C5FDB6F9182020462946FDF7CC
:102A10005DFDB869214631F0BBFDB6F91A202046AC
:102A20002946FDF753FDF869214631F0B1FD07B0A5
:102A3000BDE8F08F307825303278000080B5012075
:102A400001F090F840F20040C4F20200202101F0B1
:102A500091F949F6F831C2F201010A6808A104A30C
:102A6000012808BF19461046BDE8804031F090BDEE
:102A7000E6898BE69F84E69CAAE8BF9EE68EA500C9
:102A8000E6898BE69F84E5B7B2E8BF9EE68EA50097
:102A900010B540F21C74C2F2000494F8540058B10E
:102AA00094F8550010B1002009F00EFE94ED140AC0
:102AB000BDE8104009F032BE94F8AC0060B194F863
:102AC000AD0010B1012009F0FFFD94ED2A0ABDE828
:102AD000104009F0CFBD00BF40F2E840C2F2000054
:102AE00090F82200002818BF10BDBDE8104000F08B
:102AF0005BB900002DE9F04182B0044633F02AFBB7
:102B0000204633F019FB054640F20040C4F20200B3
:102B1000202101F02FF990A193A340F280570128C2
:102B200008BF0B46C2F2000728460021002200978A
:102B300010F018FF002135F087FF49F6F838C2F28F
:102B40000108C8F80000204633F004FB204633F0AB
:102B5000F3FA32F029FE044630F0BAFA40F2885512
:102B6000C2F2000529460022064634F0DBF982A1B4
:102B7000304631F00DFD3046012139F055FC30462C
:102B80004FF4000134F07AF9204630F0A1FA2946DA
:102B90000022064634F0C6F97BA1304631F0F8FC3D
:102BA0002046C8F8046030F093FA29460022064611
:102BB00034F0B8F976A1304631F0EAFC3046012114
:102BC00039F032FC30464FF4000134F057F920461A
:102BD00030F07EFA29460022074634F0A3F945F684
:102BE0001B16C0F605063846314631F0D1FC2046AA
:102BF000C8F8087030F06CFA29460022074634F015
:102C000091F964A1384631F0C3FC3846012139F00E
:102C10000BFC38464FF4000134F030F9204630F018
:102C200057FA29460022074634F07CF938463146E7
:102C300031F0AEFC2046C8F80C7030F049FA294655
:102C40000022074634F06EF953A1384631F0A0FC5B
:102C50003846012139F0E8FB38464FF4000134F0E2
:102C60000DF9204630F034FA29460022074634F0A8
:102C700059F93846314631F08BFC2046C8F81070BF
:102C800030F026FA29460022074634F04BF943A1DA
:102C9000384631F07DFC3846012139F0C5FB384615
:102CA0004FF4000134F0EAF8204630F011FA2946DA
:102CB0000022074634F036F93846314631F068FCD8
:102CC0002046C8F8147030F003FA2946002207465F
:102CD00034F028F932A1384631F05AFC3846012147
:102CE00039F0A2FB38464FF4000134F0C7F8204613
:102CF00030F0EEF929460022074634F013F9384641
:102D0000314631F045FC2046C8F8187030F0E0F943
:102D100029460022074634F005F922A1384631F051
:102D200037FC3846012139F07FFB38464FF400016B
:102D300034F0A4F8204630F0CBF9294600220446AE
:102D400034F0F0F82046314631F022FCC8F81C403F
:102D500002B0BDE8F08100BFE6898BE69F84E69C67
:102D6000AAE8BF9EE68EA500E6898BE69F84E5B7BC
:102D7000B2E8BF9EE68EA5006469676974616C5F06
:102D800064617461000000003078303000000000A1
:102D90004C5F58004C5F59004C5F3200525F580046
:102DA000525F5900525F320070B540F29C45C2F24A
:102DB0000005287840F2E8440128C2F200042FD12F
:102DC000B5F91200B0F57A7F18DD002084F82200F2
:102DD0000BF04AFF49F65C66C2F201063068012139
:102DE00035F0AAF87068012135F0A6F8002000211E
:102DF00033F0BEFF0BF0B6FD12E000BF10F57A7F96
:102E00000EDA49F65C60C2F201000121006884F824
:102E10002210012134F072F80120002133F0A8FFC4
:102E2000A87A012804D1012084F8200070BD00BFD9
:102E3000E87A012818BF70BD002084F8200070BD1A
:102E400080B50020C4F202004FF4806100F092FFD0
:102E5000B0FA80F0400980BD70470000014641F69D
:102E6000F060C2F2000002F0CBBF000080B541F676
:102E7000F060C2F2000002F0D5FF043818BF012054
:102E800080BD000080B500F019F801281CBF0120AA
:102E900080BD41F6F060C2F2000003F01BF900288B
:102EA00018BF80BD41F6F060C2F200004FF400612F
:102EB00002F04CFE002818BF012080BD80B582B012
:102EC00001208DF80700FFF7BBFF002804BF00209A
:102ED0008DF807009DF8070002B080BD80B513464D
:102EE0000A46014641F6F060C2F2000003F0DAFA49
:102EF000002818BF012080BD40F2CC70C2F2000053
:102F0000012101607047000080B513460A46014662
:102F100041F6F060C2F2000003F060FB002818BF29
:102F2000012080BD41F62800C2F2000001210160AD
:102F300070470000000000002DE9F04184B040F22D
:102F4000CE07C2F20007387800285CD041F64C2446
:102F5000C2F20004204600F03BFB20460A2100F0AC
:102F6000B9FA204600F0CEF980054AD50020ADF828
:102F70000C00CDE9010041F64C20C2F2000000F047
:102F8000C3F980B200EE100A9FED251AB8EEC00A10
:102F900020EE010A10EE100A48F05AFA05460E46D5
:102FA00001AC20A120462A463346FDF78FFA49F6A8
:102FB0001848C2F20108D8F80400214631F0E8FAB6
:102FC0009FED130B284653EC102B314647F046FF7C
:102FD0009FED110B53EC102B47F06CFC47F0BCFE3F
:102FE000054612A120462A46FDF770FAD8F80800D7
:102FF000214631F0CDFAD8F80000294600221DF014
:1030000005FE0020387004B0BDE8F08100BF00BFAD
:103010000CE53594D7503A40E33594D7509E6CC0B8
:103020003D0AA13B252E316656000000256425256A
:1030300000000000B0B584B0044633F08BF82046A1
:1030400033F07AF840F2805200256421C2F2000287
:10305000CDE90025029110A300210022039510F074
:1030600059FA0121044635F0EFFC49F61845C2F241
:1030700001050BA1686031F08BFA2046022135F082
:10308000E3FC08A1A86031F083FA2046032135F063
:10309000DBFC286004B0B0BDE794B5E58E8B000082
:1030A0003056000030250000FEE7000041F6744075
:1030B000C2F2000000F074BB41F69420C2F200009E
:1030C00000F06EBB41F6D440C2F2000000F068BBD5
:1030D00041F6F420C2F2000000F062BB80B541F678
:1030E0001440C2F2000000F05BFBBDE8804006F037
:1030F0001FBD000041F63450C2F2000000F050BB8A
:1031000041F65430C2F2000000F04ABB10B541F65F
:10311000B434C2F20004204600F042FB94F83500BB
:10312000012818BF10BD41F64410C2F2000000682B
:1031300021F060FA40F20040C4F202004FF48051E6
:103140000122BDE8104000F01BBE000041F6945083
:10315000C2F2000000F024BB704700004FF4804032
:1031600000F01EBD202000F01BBD0000EFF310801A
:1031700072B600BFFEE7000080B541F63413C2F21C
:1031800000035A7A002A1CBF012080BD93F809C0B1
:103190008646002003F80C005A7A03EB8202C2F83C
:1031A00004E05A7A1A44107293F809C00CF1010233
:1031B0005A720CF130020A7042F63A72A1F80120FC
:1031C000C87080BD70B581B00022009290F83C209C
:1031D000012A03D10221084601B070BDD1F800E0F8
:1031E0000122BEF10A0F80F83C200BD31FFA8EF2A9
:1031F0005200066812FA8EF2A2F11E0306F10C02CA
:1032000005E000BF06680EEB4E0306F110024FF01A
:10321000070C15680CFA03F4A54315608D68146853
:1032200005FA03F3234313604968062906D801EB26
:103230008101053906F134020AE000BF0C2901EBD7
:10324000810187BF413906F12C02233906F1300292
:103250001F2314688B4024EA030342F2043C1360EA
:10326000C4F2010C1FFA8EF3146803FA01F1ACF5F5
:10327000417321439E4211603ED1BEF1120F07D12E
:10328000DCF8001041F48001CCF8001034E000BFFD
:103290002EF0010110292FD1DCF80010BEF1100F23
:1032A00041F40001CCF8001026D140F2D001C2F266
:1032B000000109684DF68362C4F21B32A1FB0212C1
:1032C000910C01EB8101490000910099A1B1009995
:1032D00001390091009979B1009901390091009963
:1032E00051B1009901390091009929B10099013932
:1032F000009100990029EAD1002180F83C1008468D
:1033000001B070BD006C70470068C06C7047000071
:10331000002804BF0120704710B50446006C002847
:103320003ED0206CC00645D4206C41F20211884387
:10333000023042F204312064C4F20101086820F432
:10334000403008600A6894E809101A43D4F810E085
:103350000A604168012321F4807141604168C0F630
:10336000007341EA0E214160416821F040714160E3
:10337000416841EA0C014160816821F4006181608B
:10338000E168826811438160A16A8268994222F0F3
:1033900070628260826813D122F0405119E000BF50
:1033A000204600F065F80020606484F83C00206C42
:1033B000C006B9D50120002184F83C1010BD00BF23
:1033C00011438160816821F040518160E16A826827
:1033D00011438160816821F0020181608168227E51
:1033E00094F8203041EA42018160416883B141F4A0
:1033F0000061416041684EF2000221F46041416089
:10340000616ACFF6FF72436802EB4131194301E074
:1034100021F400614160C16A40F2000C21F47001A6
:10342000C162E2696169CFF6F07CC36A0CEB0252BB
:103430001A43C262826822F40072826094F83020DB
:10344000836843EA42228260826822F4806282605A
:10345000826842EA8121816000206064216C01223F
:1034600062F301012164002184F83C1010BD0000CA
:1034700080B586B042F200010068C4F2010100226A
:1034800088420592049201D006B080BD43F6300018
:103490000092C4F20200436943F4807343614369BC
:1034A00003F480730093009B0092036843F00103D0
:1034B0000360006800F00100009000980120019076
:1034C0000320CDE9020201F5604001A900F074FB80
:1034D00006B080BD70B5044600680D46826852058E
:1034E00044BF80685FEAC05038D400F04FFC2168C8
:1034F0000A68920749D40646681C3CD0DDB90868C2
:10350000800721D5086880073FD4086880071BD54D
:103510000868800739D40868800715D508688007CF
:1035200033D4086880070FD508688007E7D52CE0FA
:103530000868800729D400F029FC801B2168A84274
:10354000F6D908688007F3D4206C40F004002064AA
:10355000002084F83C00032070BD00BF206C40F0C8
:1035600020002064002084F83C00012070BD00BFD2
:103570000868800709D40868800706D408688007AF
:103580005CBF08685FEA8070F2D56FF012000860D7
:10359000206C40F400702064886810F0405F01D116
:1035A000207E08B1002070BDC86A10F4700F02D0F0
:1035B00088684005F6D4206C20F480702064206C6C
:1035C000C004EFD4206C40F001002064002070BDE6
:1035D00010B581B00021009190F83C10012903D171
:1035E000022001B010BD00BF0468012180F83C102A
:1035F000214651F8083FDB0729D10B684DF683625D
:1036000043F001030B6040F2D003C2F200031B68D9
:10361000C4F21B32A3FB02239A0C02EB420200927B
:10362000009AA2B1009A013A0092009A7AB1009AE7
:10363000013A0092009A52B1009A013A0092009A1F
:103640002AB1009A013A0092009A002AEAD10A6847
:10365000036CD2070AD143F01001016400F1440168
:1036600001200A681043086034E000BF40F2017294
:1036700023EA020202F5807202646268520504D5F0
:10368000026C012363F30D320264026C4FF0000CF4
:103690000023D20444BF426C22F0060342F2000E23
:1036A000436480F83CC06FF02200C4F2010E206039
:1036B000DEF80403C00609D074450BD1DEF808001B
:1036C00010F0405F06D14FF08040CAE7086810F064
:1036D000405FF8D0002001B010BD000070B5866DCD
:1036E000044600F053FB94F8351002292ED105460C
:1036F0002068216C026822F016020260426922F002
:103700008002426109B9A16C19B1016821F0080178
:103710000160016821F0010101600068C00708D064
:1037200000F034FB401B052818D820680068C0074B
:10373000F6D1E06D3F2101FA00F0B060012084F87D
:1037400035000020002184F8341070BD80206065B1
:103750000120002184F8341070BD00BF2020606576
:10376000032084F83500002184F8341070BD000077
:1037700090F83510022909D1052180F8351000682C
:10378000016821F00101016000207047802141653E
:1037900001207047406D704790F835007047000079
:1037A000F0B581B004460020009040F2D000C2F293
:1037B00000000268D4E9166048F2B51337680821A2
:1037C000C1F64E3381403942A2FB03250CD022685A
:1037D00013685B0708D5136823F004031360B16016
:1037E000616D41F00101616501218140394208D0DC
:1037F00022685269120604D5B160616D41F0020180
:10380000616504218140394208D02268126892071C
:1038100004D5B160616D41F0040161651021814002
:10382000394217D020680268120713D5B1600268C8
:103830000168520308D4C90508D4016821F00801C1
:103840000160216C21B905E008033FD4216C09B166
:1038500020468847E16D202000FA01F23A4241D02B
:1038600020680368DB063DD5B26094F83530026805
:10387000052B1BD122F016020260426922F0800261
:103880004261226C0AB9A26C1AB1026822F00802E5
:1038900002603F208840B060012084F83500216D2F
:1038A0000020002984F8340052D157E00168520307
:1038B00010D4C90512D4016821F010010160012063
:1038C00084F83500002084F8340007E0A16C00295A
:1038D000BED1BFE7080301D4616C00E0E16B09B120
:1038E00020468847606DC8B3606DC0072ED00520A4
:1038F00084F835002068A90A026822F001020260FB
:10390000009A01328A4200921AD80268D20717D070
:10391000009A01328A42009212D80268D2070FD070
:10392000009A01328A4200920AD80268D20707D070
:10393000009A01328A42009202D80268D207DFD18F
:10394000012084F83500002084F83400E16C29B1AE
:10395000204601B0BDE8F040084700BF01B0F0BD0F
:103960002DE9F041044600F011FA002C4ED0054636
:10397000022084F835000020216884F834000868AB
:1039800020F0010008600868C00708D000F0FEF9C8
:10399000401B05286CD821680868C007F6D1086864
:1039A00048F23F02CFF21002D4E90135024004F19F
:1039B0000C0E9EE8C1511A432A431043304338434A
:1039C00040EA0800626A40EA0C00042A40EA0E035A
:1039D00020D1D4E90A5E206B4EEA0302104308604E
:1039E0004869BEF1000F20F0030040EA050040F0F6
:1039F000040C15D0B8F5005F42D0B8F1000F51D1DA
:103A0000022D52D0012D47D055B94EE00120BDE81E
:103A1000F08100BF0B60486920F0070040EA020C0B
:103A20006FF00F004AF6AB2250FA81F0CAF6AA22D4
:103A3000A0FB02231A094BF6D033C0F604039A5CAC
:103A400040F2FF335F284FF03F00C1F814C021EA75
:103A5000030100FA02F088BF0431C4E9161288603D
:103A6000002301220020636584F83520BDE8F08141
:103A7000032220230320636584F83520BDE8F0810C
:103A8000032DCDD8012240230120DFE805F0030EED
:103A9000030500BFE7E700BFAEF1C070B0FA80F0E9
:103AA000400904E0032D04D3BAD1CEF3006000280E
:103AB000B6D0012240230120636584F83520BDE89B
:103AC000F081000070B590F834C0BCF1010F46D011
:103AD0004FF0010C80F834C0D0F858E090F835C0B1
:103AE000BCF1010F38D14FF0020C80F835C04FF017
:103AF000000CC0F854C0D0F800C08468056CC06DDC
:103B0000DCF80060402C26F48026CCF80060CCF86D
:103B100004300B4604BF13460A463F2101FA00F069
:103B2000CCF80830CCF80C20CEF80800DCF8000007
:103B300040F01600CCF800002DB1DCF8000040F099
:103B40000800CCF80000DCF8000040F00100CCF8E0
:103B50000000002070BD00BF002180F8341002205A
:103B600070BD0000B0B5044600F010F9054640F203
:103B70000000C2F200000078611C18BF044400BFBE
:103B800000F004F9401BA042FAD3B0BD202805D0B4
:103B9000B0F5804F18BF70471AF046BAFEF74EBF17
:103BA00043F61441C4F201010A68024214BF0860DE
:103BB0007047FFF7EBBF00002DE9F04F82B043F6EE
:103BC000004C40F60042C4F2010CC4F2020207238A
:103BD00000244FF001094FF0000B4FF00008904215
:103BE00008BF032300933FE0012204F00C030F25DC
:103BF0009D402EEA05059A402A4346F82720DCF826
:103C000008204B6842EA0A0743F60C45DE0258BF1B
:103C100022EA0A07CCF80870C4F201052A689E025D
:103C200042EA0A0758BF22EA0A072F60DCF804209C
:103C30009E0342EA0A0758BF22EA0A07CCF804703A
:103C4000DCF80020DB0342EA0A0758BF22EA0A0731
:103C5000CCF800700BF1020B08F10108BBF1200F4A
:103C600004F1040400F082800A6809FA08FA12EAF2
:103C70000A0FEFD0D1F8049009F00306721E012A52
:103C800016D882680323CF6803FA0BF5AA4307FA14
:103C90000BF73A4382604268EF43C9F3001522EA0A
:103CA0000A0205FA08F54FEA480E2A43426009E085
:103CB000032202FA0BF2D743032EDE4602D1DE4680
:103CC00003261DE0C2688D683A4005FA0EF52A43C6
:103CD000022EC26014D16FF0030202EA58020244BD
:103CE000D2F8209004F01C060F230D69B34029EA96
:103CF0000303B5402B431362D1F8049009F0030687
:103D0000026806FA0EF33A401A4319F4403F4FF0A6
:103D1000010902609ED0002243F644070192C4F2DA
:103D200002073B68ACF57E7643F480433B603B681A
:103D30004FEA980703F480430193019B002356F850
:103D400027E0C4F2020398423FF44FAF40F2004232
:103D5000C4F2020290423FF447AF40F60002C4F2C0
:103D600002029042009A08BF02223EE702B0BDE87C
:103D7000F08F00000069084018BF01207047000064
:103D8000002A08BF090481617047000042F698606C
:103D9000C2F20300006870477047000070470000DF
:103DA000F0B581B00446006800254769426894F880
:103DB0003E1002F48076FA0505D5002E1EBF6FF482
:103DC000807242610125BA0505D5002E1EBF02355D
:103DD0006FF4007242617A0516D5AEB1628D94F827
:103DE0003D30D4F830C0202908BF002A24D06FF419
:103DF0008062402905F10405426101D0102903D1F8
:103E0000016841F400710160380507D536B12068BA
:103E100008356FF40061416101E000BF55B1206CCD
:103E200040EA05012046216401B0BDE8F04004F0FD
:103E300099BD00BF01B0F0BD03F0F701212909D001
:103E4000282B08BFBCF1210F04D06FF480614161C1
:103E50000435D9E794F83D10E26AB2F1080318BFBF
:103E60000123203A18BF0122134208BF28291DD080
:103E7000212935D10021CFF6FF71E1622121216393
:103E8000202184F83D10002184F83E10416821F47F
:103E9000E06141606FF480614161016821F48061FB
:103EA0000160204601F07CF9AEE700BF0021CFF6AB
:103EB000FF71E162416821F4E06141606FF480616B
:103EC0004161016821F480610160002020212063AC
:103ED00084F83D1084F83E00204600F0D9FB93E7BB
:103EE0006FF4806141618FE7F0B581B007680446E7
:103EF0007868E26A94F83E3094F83DE0402B01D0B7
:103F0000102B27D1BE697D69E90751D1B2F12A4F43
:103F100000F0A282B2F52A0F00F09E8200F4007237
:103F20004FF0010C29078CEA522C45D5002A43D0CA
:103F3000606B616CC9B2396118B1C06B002840F088
:103F40002281A06B002800F08782C06B002840F01F
:103F50001A8181E2216C00F4007300290CBFBE6954
:103F600000267D69A90753D5002B51D0206C00286D
:103F700018BFBE6994F83D0000F02800282840F0E2
:103F800093807868002320F480607860012020EA24
:103F9000960130064FF0180058BF0C20225A2046D8
:103FA00084F83C3001B0BDE8F040FFF7F7BE00BF39
:103FB000810557D44FF0010CA90759D5BCF1000F6A
:103FC00056D194F83E30E06A226B94F83D102229D5
:103FD00040F0E080216D002908BF402B00F0DA801E
:103FE000216D002940F034812169B1F5404F40F046
:103FF0002F810020009078690090B86900900098A7
:10400000386840F480703860206D01306DE200BF88
:10401000E90655D5002B53D094F83D50786820F42C
:10402000E06078600020009078690090386840F087
:10403000010038600098386820F480603860786843
:10404000000540F1428105F0F7002646222840F0A5
:104050001B8156F8380F0168496826F80E1C36F89F
:104060000E1C19E1E06AB0F52A0F5DD1012060E075
:104070007968720701F4006100F19680002940F030
:10408000EB81690605F0040140F1AE8110F4806017
:1040900000F0AA81002940F0A781204601B0BDE8C8
:1040A000F04004F099BD00BF0020009079690091B4
:1040B000B9690091009984F83C0001B0F0BD00BFDF
:1040C0000EF0F701212940F08580290605F0040251
:1040D00040F14C8110F4806000F04881002A40F0EB
:1040E000458194F83D00618D002900F0B581616A39
:1040F00011F8012B3A616162618D01396185618D31
:10410000002908BF292840F0A7817868282120F4D9
:104110008060786021202063204684F83D1001B043
:10412000BDE8F04001F03CB8E06AB0F12A4F01D19F
:104130000820E06294F83E0040280BD1206D616CAD
:10414000002801F0FE0018BF40F00100386101B006
:10415000F0BD00BF2069B0F5804F69D194F83D00F3
:10416000616C212801F0FE0118BF01313961606BDB
:1041700008B1C06B38B9A06B002800F06D81C06B2E
:10418000002800F06981786840F40060786001B030
:10419000F0BD00BF0020009078690090B8690090E1
:1041A000009801B0F0BD00BF002940F055812906FC
:1041B00005F0040140F1248110F4806000F02081BA
:1041C000002940F01D81204601B0BDE8F04004F018
:1041D000E7BD00BF690605F0040240F1D98010F484
:1041E000806000F0D580002A40F0D28094F83D0035
:1041F000618D002900F030813969626A1170616A4D
:1042000001316162618D01396185618D002908BFCD
:104210002A2840F021812068416821F480614160B2
:10422000222028212063204684F83D10D7E000BFDB
:10423000206D002800F0BE80206D012840F00C8128
:10424000606C062101EAD010F130386101B0F0BD98
:10425000618D61B1618D012940F0E280202818BF95
:10426000082840F0FB80386820F480603860002027
:10427000009078690090B86900900098386840F420
:104280000070386030E100BF56F8340F01684968AB
:1042900026F80A1C36F80A1C19B1216C41F00401F9
:1042A0002164796821F400617960FFF775FA0128CB
:1042B0000BD0306848F2D161C0F600010165FFF70C
:1042C00057FA10B13068016D8847608D60B1206881
:1042D0004169490730D4416949063AD4608D18B123
:1042E000206C40F004002064206C28B1204601B00E
:1042F000BDE8F04004F036BB2A2D07D10020206332
:10430000282084F83D00204600F048FF94F83D0046
:10431000282857D10020CFF6FF70E062002120202E
:10432000216384F83D00204684F83E1001B0BDE8CA
:10433000F04000F0ADB900BF0069616A0870616AC1
:10434000206801316162618D0139618541694906E9
:10435000C4D50069616A0870606A01306062608D6E
:1043600001386085608D0028BAD1BDE7002A18BFEA
:10437000002B71D0608D00286ED0606A10F8011B90
:1043800039616062608D0138608501B0F0BD00BFA9
:10439000002A18BF002B5FD0608D00285CD03869E0
:1043A000616A0870606A01306062608D0138608502
:1043B00052E000BF606C062101EAD010F030386195
:1043C00001B0F0BD206B222818BF222D44D100215E
:1043D0002020216384F83D00204684F83E1001B07F
:1043E000BDE8F04000F0DABEB1FA81F0400950EAD1
:1043F0000C0031D1204601B0BDE8F04004F078BB9C
:10440000B1FA81F0400950EA0C0025D1BEF1210F2C
:104410001AD1204601B0BDE8F04004F07FBC00BFD7
:10442000618D02290CD110283CD801211422814031
:10443000C0F20102114235D04FF4806238E000BF73
:10444000396841F4806135E0402B05D1204601B048
:10445000BDE8F04004F0FEBC01B0F0BD10F5803FB7
:104460000CD1386820F480603860786800057FF5EA
:10447000FEAE386820F4806038602EE0122A02D147
:1044800001287FF4F0AE1028F3D8012101FA00F0E2
:104490001421C0F201010842EBD0386840F480607A
:1044A00038601AE039684FF4006221F480613960A5
:1044B000396811433960796809050ED5421E1F2AF3
:1044C00016D80121914048F28102C8F2000211423F
:1044D0000ED0786840F480507860002000907869B1
:1044E0000090B869009000980020206501B0F0BDF0
:1044F00010F5803FEDD0F0E741F69C61C2F200017B
:10450000884218BF704741F69C60C2F2000009F073
:1045100085BB0000006C704770B5B8B3044690F8D6
:104520003D0028B9002084F83C00204600F00EFD34
:10453000242084F83D002068016821F00101016019
:10454000016841F400410160016821F4004101600B
:1045500001F0D6F848F28041C0F21E0140F6001387
:10456000D4F804E088424FF00001C0F23D0348F265
:10457000A16C4FF0000238BF01219842C0F2010C3B
:1045800038BF0122E64538BF0A460AB1012070BD96
:104590004DF68361C4F21B31A0FB01122168950C1A
:1045A0004B684FF4967623F03F0343EA92437543FA
:1045B00044F6D3564B60C1F262060B6AA5FB065661
:1045C000B50923F03F03E64538BF950C6A1C1A4332
:1045D0000A62CA6948F2A0664CF6FF73C0F201068F
:1045E000B64522EA03020BD801384FEA4E03B0FB6E
:1045F000F3F001306FF31F30042898BF04201EE051
:10460000A368013863B119230EFB03F3B0FBF3F089
:1046100001306FF31F3078B100F5804008E000BF33
:104620000EEB4E03B0FBF3F001306FF31F3028B1F7
:1046300000F5004003E000BF012000E0012010432E
:10464000C8610868D4E9072320F0C000104318436C
:104650000860886848F2FF3204F10C0690434CCEA3
:1046600018431043A5698860C86820F0FF003043F4
:104670002843C860086840F001000860002020213D
:10468000206484F83D10206384F83E0070BD000073
:10469000704700007047000041F69C61C2F20001C3
:1046A000884208BF09F0C4BA7047000070B582B0F4
:1046B00004460020019094F83D00202837D140F2B4
:1046C000D000C2F2000000684BF28956C008C1F267
:1046D000F846A0FB0606300A19267043019001989F
:1046E00001380190019838B32568A86980071AD568
:1046F0000198013801900198F0B12568A8698007F8
:1047000011D50198013801900198A8B12568A869D0
:10471000800708D5019801380190019860B125689B
:10472000A8698007DBD494F83C00012816D1022642
:10473000304602B070BD00BF00202021206384F805
:104740003D1084F83E00216C012641F020012164D7
:1047500084F83C00304602B070BD00BF012084F8F0
:104760003C002868C00703D1286840F00100286099
:104770002868002620F400602860222084F83D008C
:10478000102084F83E00266462626385638D0020F9
:10479000CFF6FF702385E06261642BB3A06BA8B3F2
:1047A00048F64101C0F6000148F2F57C0026C0F64B
:1047B000000CC0E90F1605F11001C0E91166C0E94F
:1047C00013C6FFF77FF968B3202084F83D0084F812
:1047D0003E60206C40F01000206484F83C600126AC
:1047E000304602B070BD00BF84F83C60686840F499
:1047F000E0606860286840F480602860286840F4C1
:1048000080702860304602B070BD00BF202084F860
:104810003D00002084F83E00216C012641F080011B
:1048200095E700BF2068016841F48061016001687C
:1048300041F48071016084F83C60416841F440714A
:104840004160416841F400614160304602B070BD92
:1048500070B582B004460020019094F83D002028F5
:1048600037D140F2D000C2F2000000684BF2895606
:10487000C008C1F2F846A0FB0606300A19267043AC
:104880000190019801380190019838B32568A86912
:1048900080071AD50198013801900198F0B1256878
:1048A000A869800711D50198013801900198A8B135
:1048B0002568A869800708D50198013801900198FA
:1048C00060B12568A8698007DBD494F83C00012812
:1048D00016D10226304602B070BD00BF0020202154
:1048E000206384F83D1084F83E00216C012641F0DD
:1048F0002001216484F83C00304602B070BD00BF46
:10490000012084F83C002868C00703D1286840F0E3
:10491000010028602868002620F40060286021201B
:1049200084F83D00102084F83E00266462626385AE
:10493000638D0020CFF6FF702385E06261643BB396
:10494000606BB8B348F2F57C48F64101C0F6000C44
:104950000026C0F60001C0E913C605F1100CC0E93D
:104960000F1611466246C0E91166FFF7ABF868B34F
:10497000202084F83D0084F83E60206C40F0100058
:10498000206484F83C600126304602B070BD00BF50
:10499000286840F480602860286840F480702860AF
:1049A00084F83C60686840F4E0606860304602B0BB
:1049B00070BD00BF202084F83D00002084F83E0038
:1049C000216C012641F0800193E700BF206884F844
:1049D0003C60416841F440714160416841F40061CC
:1049E0004160016841F480610160016841F48071B7
:1049F0000160304602B070BD704700007047000093
:104A00002DE9F04784B0984617460E460446FFF756
:104A1000BDF994F83D10202923D10546206881690D
:104A2000890719D5FFF7B2F9401B1928F6D90020DC
:104A30002021206384F83D1084F83E00206C04F1AE
:104A40003C0940F0200020640220002189F8001079
:104A500004B0BDE8F08700BFA14619F83C1F01294A
:104A600004D1022004B0BDE8F08700BF012289F81C
:104A700000200368DDE90D1A0C9ADB0703D10368F7
:104A800043F001030360036823F400630360222002
:104A900084F83D00402084F83E00002020646262DB
:104AA0006185608D314620850020CFF6FF70E06281
:104AB00020463A464346CDF800A0019504F024FA7A
:104AC00020B1012004B0BDE8F08700BF208DA8B15F
:104AD00002282BD0012835D121680A6822F480628F
:104AE0000A60002203924A6903928A690392039A38
:104AF0000A6842F400720A602CE000BF00200390B4
:104B0000206841690391816903910399016841F427
:104B100000710160202084F83D00002084F83E00F0
:104B2000002189F8001004B0BDE8F08721680A6808
:104B300022F480620A600A6842F400620A6000227D
:104B4000039202E00021039121684A690392896976
:104B5000039103990AF1010680B2032818D80228AC
:104B600042D0012856D1BAF1000F00F0AB80206886
:104B7000014651F8142F520600F1A8800868C006BB
:104B800000F1E280FFF702F9401B5045EFD9D0E079
:104B9000BAF1000F10D000BF2068014651F8142F61
:104BA00052060ED40868C00600F1CE80FFF7EEF87A
:104BB000401B5045F0D9BCE020684169490640F1EE
:104BC000B1800069616A0870606A2268411C208DAA
:104BD000616201382085638D013B638553695B0702
:104BE00040F18080106973E020684169490747D42B
:104BF000002E59D0BAF1000F00F09980FFF7C6F8E7
:104C0000401B504500F29580206841694907F5D561
:104C100036E000BF2068416949070FD4002E65D0F7
:104C2000BAF1000F00F08380FFF7B0F8401B504549
:104C300000F27F80206841694907F5D5016821F4B9
:104C4000806101600069616A0870606A218D0130CD
:104C50000139606221852068618D01396185416972
:104C600049070DD4002E4FD0BAF1000F5FD0FFF7E7
:104C70008DF8401B50455CD8206841694907F6D53E
:104C8000016841F4007101600069616A0870606A3E
:104C90002268411C6162218D01392185618D0139B4
:104CA00061851169417014E041694907E8D441699F
:104CB00049075CBF41695FEA4171E1D44169490735
:104CC000F2D5DDE72068416949062BD50069616AA4
:104CD0000870606A218D01306062481E2085618DF8
:104CE0000139618501047FF437AF13E74169490752
:104CF000A4D4416949075CBF41695FEA41719DD411
:104D000041694907F2D599E741694907B8D4416932
:104D100049075CBF41695FEA4171B1D44169490704
:104D2000F2D5ADE750F8141FC90601460CD4FFF7C1
:104D30002DF800202021206384F83D1084F83E00E7
:104D4000206C40F020000AE06FF0100008600020A6
:104D50002021206384F83D1084F83E00206C2064FC
:104D60000120002189F8001004B0BDE8F0870000A0
:104D70002DE9F04383B0994616460F460446FFF7E7
:104D800005F894F83D1020291CD10546206881695A
:104D9000890713D5FEF7FAFF401B1928F6D9002022
:104DA0002021206384F83D1084F83E00216C41F0FE
:104DB0002001216484F83C0004E000BF94F83C101A
:104DC000012903D1022003B0BDE8F083012284F859
:104DD0003C200368DDE90B180A9ADB0703D103685E
:104DE00043F001030360036823F4006303602120A0
:104DF00084F83D00402084F83E0000202064626278
:104E00006185608D394620850020CFF6FF70E06215
:104E1000204632464B46CDF80080019504F004FA56
:104E200020B1012003B0BDE8F08300BF208D002831
:104E300050D0206808F10106014651F8142F1206DF
:104E40002CD49EB1B8F1000F5AD000BF08684005BD
:104E50005ED4FEF79BFF401B404556D820680146B4
:104E600051F8142F1206F1D518E000BF0A68520558
:104E70004ED40A68120611D40A68520548D40A684A
:104E800012060BD40A68520542D40A68120605D4E9
:104E90000A6852053CD40A681206E7D5626A1146D0
:104EA00011F8013B0361238D6162591E2185678DD5
:104EB000013F678547697F070AD50F0408D05178FD
:104EC0000161911C6162991E2185628D013A6285A2
:104ED0000904B1D1204641462A4604F0DFFA38BB26
:104EE0002068016841F400710160202084F83D00D1
:104EF000002084F83E0084F83C0003B0BDE8F08355
:104F00000868400504D4FEF741FF202004E000BFFC
:104F10006FF480600860042000212022216384F85F
:104F20003D2084F83E10226C1043206484F83C102D
:104F3000206C04287FF475AF2068016841F400718B
:104F40000160012003B0BDE8F08300002DE9F04FBF
:104F500087B00446006845F60041C4F2000100270E
:104F60008842CDE90577CDE9037702973AD045F637
:104F70000001C4F20001884200F0CC8045F20041FB
:104F8000C4F20001884240F0C180002443F630059D
:104F90000194C4F20205286802A940F002002860CA
:104FA000286800F0020001900198C02002901220B1
:104FB000CDE90304032005900420069040F2004050
:104FC000C4F20200FEF7F8FD0194286940F40010D5
:104FD0002861286900F400100190019807B0BDE82D
:104FE000F08F00BF43F630050197C4F20205286830
:104FF00040F2004940F0010028602868C4F202092C
:1050000000F00100019001980197286802AE40F07D
:105010000200286028684FF0120A00F00200019098
:1050200001984FF48070029004204FF0010B4FF074
:1050300003080690A9F580603146CDF80CA0CDF8A4
:1050400010B0CDF81480FEF7B7FD102002A981E85A
:10505000010C0920CDF8148046F24008069048461D
:105060003146C4F20208FEF7A7FD019728694FF008
:10507000C06640F400002861286941F6942500F4D8
:10508000000001900198C2F200054FF480692846A3
:10509000C5E90086C5E90277C5E90497C5E9067741
:1050A000C5E90877FEF75CFC002818BFFEF75EF83C
:1050B000A563AC6341F6F42508F13000C2F20005A7
:1050C0004021C5E9000605F10800002280E806023B
:1050D0002846C5E90522C5E907226A62FEF740FCB9
:1050E000002818BFFEF742F848200A210022656315
:1050F000AC6300F0D1F8482000F0BEF849200A2146
:10510000002200F0C9F8492000F0B6F807B0BDE869
:10511000F08F00BF4FF0000843F63006CDF8048052
:10512000C4F20206306840F2004440F002003060F1
:105130003068C4F2020400F00200019001984FF4BC
:1051400080600290042002AD4FF012094FF0010A76
:105150000327069020462946CDF80C90CDF810A0E4
:105160000597FEF729FD4FF4007002A981E80106BA
:1051700009200690204629460597FEF71DFDCDF82B
:105180000480306940F480003061306900F48000B0
:105190000190019807B0BDE8F08F00007047000053
:1051A0007047000040F2000042F69861C2F2000031
:1051B000C2F2030100780A681044086070470000DA
:1051C00080B543F60040C4F20200016841F400716A
:1051D0000160016841F480610160016841F48071FF
:1051E0000160032000F084F8002000F005F800F0D2
:1051F00027F8002080BD000070B540F20006C2F222
:10520000000640F2D0013278C2F200014FF47A7306
:105210000968B3FBF2F20446B1FBF2F1084601F073
:10522000CFFC0F2C4FF0010508D838B94FF0FF30F4
:1052300021460022002500F02FF87460284670BD3A
:1052400082B0002043F640010190C4F202014A6896
:1052500042F480424A604A6802F480420192019A14
:105260000090086840F080500860086800F08050A6
:105270000090009802B07047002848BF704700F0C7
:105280001F01012202FA01F14EF200124009CEF292
:10529000000242F82010704710B54EF60C5CCEF2BA
:1052A000000CDCF80030C3F3022E8EF00704042C4F
:1052B00028BF0424BEF103034FF0FF3E0EFA04F4AE
:1052C00038BF0023A14399400EFA03F39A431143D8
:1052D00000F00F02043A624409010C3200F160430D
:1052E000B0F1FF3FC8BF03F56442117010BD00006C
:1052F0004EF60C51CEF200010A684FF6FF031A4039
:1053000060F30A2242F0806040F0FD700860704750
:105310002DE9F04182B00446006843F68C06C107CF
:10532000C4F2020604D14FF0000881070CD415E046
:105330003168626921F0C06111433160B2FA82F1D3
:105340004FEA5118810709D53168A26921F0C0518F
:1053500011433160002A08BF4FF0010801075AD5F8
:105360000020019056F84C0C47F2000740F08050A6
:1053700046F84C0C56F84C0CC4F2000700F0805074
:1053800001900198386840F480703860FEF7FEFCA8
:10539000054600BF3868C00506D4FEF7F7FC401B81
:1053A0000228F7D9DDE000BF56F81C0C10F440705D
:1053B00017D0E16901F44071884212D056F81C0CF4
:1053C00040F64061C4F24721012220F440700A6097
:1053D00000220A6046F81C0C56F81C0CC00740F06E
:1053E000CB802068E16956F8842C4FF6FF4701F422
:1053F000407322F4F812C0F6FF770F40B3F5407FF8
:1054000008BF3A4346F8842C56F81C2C6FF31F3122
:10541000114346F81C1C41070AD4C10613D4810667
:1054200019D4410624D4B8F1000F2AD03AE000BFC5
:1054300094F8380040F64061C4F24721C1F8A00357
:105440002068C106EBD5B168626A21F440011143BE
:10545000B1608106E5D5B168A26A21F0006111430F
:10546000B160B2F1006F08BF4FF001084106DAD514
:10547000B168226A21F080511143B160B8F1000F88
:1054800010D180280ED0C10505D53168E26A21F01F
:10549000004111433160800516D4002002B0BDE800
:1054A000F08100BF6827C4F2472700203860FEF76C
:1054B0006DFC054656F88C0C00010FD5FEF766FC16
:1054C000401B0228F6D94CE03068216B20F40040E4
:1054D00008433060002002B0BDE8F081606B40F608
:1054E0004061C4F24721C1F898022068C10701D089
:1054F000616989B1810701D5A16969B1810603D5C7
:10550000A16AB1F1006F07D041060FD5216A69B9D0
:10551000A16AB1F1006F09D1251D2ECD41EA82119A
:1055200041EA036141EA057146F8081C000609D505
:10553000231D0FCB40EA811040EA026040EA03706D
:1055400046F8080C01203860FEF720FC054600BF35
:1055500056F88C0C000109D4FEF718FC401B0228F9
:10556000F6D9032002B0BDE8F08100BF2068C10574
:105570003FF58BAF8FE700BFFEF708FC054641F211
:10558000883700BF56F81C0C80073FF52AAFFEF79E
:10559000FDFB401BB8424FF00300F3D99BE700002E
:1055A0002DE9F041002800F08B8043F60808C4F292
:1055B00002080446D8F8F8030D4600F007008842B8
:1055C00007D288F8F853D8F8F80300F00700A8428B
:1055D00076D12068810717D5410705D5D8F8001086
:1055E00041F4E051C8F80010010705D5D8F80010C3
:1055F00041F46041C8F80010D8F80010A26821F00A
:10560000F0011143C8F80010C0073FD1D8F8F803E3
:1056100000F00700A84207D988F8F853D8F8F80333
:1056200000F00700A8424BD12068410707D5D8F801
:105630000010E26821F4E0511143C8F8001000079F
:1056400008D5D8F80000216920F4604040EAC10084
:10565000C8F8000000F07CF8D8F800104BF2D072C7
:10566000C1F30311C0F60402515C40F2D00220FAEB
:1056700001F140F20400C2F200000068C2F2000230
:105680001160FFF7B9FD0020BDE8F0816068811E60
:10569000022907D258F8081C89015CBF0120BDE827
:1056A000F08111E0012807D158F8081C89035CBF7C
:1056B0000120BDE8F08107E058F8081C890703D4F1
:1056C0000120BDE8F08100BFD8F8001021F00301EF
:1056D0000843C8F80000FEF759FB064641F2883738
:1056E000D8F80000616800F00C00B0EB810F8DD09D
:1056F000FEF74CFB801BB842F2D90320BDE8F081D5
:1057000040F2D00043F60801C2F20000C4F20201E8
:10571000006809684BF2E072C1F38221C0F604020E
:10572000515CC8407047000040F2D00043F60801C9
:10573000C2F20000C4F20201006809684BF2E07294
:10574000C1F34231C0F60402515CC840704700000A
:1057500010B543F60404C4F20204606800F00C00C3
:1057600008280BD0042819BF42F20040C0F2F40010
:1057700047F64000C0F27D1010BD00BF20682168D0
:105780002368490247F64001C0F27D1100F03F0254
:10579000C3F388105CBF42F20041C0F2F401A1FBE8
:1057A00000010023FAF71AFE21680222C1F3014129
:1057B00002EB4101B0FBF1F010BD00002DE9F0411A
:1057C00082B0002870D00446007843F60006C00777
:1057D000C4F202060BD0B06800F00C00042840F0C0
:1057E000A7803068800302D5606800285CD02078EC
:1057F00080071AD5B06810F00C0F09D0B06800F01F
:105800000C00082840F0AE807068400200F1AA80C9
:105810003068800702D5E068012845D130682169E9
:1058200020F0F80040EAC1003060207800073FD443
:105830002078400754D4A5698DB3B06800F00C00FF
:10584000082840F0C380012D2ED07068E16900F473
:1058500080028A4228D1216A00F03F028A4223D185
:1058600047F6C071626A0140B1EB821F1CD1A26A87
:105870000023CFF6FF7303EBC23200F440316FF325
:105880000F02914210D1E16A00F07062B2EB016F39
:105890000AD1216B00F0E040B0EB017F04D1002081
:1058A00002B0BDE8F08100BF012002B0BDE8F08188
:1058B0006069002840F20000C4F2472076D0012140
:1058C000C0F8801EFEF762FA054600BF706F8007C1
:1058D000AED4FEF75BFA401B0228F7D9DDE000BF2B
:1058E000306C10F080580AD100200190306C40F0EC
:1058F00080503064306C00F080500190019847F285
:105900000007C4F200073868C00541D4386840F485
:1059100080703860FEF73AFA054600BF3868C00567
:1059200036D4FEF733FA401B0228F7D9B5E000BFA2
:10593000B06800F00C00082803D1706840023FF501
:1059400050AF6068B0F5803F07D0B0F5A02F40F0B1
:105950008D80306840F480203060306840F48030C2
:1059600030608DE0E068002852D00020C4F247206B
:1059700001210160FEF70AFA054600BF3068800782
:105980003FF54CAFFEF702FA401B0228F6D984E03F
:10599000A068012805D005284ED1306F40F00400E2
:1059A0003067306F40F0010030674FE00021C0F8F1
:1059B000801EFEF7EBF90546706F80077FF538AF64
:1059C000FEF7E4F9401B0228F6D966E00027C4F28E
:1059D000472700203866FEF7D9F9022D05460BD17E
:1059E000306880015ED5FEF7D1F9401B02284FF0E8
:1059F0000300F5D954E700BF306880017FF54FAF51
:105A0000FEF7C4F9401B02284FF00300F4D947E722
:105A10000020C4F2472000210160FEF7B7F90546D7
:105A2000306880077FF501AFFEF7B0F9401B022810
:105A30004FF00300F4D933E7316F002821F0010162
:105A40003167316F21F00401316751D0FEF79EF9C3
:105A5000054641F2883700BF306F80075AD4FEF701
:105A600095F9401BB842F7D917E000BF316800280C
:105A700021F480313160316821F48021316053D0CC
:105A8000FEF784F9054600BF306880033FF5AFAEEE
:105A9000FEF77CF9401B6428F6D9032002B0BDE86C
:105AA000F08100BF04F11C052FCD246B08430021B9
:105AB000CFF6FF7140EA821001EBC3316FF30F01A3
:105AC00040EA0560084340EA0470706001203866CF
:105AD000FEF75CF9044600BF306880013FF5DFAE99
