:020000040800F2
:10000000A80A0020010100083B1B0008BD160008DB
:10001000391B0008B50200086D1F00080000000031
:10002000000000000000000000000000191C000893
:10003000B7020008000000003D1B00081B1C000860
:100040001B0100081B0100081B0100081B01000820
:100050001B0100081B010008B9020008ED0200089E
:10006000F3020008F9020008FF0200081B01000863
:100070001B0100081B0100081B0100081B010008F0
:100080001B0100081B0100081B0100081B010008E0
:100090001B0100081B0100081B01000805030008E4
:1000A0001B0100081B0100081B0100081B010008C0
:1000B0001B0100081B0100081B0100081B010008B0
:1000C0001B0100081B0100081B0100081B010008A0
:1000D0001B0100081B0100081B0100081B01000890
:1000E000BF0200081B0100081B010008DFF80CD04C
:1000F00000F040F80048004771230008A80A0020DB
:100100000648804706480047FEE7FEE7FEE7FEE7B1
:10011000FEE7FEE7FEE7FEE7FEE7FEE77B1C0008E2
:10012000ED000008D2B201E000F8012B491EFBD21D
:1001300070470022F6E710B513460A4604461946F2
:10014000FFF7F0FF204610BD30B50B4601460020FA
:100150002022012409E021FA02F59D4205D303FA89
:1001600002F5491B04FA02F52844151EA2F101020A
:10017000F1DC30BD064C074D06E0E06840F00103BD
:1001800094E8070098471034AC42F6D3FFF7B2FF6B
:100190000446000824460008314AD37840F6C412C9
:1001A00039B37BB1012B14D0022B19D0032B08D10A
:1001B000016801F57A71914219D8016801F57A71E7
:1001C000016070470168491C914210D80168491CC0
:1001D000F6E701680A31914209D801680A31EFE770
:1001E00001686431914202D801686431E8E7026035
:1001F000704764219BB1012B1CD0022B25D0032B0F
:10020000F6D10368A3F57A73642BD9D30368A3F5F9
:100210007A739342D4D80168A1F57A71D0E7036864
:100220005B1E642BCCD303685B1E9342C8D8016865
:10023000491EC5E703680A3B642BC1D303680A3B28
:100240009342BDD801680A39BAE70368643B642B5E
:10025000B6D30368643B9342B2D801686439AFE710
:100260000000002002784078012A09D0012816D029
:10027000022816D0032817D10C4800BFFFF78CBF07
:10028000012806D0022807D003280DD10748001FF7
:10029000F4E706480C38F1E704480838EEE704486C
:1002A000ECE70348001FE9E770470000400000400A
:1002B00038040040FEE77047012000F0C5B810B5D3
:1002C0004FF4806000F0C0F84FF4006000F0BCF81C
:1002D0004FF4805000F0B8F84FF4005000F0B4F83C
:1002E000BDE810404FF4004000F0AEB8022000F02E
:1002F000ABB8042000F0A8B8082000F0A5B8102082
:1003000000F0A2B810B5202000F09EF8402000F0C8
:100310009BF8BDE81040802000F096B872B6FEE76A
:1003200070B5044600F096F90546601C02D00448FA
:100330000078044400F08EF9401BA042FAD370BD4F
:100340000C0000202DE9F0413C4C3B4A02270126DD
:1003500004F1090510280FD091144FF003088842CA
:100360002BD1104600F06CF900281BD1A07898B171
:10037000E078C8B1401E0BE01021104600F060F993
:1003800000280FD1A07838B1E078032802D0401CB3
:10039000E0700BE00020FBE72878012809D0022854
:1003A00009D02670BDE8F08184F8038002F054F88B
:1003B000F7E72F70F5E72E70F3E74FF4004188421E
:1003C00010D1104600F03CF90028EBD1A07808B11C
:1003D000012113E06878012820D002281AD00328D0
:1003E000DFD119E04FF4005188421AD1144800F0CF
:1003F00027F90028D6D1A07828B100210F4809306C
:10040000FFF730FFCDE76878012805D0022805D036
:100410000328C6D16E70C4E76F70C2E785F801800B
:10042000BFE70828BED10821064800F009F90028D6
:10043000B8D16670B5E70000000801400000002058
:1004400000100140000C0140044910B50A68024246
:1004500002D00860FFF776FF10BD000014040140D1
:100460002DE9F84FDFF8B891002409F1040A0AF1E8
:10047000040B23460F270BF1040EC9E00125A5400C
:100480002A40AA427DD1674ED1F804C0ACEB0608E1
:10049000B44532D014DCBCF1030F3AD009DCBCF116
:1004A000000F2AD0BCF1010F1CD0BCF1020F31D1DA
:1004B0001DE0BCF1110F17D0BCF1120F2AD119E0C9
:1004C000B8F5881F19D006DCB8F5803F15D0B8F50F
:1004D000801F1FD111E0B8F5001F0ED0B8F5041F22
:1004E00018D10AE0CB6815E0CB681B1D12E0CB6881
:1004F00008330FE0CB680C330CE08B682BB1012B79
:100500004FF0080303D0456104E0042302E00561D5
:1005100000E00023FF2A01D8064601E000F10406AE
:100520004FEA840501D9A5F12005D6F8008007FA25
:1005300005FC28EA0C0803FA05F548EA0508C6F8A0
:1005400000804D68ED0062D5374DAE6946F001067A
:10055000AE61AD6924F0030605F001050095334D49
:1005600006EB050CDCF80850A607360F07FA06F86C
:1005700025EA0805DFF8B880404503D14FF00008B0
:1005800017E044E0DFF8AC80404502D14FF00108AD
:100590000FE0DFF8A480404502D14FF0020808E0E8
:1005A000DFF89880404502D14FF0030801E04FF09A
:1005B000040808FA06F848EA0508CCF808804D68EF
:1005C000D9F80060ED034D4601D5164300E096438F
:1005D0002E604D68DAF80060AD03554601D516432C
:1005E00000E096432E604D68DBF80060ED025D464A
:1005F00001D5164300E096432E604D68DEF800609A
:10060000AD02754601D5164300E096432E60641C8A
:100610000D682A46E5407FF431AFBDE8F88F000051
:1006200000040140000011100010024000000140D1
:1006300000080140000C014000100140001401407E
:100640008068084000D0012070470AB101617047FE
:100650000904FBE701488068704700000C00002097
:1006600070B5040025D094F83D00002520B984F829
:100670003C50204600F0B8F8242084F83D00206863
:10068000016821F0010101602068016841F4004126
:1006900001602068016821F40041016000F00AFA5D
:1006A0004D4A6168914201D84C4900E04C4988426A
:1006B00001D2012070BD4B492368B0FBF1F15E68A7
:1006C00026F03F060E435E606368934206D94FF4FE
:1006D000967359434FF47A73B1FBF3F12368491CC5
:1006E0001E6A26F03F06314319626168914210D8B4
:1006F0004900401EB0FBF1F2521CC2F30B02042A67
:1007000001D2042022E0B0FBF1F0401CC0F30B004A
:100710001CE0A268F2B301EBC10303EB0116431E18
:10072000B3FBF6F35B1C43F480431B0549D092B343
:1007300001EBC10202EB0111401EB0FBF1F0401CC5
:10074000C0F30B0040F4804040F400402168CA69C7
:100750004CF6FF739A431043C861D4E90710014374
:100760002068026822F0C00211430160D4E903014D
:1007700001432068826848F2FF339A431143816045
:10078000D4E9050108432168CA6822F0FF0210433A
:10079000C86001E00EE016E02068016841F0010148
:1007A00001602564202084F83D00256384F83E50D4
:1007B000002070BD01EB4106431EB3FBF6F35B1C4A
:1007C000B3E70120C2E701EB4101401EB0FBF1F0AD
:1007D000401CC0F30B00B7E7A086010080841E0018
:1007E00000093D0040420F0010B586B00021009185
:1007F00001910291039100681349884222D1134C60
:10080000A06940F00800A061A069694600F00800F6
:1008100004904FF440700090122001900320039048
:100820000B48FFF71DFE0B48416841F0E06141F0C5
:1008300002014160E06940F40010E061E06900F409
:100840000010049006B010BD00540040001002409B
:10085000000C014000000140024881680278114408
:10086000816070470C000020074810B5016841F016
:1008700010010160032000F075F8002000F006F878
:1008800000F024F8002010BD0020024070B50D4D8E
:1008900004464FF47A712878B1FBF0F00A490968F0
:1008A000B1FBF0F000F029FC48B9102C07D200226F
:1008B0002146501E00F036F800206C6070BD01200B
:1008C00070BD00000C000020180000200C4808B586
:1008D000816941F001018161816901F001010091AB
:1008E000C16941F08051C161C06900F08050009041
:1008F0000448416821F0E06141F00071416008BDA9
:100900000010024000000140002809DB00F01F0237
:10091000012191404009800000F1E020C0F8001161
:1009200070470000F0B40E4B1B680C46C3F3022363
:10093000C3F10705042D00D90425191D072901D28B
:10094000002300E0DB1E012606FA05F1491E2140C6
:1009500099409E40761E16403143F0BC01F01CBB0E
:100960000CED00E0064900F0070208684FF6FF03AF
:10097000184040EA0220034A104308607047000014
:100980000CED00E00000FA052DE9F0470F460500E8
:1009900061D0434E306800F00700B84209D2306899
:1009A00020F0070038433060306800F00700B8429C
:1009B00051D128683B4C810712D5400703D56068A8
:1009C00040F4E06060602878000703D5606840F478
:1009D000605060606068A96820F0F00008436060C3
:1009E0002878C00728D06868012810D0216802281C
:1009F00010D0890700292EDA616821F00301014334
:100A00006160FFF727FE804641F288390DE02168DA
:100A10008903EFE78901EDE7FFF71CFEA0EB080172
:100A2000494502D90320BDE8F0876068696800F095
:100A30000C00B0EB810FEFD1306800F00700B84236
:100A40000BD9306820F0070038433060306800F080
:100A50000700B84201D00120E5E72878400705D516
:100A60006068E96820F4E060084360602878000767
:100A700006D56068296920F4605040EAC1006060D2
:100A800000F038F86168084AC1F30311515CC840AE
:100A90000649086006480068FFF7F8FE0020C2E734
:100AA00000200240001002407038000818000020AA
:100AB000100000200448054900684968044AC1F351
:100AC0000221515CC840704718000020001002400D
:100AD000803800080448054900684968044AC1F3A1
:100AE000C221515CC840704718000020001002402D
:100AF0008038000812A185B00FC98DE80F0014A03E
:100B0000144A006804905168134801F00C03042B48
:100B100010D0082B0ED1C1F38343C9031DF8030085
:100B20000AD5516804AAC1F34041515C0A4A5043B6
:100B3000B0FBF1F005B0704708494843FAE7000000
:100B400002030405060708090A0B0C0D0E0F10100E
:100B5000010200000010024000127A0000093D006E
:100B60002DE9F84F040070D02078C04DC00749D05F
:100B70006868C0F38100012807D06868C0F381006D
:100B8000022809D16868C00306D52868800339D5D2
:100B900060680028E7D035E06068B0F5803F0BD092
:100BA00010B1B0F5A02F11D0286820F48030286053
:100BB000286820F4802002E0286840F48030286013
:100BC000606890B1FFF746FD06460AE0286840F4E9
:100BD00080202860F0E700BFFFF73CFD801B642801
:100BE00073D828688003F7D50CE0FFF733FD06467D
:100BF00005E000BFFFF72EFD801B6428F0D82868B1
:100C00008003F7D420789A4E80074FF001094FF007
:100C1000000839D5686810F00C0F07D06868C0F379
:100C20008100022809D16868C00306D428688007BB
:100C300014D52069012808D110E02069B0B1C6F8A8
:100C40000090FFF707FD074605E00AE1FFF702FD08
:100C5000C01B0228C4D828688007F7D528686169B6
:100C600020F0F80040EAC10028600DE0C6F80080DE
:100C7000FFF7F0FC074604E0FFF7ECFCC01B02287E
:100C800023D828688007F7D4207800072CD5794826
:100C9000A169D9B1C0F80090FFF7DCFC074604E079
:100CA000FFF7D8FCC01B02280FD8686A8007F7D569
:100CB00071484FF4FA510068B0FBF1F0009000BFAA
:100CC0000098411E0091FAD20EE080E0C0F800804A
:100CD000FFF7C0FC074604E0FFF7BCFCC01B02287E
:100CE00075D8686A8007F7D42078400760D5E8692E
:100CF0000027C00008D4E86940F08050E861E86946
:100D0000012700F0805000905C480168C90513D4A9
:100D10000168834641F480710160FFF79BFC8246C5
:100D200006E000BFFFF796FCA0EB0A0064284ED84F
:100D3000DBF80000C005F5D5E06801280AD008B14D
:100D4000052813D0286A20F001002862286A20F0C4
:100D5000040002E0286A40F001002862E06841F2E5
:100D6000883B98B1FFF776FC82460BE0286A40F09A
:100D700004002862EEE700BFFFF76CFCA0EB0A015D
:100D800059455AD8286A8007F6D50CE0FFF762FC6F
:100D9000824605E0FFF75EFCA0EB0A0159454CD8FE
:100DA000286A8007F6D41FB1E86920F08050E86116
:100DB000E06988B36968C1F38101022944D002283F
:100DC000C6F8608004D0FFF745FC044638E034E004
:100DD000FFF740FC074604E0FFF73CFCC01B02287D
:100DE0002BD828688001F7D4206AB0F5803F05D160
:100DF0006868A16820F4003008436860D4E90801FD
:100E00000843696821F4741108436860C6F860906B
:100E1000FFF720FC044606E025E000BFFFF71AFCC0
:100E2000001B022809D828688001F7D51BE000BF05
:100E3000FFF710FC001B022802D90320BDE8F88F41
:100E400028688001F4D40EE00128F7D06868226A8F
:100E500000F48031914204D1616A00F4701088423C
:100E600001D00120EAE70020E8E70000001002407E
:100E700000004242800442421800002000700040FE
:100E800070B5040009D0606A002540B12561656134
:100E9000A56294F8510040B10CE0012070BD60687B
:100EA000B0F5827FF4D0E561F2E784F85050204637
:100EB00000F040F8022084F851002068016821F019
:100EC00040010160A088218900F4827001F404418E
:100ED0000843A18901F400610843217C01F002016B
:100EE0000843217D01F001010843218B01F40071C9
:100EF0000843217F01F03801084394F8201001F0E5
:100F000080010843218D01F40051084321680860E5
:100F1000A069042101EA1040216848602068C16985
:100F200021F40061C1616565012084F85100002051
:100F300070BD000000B585B00021009101910291C3
:100F400003910068104988421BD11048C16941F4DF
:100F50008041C161C16901F480410491816941F01E
:100F6000080181618069694600F0080004904FF42F
:100F70002040009002200190032003900448FFF7D6
:100F80006FFA05B000BD00000038004000100240BC
:100F9000000C01402DE9F84F044690F8500000275E
:100FA0001D461646894601280DD04FF0010B84F8E6
:100FB00050B0FFF74FFB804694F85100BA46012825
:100FC00004D0022793E00220BDE8F88FB9F1000FAA
:100FD00073D0002E71D0032084F85100C4F854A0BF
:100FE000C4F83090A686E686C4F838A0A4F83CA0E1
:100FF000A4F83EA0C4F844A0C4F840A0A068B0F58E
:10100000004F09D12068016821F04001016020688B
:10101000016841F48041016020680168490603D4F9
:10102000016841F040010160E068B0F5006F606860
:1010300003D030B3012E24D041E008B1012E1CD1E1
:10104000206B21680088C86006E0206881688907F5
:1010500009D5216B0988C160206B801C2063E08E5C
:10106000401EE08609E0FFF7F5FAA0EB0800A84271
:1010700002D3681C01D031E07DB3E08E0028E4D1BA
:1010800020E0206B21680078087306E02068816802
:10109000890709D5216B09780173206B401C2063F7
:1010A000E08E401EE0860AE0FFF7D4FAA0EB0800CD
:1010B000A84203D3681C02D010E017E06DB1E08EA7
:1010C0000028E3D142462946204600F038FD08B109
:1010D00020206065A06818B106E0FFE7032706E05E
:1010E0002068C16880680090606D00B1012784F8B5
:1010F00051B084F850A0384666E710B5401EB0F1F4
:10110000807F01D3012010BD4FF0E02460610F21EA
:10111000601700F041FF0020A0610720206100203F
:1011200010BD10B590F83C20012A22D0012280F891
:101130003C20CA688C6822F4407222434C6822F436
:10114000806222430C6822F4006222430C6922F47C
:10115000805222434C6922F400522243C969002381
:1011600022F480420A4301684A6480F83C3000203F
:1011700010BD022010BD000070B590F83C20012A7F
:1011800026D0012480F83C40022280F83D200368EC
:101190005A689D6822F070060A6832435A600D4B07
:1011A00002689A4208D0B2F1804F05D00A4B9A42A9
:1011B00002D00A4B9A4204D1496825F080031943B2
:1011C000916080F83D40002180F83C10084670BDD9
:1011D000022070BD002C01400004004000080040C7
:1011E00010B5040003D094F83D0010B107E00120D1
:1011F00010BD002084F83C00204600F01FF80220BB
:1012000084F83D00211D206800F038FD012084F89D
:10121000460084F83E0084F83F0084F8400084F8DB
:10122000410084F8420084F8430084F8440084F8C4
:10123000450084F83D00002010BD000008B5124AAA
:1012400001681248914207D1816941F400618161CE
:10125000806900F4006014E0B1F1804F0AD00C4ABC
:1012600091420FD1C16941F00201C161C06900F032
:10127000020006E0C16941F00101C161C06900F0EE
:101280000100009008BD0000002C01400010024049
:101290000004004070B5044690F83C00012817D0C7
:1012A000012584F83C50022084F83D0020688268C3
:1012B00022F0770222F47F4282600868502830D002
:1012C0000DDC20284DD005DC98B310283BD148E038
:1012D000022070BD302844D0402834D139E0602845
:1012E00028D0702806D0B0F5805F2CD0B0F5005F14
:1012F00029D10AE0CB68D1E90121206800F001FD85
:101300002068816841F0770109E0CB68D1E90121CB
:10131000206800F0F6FC2068816841F4804181601B
:1013200011E0CA684968206800F0A0FD50212068DB
:1013300007E016E0CA684968206800F0A8FD60214F
:10134000206800F0E8FC84F83D50002084F83C0060
:1013500070BDCA684968206800F088FD4021206897
:10136000EFE7226801461046EBE7000010B586B0B3
:1013700000210091019102910391214C0368214ABF
:1013800002212148A3420AD1936943F004039361E7
:10139000926902F0040204924FF4706229E0B3F102
:1013A000804F1DD01948834218D1906940F0080041
:1013B00090619069039100F0080004903020CDE91D
:1013C000000169461248FFF74BF81248416821F4C2
:1013D000406141F0E06141F40061416006B010BD40
:1013E000936943F004039361926902F0040204924A
:1013F0000F22CDE9002103916946FFF731F8EDE7AF
:10140000002C014000100240000801400004004090
:10141000000C01400000014070B5044690F83C000B
:101420000D4601280AD0012084F83C0042B1042A6C
:1014300018D0082A2AD00C2A4DD139E0022070BDDC
:10144000206800F071FC2068816941F00801816129
:101450002068816921F004018161206881692A691D
:10146000114311E0206800F087FC2068816941F495
:10147000006181612068816921F480618161206857
:1014800081692A6941EA0221816124E0206800F033
:101490009FFC2068C16941F00801C1612068C169F1
:1014A00021F00401C1612068C1692A69114311E07A
:1014B000206800F0B9FC2068C16941F40061C16195
:1014C0002068C16921F48061C1612068C1692A690D
:1014D00041EA0221C161002084F83C0070BD10B5D2
:1014E000040003D094F83D0010B107E0012010BDC6
:1014F000002084F83C00204600F01EF8022084F80A
:101500003D00211D206800F0B9FB012084F8460051
:1015100084F83E0084F83F0084F8400084F84100DD
:1015200084F8420084F8430084F8440084F84500BD
:1015300084F83D00002010BD7047000010B504463F
:10154000022249B104290ED0082913D094F8410091
:10155000012816D0012010BD94F83E000128F9D1D1
:1015600084F83E200FE094F83F000128F2D184F87F
:101570003F2008E094F840000128EBD184F8402097
:1015800001E084F841200122206800F0ADFB0F4902
:101590002068884203D1426C42F4004242642068D1
:1015A000884208D0B0F1804F05D00949884202D066
:1015B0000849884204D1816801F00701062903D057
:1015C000016841F001010160002010BD002C0140C4
:1015D000000400400008004070B5040004D094F8F6
:1015E0003D00002510B106E0012070BD84F83C509C
:1015F000204600F023F8242084F83D002068C168CC
:1016000021F40051C160204600F054FC20680169BB
:1016100021F4904101612068416921F02A01416172
:101620002068C16841F40051C1602564202084F81D
:101630003D0084F83E00002070BD000030B585B04C
:10164000002400940194029403940068174988428E
:101650002AD11748816941F480418161816901F48F
:1016600080410491816941F0080181618069114DD7
:1016700000F0080004904020009002200190032018
:10168000039069462846FEF7EBFE8020CDE9000472
:10169000694628460294FEF7E3FE0748416841F098
:1016A000E06141F00401416005B030BD0038014007
:1016B00000100240000C014000000140FEE7000065
:1016C0002DE9F04786B000244C4800940194029420
:1016D0000394816941F010018161816901F0100179
:1016E0000491816941F004018161816901F0040183
:1016F0000491816941F0080181618069DFF800A1EE
:1017000000F008004FF4A0480490002241465046E3
:10171000FEF79BFF3B4E4FF40050CDE9000601253C
:10172000694602953848FEF79BFE49F21000CDE964
:101730000006DFF8D890694602954846FEF790FE0D
:10174000334FE020CDE90007694602944846FEF792
:1017500087FE40F60740CDE90007694602945046EF
:10176000FEF77EFE0220CDE90240CDE90085694604
:101770005046FEF775FE0820CDE900066946029541
:101780005046FEF76DFE002211460620FFF7CAF80C
:101790000620FFF7B9F8002211460720FFF7C2F82C
:1017A0000720FFF7B1F8002211460820FFF7BAF82A
:1017B0000820FFF7A9F8002211460920FFF7B2F828
:1017C0000920FFF7A1F8002211460A20FFF7AAF826
:1017D0000A20FFF799F8002211461720FFF7A2F818
:1017E0001720FFF791F8002211462820FFF79AF8FA
:1017F0002820FFF789F806B0BDE8F0870010024006
:10180000000C0140000021100010014000080140C0
:10181000000011100D4810B50B4901600C494160E2
:1018200000214FF480428160C0E90312416181616F
:10183000C1610162FEF714FF002803D0BDE810402B
:10184000FEF76CBD10BD000000540040E000002019
:10185000A08601000F4810B50D4901604FF4827158
:10186000416000218160C1604FF400720161C0E9F4
:101870000512C1610162416281620A21C162FFF702
:10188000FFFA002803D0BDE81040FEF747BD10BDA9
:10189000003800403401002010B596B000240F94A9
:1018A00010941194129413941C2168461494FEF71A
:1018B00040FC202107A8FEF73CFC34483249016077
:1018C0002321C0E9011444F61F61C0E903144461F7
:1018D0008461FFF785FC08B1FEF720FD4FF48050CE
:1018E0000F900FA92948FFF7D5FC08B1FEF716FDA8
:1018F0002648FFF7F4FD08B1FEF710FD139413A975
:1019000022481494FFF738FC08B1FEF707FD602069
:10191000CDE90004029403940494059400226946DE
:101920001A480694FFF778FD08B1FEF7F7FC042289
:1019300069461648FFF770FD08B1FEF7EFFC082274
:1019400069461248FFF768FD08B1FEF7E7FC0C2274
:1019500069460E48FFF760FD08B1FEF7DFFC07940B
:10196000089409944FF400500A94CDE90B4007A95C
:1019700006480E94FFF7D5FB08B1FEF7CFFC0348ED
:10198000FFF7F4FC16B010BD002C01408C010020C4
:1019900010B58EB000240794089409940A940B940F
:1019A0001C2168460C94FEF7C4FB2A484FF0804186
:1019B00001602321C0E9011444F61F61C0E903144A
:1019C0008461FFF70DFC08B1FEF7A8FC4FF48050CE
:1019D000079007A91F48FFF75DFC08B1FEF79EFCC2
:1019E0001C48FFF77CFD08B1FEF798FC0B940BA98F
:1019F00018480C94FFF7C0FB08B1FEF78FFC60207D
:101A0000CDE9000402940022694612480494FFF7CD
:101A100003FD08B1FEF782FC042269460D48FFF77A
:101A2000FBFC08B1FEF77AFC082269460948FFF77B
:101A3000F3FC08B1FEF772FC0C2269460548FFF77B
:101A4000EBFC08B1FEF76AFC0248FFF78FFC0EB012
:101A500010BD0000D401002010B58EB00024079402
:101A6000089409940A940B941C2168460C94FEF780
:101A700060FB2248204901602321C0E9011444F69B
:101A80001F61C0E903148461FFF7AAFB08B1FEF7E8
:101A900045FC4FF48050079007A91848FFF7FAFB60
:101AA00008B1FEF73BFC1548FFF719FD08B1FEF73A
:101AB00035FC0B940BA911480C94FFF75DFB08B1A2
:101AC000FEF72CFC6020CDE9000402940022694658
:101AD0000A480494FFF7A0FC08B1FEF71FFC04229B
:101AE00069460648FFF798FC08B1FEF717FC034863
:101AF000FFF73CFC0EB010BD000400401C020020AB
:101B00000C4810B50A4901604FF4E13141600021F1
:101B100081600C22C160C0E904128161C161FFF7DC
:101B20005BFD002803D0BDE81040FEF7F7BB10BDF9
:101B30000038014064020020FEE7FEE7704738B538
:101B40000B46009204460022802100F009F800288C
:101B500004D0606D40F020006065032038BD0000B7
:101B60002DE9F8431E46914688460446089DFEF737
:101B700071FD401B351AFEF76DFD074625480068CC
:101B8000C0F3CB30684338E0701C37D0FEF762FDFD
:101B9000C01BA84203D215B1009860B32CE02068A6
:101BA000416821F0E00141606068B0F5827F0BD1AF
:101BB000A068B0F5004F02D0B0F5806F04D1206866
:101BC000016821F040010160A06AB0F5005F09D111
:101BD0002068016821F4005101602068016841F427
:101BE00000510160012084F85100002084F8500069
:101BF0000320BDE8F8830025401E0090206881681E
:101C000038EA010004D000214945BDD10020F0E7A9
:101C10000121F9E7180000207047FEF71DBE30B51E
:101C20008FB028216846FEF784FA14210AA8FEF72F
:101C300080FA0225012004900095102005900024D0
:101C40004FF4E010CDE9084007956846FEF788FF9D
:101C500008B172B6FEE70F20CDE90A054FF48060A7
:101C6000CDE90C4001210AA80E94FEF78DFE002854
:101C700001D072B6FEE70FB030BD7047F0B5026814
:101C8000164B174C174D4FF08047984205D0B8427D
:101C900003D0A04201D0A84203D122F070064A68C6
:101CA0003243984205D0B84203D0A04201D0A842A6
:101CB00003D122F44074CA6822434C6922F08002A6
:101CC000224302608A68C2620A688262984201D135
:101CD0000969016301214161F0BD0000002C014050
:101CE000000400400008004010B501F01F0301216E
:101CF000046A99408C430462016A9A40114301626C
:101D000010BD10B5846842EA032224F47F440A43DC
:101D10002243826010BD826822F070020A4342F0C2
:101D2000070181607047000030B5026A22F00102AD
:101D30000262026A4368846924F073050C682C43CC
:101D400022F002058A682A430A4DA8420BD122F0EC
:101D50000805CA6823F440732A434D6922F004023F
:101D60001D438B692B434360846149684163026270
:101D700030BD0000002C014030B5026A22F0100294
:101D80000262026A436884690D6824F4E64444EA06
:101D900005248D6822F0200242EA05120B4DA8426C
:101DA0000ED1CD6822F0800242EA05124D6923F47B
:101DB000406343EA85038D6922F0400243EA8503CC
:101DC0004360846149688163026230BD002C014038
:101DD00030B5026A22F480720262036A4268C46902
:101DE00023F4007324F073050C682C438D6843EAD8
:101DF00005230C4DA8420ED1CD6823F4006343EABD
:101E000005234D6922F4405242EA05128D6923F4FC
:101E1000806342EA05124260C4614968C16303629B
:101E200030BD0000002C014030B5026A22F480521F
:101E30000262046A4268C3690D6823F4E64343EA18
:101E400005238D6824F4005444EA0534064DA84265
:101E500004D14D6922F4804242EA85124260C36196
:101E600049680164046230BD002C014010B5036A6A
:101E7000046A24F001040462846924F0F00444EA52
:101E8000021423F00A020A438461026210BD10B5F5
:101E9000036A23F0100303628369046A23F4704326
:101EA00043EA023224F0A00343EA01118261016295
:101EB00010BD000070B5044600680169E26821F4B5
:101EC0004051114301612169A068084361690843D9
:101ED0002168CA6841F20C639A430243CA602068D1
:101EE0004169A26921F44071114341611E49206892
:101EF000884202D1FEF7EEFD01E0FEF7DBFD00EBCC
:101F0000C00101EB0012606864218000B2FBF0F3B5
:101F1000B3FBF1F36FF018067343B2FBF0F5B2FBBD
:101F2000F0F605EB8305322303EB0515B5FBF1F560
:101F3000B6FBF1F605F0F00505EB0615B2FBF0F681
:101F4000B2FBF0F0B0FBF1F06FF01802504306EB7B
:101F5000800003EB0010B0FBF1F0216800F00F00EF
:101F60002844886070BD000000380140FEE7000092
:101F70000FB4084B10B504A902AA039800F02CF87E
:101F8000044602A9002000F0C8F9204610BC5DF804
:101F900014FB00001B2300080907090E002804DBBE
:101FA00000F1E02080F80014704700F00F0000F10D
:101FB000E02080F8141D704702E008C8121F08C115
:101FC000002AFAD170477047002001E001C1121FBA
:101FD000002AFBD1704700002DE9FF4F8BB08846E7
:101FE0000546002606E025280BD0DDE90D129047B6
:101FF0006D1C761C28780028F5D10FB03046BDE85E
:10200000F08F0024A146A2460122AE4900E004431D
:1020100015F8013F203B02FA03F00842F7D1287877
:102020002A2810D06FF02F022878A0F1300109295A
:1020300015D809EB890102EB410144F0020400EBE1
:1020400001096D1CF0E758F8041B5FEA010903D58C
:1020500044F40054C9F1000944F002046D1C2878CE
:102060002E2817D115F8010F44F004042A280ED0A9
:102070006FF02F022878A0F1300109290AD80AEB65
:102080008A0102EB410100EB010A6D1CF2E758F8EE
:1020900004AB6D1C28786C280FD006DC4C2817D0B8
:1020A00068280DD06A2814D104E0742810D07A284A
:1020B0000FD10DE044F400140AE044F4801401E070
:1020C00044F440146978814202D104F580146D1CF7
:1020D0006D1C2878692865D006DC00288DD063281F
:1020E00027D0642806D15DE06E2808D073282AD056
:1020F000752877D0DDE90D129047761CE0E0C4F337
:102100000250022809D003280DD0D8F80010042866
:102110000DD00E6008F10408D2E0D8F80010F217D4
:10212000C1E90062F6E7D8F800100E80F2E70E7001
:10213000F0E718F8041B8DF8001000208DF801005E
:10214000EB46012003E058F804BB4FF0FF30610775
:102150004FF0000701D40AE07F1C57450DDA874293
:10216000FADB1BF807100029F6D106E07F1C874236
:10217000FCDB1BF807100029F8D1DDE90D23A9EBE2
:1021800007008146214600F0B1F83044C61904E04A
:10219000DDE90D121BF8010B90477F1EF8D2214696
:1021A000484688E058F8040BC4F302514FF00A0B7C
:1021B000032900D100B2042900D140B2002802DA7C
:1021C00040422D2102E0210505D52B218DF8241058
:1021D000012104E006E0E10710D02021F6E708AF76
:1021E000089113E058F8040BC4F302514FF00A0BA6
:1021F000032900D180B2042900D1C0B20021EEE74A
:102200005946FDF7A1FF303107F8011D0028F7D12D
:10221000ADEB070000F1200B600702D524F48034F9
:1022200001E04FF0010ADA4502DDAAEB0B0000E005
:102230000020824600EB0B0108980144A9EB010045
:102240000A90E00306D4DDE90D2321460A9800F048
:102250004DF806444FF0000908E009A911F80900FB
:10226000DDE90D12904709F10109761C08998945AD
:10227000F3DBE0030CD5DDE90D2321460A9800F0DD
:1022800035F8064404E0DDE90D1230209047761C55
:10229000BAF10001AAF1010AF5DC05E0DDE90D1251
:1022A00017F8010B9047761CBBF10001ABF1010B55
:1022B000F4DC0A982146DDE90D2300F005F8064418
:1022C0006D1C97E6092801002DE9F0410446002520
:1022D0001E461746880404D405E039462020B0473E
:1022E0006D1C641EF9D52846BDE8F0812DE9F0414A
:1022F000044600251E469046C80301D5302700E05D
:102300002027880404D505E041463846B0476D1CB7
:10231000641EF9D52846BDE8F0810A68531C0B609D
:102320001070704770B514460D460646012B02D159
:102330000C4800F053FA0C490A4800F0C2FB094867
:1023400032460AA18430FFF713FE064BE2B2E9B22F
:102350008433044800F086FBBDE87040014800F07B
:10236000A7BB00001C00002088380008257300006F
:10237000FEF77AFAFFF753FCFFF7A2F9FFF78CFAA2
:10238000FFF706FBFFF768FBFFF764FAFFF7B8FB00
:10239000FFF740FA284B294A29492A4800F0D6FB82
:1023A000284801F087F80021264801F093F8002121
:1023B0002548FFF7C3F804212348FFF7BFF8082199
:1023C0002148FFF7BBF80C211F48FFF7B7F80021A1
:1023D0001E48FFF7B3F804211C48FFF7AFF80821A7
:1023E0001A48FFF7ABF80C211848FFF7A7F80021AF
:1023F0001748FFF7A3F804211548FFF79FF84FF09F
:10240000804040F26C7141634FF4966181634FF4F8
:10241000FA71C1630F4A40F2DC511160121F4FF490
:102420007A7111604FF4E161016400F095F800BF2A
:1024300000F04AF9FCE70000493200084D35000879
:10244000E44400081C0000208C010020D40100207E
:102450001C0200203804004038B51D4CE07830B133
:10246000012806D002282FD0032804D12EE01F20F7
:1024700000E0162020720F25042203231146154880
:10248000009500F0B4F9032304220D2111480095B2
:1024900000F0ADF90323042216210E48009500F048
:1024A000A6F9032304221F210A48009500F09FF992
:1024B000009503230422217A064800F0B8F9BDE80C
:1024C0003840044800F0F4BA0D20D3E70420D1E7E7
:1024D000000000201C0000201D4908B50A78A1F169
:1024E0000900012A02D0022A04D101E0112200E0F1
:1024F000502242714978012904D0022904D00329CD
:1025000004D10CE0132100E023218171417889B1CD
:10251000C2790021022A04D0032A0AD106E035211B
:10252000F3E70322C2710122827002E00222C2712B
:10253000817041700F210091C379827941790548FA
:1025400000F075F9BDE80840024800F0B1BA00009B
:10255000090000201C00002038B501230922282191
:102560004FA0FFF7DFFE0B20024600907D230021E5
:102570004D4800F00BFA1B20024600907D230021FD
:10258000494800F003FA2D20024600907D230021E7
:10259000454800F0FBF93F247D23224600214248B4
:1025A000009400F0F3F900230B2219463E480094F2
:1025B00000F0ECF909230B2219463B48009400F087
:1025C000E5F93F230B2219463748009400F0DEF965
:1025D00048230B2219463448009400F0D7F97D2394
:1025E0000B2219463048009400F0D0F9002317223E
:1025F00001212EA0FFF796FE0023292201212CA005
:10260000FFF790FE00233B2201212AA0FFF78AFE5C
:1026100000231722402128A0FFF784FE002329224F
:10262000402126A0FFF77EFE00233B22402124A06C
:10263000FFF778FE234D287960B30F24042203238B
:1026400011461948009400F0D2F8032304220D210A
:102650001548009400F0CBF80323042216211248F9
:10266000009400F0C4F8032304221F210E480094B4
:1026700000F0BDF8032304221F210B48009400F052
:10268000D6F80223132211210748009400F0CFF856
:1026900000202871BDE83840034800F009BA000066
:1026A00050312041524D00001C000020310000003C
:1026B000320000003300000034000000350000004C
:1026C000360000000000002010B53F4C207850B1CB
:1026D0003E4800F083F8FFF73FFFFFF7FDFEFFF7EE
:1026E000BBFE002020703A49384800F0EAF94FF06C
:1026F0008044626B354837A18430FFF739FC334B97
:10270000172284331821314800F0ACF930492F48A2
:1027100000F0D7F9A26B2D482EA18430FFF728FCDA
:102720002A4B292284331821284800F09BF9284994
:10273000264800F0C6F9E26B244826A18430FFF752
:1027400017FC224B3B2284331821204800F08AF9E1
:102750001F491E4800F0B5F91F4802681B481DA11B
:102760008430FFF705FC194B172284335721174893
:1027700000F078F91649154800F0A3F91648001F33
:102780000268124813A18430FFF7F2FB0F4B292295
:10279000843357210D4800F065F90D490B4800F0CE
:1027A00090F9226C09480BA18430FFF7E1FB074B3D
:1027B0003B2284335721054800F054F9BDE810400E
:1027C000024800F075B90000000000201C00002045
:1027D00088380008253464003804004001680A7C09
:1027E00090F83810406B5143C900FDF7A2BC2DE9A9
:1027F000F8431C4680461019401CC0B200900819CE
:10280000401CC3B21546101BC2B20E46081BC1B213
:10281000089F404600F034F9002806D023462A4697
:1028200031464046009700F047FABDE8F8832DE9AD
:10283000F8431C4680461019401CC0B2009008198D
:10284000401CC3B21546101BC2B20E46081BC1B2D3
:10285000089F404600F014F9002806D023462A4677
:1028600031464046009700F0B9FABDE8F8832DE9FB
:10287000F041044690F862001F4615460E4630B1FE
:10288000012809D002280CD0032815D10FE0216DB2
:1028900020468847284408E0216D20468847301AA2
:1028A00009E0216D20468847281AC5B204E0216D51
:1028B000204688473044C6B2284684F8586084F8D9
:1028C000590039460025204600F060FC010003D085
:1028D000204600F08FFBC5B22846BDE8F08100001D
:1028E0003FB581B0044690F87C00089900283AD0A2
:1028F0009DF81000002836D0012811D9022902D0F5
:10290000032907D00CE09DF80820101A401C8DF810
:10291000080005E09DF80C20101A401C8DF80C00F2
:1029200011F0010521D094F841109DF80800814272
:1029300019D894F84210814215D994F8443094F88B
:10294000432004A90DF10C0000F098F900280AD0EA
:102950000095206B9DF810309DF80C2085689DF83F
:1029600008102046A84705B030BD94F843109DF8E4
:102970000C008142F7D894F844108142F3D994F8BE
:10298000423094F8412004A902A8DDE72DE9FF5F59
:102990001C460E984FF00009A14201D90B1B00E024
:1029A000631ADDB2824201D9131A00E0831ADEB243
:1029B000AE420AD92B4635461E460B4611461A46EC
:1029C000234604464FF001091846A14205D90B469B
:1029D00021461C461346024618464FEA55089042C7
:1029E00001D9012001E04FF0FF3082469346FF2CD1
:1029F00000D1FE240F4617E0B9F1000F18D03A4677
:102A00005946009800F017F8A8EB060040B25FEABC
:102A1000000807D50BEB0A0000F0FF0B08EB0500E0
:102A20004FFA80F87F1CFFB2A742E5D9BDE8FF9FAF
:102A30005A463946E5E708B590F84330934210D836
:102A400090F8443093420CD990F841308B4208D82A
:102A500090F842308B4204D9002300930123FFF702
:102A60003FFF08BD30B4024C446030BC00F061BA96
:102A70003D35000838B501240094FFF731FF38BD1B
:102A800070B50D461E46044690F8441090F8430079
:102A9000049B00F00BFC002809D094F8421094F835
:102AA000410033462A46BDE8704000F0FFBB70BDD0
:102AB00010B5044600F089FC2046BDE8104000F047
:102AC00001BD10B50446C06C884209D004F1640011
:102AD000E16400F045FC2046BDE8104000F052B82B
:102AE00010BD00000149016570470000A92F0008D2
:102AF000002180F8451080F84710FF2180F846102B
:102B000080F84810016B4968084770B504460025F5
:102B10000498E564E362616384F8382084F83950EE
:102B200084F85F5084F88150012184F8821084F881
:102B3000831020630168204688472046FFF7D8FFAE
:102B40002046FFF7CFFF84F8625070BD7CB50C467D
:102B5000009313460546084A084900F0C3FC01A843
:102B600000F0F8FB0146064B00949DF8042028462F
:102B7000FFF7CBFF7CBD0000DF35000855370008AC
:102B8000C532000810B5C16C00291AD090F9713017
:102B900080F87E3090F9722080F87F2090F87D10C8
:102BA00000290ED001290DD090F96E4090F97010D7
:102BB0000C449C4201DD80F87E408A4201DD80F8B1
:102BC0007F1010BD90F973108B4201DA80F87E10EF
:102BD00090F97410F1E72BB1012B05D0022B06D030
:102BE000104402E0084400E0801AC0B27047401A66
:102BF000FBE72BB1012B05D0022B06D0401A02E0D7
:102C0000104400E00844C0B27047801AFBE738B5B2
:102C1000044690F84800009094F8463094F8472015
:102C200094F845102046FFF72BFF18B3012084F8D5
:102C30007C0094F8411094F84500814201D284F858
:102C4000410094F8421094F84600814201D984F87A
:102C5000420094F8431094F84700814201D284F86E
:102C6000430094F8441094F84800814201D984F854
:102C7000440038BD002084F87C0038BD30B50478AD
:102C80000D782544EDB2AC4205D99C4202D25D1EBE
:102C9000EDB200E014469C4201D2954201D80020DA
:102CA00030BD944200D214469D4200D91D460470A6
:102CB000281B0870012030BD2DE9FF4FC3F1010032
:102CC00083B046B258429146DDF840A040008B46A2
:102CD00001271C46CDE9009A00254FFA80F85B4693
:102CE0002246294615E0002E08DB08F102004FFAC3
:102CF00080F8641E06EB0800E4B246B26D1CBF1CEF
:102D00007FB2CDE9009AEDB2F01946B25B46224699
:102D10002946039800F005F8A542E4D307B0BDE8C2
:102D2000F08F2DE9FF4F83B00E46DDE9108703EBEE
:102D3000060002901546A8EB0600019003EB050083
:102D40001C46F907A8EB050B00900DD002980BF07C
:102D5000FF02C1B20398FFF76EFE0198C2B200985D
:102D6000C1B20398FFF767FEB907A4EB060AA4EB0C
:102D700005090DD50BF0FF020AF0FF010398FFF7DC
:102D80005AFE019809F0FF01C2B20398FFF753FE03
:102D900008EB0504390708EB06050BD50298E2B2EB
:102DA000C1B20398FFF747FE0098EAB2C1B2039898
:102DB000FFF741FE78070ED5E2B20AF0FF01039853
:102DC000FFF739FE039807B0EAB209F0FF01BDE84A
:102DD000F04FFFF730BE07B0BDE8F08F2DE9FF4F91
:102DE000C3F1010083B046B258429146DDF840A0DD
:102DF00040008B4601271C46CDE9009A00254FFA7A
:102E000080F85B462246294615E0002E08DB08F1D3
:102E100002004FFA80F8641E06EB0800E4B246B2E6
:102E20006D1CBF1C7FB2CDE9009AEDB2F01946B21D
:102E30005B4622462946039800F005F8A542E4D3F4
:102E400007B0BDE8F08F2DE9FF4F83B0164610980C
:102E50000F46A0EB060B03EB070001901098DDF87E
:102E60004490A0EB070098465FEAC97103EB060A9D
:102E700002F1010507F1010400900FD00198EBB2B7
:102E8000C1B20BF0FF020398FFF7F4FD0098E3B224
:102E9000C2B20AF0FF010398FFF7ECFD5FEA897107
:102EA000A8EB0707A8EB06060DD5EBB20BF0FF0267
:102EB000F9B20398FFF7DEFD0098E3B2C2B2F1B2B7
:102EC0000398FFF7D7FD5FEA09700DD50198EBB2C3
:102ED000C1B2109A0398FFF7CDFDE3B20AF0FF01EB
:102EE000109A0398FFF7C6FD5FEA49700ED5EBB262
:102EF000F9B2109A0398FFF7BDFD109A039807B036
:102F0000E3B2F1B2BDE8F04FFFF7B4BD07B0BDE8E2
:102F1000F08F38B590F83C50049C0094521BC46A62
:102F2000D2B2A04738BD38B5049C0094FFF7F1FF3A
:102F300038BD2DE9F0471C4691468846064600F00C
:102F400093FC00254FF6FF77726821783046904752
:102F50000346B84225D0641CA3F57F40FE38F3D069
:102F60004A4641463046FFF782FC96F8621031B17E
:102F7000012907D0022908D003290FD10AE008EB64
:102F8000000104E009EB000106E0A8EB000101F0FC
:102F9000FF0803E0A9EB000101F0FF092844C5B2D6
:102FA000D2E72846BDE8F0870020704710B50C46F0
:102FB00000F006F80122641EA240801A40B210BD43
:102FC00030B50568847A2A78E2406318DBB2082BB2
:102FD00009D36D1C05602D78C4F10804A540154384
:102FE000083BEAB2DBB201248C40641E14408372B9
:102FF000204630BD2DE9F843054600F1540400F0A9
:1030000008F915F95D6F2046697BFFF7CFFF814610
:10301000A97B2046FFF7CAFF0746E97B20465D3DB6
:10302000FFF7C4FF804694F90800002855DDF01929
:10303000404247B2A37B20793A464946FFF7CBFD91
:103040002071A37B3A4660794946FFF7D2FD607153
:103050002179A77B02460B4637B1012F09D0022FF9
:103060003ED0032F0DD143E0277A30443B44DBB2FE
:1030700006E0891B491C277A5B1CC9B2DBB23844C5
:10308000C0B200902846FFF7FBFC30B30020A071CF
:1030900084F8070095F866102046FFF791FF8146F7
:1030A00095F867102046FFF78BFF07460022494638
:1030B000284600F025F801223946284600F020F87D
:1030C00001212046FFF77CFF0028EFD194F907008B
:1030D000B042DFDB207B85F882004046BDE8F88304
:1030E000277A5B1CC91B491CC9B2DBB2921B03E0E7
:1030F000277A3344DBB2D21B521CD2B2401CBFE74A
:103100002DE9F74F84B00D46049C94F85A7094F85A
:103110005B805434207AC01BC6B20196B54200D2FF
:1031200001954FFA88F279B2207994F805B0A37B23
:1031300092468946FFF74FFD0290A37B52464946CF
:103140005846FFF756FD0246069808B1217B02E07B
:10315000E07A50B9617B049880F88210A07B0090DF
:10316000DDE901310498FFF7BBFBB54207D3A81B8B
:10317000C5B208F10100002700F0FF08CAE778197E
:10318000A07184F8078007B0BDE8F08F70B50D46D8
:103190000146C06C1730FF2D10D8612D02D3B1F855
:1031A000781003E0412D02D3B1F87610084441783D
:1031B00019B30278AA42F9D1801C70BDB1F87A1017
:1031C0000C1826460021304600F019F8044402216C
:1031D000304600F014F8361DA842F3D34FF6FF72C4
:1031E000207802EA00216078084306D0A84201D185
:1031F000E01C70BDA0780444F2E7002070BD0844D4
:103200004FF6FF720178407802EA0121084480B24B
:10321000704730B5054600F1540441650020A072A6
:1032200015F8681F2046FFF7CBFE2072697820460C
:10323000FFF7C6FE6072A87E207310B10020607395
:1032400030BD0120FBE7000010B51046492928D009
:1032500006DC29290BD02A290CD02B2905D112E014
:10326000114B4A2911D04B2914D0002010BDFDF775
:1032700057F816E000204FF4A07100BF401C80B248
:103280008842FAD30DE000BF0BE04FF4805103E019
:10329000012203E04FF48041002AF9D11846FDF7DE
:1032A000D4F9012010BD0000000C01408A4205D273
:1032B000834201D89A4203D9012070478342F9D84A
:1032C00000207047F0B502F007060124B440002545
:1032D00090F882E0E7B2DDF814C02C46BEF1010F91
:1032E00001D83D4600D03C4622F007070268BCF1F9
:1032F000000F127C02FB07F2476B3A44114409D1DC
:1033000008785B1E2843604001F8010B13F0FF03AF
:10331000F6D1F0BD0A78761C2A436240A3F101037E
:103320000A7016F00706DBB206D06A06150E6206B2
:10333000140E002BEED1F0BD90F83A20114490F815
:103340008220012A03D800BF4FF00105F1D04FF0D1
:103350000104EEE70821017000487047A802002030
:1033600070B5054608782870487868708878A87025
:10337000C878E870087928714879687188790C46AE
:10338000A871E079E871207A2872607A6872A07A70
:10339000A872E07AE872207B2873607B6873A07B58
:1033A000A873E07BE873207C287411212046FFF786
:1033B00026FF688213212046FFF721FFA8821521EE
:1033C0002046FFF71CFFE88270BD2DE9F843064652
:1033D00090F8387090F83950006800244FF6FF7864
:1033E00090F81190316830462A460B7C716B04FBD3
:1033F00003FC1FFA8CFC08EACC0C6144009100210C
:1034000000F049F8641C6D1CE4B2EDB2BC4201D27C
:103410004D45E7D3BDE8F88370B590F838200368D0
:10342000D10080F83B10197C202900D31F21C9004E
:1034300080F83A1090F83940E106090E80F83C1007
:103440005D7CA618AE4201D92A1BD2B280F83D108D
:1034500001EBC20180F83E10F02180F83F10998AFC
:10346000F02901D880F83F10997D80F8401070BD98
:10347000FFF7D2BF002180F8411090F83F1080F88C
:10348000421090F83D1080F8431090F83E1080F8FC
:103490004410FFF7BCBB1CB58DF805108DF8062055
:1034A000049C8DF804300094012284686B460F213F
:1034B000A0471CBD30B484680023A44630BC1A4623
:1034C0000A21604730B484680023A44630BC1A4601
:1034D0001021604730B484680023A4460A4630BCFB
:1034E0000B2160472DE9F04115460E460446069F24
:1034F00000F00AF86761A660C4E903532046BDE8FE
:10350000F04100F013B80000002140F8081B064A03
:10351000026042608260C260C17681770161FF21F2
:10352000017780F8201070475938000830B484685B
:103530000023A44630BC1A4609216047080001D088
:103540000A2801D14FF6FF707047000070B51D4684
:10355000044618291BD004DC14290FD0172904D1E4
:1035600005E0192922D020290DD0002070BD4FF090
:10357000FF3329461148FDF70DFD15E0206849216C
:103580004278204600E04A2100F068F90CE020680B
:1035900049210278204600F061F92068002365691E
:1035A00082782C212046A847012070BD2068002386
:1035B0006569C2782C212046A847DFE73401002046
:1035C00013B50122046901AB1721A0471CBD30B41B
:1035D00004690023A4460A4630BC202160472DE937
:1035E000F0410546A1F114001F4616460C46062878
:1035F0001CD2DFE800F01203030E1212002128464D
:10360000FFF7E5FF31462846FFF7DAFF0120BDE866
:10361000F08101212846FFF7DAFF3B46324621467A
:103620002846D5F810C0BDE8F04160470020EEE71D
:1036300030B4C4680023A44630BC1A461921604740
:1036400030B4C4680023A4460A4630BC1621604743
:1036500030B4C4680023A4460A4630BC1521604734
:1036600030B4C4681346A4460A4630BC17216047EC
:10367000F8B50C464FEA000514F8011B182924D0B0
:103680000EDC152919D0162917D0172923D1207837
:103690008DF800006A4601212846FFF7E1FF0AE0A5
:1036A000192912D0FE2916D122788DF8002029215F
:1036B000284600F0D3F8641CDEE722788DF800205D
:1036C000EE6800232846B047F5E70023EE681A4667
:1036D0002846B047D0E7F8BD30B4C4680023A446FC
:1036E00030BC1A461821604770B50023456904466E
:1036F0001A462821A8470023E5681A4614212046C7
:10370000A84701224B21204600F0A8F82068292173
:103710000279204600F0A2F800224B21204600F05A
:103720009DF8206829210279204600F097F80122AF
:103730004B21204600F092F820682921427920464A
:10374000BDE8704000F08AB80160897C80F82210E2
:103750007047000070B50C46054600F019F890B9A6
:10376000092C0BD00A2C01D0002070BD2846FFF791
:10377000BBFF06492846FFF77BFF04E003492846C4
:10378000E431FFF7E1FF012070BD000008450008AB
:103790002DE9F0411E46144605460B2908D00D2997
:1037A0000ED00E291ED00F2927D00020BDE8F081B1
:1037B0001AB12849FFF75CFF4AE02649491FF9E79B
:1037C0004AB124490C31FFF753FF286890F81300E1
:1037D00085F822003CE01F49491DFFF749FF286892
:1037E000807CF5E7FFF778FF81212846FFF730FF5F
:1037F00021462846FFF724FF27E0FFF76DFF707989
:1038000095F8221001EBC000C7B240212846FFF70F
:103810001FFF102040EA17112846FFF719FF07F095
:103820000F012846FFF70CFFB07940F0B0012846A1
:10383000FFF706FF30793268C006010E2846FFF711
:103840000FFF641E14F0FF04F4D12846FFF7F0FECA
:103850000120ABE7F54400080020704730B444690C
:103860000023A44630BC6047002180F82610704732
:103870000000000000000000010203040607080920
:103880000000000001020304BF020402040401025C
:1038900005080D00FE09FE090001E6040E0C3C209F
:1038A00007D8C1CFE700210BD8C10FCAF53D208F43
:1038B00002220DD8C18F898422A1489E3300231390
:1038C000D8C18F8D842299C12692196C22A1481EDD
:1038D0000B2414D8C10F8A0D32895422364BA412FE
:1038E00099412C8F022514D8C18F2949443291580F
:1038F0002E56124A9464F218002613D8C14FA48A97
:10390000842229552411C984167908002709D8C1B1
:103910000FCAD57308280DD8C10FAB8BE50A73C148
:103920003C06290ED8C18F09E682B9B25C2C0F0380
:103930002A0ED8C18F89A44483912A9267052B0D42
:10394000D8C14F954B0D54B93C19002C09D8C1CFA3
:10395000F94A15072D09D8C1CF68A067052E09D8E7
:10396000C1CF83D82C0C2F0AD8C18F2BEBBB3C10B6
:103970003015D8C10F524532A14828128A8422A19D
:103980004C24A50701310ED8C10F8AA912B95E0DCA
:10399000F418003212D8C18F19644291502E9652F9
:1039A000C572833D043311D8C10F19EC6265C35C45
:1039B000249419E431003411D8C10F8BA912A14805
:1039C000A69BC12C97C7003512D8C10F194C721590
:1039D0001B4DAE249419E431003613D8C10F1AC51B
:1039E00072151B4D2414096506790C00370FD8C1D8
:1039F0000F19EC6275B15C2C9787013817D8C18F0D
:103A0000196442915024941964429150249419E409
:103A100031003913D8C18F196442915024A359E45D
:103A2000CA427B10003A0CD8C14F159BE581B159B1
:103A3000183B0CD8C14F159BE5712B551C3C0AD87F
:103A4000C18F8B75D83D043D0CD8C14F3BD8630660
:103A50007B1A003E0AD8C10F0976D63D0E3F11D819
:103A6000C18F19644291502E569707E441004017C8
:103A7000D8C18F1964429150243249442A12928A43
:103A8000487090C7004116D8C10F524532A148284E
:103A9000128A0C26A1482812CA43004215D8C10F29
:103AA00019843245914C6610CA14453299411E045E
:103AB000430FD8C18F196442915C8F32833C064416
:103AC00016D8C10F198432459150241409454291EA
:103AD0004C669007014510D8C10F194C7275835080
:103AE000AE6EB08700460ED8C10F194C7275835068
:103AF000AE3D0E4713D8C18F196442915C9349289B
:103B000092D12CF210004817D8C10F0945429150AC
:103B10002414194C429150241409E52100490DD870
:103B2000C10F19A8727D35D063004A0DD8C10F1A94
:103B3000A872BD29DA83004B14D8C10F094532257C
:103B4000A1444A9648454299A23C044C0BD8C10F67
:103B5000C9F5BBC11E024D16D8C18F482552098D2B
:103B6000A22715918A54229548E521004E17D8C105
:103B70000F094542114D24116911C9484291502441
:103B80009487004F17D8C18F1964429150241409AB
:103B900045429150249419E431005012D8C10F19B4
:103BA000684291502414196872ED71005117D8C100
:103BB0008F196442915024140945429144A44566EA
:103BC000104C025216D8C10F196842915024141992
:103BD0006812A94828539487005313D8C18F1964D9
:103BE00042915C7010CC454299411E03540CD8C1DF
:103BF0008F180C42B97E8F025517D8C10F09454264
:103C0000915024140945429150249419E4310056EE
:103C100013D8C18F482552914C8F12A9442A11CB39
:103C2000A3005717D8C18F4825528954229588542C
:103C3000442A22159D64F218005815D8C18F4825D2
:103C400052914C2811AB086522A9442A0F01591042
:103C5000D8C18F482552914C2811CB758F025A0E2E
:103C6000D8C10F19EC62BDCB0DF610005B0DD8C1A9
:103C70008F1984727D37C863005C0BD8C18FC8056B
:103C8000FB2E0F015D0CD8C10F19E4FAD1200F02F1
:103C90005E0CD8C10F8A2542993C67005F09D8C1E4
:103CA000CFEBC120096008D8C11BCCF3106111D83B
:103CB000C14F3C086606925024A359E421006213C8
:103CC000D8C10FC9B5D86822A14828A28924F618FE
:103CD00000630FD8C14F3CC88422B9A2CC208F0109
:103CE0006413D8C18F6BB3886424A1482892D12C67
:103CF000F210006511D8C14F3CC8842283492E942C
:103D000019E43100660ED8C10F1A65EA620351AE9C
:103D10003D0C6711D8C14FBC88641A8D82834C2832
:103D20003388006813D8C10FC9B5D86822A14828C4
:103D3000128A84F21000690CD8C10F8EEBBA1AE80F
:103D400031006A0BD8C10F8FEBBAE968036B10D84A
:103D5000C10FC9B52909AD22A14C511E026C0BD867
:103D6000C18FD1F5AB811E036D11D8C14FBA90B48C
:103D70008854442A2215A93C046E12D8C14F9BD8FE
:103D80006822A14828128A84F210006F12D8C14F0D
:103D90003CC88422A1482812CA0CF218007011D81D
:103DA000C14F9BD86822A1882692D8E4CA0071101E
:103DB000D8C14FBC886424A14846B3C8B500720C72
:103DC000D8C14F9B1865EADAC3007310D8C14F3CC5
:103DD000C88432424D2833C86300740ED8C18FCDD9
:103DE000C506A25C9BD01E03750CD8C14F9BE91F72
:103DF0002DF21000760ED8C14F9BE951229588E52F
:103E000051007711D8C14F9A4AA412918A48452788
:103E1000993C067810D8C14F1BCA4452325524131E
:103E2000CA43007913D8C14F1B8A8422A14846B3E4
:103E3000C845429941047A0CD8C14F3B987536D891
:103E400043007B0FD8C18F1AE58229612C17DC4310
:103E5000007C0AD8C10FCAF5F728007D0FD8C10F22
:103E600019E66241553017DAA3007E0DD8C18F895B
:103E7000641235913C7700A007D8C1CFE700A10BB1
:103E8000D8C10FCA03727D8F02A212D8C10F8A8DCA
:103E9000123589542295289AE5D100A310D8C10F74
:103EA0001A65CA66B9324D42B1C700A412D8C14FD3
:103EB00013CA0C4291502434C884F25000A514D87F
:103EC000C18F482552914C28111AA85203552E8FA4
:103ED00002A60CD8C10FCAB507E4DAA300A712D80E
:103EE000C1AB8A8482AA482892128622293D08A85A
:103EF0000AD8C11A0945F2BC03A911D8C13ACA446B
:103F00005AF44DA2276D427B3000AA0FD8C18F19F9
:103F1000860699A24176A02702AB13D8C10F8E6402
:103F200022994826928AA422A9481E0AAC0AD8C11E
:103F3000CF68B06B0F05AD09D8C1CF6A906705AEE9
:103F400011D8C13ACA445AF42F24894E32A13D18DF
:103F5000AF09D8C10F19EC7906B00DD8C10F524581
:103F60004291949E3900B10ED8C10FCEA506AA5C2D
:103F70007AA0C702B20DD8C1AA8AE452AADC20CF27
:103F80000CB30DD8C1AA8AC482A1484ACF0EB40886
:103F9000D8C11CCBF312B512D8C14F1B8A8422A101
:103FA000482862925044E200B617D8C18F194816CB
:103FB0009945661152A412A9442A914AE43100B7E6
:103FC00008D8C1CF4CCF0CB809D8C1CF27310D00CC
:103FD000B90AD8C11AD335DBB303BA0ED8C18F5191
:103FE000454291947A90A706BB13D8C18F8CA42226
:103FF000A9482A9289642299481E0DBC12D8C11979
:10400000D3354A4C54895024A488E92100BD11D8E5
:10401000C119D335910C22B9942A37C84300BE1474
:10402000D8C1A98AC482A148895522140929627A73
:104030000800BF11D8C10FCA0372B1BA5024941935
:10404000E43100C013D8C11B8CAB22995024141941
:104050004C4291501E02C114D8C11CCB0354914C48
:1040600028128A0C26A148280F01C214D8C1AB8A95
:10407000A455914C28128A0C26A148280F01C3147C
:10408000D8C12A2951AB2299502414194C4291507D
:104090001E02C415D8C11A0945D2AA4826140945DA
:1040A00006935024948700C515D8C1AB8AA464AA8E
:1040B000482614094506935024948700C617D8C192
:1040C0000F512C22A14828128A1C8422A148283290
:1040D000C84300C710D8C18F196442915C8F3283E6
:1040E000581100C811D8C11B0C0F26B9DC2094CB85
:1040F0000DF61000C911D8C11C4B0F26B9DC209455
:10410000CB0DF61000CA12D8C1AB8A6407935C6E5F
:1041100010CAE5067B0800CB12D8C11A0945B28344
:10412000492E3708E572833D04CC0ED8C11A4C0FD6
:1041300054B9AE067A0C00CD0ED8C11C4B0F54B941
:10414000AE067A0C00CE0ED8C1AB8A6407AA5C57C3
:10415000033D06CF0ED8C199693B50E5BA1AE83144
:1041600000D016D8C10F1984324591506213094509
:1041700042914C66900701D116D8C12929D1A612C7
:10418000A2444D22529149142952790800D214D8E0
:10419000C11A4C0F24A9442A914AA412A9C8408FDD
:1041A00001D314D8C11C4B0F24A9442A914AA4124C
:1041B000A9C8408F01D415D8C1AB8A640792542294
:1041C00095482552895464A0C700D515D8C129291E
:1041D000110F24A9442A914AA412A9C8408F01D6DC
:1041E00014D8C199693B90A412A9442A914AA422E7
:1041F000033D06D710D8C14F13CA44523255241379
:10420000CA4301D818D8C19E196432928A484524FD
:1042100011A9885444229ACC201307D914D8C11A62
:104220004C8722A14828128A8422A1CC208F01DA4F
:1042300014D8C11C4B8722A14828128A8422A1CC01
:10424000208F01DB15D8C1AB8A6443915024140937
:10425000454291506690C700DC16D8C11A0945B294
:10426000A14828128A8422A1482833C86300DD0EA1
:10427000D8C11C4B671A2562B9F62800DE13D8C1D5
:104280000FC90D34A14828128A0C34B97A1C00DFFA
:1042900014D8C18F19653A092552114D28128A2464
:1042A000F61800E012D8C10F0AA607C1CC40128A46
:1042B00064348B3C04E112D8C10FAB1E04330349B4
:1042C0002892D12CF21000E213D8C10F5245C283BC
:1042D0006066200945329A451E02E313D8C18F91CA
:1042E000948807C1CC40128A64348B3C04E414D80F
:1042F000C18F898422E141303390842219CD220F6D
:1043000001E513D8C1AB8AA4D48360662009453285
:104310009A451E02E611D8C14FAB504522034951C0
:10432000A444A1C700E70FD8C14F3CC88422B9A25A
:10433000CC205604E812D8C10F0AA6079950643061
:10434000C98532833C06E912D8C18F8AC5079950C6
:104350006430C98532833C06EA13D8C10F5245C286
:10436000834C283298E44299411E03EB14D8C18F44
:10437000898422E1412614194C72A1CC208F01ECD2
:104380000DD8C18F09C6755D0DF41800ED0ED8C1AA
:104390000F8AE501BAAE067A0C00EE0ED8C18F5135
:1043A00045D2BAAE067A0C00EF0ED8C10F298AA406
:1043B000755D0DF41800F016D8C11A49A912C1D0C4
:1043C00020138A8422A1482833C86300F114D8C17D
:1043D0008F919468131B4D241409454291501E027D
:1043E000F213D8C18F09C607995024140945429980
:1043F000411E03F313D8C18F8AC5079950241409AD
:10440000454299411E03F414D8C10F5245C2834C52
:1044100028128A8422A1CC208F01F514D8C18F9153
:104420009488079950241409454299411E03F615B2
:10443000D8C18F898422E1412614094542915066F2
:1044400090C700F70CD8C10FCEA507EA5C1E0DF887
:1044500014D8C14F98196432928A482212D1640646
:10446000993800F90DD8C18F09A633FDA3451E0266
:10447000FA0DD8C18F8AA533FDA3451E02FB0ED8C5
:10448000C10F5245B299FED1220F01FC0FD8C18F46
:1044900049A412E14CFF68918700FD15D8C18F8AAD
:1044A000A54391502414C96816B94828338800FEE2
:1044B00013D8C10FCD556C3491502414D144129BA4
:1044C0005C0CFF17D8C18F898422D9502414094568
:1044D000329A452E12CA0C220000000004FFFF0091
:1044E000000000007134000875340008272F000810
:1044F0001815AF19FF1815AE19FF1815A115C81911
:10450000FF1815A015C019FF1815AE15D516801582
:10451000A8163F15D316001540158D161415201634
:104520000015A115C815DA1612158116CF15D91662
:10453000F115DB1640152E15A415A619FF1815AE9A
:1045400015D5168015A8163F15D316001540158DE4
:1045500016141520160015A115C815DA16121581A6
:1045600016EF15D916A115DB1600152E15A415A6E4
:1045700019FF1815AE15D5168015A8163F15D316B8
:10458000001540158D16141520160015A115C81517
:10459000DA1602158116CF15D916F115DB1640155E
:1045A0002E15A415A619FF1815AE15A415D516506D
:1045B00015A8163F15D31600154015AD168B15D945
:1045C000162215DB16351532158116FF15A615DADC
:1045D000161219FF0001140A6464323200127A00C4
:1045E0000004289610080000800040000001140A12
:1045F0006464323200093D00030428961008020268
:104600008000400024460008000000201C0000003C
:10461000B81F0008404600081C0000208C0A00005B
:10462000C81F000800000000010000020001010096
:104630000100000010000000000000000024F40051
:04000005080000ED02
:00000001FF
